{"bytecode":"608060405260016005553480156200001657600080fd5b50620000223362000135565b6200002c62000185565b60088054733a56ae4a2831c3d3514b5d7af5578e45ebdb7a406001600160a01b0319918216179091557f326538633662363866663036346433326166396231303139643564353962616460095567016345785d8a0000600a55600f8054602a6016556001600160a81b0319163060ff60a01b19161790556000601181905560158054831690556040805160a0810182528281526020810183905290810182905260608101829052608001819052601280546001600160b01b03191690556013819055601481905560188054738a753747a1fa494ec906ce90e9f37563a8af630e9316929092179091556802b5e3af16b1880000601955600755600b805460ff1916905562000258565b600080546001600160a01b038381166001600160a01b0319831681178455604051919092169283917f8be0079c531659141344cd1fd0a4f28419497f9722a3daafe3b4186f6b6457e09190a35050565b6200022473c89bd4e1632d3a43cb03aaad5262cbe4038bc5716001600160a01b03166338cc48316040518163ffffffff1660e01b8152600401602060405180830381865afa158015620001dc573d6000803e3d6000fd5b505050506040513d601f19601f8201168201806040525081019062000202919062000226565b600380546001600160a01b0319166001600160a01b0392909216919091179055565b565b6000602082840312156200023957600080fd5b81516001600160a01b03811681146200025157600080fd5b9392505050565b61240780620002686000396000f3fe6080604052600436106101c25760003560e01c80638da5cb5b116100f7578063c5ef3ec511610095578063eedee56211610064578063eedee5621461054a578063f2fde38b14610578578063f3a8286f14610598578063f6b4dfb4146105ad57600080fd5b8063c5ef3ec5146104cf578063caa02e0814610504578063dd151ec71461051a578063e95ce6be1461053057600080fd5b80639c35d98b116100d15780639c35d98b146103e2578063a5e30f5714610402578063a87430ba14610450578063a8ba022b146104ba57600080fd5b80638da5cb5b146103825780638e15f473146103a05780639201de55146103b557600080fd5b8063430468441161016457806365ff13291161013e57806365ff132914610316578063715018a614610336578063883032e81461034b57806388ab139a1461036c57600080fd5b806343046844146102955780635bb02e01146102a85780636103d915146102c857600080fd5b80630eabaa5e116101a05780630eabaa5e1461022657806310d1c4c31461023c5780631356ea651461025e578063401760581461028057600080fd5b8063042f2b65146101c75780630737c24b146101e957806309bc33a714610211575b600080fd5b3480156101d357600080fd5b506101e76101e2366004611d2d565b6105cd565b005b3480156101f557600080fd5b506101fe610658565b6040519081526020015b60405180910390f35b34801561021d57600080fd5b506101fe610685565b34801561023257600080fd5b506101fe60165481565b34801561024857600080fd5b50604051635bb02e0160e01b8152602001610208565b34801561026a57600080fd5b50610273610745565b6040516102089190611d79565b34801561028c57600080fd5b506101e76107fb565b6101e76102a3366004611dc4565b610875565b3480156102b457600080fd5b506101e76102c3366004611d2d565b610ac8565b3480156102d457600080fd5b506102fe6102e3366004611de7565b6010602052600090815260409020546001600160a01b031681565b6040516001600160a01b039091168152602001610208565b34801561032257600080fd5b506101fe610331366004611e1c565b610bc7565b34801561034257600080fd5b506101e7610c92565b34801561035757600080fd5b50600b5460ff165b6040516102089190611e60565b34801561037857600080fd5b506101fe60195481565b34801561038e57600080fd5b506000546001600160a01b03166102fe565b3480156103ac57600080fd5b506101fe610ca6565b3480156103c157600080fd5b506103d56103d0366004611de7565b610d35565b6040516102089190611ec7565b3480156103ee57600080fd5b506102fe6103fd366004611de7565b610e6c565b34801561040e57600080fd5b5061043d61041d366004611ef0565b8051602081830181018051600c8252928201919093012091525460000b81565b60405160009190910b8152602001610208565b34801561045c57600080fd5b506104a961046b366004611fa1565b600e602052600090815260409020805460018201546002909201546001600160a01b0382169260ff600160a01b8404811693600160a81b9004169185565b604051610208959493929190611fbc565b3480156104c657600080fd5b506101e7610e96565b3480156104db57600080fd5b506104ef6104ea366004611ef0565b610eb2565b60408051928352901515602083015201610208565b34801561051057600080fd5b506101fe60115481565b34801561052657600080fd5b506101fe60075481565b34801561053c57600080fd5b50600b5461035f9060ff1681565b34801561055657600080fd5b50600f5461056b90600160a01b900460ff1681565b6040516102089190611ff5565b34801561058457600080fd5b506101e7610593366004611fa1565b610fb1565b3480156105a457600080fd5b506101e7611027565b3480156105b957600080fd5b50600f546102fe906001600160a01b031681565b60008281526006602052604090205482906001600160a01b0316331461060e5760405162461bcd60e51b815260040161060590612003565b60405180910390fd5b60008181526006602052604080822080546001600160a01b03191690555182917f7cc135e0cebb02c3480ae5d74d377283180a2601f8f644edf7987b009316c63a91a25060075550565b600f54600090606490610676906001600160a01b0316316063612061565b6106809190612096565b905090565b600080601860009054906101000a90046001600160a01b03166001600160a01b031663feaf968c6040518163ffffffff1660e01b815260040160a060405180830381865afa1580156106db573d6000803e3d6000fd5b505050506040513d601f19601f820116820180604052508101906106ff91906120c4565b5050509150506000816402540be4006107189190612061565b9050600081601954670de0b6b3a76400006107339190612061565b61073d9190612096565b949350505050565b6040805160a081018252600080825260208201819052918101829052606081018290526080810191909152336000908152600e6020908152604091829020825160a0810190935280546001600160a01b03811684529091830190600160a01b900460ff1660098111156107ba576107ba611d4f565b60098111156107cb576107cb611d4f565b81528154600160a81b900460ff161515602082015260018201546040820152600290910154606090910152919050565b61080361104c565b6001600b5460ff16600281111561081c5761081c611d4f565b146108695760405162461bcd60e51b815260206004820152601e60248201527f43616e27742073746172742061206e6577206c6f7474657279207965742100006044820152606401610605565b600b805460ff19169055565b336000908152600e6020526040902054600160a81b900460ff16156108d45760405162461bcd60e51b8152602060048201526015602482015274557365722068617320616c7265616479206265742160581b6044820152606401610605565b6108dc610685565b3410156109375760405162461bcd60e51b815260206004820152602360248201527f446f6e27742062652063686561702120243530206f72206d6f726520696e204560448201526254482160e81b6064820152608401610605565b6000600b5460ff16600281111561095057610950611d4f565b146109935760405162461bcd60e51b8152602060048201526013602482015272506f6c6c732061726520636c6f736564203a2f60681b6044820152606401610605565b6040805160a08101909152338152600090602081016109b3846001612114565b60ff1660098111156109c7576109c7611d4f565b60098111156109d8576109d8611d4f565b8152600160208083018290523460408085019190915260006060909401849052600d805493840190557fd7b6990105719101dabeb77144f2a3385c8033acd3af97e9423a695e81ad1eb590920180546001600160a01b031990811633908117909255908452600e825291909220835181546001600160a01b0391909116928116831782559284015193945084939092909183916001600160a81b03191617600160a01b836009811115610a8d57610a8d611d4f565b021790555060408201518154901515600160a81b0260ff60a81b19909116178155606082015160018201556080909101516002909101555050565b60008281526006602052604090205482906001600160a01b03163314610b005760405162461bcd60e51b815260040161060590612003565b60008181526006602052604080822080546001600160a01b03191690555182917f7cc135e0cebb02c3480ae5d74d377283180a2601f8f644edf7987b009316c63a91a26007829055610b546104ea83610d35565b506016818155600191600090610b6b908490612139565b90915550506016547f2f2ec9b308c77557be0ca886a9fd58ffc8bdc94f0978011757a7417e90c4a4c7610ba66000546001600160a01b031690565b6040516001600160a01b0390911681526020015b60405180910390a2505050565b600080610bd760095485856110a6565b9050610c196040518060400160405280600381526020016219d95d60ea1b81525060405180608001604052806043815260200161238f604391398391906110cb565b610c6d604051806040016040528060048152602001630e0c2e8d60e31b8152506040518060400160405280600b81526020016a0e4cac2d8dabed2dcc8caf60ab1b815250836110cb9092919063ffffffff16565b600854600a54610c88916001600160a01b03169083906110ee565b9150505b92915050565b610c9a61104c565b610ca46000611181565b565b600080600080600080601860009054906101000a90046001600160a01b03166001600160a01b031663feaf968c6040518163ffffffff1660e01b815260040160a060405180830381865afa158015610d02573d6000803e3d6000fd5b505050506040513d601f19601f82011682018060405250810190610d2691906120c4565b50919998505050505050505050565b606060005b60208160ff16108015610d6e5750828160ff1660208110610d5d57610d5d612151565b1a60f81b6001600160f81b03191615155b15610d855780610d7d81612167565b915050610d3a565b60008160ff1667ffffffffffffffff811115610da357610da3611eda565b6040519080825280601f01601f191660200182016040528015610dcd576020820181803683370190505b509050600091505b60208260ff16108015610e095750838260ff1660208110610df857610df8612151565b1a60f81b6001600160f81b03191615155b15610e6557838260ff1660208110610e2357610e23612151565b1a60f81b818360ff1681518110610e3c57610e3c612151565b60200101906001600160f81b031916908160001a90535081610e5d81612167565b925050610dd5565b9392505050565b600d8181548110610e7c57600080fd5b6000918252602090912001546001600160a01b0316905081565b610e9e61104c565b610eaf30635bb02e0160e01b610bc7565b50565b60008060005b8351811015610fa65760006030858381518110610ed757610ed7612151565b0160200151610ee9919060f81c612186565b60ff161080610f20575060096030858381518110610f0957610f09612151565b0160200151610f1b919060f81c612186565b60ff16115b15610f315750600093849350915050565b6001818551610f4091906121a9565b610f4a91906121a9565b610f5590600a6122a4565b6030858381518110610f6957610f69612151565b0160200151610f7b919060f81c612186565b60ff16610f889190612061565b610f929084612139565b925080610f9e816122b0565b915050610eb8565b509092600192509050565b610fb961104c565b6001600160a01b03811661101e5760405162461bcd60e51b815260206004820152602660248201527f4f776e61626c653a206e6577206f776e657220697320746865207a65726f206160448201526564647265737360d01b6064820152608401610605565b610eaf81611181565b61102f61104c565b600b805460ff191660021790556110446111d1565b610ca46112e7565b6000546001600160a01b03163314610ca45760405162461bcd60e51b815260206004820181905260248201527f4f776e61626c653a2063616c6c6572206973206e6f7420746865206f776e65726044820152606401610605565b6110ae611cc0565b6110b6611cc0565b6110c28186868661142a565b95945050505050565b60808301516110da9083611467565b60808301516110e99082611467565b505050565b6005546000906110ff816001612139565b600555835160408086015160808701515191516000936320214ca360e11b936111379386938493923092918a916001916024016122c9565b60408051601f198184030181529190526020810180516001600160e01b03166001600160e01b03199093169290921790915290506111778683868461147e565b9695505050505050565b600080546001600160a01b038381166001600160a01b0319831681178455604051919092169283917f8be0079c531659141344cd1fd0a4f28419497f9722a3daafe3b4186f6b6457e09190a35050565b6111d96115dc565b6000601154116112235760405162461bcd60e51b8152602060048201526015602482015274139bc81dda5b9b995c9cc81d1a1a5cc81c9bdd5b99605a1b6044820152606401610605565b600061122d610658565b905060005b6011548110156112b4576000818152601060209081526040808320546001600160a01b03168352600e909152812060020154606490611272908590612061565b61127c9190612096565b6000838152601060205260409020549091506112a1906001600160a01b0316826117d7565b50806112ac816122b0565b915050611232565b506112d06112ca6000546001600160a01b031690565b476117d7565b600b80546001919060ff191682805b021790555050565b60005b60115481101561133457601554600082815260106020526040902080546001600160a01b0319166001600160a01b039092169190911790558061132c816122b0565b9150506112ea565b50600060118190555b600d5481101561141d576012600e6000600d848154811061136057611360612151565b6000918252602080832091909101546001600160a01b03908116845290830193909352604090910190208254815492166001600160a01b031983168117825583549192600160a01b9283900460ff169284926001600160a81b0319909216909117908360098111156113d4576113d4611d4f565b02179055508154815460ff60a81b1916600160a81b9182900460ff1615159091021781556001808301549082015560029182015491015580611415816122b0565b91505061133d565b50610ca4600d6000611cfb565b611432611cc0565b61144285608001516101006118ac565b50509183526001600160a01b031660208301526001600160e01b031916604082015290565b6114748260038351611911565b6110e98282611a26565b6040516bffffffffffffffffffffffff193060601b1660208201526034810184905260009060540160408051808303601f1901815282825280516020918201206000818152600690925291812080546001600160a01b0319166001600160a01b038a1617905590925082917fb5e6e01e79f91267dc17b4e6314d5d4d03593d2ceee0fbb452b750bd70ea5af99190a2600354604051630200057560e51b81526001600160a01b0390911690634000aea09061154190889087908790600401612331565b6020604051808303816000875af1158015611560573d6000803e3d6000fd5b505050506040513d601f19601f820116820180604052508101906115849190612358565b61073d5760405162461bcd60e51b815260206004820152602360248201527f756e61626c6520746f207472616e73666572416e6443616c6c20746f206f7261604482015262636c6560e81b6064820152608401610605565b600060118190556016546115ef90611a4d565b60005b600d5481101561174c57600f54600160a01b900460ff16600981111561161a5761161a611d4f565b600e6000600d848154811061163157611631612151565b60009182526020808320909101546001600160a01b0316835282019290925260400190205460ff600160a01b90910416600981111561167257611672611d4f565b0361173a57600e6000600d838154811061168e5761168e612151565b60009182526020808320909101546001600160a01b031683528201929092526040019020600101546116c09083612139565b9150600e6000600d83815481106116d9576116d9612151565b60009182526020808320909101546001600160a01b039081168452838201949094526040928301822054601180548452601090925292822080546001600160a01b0319169390941692909217909255805491611734836122b0565b91905055505b80611744816122b0565b9150506115f2565b5060005b6011548110156117d3576000818152601060209081526040808320546001600160a01b03168352600e909152902060010154829061178f906064612061565b6117999190612096565b6000828152601060209081526040808320546001600160a01b03168352600e909152902060020155806117cb816122b0565b915050611750565b5050565b6000826001600160a01b03168260405160006040518083038185875af1925050503d8060008114611824576040519150601f19603f3d011682016040523d82523d6000602084013e611829565b606091505b50509050806118715760405162461bcd60e51b81526020600482015260146024820152732330b4b632b2103a37903830bc903bb4b73732b960611b6044820152606401610605565b826001600160a01b03167f2897e467188c1ebbd157f72e82b2059710aea0df2ba4b6075e47e305087bbffe83604051610bba91815260200190565b6040805180820190915260608152600060208201526118cc60208361237a565b156118f4576118dc60208361237a565b6118e79060206121a9565b6118f19083612139565b91505b506020828101829052604080518085526000815290920101905290565b60178167ffffffffffffffff161161193c576119368360e0600585901b168317611a81565b50505050565b60ff8167ffffffffffffffff161161197a57611963836018611fe0600586901b1617611a81565b506119368367ffffffffffffffff83166001611aa6565b61ffff8167ffffffffffffffff16116119b9576119a2836019611fe0600586901b1617611a81565b506119368367ffffffffffffffff83166002611aa6565b63ffffffff8167ffffffffffffffff16116119fa576119e383601a611fe0600586901b1617611a81565b506119368367ffffffffffffffff83166004611aa6565b611a0f83601b611fe0600586901b1617611a81565b506119368367ffffffffffffffff83166008611aa6565b604080518082019091526060815260006020820152610e6583846000015151848551611acc565b806009811115611a5f57611a5f611d4f565b600f805460ff60a01b1916600160a01b8360098111156112df576112df611d4f565b604080518082019091526060815260006020820152610e658384600001515184611bb6565b60408051808201909152606081526000602082015261073d848560000151518585611c11565b6040805180820190915260608152600060208201528251821115611aef57600080fd5b6020850151611afe8386612139565b1115611b3157611b3185611b2187602001518786611b1c9190612139565b611c92565b611b2c906002612061565b611ca9565b600080865180518760208301019350808887011115611b505787860182525b505050602084015b60208410611b905780518252611b6f602083612139565b9150611b7c602082612139565b9050611b896020856121a9565b9350611b58565b51815160001960208690036101000a019081169019919091161790525083949350505050565b60408051808201909152606081526000602082015283602001518310611beb57611beb8485602001516002611b2c9190612061565b8351805160208583010184815350808503611c07576001810182525b5093949350505050565b6040805180820190915260608152600060208201526020850151611c358584612139565b1115611c4957611c4985611b218685612139565b60006001611c59846101006122a4565b611c6391906121a9565b9050855183868201018583198251161781525080518487011115611c875783860181525b509495945050505050565b600081831115611ca3575081610c8c565b50919050565b8151611cb583836118ac565b506119368382611a26565b6040805160a0810182526000808252602080830182905282840182905260608084018390528451808601909552845283015290608082015290565b5080546000825590600052602060002090810190610eaf91905b80821115611d295760008155600101611d15565b5090565b60008060408385031215611d4057600080fd5b50508035926020909101359150565b634e487b7160e01b600052602160045260246000fd5b600a8110611d7557611d75611d4f565b9052565b81516001600160a01b0316815260208083015160a0830191611d9d90840182611d65565b50604083015115156040830152606083015160608301526080830151608083015292915050565b600060208284031215611dd657600080fd5b813560ff81168114610e6557600080fd5b600060208284031215611df957600080fd5b5035919050565b80356001600160a01b0381168114611e1757600080fd5b919050565b60008060408385031215611e2f57600080fd5b611e3883611e00565b915060208301356001600160e01b031981168114611e5557600080fd5b809150509250929050565b6020810160038310611e7457611e74611d4f565b91905290565b6000815180845260005b81811015611ea057602081850181015186830182015201611e84565b81811115611eb2576000602083870101525b50601f01601f19169290920160200192915050565b602081526000610e656020830184611e7a565b634e487b7160e01b600052604160045260246000fd5b600060208284031215611f0257600080fd5b813567ffffffffffffffff80821115611f1a57600080fd5b818401915084601f830112611f2e57600080fd5b813581811115611f4057611f40611eda565b604051601f8201601f19908116603f01168101908382118183101715611f6857611f68611eda565b81604052828152876020848701011115611f8157600080fd5b826020860160208301376000928101602001929092525095945050505050565b600060208284031215611fb357600080fd5b610e6582611e00565b6001600160a01b038616815260a08101611fd96020830187611d65565b9315156040820152606081019290925260809091015292915050565b60208101610c8c8284611d65565b60208082526028908201527f536f75726365206d75737420626520746865206f7261636c65206f6620746865604082015267081c995c5d595cdd60c21b606082015260800190565b634e487b7160e01b600052601160045260246000fd5b600081600019048311821515161561207b5761207b61204b565b500290565b634e487b7160e01b600052601260045260246000fd5b6000826120a5576120a5612080565b500490565b805169ffffffffffffffffffff81168114611e1757600080fd5b600080600080600060a086880312156120dc57600080fd5b6120e5866120aa565b9450602086015193506040860151925060608601519150612108608087016120aa565b90509295509295909350565b600060ff821660ff84168060ff038211156121315761213161204b565b019392505050565b6000821982111561214c5761214c61204b565b500190565b634e487b7160e01b600052603260045260246000fd5b600060ff821660ff810361217d5761217d61204b565b60010192915050565b600060ff821660ff8416808210156121a0576121a061204b565b90039392505050565b6000828210156121bb576121bb61204b565b500390565b600181815b808511156121fb5781600019048211156121e1576121e161204b565b808516156121ee57918102915b93841c93908002906121c5565b509250929050565b60008261221257506001610c8c565b8161221f57506000610c8c565b8160018114612235576002811461223f5761225b565b6001915050610c8c565b60ff8411156122505761225061204b565b50506001821b610c8c565b5060208310610133831016604e8410600b841016171561227e575081810a610c8c565b61228883836121c0565b806000190482111561229c5761229c61204b565b029392505050565b6000610e658383612203565b6000600182016122c2576122c261204b565b5060010190565b6001600160a01b0389811682526020820189905260408201889052861660608201526001600160e01b03198516608082015260a0810184905260c0810183905261010060e0820181905260009061232283820185611e7a565b9b9a5050505050505050505050565b60018060a01b03841681528260208201526060604082015260006110c26060830184611e7a565b60006020828403121561236a57600080fd5b81518015158114610e6557600080fd5b60008261238957612389612080565b50069056fe68747470733a2f2f6665682d726573706c656e64656e742e6865726f6b756170702e636f6d2f636861726163746572732f6c61746573743f666f726d61743d6a736f6ea26469706673582212207602e9f6a0287e9f85b89f14b7b9e1fea70624afacd562dae77d77039516290e64736f6c634300080d0033","bytecodeSha1":"15eddd1402888594d4ef21ef5ee03ffdf46574ac","type":"contract","abi":[{"inputs":[],"stateMutability":"nonpayable","type":"constructor","name":"constructor"},{"anonymous":false,"inputs":[{"indexed":true,"internalType":"bytes32","name":"id","type":"bytes32"}],"name":"ChainlinkCancelled","type":"event"},{"anonymous":false,"inputs":[{"indexed":true,"internalType":"bytes32","name":"id","type":"bytes32"}],"name":"ChainlinkFulfilled","type":"event"},{"anonymous":false,"inputs":[{"indexed":true,"internalType":"bytes32","name":"id","type":"bytes32"}],"name":"ChainlinkRequested","type":"event"},{"anonymous":false,"inputs":[{"indexed":true,"internalType":"address","name":"previousOwner","type":"address"},{"indexed":true,"internalType":"address","name":"newOwner","type":"address"}],"name":"OwnershipTransferred","type":"event"},{"anonymous":false,"inputs":[{"indexed":true,"internalType":"address","name":"winner","type":"address"},{"indexed":false,"internalType":"uint256","name":"amount","type":"uint256"}],"name":"WinnerPayed","type":"event"},{"anonymous":false,"inputs":[{"indexed":true,"internalType":"uint256","name":"new_resplendent","type":"uint256"},{"indexed":false,"internalType":"address","name":"sender","type":"address"}],"name":"api_data_received","type":"event"},{"inputs":[{"internalType":"uint256","name":"","type":"uint256"}],"name":"Voters","outputs":[{"internalType":"address","name":"","type":"address"}],"stateMutability":"view","type":"function"},{"inputs":[{"internalType":"uint256","name":"","type":"uint256"}],"name":"Winners","outputs":[{"internalType":"address","name":"","type":"address"}],"stateMutability":"view","type":"function"},{"inputs":[],"name":"api_data","outputs":[{"internalType":"bytes32","name":"","type":"bytes32"}],"stateMutability":"view","type":"function"},{"inputs":[{"internalType":"bytes32","name":"_bytes32","type":"bytes32"}],"name":"bytes32ToString","outputs":[{"internalType":"string","name":"","type":"string"}],"stateMutability":"pure","type":"function"},{"inputs":[],"name":"contractAddress","outputs":[{"internalType":"address payable","name":"","type":"address"}],"stateMutability":"view","type":"function"},{"inputs":[],"name":"finalResult","outputs":[],"stateMutability":"nonpayable","type":"function"},{"inputs":[],"name":"finalResultIs","outputs":[{"internalType":"enum Betting.Bet","name":"","type":"uint8"}],"stateMutability":"view","type":"function"},{"inputs":[{"internalType":"bytes32","name":"_requestId","type":"bytes32"},{"internalType":"bytes32","name":"_api_data","type":"bytes32"}],"name":"fulfill","outputs":[],"stateMutability":"nonpayable","type":"function"},{"inputs":[{"internalType":"bytes32","name":"_requestId","type":"bytes32"},{"internalType":"bytes32","name":"_api_data","type":"bytes32"}],"name":"fulfillResplendentValue","outputs":[],"stateMutability":"nonpayable","type":"function"},{"inputs":[],"name":"getEntranceFee","outputs":[{"internalType":"uint256","name":"","type":"uint256"}],"stateMutability":"view","type":"function"},{"inputs":[],"name":"getFunctionSelector","outputs":[{"internalType":"bytes4","name":"","type":"bytes4"}],"stateMutability":"pure","type":"function"},{"inputs":[],"name":"getLatestPrice","outputs":[{"internalType":"int256","name":"","type":"int256"}],"stateMutability":"view","type":"function"},{"inputs":[],"name":"getPollStatus","outputs":[{"internalType":"enum Betting.POLL_STATE","name":"","type":"uint8"}],"stateMutability":"view","type":"function"},{"inputs":[],"name":"getPrizeMoney","outputs":[{"internalType":"uint256","name":"","type":"uint256"}],"stateMutability":"view","type":"function"},{"inputs":[],"name":"getUserStructData","outputs":[{"components":[{"internalType":"address","name":"id","type":"address"},{"internalType":"enum Betting.Bet","name":"bet","type":"uint8"},{"internalType":"bool","name":"hasBet","type":"bool"},{"internalType":"uint256","name":"amountBet","type":"uint256"},{"internalType":"uint256","name":"winningPercentage","type":"uint256"}],"internalType":"struct Betting.User","name":"","type":"tuple"}],"stateMutability":"view","type":"function"},{"inputs":[],"name":"openPoll","outputs":[],"stateMutability":"nonpayable","type":"function"},{"inputs":[],"name":"owner","outputs":[{"internalType":"address","name":"","type":"address"}],"stateMutability":"view","type":"function"},{"inputs":[{"internalType":"uint8","name":"_bet","type":"uint8"}],"name":"placeBet","outputs":[],"stateMutability":"payable","type":"function"},{"inputs":[],"name":"poll_state","outputs":[{"internalType":"enum Betting.POLL_STATE","name":"","type":"uint8"}],"stateMutability":"view","type":"function"},{"inputs":[],"name":"renounceOwnership","outputs":[],"stateMutability":"nonpayable","type":"function"},{"inputs":[{"internalType":"address","name":"callBackContract","type":"address"},{"internalType":"bytes4","name":"functionSelector","type":"bytes4"}],"name":"requestData","outputs":[{"internalType":"bytes32","name":"requestId","type":"bytes32"}],"stateMutability":"nonpayable","type":"function"},{"inputs":[],"name":"requestResplendentValue","outputs":[],"stateMutability":"nonpayable","type":"function"},{"inputs":[],"name":"resplendent","outputs":[{"internalType":"uint256","name":"","type":"uint256"}],"stateMutability":"view","type":"function"},{"inputs":[{"internalType":"string","name":"","type":"string"}],"name":"resplendentThemes","outputs":[{"internalType":"int8","name":"","type":"int8"}],"stateMutability":"view","type":"function"},{"inputs":[{"internalType":"string","name":"_str","type":"string"}],"name":"strToUint","outputs":[{"internalType":"uint256","name":"res","type":"uint256"},{"internalType":"bool","name":"err","type":"bool"}],"stateMutability":"pure","type":"function"},{"inputs":[{"internalType":"address","name":"newOwner","type":"address"}],"name":"transferOwnership","outputs":[],"stateMutability":"nonpayable","type":"function"},{"inputs":[],"name":"usdEntryFee","outputs":[{"internalType":"uint256","name":"","type":"uint256"}],"stateMutability":"view","type":"function"},{"inputs":[{"internalType":"address","name":"","type":"address"}],"name":"users","outputs":[{"internalType":"address","name":"id","type":"address"},{"internalType":"enum Betting.Bet","name":"bet","type":"uint8"},{"internalType":"bool","name":"hasBet","type":"bool"},{"internalType":"uint256","name":"amountBet","type":"uint256"},{"internalType":"uint256","name":"winningPercentage","type":"uint256"}],"stateMutability":"view","type":"function"},{"inputs":[],"name":"winnerCount","outputs":[{"internalType":"uint256","name":"","type":"uint256"}],"stateMutability":"view","type":"function"}],"compiler":{"version":"0.8.13+commit.abaa5c0e","evm_version":"istanbul","optimizer":{"enabled":true,"runs":200}},"contractName":"Betting","language":"Solidity","natspec":{"methods":{"owner()":{"details":"Returns the address of the current owner."},"renounceOwnership()":{"details":"Leaves the contract without owner. It will not be possible to call `onlyOwner` functions anymore. Can only be called by the current owner. NOTE: Renouncing ownership will leave the contract without an owner, thereby removing any functionality that is only available to the owner."},"transferOwnership(address)":{"details":"Transfers ownership of the contract to a new account (`newOwner`). Can only be called by the current owner."},"requestData(address,bytes4)":{"notice":"Create a Chainlink request to retrieve API response, find the target data, then multiply by 1000000000000000000 (to remove decimal places from data)."},"constructor":{"notice":"Network: Kovan Aggregator: ETH/USD Address: 0x9326BFA02ADD2366b30bacB125260Af641031331 Network: Rinkeby Aggregator: ETH/USD Address: 0x8A753747A1Fa494EC906cE90E9f37563A8AF630e"},"fulfill(bytes32,bytes32)":{"notice":"Receive the response in the form of uint256"},"getLatestPrice()":{"notice":"Returns the latest price"}},"kind":"dev","version":1},"opcodes":"PUSH1 0x80 PUSH1 0x40 MSTORE PUSH1 0x4 CALLDATASIZE LT PUSH2 0x1C2 JUMPI PUSH1 0x0 CALLDATALOAD PUSH1 0xE0 SHR DUP1 PUSH4 0x8DA5CB5B GT PUSH2 0xF7 JUMPI DUP1 PUSH4 0xC5EF3EC5 GT PUSH2 0x95 JUMPI DUP1 PUSH4 0xEEDEE562 GT PUSH2 0x64 JUMPI DUP1 PUSH4 0xEEDEE562 EQ PUSH2 0x54A JUMPI DUP1 PUSH4 0xF2FDE38B EQ PUSH2 0x578 JUMPI DUP1 PUSH4 0xF3A8286F EQ PUSH2 0x598 JUMPI DUP1 PUSH4 0xF6B4DFB4 EQ PUSH2 0x5AD JUMPI PUSH1 0x0 DUP1 REVERT JUMPDEST DUP1 PUSH4 0xC5EF3EC5 EQ PUSH2 0x4CF JUMPI DUP1 PUSH4 0xCAA02E08 EQ PUSH2 0x504 JUMPI DUP1 PUSH4 0xDD151EC7 EQ PUSH2 0x51A JUMPI DUP1 PUSH4 0xE95CE6BE EQ PUSH2 0x530 JUMPI PUSH1 0x0 DUP1 REVERT JUMPDEST DUP1 PUSH4 0x9C35D98B GT PUSH2 0xD1 JUMPI DUP1 PUSH4 0x9C35D98B EQ PUSH2 0x3E2 JUMPI DUP1 PUSH4 0xA5E30F57 EQ PUSH2 0x402 JUMPI DUP1 PUSH4 0xA87430BA EQ PUSH2 0x450 JUMPI DUP1 PUSH4 0xA8BA022B EQ PUSH2 0x4BA JUMPI PUSH1 0x0 DUP1 REVERT JUMPDEST DUP1 PUSH4 0x8DA5CB5B EQ PUSH2 0x382 JUMPI DUP1 PUSH4 0x8E15F473 EQ PUSH2 0x3A0 JUMPI DUP1 PUSH4 0x9201DE55 EQ PUSH2 0x3B5 JUMPI PUSH1 0x0 DUP1 REVERT JUMPDEST DUP1 PUSH4 0x43046844 GT PUSH2 0x164 JUMPI DUP1 PUSH4 0x65FF1329 GT PUSH2 0x13E JUMPI DUP1 PUSH4 0x65FF1329 EQ PUSH2 0x316 JUMPI DUP1 PUSH4 0x715018A6 EQ PUSH2 0x336 JUMPI DUP1 PUSH4 0x883032E8 EQ PUSH2 0x34B JUMPI DUP1 PUSH4 0x88AB139A EQ PUSH2 0x36C JUMPI PUSH1 0x0 DUP1 REVERT JUMPDEST DUP1 PUSH4 0x43046844 EQ PUSH2 0x295 JUMPI DUP1 PUSH4 0x5BB02E01 EQ PUSH2 0x2A8 JUMPI DUP1 PUSH4 0x6103D915 EQ PUSH2 0x2C8 JUMPI PUSH1 0x0 DUP1 REVERT JUMPDEST DUP1 PUSH4 0xEABAA5E GT PUSH2 0x1A0 JUMPI DUP1 PUSH4 0xEABAA5E EQ PUSH2 0x226 JUMPI DUP1 PUSH4 0x10D1C4C3 EQ PUSH2 0x23C JUMPI DUP1 PUSH4 0x1356EA65 EQ PUSH2 0x25E JUMPI DUP1 PUSH4 0x40176058 EQ PUSH2 0x280 JUMPI PUSH1 0x0 DUP1 REVERT JUMPDEST DUP1 PUSH4 0x42F2B65 EQ PUSH2 0x1C7 JUMPI DUP1 PUSH4 0x737C24B EQ PUSH2 0x1E9 JUMPI DUP1 PUSH4 0x9BC33A7 EQ PUSH2 0x211 JUMPI JUMPDEST PUSH1 0x0 DUP1 REVERT JUMPDEST CALLVALUE DUP1 ISZERO PUSH2 0x1D3 JUMPI PUSH1 0x0 DUP1 REVERT JUMPDEST POP PUSH2 0x1E7 PUSH2 0x1E2 CALLDATASIZE PUSH1 0x4 PUSH2 0x1D2D JUMP JUMPDEST PUSH2 0x5CD JUMP JUMPDEST STOP JUMPDEST CALLVALUE DUP1 ISZERO PUSH2 0x1F5 JUMPI PUSH1 0x0 DUP1 REVERT JUMPDEST POP PUSH2 0x1FE PUSH2 0x658 JUMP JUMPDEST PUSH1 0x40 MLOAD SWAP1 DUP2 MSTORE PUSH1 0x20 ADD JUMPDEST PUSH1 0x40 MLOAD DUP1 SWAP2 SUB SWAP1 RETURN JUMPDEST CALLVALUE DUP1 ISZERO PUSH2 0x21D JUMPI PUSH1 0x0 DUP1 REVERT JUMPDEST POP PUSH2 0x1FE PUSH2 0x685 JUMP JUMPDEST CALLVALUE DUP1 ISZERO PUSH2 0x232 JUMPI PUSH1 0x0 DUP1 REVERT JUMPDEST POP PUSH2 0x1FE PUSH1 0x16 SLOAD DUP2 JUMP JUMPDEST CALLVALUE DUP1 ISZERO PUSH2 0x248 JUMPI PUSH1 0x0 DUP1 REVERT JUMPDEST POP PUSH1 0x40 MLOAD PUSH4 0x5BB02E01 PUSH1 0xE0 SHL DUP2 MSTORE PUSH1 0x20 ADD PUSH2 0x208 JUMP JUMPDEST CALLVALUE DUP1 ISZERO PUSH2 0x26A JUMPI PUSH1 0x0 DUP1 REVERT JUMPDEST POP PUSH2 0x273 PUSH2 0x745 JUMP JUMPDEST PUSH1 0x40 MLOAD PUSH2 0x208 SWAP2 SWAP1 PUSH2 0x1D79 JUMP JUMPDEST CALLVALUE DUP1 ISZERO PUSH2 0x28C JUMPI PUSH1 0x0 DUP1 REVERT JUMPDEST POP PUSH2 0x1E7 PUSH2 0x7FB JUMP JUMPDEST PUSH2 0x1E7 PUSH2 0x2A3 CALLDATASIZE PUSH1 0x4 PUSH2 0x1DC4 JUMP JUMPDEST PUSH2 0x875 JUMP JUMPDEST CALLVALUE DUP1 ISZERO PUSH2 0x2B4 JUMPI PUSH1 0x0 DUP1 REVERT JUMPDEST POP PUSH2 0x1E7 PUSH2 0x2C3 CALLDATASIZE PUSH1 0x4 PUSH2 0x1D2D JUMP JUMPDEST PUSH2 0xAC8 JUMP JUMPDEST CALLVALUE DUP1 ISZERO PUSH2 0x2D4 JUMPI PUSH1 0x0 DUP1 REVERT JUMPDEST POP PUSH2 0x2FE PUSH2 0x2E3 CALLDATASIZE PUSH1 0x4 PUSH2 0x1DE7 JUMP JUMPDEST PUSH1 0x10 PUSH1 0x20 MSTORE PUSH1 0x0 SWAP1 DUP2 MSTORE PUSH1 0x40 SWAP1 KECCAK256 SLOAD PUSH1 0x1 PUSH1 0x1 PUSH1 0xA0 SHL SUB AND DUP2 JUMP JUMPDEST PUSH1 0x40 MLOAD PUSH1 0x1 PUSH1 0x1 PUSH1 0xA0 SHL SUB SWAP1 SWAP2 AND DUP2 MSTORE PUSH1 0x20 ADD PUSH2 0x208 JUMP JUMPDEST CALLVALUE DUP1 ISZERO PUSH2 0x322 JUMPI PUSH1 0x0 DUP1 REVERT JUMPDEST POP PUSH2 0x1FE PUSH2 0x331 CALLDATASIZE PUSH1 0x4 PUSH2 0x1E1C JUMP JUMPDEST PUSH2 0xBC7 JUMP JUMPDEST CALLVALUE DUP1 ISZERO PUSH2 0x342 JUMPI PUSH1 0x0 DUP1 REVERT JUMPDEST POP PUSH2 0x1E7 PUSH2 0xC92 JUMP JUMPDEST CALLVALUE DUP1 ISZERO PUSH2 0x357 JUMPI PUSH1 0x0 DUP1 REVERT JUMPDEST POP PUSH1 0xB SLOAD PUSH1 0xFF AND JUMPDEST PUSH1 0x40 MLOAD PUSH2 0x208 SWAP2 SWAP1 PUSH2 0x1E60 JUMP JUMPDEST CALLVALUE DUP1 ISZERO PUSH2 0x378 JUMPI PUSH1 0x0 DUP1 REVERT JUMPDEST POP PUSH2 0x1FE PUSH1 0x19 SLOAD DUP2 JUMP JUMPDEST CALLVALUE DUP1 ISZERO PUSH2 0x38E JUMPI PUSH1 0x0 DUP1 REVERT JUMPDEST POP PUSH1 0x0 SLOAD PUSH1 0x1 PUSH1 0x1 PUSH1 0xA0 SHL SUB AND PUSH2 0x2FE JUMP JUMPDEST CALLVALUE DUP1 ISZERO PUSH2 0x3AC JUMPI PUSH1 0x0 DUP1 REVERT JUMPDEST POP PUSH2 0x1FE PUSH2 0xCA6 JUMP JUMPDEST CALLVALUE DUP1 ISZERO PUSH2 0x3C1 JUMPI PUSH1 0x0 DUP1 REVERT JUMPDEST POP PUSH2 0x3D5 PUSH2 0x3D0 CALLDATASIZE PUSH1 0x4 PUSH2 0x1DE7 JUMP JUMPDEST PUSH2 0xD35 JUMP JUMPDEST PUSH1 0x40 MLOAD PUSH2 0x208 SWAP2 SWAP1 PUSH2 0x1EC7 JUMP JUMPDEST CALLVALUE DUP1 ISZERO PUSH2 0x3EE JUMPI PUSH1 0x0 DUP1 REVERT JUMPDEST POP PUSH2 0x2FE PUSH2 0x3FD CALLDATASIZE PUSH1 0x4 PUSH2 0x1DE7 JUMP JUMPDEST PUSH2 0xE6C JUMP JUMPDEST CALLVALUE DUP1 ISZERO PUSH2 0x40E JUMPI PUSH1 0x0 DUP1 REVERT JUMPDEST POP PUSH2 0x43D PUSH2 0x41D CALLDATASIZE PUSH1 0x4 PUSH2 0x1EF0 JUMP JUMPDEST DUP1 MLOAD PUSH1 0x20 DUP2 DUP4 ADD DUP2 ADD DUP1 MLOAD PUSH1 0xC DUP3 MSTORE SWAP3 DUP3 ADD SWAP2 SWAP1 SWAP4 ADD KECCAK256 SWAP2 MSTORE SLOAD PUSH1 0x0 SIGNEXTEND DUP2 JUMP JUMPDEST PUSH1 0x40 MLOAD PUSH1 0x0 SWAP2 SWAP1 SWAP2 SIGNEXTEND DUP2 MSTORE PUSH1 0x20 ADD PUSH2 0x208 JUMP JUMPDEST CALLVALUE DUP1 ISZERO PUSH2 0x45C JUMPI PUSH1 0x0 DUP1 REVERT JUMPDEST POP PUSH2 0x4A9 PUSH2 0x46B CALLDATASIZE PUSH1 0x4 PUSH2 0x1FA1 JUMP JUMPDEST PUSH1 0xE PUSH1 0x20 MSTORE PUSH1 0x0 SWAP1 DUP2 MSTORE PUSH1 0x40 SWAP1 KECCAK256 DUP1 SLOAD PUSH1 0x1 DUP3 ADD SLOAD PUSH1 0x2 SWAP1 SWAP3 ADD SLOAD PUSH1 0x1 PUSH1 0x1 PUSH1 0xA0 SHL SUB DUP3 AND SWAP3 PUSH1 0xFF PUSH1 0x1 PUSH1 0xA0 SHL DUP5 DIV DUP2 AND SWAP4 PUSH1 0x1 PUSH1 0xA8 SHL SWAP1 DIV AND SWAP2 DUP6 JUMP JUMPDEST PUSH1 0x40 MLOAD PUSH2 0x208 SWAP6 SWAP5 SWAP4 SWAP3 SWAP2 SWAP1 PUSH2 0x1FBC JUMP JUMPDEST CALLVALUE DUP1 ISZERO PUSH2 0x4C6 JUMPI PUSH1 0x0 DUP1 REVERT JUMPDEST POP PUSH2 0x1E7 PUSH2 0xE96 JUMP JUMPDEST CALLVALUE DUP1 ISZERO PUSH2 0x4DB JUMPI PUSH1 0x0 DUP1 REVERT JUMPDEST POP PUSH2 0x4EF PUSH2 0x4EA CALLDATASIZE PUSH1 0x4 PUSH2 0x1EF0 JUMP JUMPDEST PUSH2 0xEB2 JUMP JUMPDEST PUSH1 0x40 DUP1 MLOAD SWAP3 DUP4 MSTORE SWAP1 ISZERO ISZERO PUSH1 0x20 DUP4 ADD MSTORE ADD PUSH2 0x208 JUMP JUMPDEST CALLVALUE DUP1 ISZERO PUSH2 0x510 JUMPI PUSH1 0x0 DUP1 REVERT JUMPDEST POP PUSH2 0x1FE PUSH1 0x11 SLOAD DUP2 JUMP JUMPDEST CALLVALUE DUP1 ISZERO PUSH2 0x526 JUMPI PUSH1 0x0 DUP1 REVERT JUMPDEST POP PUSH2 0x1FE PUSH1 0x7 SLOAD DUP2 JUMP JUMPDEST CALLVALUE DUP1 ISZERO PUSH2 0x53C JUMPI PUSH1 0x0 DUP1 REVERT JUMPDEST POP PUSH1 0xB SLOAD PUSH2 0x35F SWAP1 PUSH1 0xFF AND DUP2 JUMP JUMPDEST CALLVALUE DUP1 ISZERO PUSH2 0x556 JUMPI PUSH1 0x0 DUP1 REVERT JUMPDEST POP PUSH1 0xF SLOAD PUSH2 0x56B SWAP1 PUSH1 0x1 PUSH1 0xA0 SHL SWAP1 DIV PUSH1 0xFF AND DUP2 JUMP JUMPDEST PUSH1 0x40 MLOAD PUSH2 0x208 SWAP2 SWAP1 PUSH2 0x1FF5 JUMP JUMPDEST CALLVALUE DUP1 ISZERO PUSH2 0x584 JUMPI PUSH1 0x0 DUP1 REVERT JUMPDEST POP PUSH2 0x1E7 PUSH2 0x593 CALLDATASIZE PUSH1 0x4 PUSH2 0x1FA1 JUMP JUMPDEST PUSH2 0xFB1 JUMP JUMPDEST CALLVALUE DUP1 ISZERO PUSH2 0x5A4 JUMPI PUSH1 0x0 DUP1 REVERT JUMPDEST POP PUSH2 0x1E7 PUSH2 0x1027 JUMP JUMPDEST CALLVALUE DUP1 ISZERO PUSH2 0x5B9 JUMPI PUSH1 0x0 DUP1 REVERT JUMPDEST POP PUSH1 0xF SLOAD PUSH2 0x2FE SWAP1 PUSH1 0x1 PUSH1 0x1 PUSH1 0xA0 SHL SUB AND DUP2 JUMP JUMPDEST PUSH1 0x0 DUP3 DUP2 MSTORE PUSH1 0x6 PUSH1 0x20 MSTORE PUSH1 0x40 SWAP1 KECCAK256 SLOAD DUP3 SWAP1 PUSH1 0x1 PUSH1 0x1 PUSH1 0xA0 SHL SUB AND CALLER EQ PUSH2 0x60E JUMPI PUSH1 0x40 MLOAD PUSH3 0x461BCD PUSH1 0xE5 SHL DUP2 MSTORE PUSH1 0x4 ADD PUSH2 0x605 SWAP1 PUSH2 0x2003 JUMP JUMPDEST PUSH1 0x40 MLOAD DUP1 SWAP2 SUB SWAP1 REVERT JUMPDEST PUSH1 0x0 DUP2 DUP2 MSTORE PUSH1 0x6 PUSH1 0x20 MSTORE PUSH1 0x40 DUP1 DUP3 KECCAK256 DUP1 SLOAD PUSH1 0x1 PUSH1 0x1 PUSH1 0xA0 SHL SUB NOT AND SWAP1 SSTORE MLOAD DUP3 SWAP2 PUSH32 0x7CC135E0CEBB02C3480AE5D74D377283180A2601F8F644EDF7987B009316C63A SWAP2 LOG2 POP PUSH1 0x7 SSTORE POP JUMP JUMPDEST PUSH1 0xF SLOAD PUSH1 0x0 SWAP1 PUSH1 0x64 SWAP1 PUSH2 0x676 SWAP1 PUSH1 0x1 PUSH1 0x1 PUSH1 0xA0 SHL SUB AND BALANCE PUSH1 0x63 PUSH2 0x2061 JUMP JUMPDEST PUSH2 0x680 SWAP2 SWAP1 PUSH2 0x2096 JUMP JUMPDEST SWAP1 POP SWAP1 JUMP JUMPDEST PUSH1 0x0 DUP1 PUSH1 0x18 PUSH1 0x0 SWAP1 SLOAD SWAP1 PUSH2 0x100 EXP SWAP1 DIV PUSH1 0x1 PUSH1 0x1 PUSH1 0xA0 SHL SUB AND PUSH1 0x1 PUSH1 0x1 PUSH1 0xA0 SHL SUB AND PUSH4 0xFEAF968C PUSH1 0x40 MLOAD DUP2 PUSH4 0xFFFFFFFF AND PUSH1 0xE0 SHL DUP2 MSTORE PUSH1 0x4 ADD PUSH1 0xA0 PUSH1 0x40 MLOAD DUP1 DUP4 SUB DUP2 DUP7 GAS STATICCALL ISZERO DUP1 ISZERO PUSH2 0x6DB JUMPI RETURNDATASIZE PUSH1 0x0 DUP1 RETURNDATACOPY RETURNDATASIZE PUSH1 0x0 REVERT JUMPDEST POP POP POP POP PUSH1 0x40 MLOAD RETURNDATASIZE PUSH1 0x1F NOT PUSH1 0x1F DUP3 ADD AND DUP3 ADD DUP1 PUSH1 0x40 MSTORE POP DUP2 ADD SWAP1 PUSH2 0x6FF SWAP2 SWAP1 PUSH2 0x20C4 JUMP JUMPDEST POP POP POP SWAP2 POP POP PUSH1 0x0 DUP2 PUSH5 0x2540BE400 PUSH2 0x718 SWAP2 SWAP1 PUSH2 0x2061 JUMP JUMPDEST SWAP1 POP PUSH1 0x0 DUP2 PUSH1 0x19 SLOAD PUSH8 0xDE0B6B3A7640000 PUSH2 0x733 SWAP2 SWAP1 PUSH2 0x2061 JUMP JUMPDEST PUSH2 0x73D SWAP2 SWAP1 PUSH2 0x2096 JUMP JUMPDEST SWAP5 SWAP4 POP POP POP POP JUMP JUMPDEST PUSH1 0x40 DUP1 MLOAD PUSH1 0xA0 DUP2 ADD DUP3 MSTORE PUSH1 0x0 DUP1 DUP3 MSTORE PUSH1 0x20 DUP3 ADD DUP2 SWAP1 MSTORE SWAP2 DUP2 ADD DUP3 SWAP1 MSTORE PUSH1 0x60 DUP2 ADD DUP3 SWAP1 MSTORE PUSH1 0x80 DUP2 ADD SWAP2 SWAP1 SWAP2 MSTORE CALLER PUSH1 0x0 SWAP1 DUP2 MSTORE PUSH1 0xE PUSH1 0x20 SWAP1 DUP2 MSTORE PUSH1 0x40 SWAP2 DUP3 SWAP1 KECCAK256 DUP3 MLOAD PUSH1 0xA0 DUP2 ADD SWAP1 SWAP4 MSTORE DUP1 SLOAD PUSH1 0x1 PUSH1 0x1 PUSH1 0xA0 SHL SUB DUP2 AND DUP5 MSTORE SWAP1 SWAP2 DUP4 ADD SWAP1 PUSH1 0x1 PUSH1 0xA0 SHL SWAP1 DIV PUSH1 0xFF AND PUSH1 0x9 DUP2 GT ISZERO PUSH2 0x7BA JUMPI PUSH2 0x7BA PUSH2 0x1D4F JUMP JUMPDEST PUSH1 0x9 DUP2 GT ISZERO PUSH2 0x7CB JUMPI PUSH2 0x7CB PUSH2 0x1D4F JUMP JUMPDEST DUP2 MSTORE DUP2 SLOAD PUSH1 0x1 PUSH1 0xA8 SHL SWAP1 DIV PUSH1 0xFF AND ISZERO ISZERO PUSH1 0x20 DUP3 ADD MSTORE PUSH1 0x1 DUP3 ADD SLOAD PUSH1 0x40 DUP3 ADD MSTORE PUSH1 0x2 SWAP1 SWAP2 ADD SLOAD PUSH1 0x60 SWAP1 SWAP2 ADD MSTORE SWAP2 SWAP1 POP JUMP JUMPDEST PUSH2 0x803 PUSH2 0x104C JUMP JUMPDEST PUSH1 0x1 PUSH1 0xB SLOAD PUSH1 0xFF AND PUSH1 0x2 DUP2 GT ISZERO PUSH2 0x81C JUMPI PUSH2 0x81C PUSH2 0x1D4F JUMP JUMPDEST EQ PUSH2 0x869 JUMPI PUSH1 0x40 MLOAD PUSH3 0x461BCD PUSH1 0xE5 SHL DUP2 MSTORE PUSH1 0x20 PUSH1 0x4 DUP3 ADD MSTORE PUSH1 0x1E PUSH1 0x24 DUP3 ADD MSTORE PUSH32 0x43616E27742073746172742061206E6577206C6F747465727920796574210000 PUSH1 0x44 DUP3 ADD MSTORE PUSH1 0x64 ADD PUSH2 0x605 JUMP JUMPDEST PUSH1 0xB DUP1 SLOAD PUSH1 0xFF NOT AND SWAP1 SSTORE JUMP JUMPDEST CALLER PUSH1 0x0 SWAP1 DUP2 MSTORE PUSH1 0xE PUSH1 0x20 MSTORE PUSH1 0x40 SWAP1 KECCAK256 SLOAD PUSH1 0x1 PUSH1 0xA8 SHL SWAP1 DIV PUSH1 0xFF AND ISZERO PUSH2 0x8D4 JUMPI PUSH1 0x40 MLOAD PUSH3 0x461BCD PUSH1 0xE5 SHL DUP2 MSTORE PUSH1 0x20 PUSH1 0x4 DUP3 ADD MSTORE PUSH1 0x15 PUSH1 0x24 DUP3 ADD MSTORE PUSH21 0x557365722068617320616C72656164792062657421 PUSH1 0x58 SHL PUSH1 0x44 DUP3 ADD MSTORE PUSH1 0x64 ADD PUSH2 0x605 JUMP JUMPDEST PUSH2 0x8DC PUSH2 0x685 JUMP JUMPDEST CALLVALUE LT ISZERO PUSH2 0x937 JUMPI PUSH1 0x40 MLOAD PUSH3 0x461BCD PUSH1 0xE5 SHL DUP2 MSTORE PUSH1 0x20 PUSH1 0x4 DUP3 ADD MSTORE PUSH1 0x23 PUSH1 0x24 DUP3 ADD MSTORE PUSH32 0x446F6E27742062652063686561702120243530206F72206D6F726520696E2045 PUSH1 0x44 DUP3 ADD MSTORE PUSH3 0x544821 PUSH1 0xE8 SHL PUSH1 0x64 DUP3 ADD MSTORE PUSH1 0x84 ADD PUSH2 0x605 JUMP JUMPDEST PUSH1 0x0 PUSH1 0xB SLOAD PUSH1 0xFF AND PUSH1 0x2 DUP2 GT ISZERO PUSH2 0x950 JUMPI PUSH2 0x950 PUSH2 0x1D4F JUMP JUMPDEST EQ PUSH2 0x993 JUMPI PUSH1 0x40 MLOAD PUSH3 0x461BCD PUSH1 0xE5 SHL DUP2 MSTORE PUSH1 0x20 PUSH1 0x4 DUP3 ADD MSTORE PUSH1 0x13 PUSH1 0x24 DUP3 ADD MSTORE PUSH19 0x506F6C6C732061726520636C6F736564203A2F PUSH1 0x68 SHL PUSH1 0x44 DUP3 ADD MSTORE PUSH1 0x64 ADD PUSH2 0x605 JUMP JUMPDEST PUSH1 0x40 DUP1 MLOAD PUSH1 0xA0 DUP2 ADD SWAP1 SWAP2 MSTORE CALLER DUP2 MSTORE PUSH1 0x0 SWAP1 PUSH1 0x20 DUP2 ADD PUSH2 0x9B3 DUP5 PUSH1 0x1 PUSH2 0x2114 JUMP JUMPDEST PUSH1 0xFF AND PUSH1 0x9 DUP2 GT ISZERO PUSH2 0x9C7 JUMPI PUSH2 0x9C7 PUSH2 0x1D4F JUMP JUMPDEST PUSH1 0x9 DUP2 GT ISZERO PUSH2 0x9D8 JUMPI PUSH2 0x9D8 PUSH2 0x1D4F JUMP JUMPDEST DUP2 MSTORE PUSH1 0x1 PUSH1 0x20 DUP1 DUP4 ADD DUP3 SWAP1 MSTORE CALLVALUE PUSH1 0x40 DUP1 DUP6 ADD SWAP2 SWAP1 SWAP2 MSTORE PUSH1 0x0 PUSH1 0x60 SWAP1 SWAP5 ADD DUP5 SWAP1 MSTORE PUSH1 0xD DUP1 SLOAD SWAP4 DUP5 ADD SWAP1 SSTORE PUSH32 0xD7B6990105719101DABEB77144F2A3385C8033ACD3AF97E9423A695E81AD1EB5 SWAP1 SWAP3 ADD DUP1 SLOAD PUSH1 0x1 PUSH1 0x1 PUSH1 0xA0 SHL SUB NOT SWAP1 DUP2 AND CALLER SWAP1 DUP2 OR SWAP1 SWAP3 SSTORE SWAP1 DUP5 MSTORE PUSH1 0xE DUP3 MSTORE SWAP2 SWAP1 SWAP3 KECCAK256 DUP4 MLOAD DUP2 SLOAD PUSH1 0x1 PUSH1 0x1 PUSH1 0xA0 SHL SUB SWAP2 SWAP1 SWAP2 AND SWAP3 DUP2 AND DUP4 OR DUP3 SSTORE SWAP3 DUP5 ADD MLOAD SWAP4 SWAP5 POP DUP5 SWAP4 SWAP1 SWAP3 SWAP1 SWAP2 DUP4 SWAP2 PUSH1 0x1 PUSH1 0x1 PUSH1 0xA8 SHL SUB NOT AND OR PUSH1 0x1 PUSH1 0xA0 SHL DUP4 PUSH1 0x9 DUP2 GT ISZERO PUSH2 0xA8D JUMPI PUSH2 0xA8D PUSH2 0x1D4F JUMP JUMPDEST MUL OR SWAP1 SSTORE POP PUSH1 0x40 DUP3 ADD MLOAD DUP2 SLOAD SWAP1 ISZERO ISZERO PUSH1 0x1 PUSH1 0xA8 SHL MUL PUSH1 0xFF PUSH1 0xA8 SHL NOT SWAP1 SWAP2 AND OR DUP2 SSTORE PUSH1 0x60 DUP3 ADD MLOAD PUSH1 0x1 DUP3 ADD SSTORE PUSH1 0x80 SWAP1 SWAP2 ADD MLOAD PUSH1 0x2 SWAP1 SWAP2 ADD SSTORE POP POP JUMP JUMPDEST PUSH1 0x0 DUP3 DUP2 MSTORE PUSH1 0x6 PUSH1 0x20 MSTORE PUSH1 0x40 SWAP1 KECCAK256 SLOAD DUP3 SWAP1 PUSH1 0x1 PUSH1 0x1 PUSH1 0xA0 SHL SUB AND CALLER EQ PUSH2 0xB00 JUMPI PUSH1 0x40 MLOAD PUSH3 0x461BCD PUSH1 0xE5 SHL DUP2 MSTORE PUSH1 0x4 ADD PUSH2 0x605 SWAP1 PUSH2 0x2003 JUMP JUMPDEST PUSH1 0x0 DUP2 DUP2 MSTORE PUSH1 0x6 PUSH1 0x20 MSTORE PUSH1 0x40 DUP1 DUP3 KECCAK256 DUP1 SLOAD PUSH1 0x1 PUSH1 0x1 PUSH1 0xA0 SHL SUB NOT AND SWAP1 SSTORE MLOAD DUP3 SWAP2 PUSH32 0x7CC135E0CEBB02C3480AE5D74D377283180A2601F8F644EDF7987B009316C63A SWAP2 LOG2 PUSH1 0x7 DUP3 SWAP1 SSTORE PUSH2 0xB54 PUSH2 0x4EA DUP4 PUSH2 0xD35 JUMP JUMPDEST POP PUSH1 0x16 DUP2 DUP2 SSTORE PUSH1 0x1 SWAP2 PUSH1 0x0 SWAP1 PUSH2 0xB6B SWAP1 DUP5 SWAP1 PUSH2 0x2139 JUMP JUMPDEST SWAP1 SWAP2 SSTORE POP POP PUSH1 0x16 SLOAD PUSH32 0x2F2EC9B308C77557BE0CA886A9FD58FFC8BDC94F0978011757A7417E90C4A4C7 PUSH2 0xBA6 PUSH1 0x0 SLOAD PUSH1 0x1 PUSH1 0x1 PUSH1 0xA0 SHL SUB AND SWAP1 JUMP JUMPDEST PUSH1 0x40 MLOAD PUSH1 0x1 PUSH1 0x1 PUSH1 0xA0 SHL SUB SWAP1 SWAP2 AND DUP2 MSTORE PUSH1 0x20 ADD JUMPDEST PUSH1 0x40 MLOAD DUP1 SWAP2 SUB SWAP1 LOG2 POP POP POP JUMP JUMPDEST PUSH1 0x0 DUP1 PUSH2 0xBD7 PUSH1 0x9 SLOAD DUP6 DUP6 PUSH2 0x10A6 JUMP JUMPDEST SWAP1 POP PUSH2 0xC19 PUSH1 0x40 MLOAD DUP1 PUSH1 0x40 ADD PUSH1 0x40 MSTORE DUP1 PUSH1 0x3 DUP2 MSTORE PUSH1 0x20 ADD PUSH3 0x19D95D PUSH1 0xEA SHL DUP2 MSTORE POP PUSH1 0x40 MLOAD DUP1 PUSH1 0x80 ADD PUSH1 0x40 MSTORE DUP1 PUSH1 0x43 DUP2 MSTORE PUSH1 0x20 ADD PUSH2 0x238F PUSH1 0x43 SWAP2 CODECOPY DUP4 SWAP2 SWAP1 PUSH2 0x10CB JUMP JUMPDEST PUSH2 0xC6D PUSH1 0x40 MLOAD DUP1 PUSH1 0x40 ADD PUSH1 0x40 MSTORE DUP1 PUSH1 0x4 DUP2 MSTORE PUSH1 0x20 ADD PUSH4 0xE0C2E8D PUSH1 0xE3 SHL DUP2 MSTORE POP PUSH1 0x40 MLOAD DUP1 PUSH1 0x40 ADD PUSH1 0x40 MSTORE DUP1 PUSH1 0xB DUP2 MSTORE PUSH1 0x20 ADD PUSH11 0xE4CAC2D8DABED2DCC8CAF PUSH1 0xAB SHL DUP2 MSTORE POP DUP4 PUSH2 0x10CB SWAP1 SWAP3 SWAP2 SWAP1 PUSH4 0xFFFFFFFF AND JUMP JUMPDEST PUSH1 0x8 SLOAD PUSH1 0xA SLOAD PUSH2 0xC88 SWAP2 PUSH1 0x1 PUSH1 0x1 PUSH1 0xA0 SHL SUB AND SWAP1 DUP4 SWAP1 PUSH2 0x10EE JUMP JUMPDEST SWAP2 POP POP JUMPDEST SWAP3 SWAP2 POP POP JUMP JUMPDEST PUSH2 0xC9A PUSH2 0x104C JUMP JUMPDEST PUSH2 0xCA4 PUSH1 0x0 PUSH2 0x1181 JUMP JUMPDEST JUMP JUMPDEST PUSH1 0x0 DUP1 PUSH1 0x0 DUP1 PUSH1 0x0 DUP1 PUSH1 0x18 PUSH1 0x0 SWAP1 SLOAD SWAP1 PUSH2 0x100 EXP SWAP1 DIV PUSH1 0x1 PUSH1 0x1 PUSH1 0xA0 SHL SUB AND PUSH1 0x1 PUSH1 0x1 PUSH1 0xA0 SHL SUB AND PUSH4 0xFEAF968C PUSH1 0x40 MLOAD DUP2 PUSH4 0xFFFFFFFF AND PUSH1 0xE0 SHL DUP2 MSTORE PUSH1 0x4 ADD PUSH1 0xA0 PUSH1 0x40 MLOAD DUP1 DUP4 SUB DUP2 DUP7 GAS STATICCALL ISZERO DUP1 ISZERO PUSH2 0xD02 JUMPI RETURNDATASIZE PUSH1 0x0 DUP1 RETURNDATACOPY RETURNDATASIZE PUSH1 0x0 REVERT JUMPDEST POP POP POP POP PUSH1 0x40 MLOAD RETURNDATASIZE PUSH1 0x1F NOT PUSH1 0x1F DUP3 ADD AND DUP3 ADD DUP1 PUSH1 0x40 MSTORE POP DUP2 ADD SWAP1 PUSH2 0xD26 SWAP2 SWAP1 PUSH2 0x20C4 JUMP JUMPDEST POP SWAP2 SWAP10 SWAP9 POP POP POP POP POP POP POP POP POP JUMP JUMPDEST PUSH1 0x60 PUSH1 0x0 JUMPDEST PUSH1 0x20 DUP2 PUSH1 0xFF AND LT DUP1 ISZERO PUSH2 0xD6E JUMPI POP DUP3 DUP2 PUSH1 0xFF AND PUSH1 0x20 DUP2 LT PUSH2 0xD5D JUMPI PUSH2 0xD5D PUSH2 0x2151 JUMP JUMPDEST BYTE PUSH1 0xF8 SHL PUSH1 0x1 PUSH1 0x1 PUSH1 0xF8 SHL SUB NOT AND ISZERO ISZERO JUMPDEST ISZERO PUSH2 0xD85 JUMPI DUP1 PUSH2 0xD7D DUP2 PUSH2 0x2167 JUMP JUMPDEST SWAP2 POP POP PUSH2 0xD3A JUMP JUMPDEST PUSH1 0x0 DUP2 PUSH1 0xFF AND PUSH8 0xFFFFFFFFFFFFFFFF DUP2 GT ISZERO PUSH2 0xDA3 JUMPI PUSH2 0xDA3 PUSH2 0x1EDA JUMP JUMPDEST PUSH1 0x40 MLOAD SWAP1 DUP1 DUP3 MSTORE DUP1 PUSH1 0x1F ADD PUSH1 0x1F NOT AND PUSH1 0x20 ADD DUP3 ADD PUSH1 0x40 MSTORE DUP1 ISZERO PUSH2 0xDCD JUMPI PUSH1 0x20 DUP3 ADD DUP2 DUP1 CALLDATASIZE DUP4 CALLDATACOPY ADD SWAP1 POP JUMPDEST POP SWAP1 POP PUSH1 0x0 SWAP2 POP JUMPDEST PUSH1 0x20 DUP3 PUSH1 0xFF AND LT DUP1 ISZERO PUSH2 0xE09 JUMPI POP DUP4 DUP3 PUSH1 0xFF AND PUSH1 0x20 DUP2 LT PUSH2 0xDF8 JUMPI PUSH2 0xDF8 PUSH2 0x2151 JUMP JUMPDEST BYTE PUSH1 0xF8 SHL PUSH1 0x1 PUSH1 0x1 PUSH1 0xF8 SHL SUB NOT AND ISZERO ISZERO JUMPDEST ISZERO PUSH2 0xE65 JUMPI DUP4 DUP3 PUSH1 0xFF AND PUSH1 0x20 DUP2 LT PUSH2 0xE23 JUMPI PUSH2 0xE23 PUSH2 0x2151 JUMP JUMPDEST BYTE PUSH1 0xF8 SHL DUP2 DUP4 PUSH1 0xFF AND DUP2 MLOAD DUP2 LT PUSH2 0xE3C JUMPI PUSH2 0xE3C PUSH2 0x2151 JUMP JUMPDEST PUSH1 0x20 ADD ADD SWAP1 PUSH1 0x1 PUSH1 0x1 PUSH1 0xF8 SHL SUB NOT AND SWAP1 DUP2 PUSH1 0x0 BYTE SWAP1 MSTORE8 POP DUP2 PUSH2 0xE5D DUP2 PUSH2 0x2167 JUMP JUMPDEST SWAP3 POP POP PUSH2 0xDD5 JUMP JUMPDEST SWAP4 SWAP3 POP POP POP JUMP JUMPDEST PUSH1 0xD DUP2 DUP2 SLOAD DUP2 LT PUSH2 0xE7C JUMPI PUSH1 0x0 DUP1 REVERT JUMPDEST PUSH1 0x0 SWAP2 DUP3 MSTORE PUSH1 0x20 SWAP1 SWAP2 KECCAK256 ADD SLOAD PUSH1 0x1 PUSH1 0x1 PUSH1 0xA0 SHL SUB AND SWAP1 POP DUP2 JUMP JUMPDEST PUSH2 0xE9E PUSH2 0x104C JUMP JUMPDEST PUSH2 0xEAF ADDRESS PUSH4 0x5BB02E01 PUSH1 0xE0 SHL PUSH2 0xBC7 JUMP JUMPDEST POP JUMP JUMPDEST PUSH1 0x0 DUP1 PUSH1 0x0 JUMPDEST DUP4 MLOAD DUP2 LT ISZERO PUSH2 0xFA6 JUMPI PUSH1 0x0 PUSH1 0x30 DUP6 DUP4 DUP2 MLOAD DUP2 LT PUSH2 0xED7 JUMPI PUSH2 0xED7 PUSH2 0x2151 JUMP JUMPDEST ADD PUSH1 0x20 ADD MLOAD PUSH2 0xEE9 SWAP2 SWAP1 PUSH1 0xF8 SHR PUSH2 0x2186 JUMP JUMPDEST PUSH1 0xFF AND LT DUP1 PUSH2 0xF20 JUMPI POP PUSH1 0x9 PUSH1 0x30 DUP6 DUP4 DUP2 MLOAD DUP2 LT PUSH2 0xF09 JUMPI PUSH2 0xF09 PUSH2 0x2151 JUMP JUMPDEST ADD PUSH1 0x20 ADD MLOAD PUSH2 0xF1B SWAP2 SWAP1 PUSH1 0xF8 SHR PUSH2 0x2186 JUMP JUMPDEST PUSH1 0xFF AND GT JUMPDEST ISZERO PUSH2 0xF31 JUMPI POP PUSH1 0x0 SWAP4 DUP5 SWAP4 POP SWAP2 POP POP JUMP JUMPDEST PUSH1 0x1 DUP2 DUP6 MLOAD PUSH2 0xF40 SWAP2 SWAP1 PUSH2 0x21A9 JUMP JUMPDEST PUSH2 0xF4A SWAP2 SWAP1 PUSH2 0x21A9 JUMP JUMPDEST PUSH2 0xF55 SWAP1 PUSH1 0xA PUSH2 0x22A4 JUMP JUMPDEST PUSH1 0x30 DUP6 DUP4 DUP2 MLOAD DUP2 LT PUSH2 0xF69 JUMPI PUSH2 0xF69 PUSH2 0x2151 JUMP JUMPDEST ADD PUSH1 0x20 ADD MLOAD PUSH2 0xF7B SWAP2 SWAP1 PUSH1 0xF8 SHR PUSH2 0x2186 JUMP JUMPDEST PUSH1 0xFF AND PUSH2 0xF88 SWAP2 SWAP1 PUSH2 0x2061 JUMP JUMPDEST PUSH2 0xF92 SWAP1 DUP5 PUSH2 0x2139 JUMP JUMPDEST SWAP3 POP DUP1 PUSH2 0xF9E DUP2 PUSH2 0x22B0 JUMP JUMPDEST SWAP2 POP POP PUSH2 0xEB8 JUMP JUMPDEST POP SWAP1 SWAP3 PUSH1 0x1 SWAP3 POP SWAP1 POP JUMP JUMPDEST PUSH2 0xFB9 PUSH2 0x104C JUMP JUMPDEST PUSH1 0x1 PUSH1 0x1 PUSH1 0xA0 SHL SUB DUP2 AND PUSH2 0x101E JUMPI PUSH1 0x40 MLOAD PUSH3 0x461BCD PUSH1 0xE5 SHL DUP2 MSTORE PUSH1 0x20 PUSH1 0x4 DUP3 ADD MSTORE PUSH1 0x26 PUSH1 0x24 DUP3 ADD MSTORE PUSH32 0x4F776E61626C653A206E6577206F776E657220697320746865207A65726F2061 PUSH1 0x44 DUP3 ADD MSTORE PUSH6 0x646472657373 PUSH1 0xD0 SHL PUSH1 0x64 DUP3 ADD MSTORE PUSH1 0x84 ADD PUSH2 0x605 JUMP JUMPDEST PUSH2 0xEAF DUP2 PUSH2 0x1181 JUMP JUMPDEST PUSH2 0x102F PUSH2 0x104C JUMP JUMPDEST PUSH1 0xB DUP1 SLOAD PUSH1 0xFF NOT AND PUSH1 0x2 OR SWAP1 SSTORE PUSH2 0x1044 PUSH2 0x11D1 JUMP JUMPDEST PUSH2 0xCA4 PUSH2 0x12E7 JUMP JUMPDEST PUSH1 0x0 SLOAD PUSH1 0x1 PUSH1 0x1 PUSH1 0xA0 SHL SUB AND CALLER EQ PUSH2 0xCA4 JUMPI PUSH1 0x40 MLOAD PUSH3 0x461BCD PUSH1 0xE5 SHL DUP2 MSTORE PUSH1 0x20 PUSH1 0x4 DUP3 ADD DUP2 SWAP1 MSTORE PUSH1 0x24 DUP3 ADD MSTORE PUSH32 0x4F776E61626C653A2063616C6C6572206973206E6F7420746865206F776E6572 PUSH1 0x44 DUP3 ADD MSTORE PUSH1 0x64 ADD PUSH2 0x605 JUMP JUMPDEST PUSH2 0x10AE PUSH2 0x1CC0 JUMP JUMPDEST PUSH2 0x10B6 PUSH2 0x1CC0 JUMP JUMPDEST PUSH2 0x10C2 DUP2 DUP7 DUP7 DUP7 PUSH2 0x142A JUMP JUMPDEST SWAP6 SWAP5 POP POP POP POP POP JUMP JUMPDEST PUSH1 0x80 DUP4 ADD MLOAD PUSH2 0x10DA SWAP1 DUP4 PUSH2 0x1467 JUMP JUMPDEST PUSH1 0x80 DUP4 ADD MLOAD PUSH2 0x10E9 SWAP1 DUP3 PUSH2 0x1467 JUMP JUMPDEST POP POP POP JUMP JUMPDEST PUSH1 0x5 SLOAD PUSH1 0x0 SWAP1 PUSH2 0x10FF DUP2 PUSH1 0x1 PUSH2 0x2139 JUMP JUMPDEST PUSH1 0x5 SSTORE DUP4 MLOAD PUSH1 0x40 DUP1 DUP7 ADD MLOAD PUSH1 0x80 DUP8 ADD MLOAD MLOAD SWAP2 MLOAD PUSH1 0x0 SWAP4 PUSH4 0x20214CA3 PUSH1 0xE1 SHL SWAP4 PUSH2 0x1137 SWAP4 DUP7 SWAP4 DUP5 SWAP4 SWAP3 ADDRESS SWAP3 SWAP2 DUP11 SWAP2 PUSH1 0x1 SWAP2 PUSH1 0x24 ADD PUSH2 0x22C9 JUMP JUMPDEST PUSH1 0x40 DUP1 MLOAD PUSH1 0x1F NOT DUP2 DUP5 SUB ADD DUP2 MSTORE SWAP2 SWAP1 MSTORE PUSH1 0x20 DUP2 ADD DUP1 MLOAD PUSH1 0x1 PUSH1 0x1 PUSH1 0xE0 SHL SUB AND PUSH1 0x1 PUSH1 0x1 PUSH1 0xE0 SHL SUB NOT SWAP1 SWAP4 AND SWAP3 SWAP1 SWAP3 OR SWAP1 SWAP2 MSTORE SWAP1 POP PUSH2 0x1177 DUP7 DUP4 DUP7 DUP5 PUSH2 0x147E JUMP JUMPDEST SWAP7 SWAP6 POP POP POP POP POP POP JUMP JUMPDEST PUSH1 0x0 DUP1 SLOAD PUSH1 0x1 PUSH1 0x1 PUSH1 0xA0 SHL SUB DUP4 DUP2 AND PUSH1 0x1 PUSH1 0x1 PUSH1 0xA0 SHL SUB NOT DUP4 AND DUP2 OR DUP5 SSTORE PUSH1 0x40 MLOAD SWAP2 SWAP1 SWAP3 AND SWAP3 DUP4 SWAP2 PUSH32 0x8BE0079C531659141344CD1FD0A4F28419497F9722A3DAAFE3B4186F6B6457E0 SWAP2 SWAP1 LOG3 POP POP JUMP JUMPDEST PUSH2 0x11D9 PUSH2 0x15DC JUMP JUMPDEST PUSH1 0x0 PUSH1 0x11 SLOAD GT PUSH2 0x1223 JUMPI PUSH1 0x40 MLOAD PUSH3 0x461BCD PUSH1 0xE5 SHL DUP2 MSTORE PUSH1 0x20 PUSH1 0x4 DUP3 ADD MSTORE PUSH1 0x15 PUSH1 0x24 DUP3 ADD MSTORE PUSH21 0x139BC81DDA5B9B995C9CC81D1A1A5CC81C9BDD5B99 PUSH1 0x5A SHL PUSH1 0x44 DUP3 ADD MSTORE PUSH1 0x64 ADD PUSH2 0x605 JUMP JUMPDEST PUSH1 0x0 PUSH2 0x122D PUSH2 0x658 JUMP JUMPDEST SWAP1 POP PUSH1 0x0 JUMPDEST PUSH1 0x11 SLOAD DUP2 LT ISZERO PUSH2 0x12B4 JUMPI PUSH1 0x0 DUP2 DUP2 MSTORE PUSH1 0x10 PUSH1 0x20 SWAP1 DUP2 MSTORE PUSH1 0x40 DUP1 DUP4 KECCAK256 SLOAD PUSH1 0x1 PUSH1 0x1 PUSH1 0xA0 SHL SUB AND DUP4 MSTORE PUSH1 0xE SWAP1 SWAP2 MSTORE DUP2 KECCAK256 PUSH1 0x2 ADD SLOAD PUSH1 0x64 SWAP1 PUSH2 0x1272 SWAP1 DUP6 SWAP1 PUSH2 0x2061 JUMP JUMPDEST PUSH2 0x127C SWAP2 SWAP1 PUSH2 0x2096 JUMP JUMPDEST PUSH1 0x0 DUP4 DUP2 MSTORE PUSH1 0x10 PUSH1 0x20 MSTORE PUSH1 0x40 SWAP1 KECCAK256 SLOAD SWAP1 SWAP2 POP PUSH2 0x12A1 SWAP1 PUSH1 0x1 PUSH1 0x1 PUSH1 0xA0 SHL SUB AND DUP3 PUSH2 0x17D7 JUMP JUMPDEST POP DUP1 PUSH2 0x12AC DUP2 PUSH2 0x22B0 JUMP JUMPDEST SWAP2 POP POP PUSH2 0x1232 JUMP JUMPDEST POP PUSH2 0x12D0 PUSH2 0x12CA PUSH1 0x0 SLOAD PUSH1 0x1 PUSH1 0x1 PUSH1 0xA0 SHL SUB AND SWAP1 JUMP JUMPDEST SELFBALANCE PUSH2 0x17D7 JUMP JUMPDEST PUSH1 0xB DUP1 SLOAD PUSH1 0x1 SWAP2 SWAP1 PUSH1 0xFF NOT AND DUP3 DUP1 JUMPDEST MUL OR SWAP1 SSTORE POP POP JUMP JUMPDEST PUSH1 0x0 JUMPDEST PUSH1 0x11 SLOAD DUP2 LT ISZERO PUSH2 0x1334 JUMPI PUSH1 0x15 SLOAD PUSH1 0x0 DUP3 DUP2 MSTORE PUSH1 0x10 PUSH1 0x20 MSTORE PUSH1 0x40 SWAP1 KECCAK256 DUP1 SLOAD PUSH1 0x1 PUSH1 0x1 PUSH1 0xA0 SHL SUB NOT AND PUSH1 0x1 PUSH1 0x1 PUSH1 0xA0 SHL SUB SWAP1 SWAP3 AND SWAP2 SWAP1 SWAP2 OR SWAP1 SSTORE DUP1 PUSH2 0x132C DUP2 PUSH2 0x22B0 JUMP JUMPDEST SWAP2 POP POP PUSH2 0x12EA JUMP JUMPDEST POP PUSH1 0x0 PUSH1 0x11 DUP2 SWAP1 SSTORE JUMPDEST PUSH1 0xD SLOAD DUP2 LT ISZERO PUSH2 0x141D JUMPI PUSH1 0x12 PUSH1 0xE PUSH1 0x0 PUSH1 0xD DUP5 DUP2 SLOAD DUP2 LT PUSH2 0x1360 JUMPI PUSH2 0x1360 PUSH2 0x2151 JUMP JUMPDEST PUSH1 0x0 SWAP2 DUP3 MSTORE PUSH1 0x20 DUP1 DUP4 KECCAK256 SWAP2 SWAP1 SWAP2 ADD SLOAD PUSH1 0x1 PUSH1 0x1 PUSH1 0xA0 SHL SUB SWAP1 DUP2 AND DUP5 MSTORE SWAP1 DUP4 ADD SWAP4 SWAP1 SWAP4 MSTORE PUSH1 0x40 SWAP1 SWAP2 ADD SWAP1 KECCAK256 DUP3 SLOAD DUP2 SLOAD SWAP3 AND PUSH1 0x1 PUSH1 0x1 PUSH1 0xA0 SHL SUB NOT DUP4 AND DUP2 OR DUP3 SSTORE DUP4 SLOAD SWAP2 SWAP3 PUSH1 0x1 PUSH1 0xA0 SHL SWAP3 DUP4 SWAP1 DIV PUSH1 0xFF AND SWAP3 DUP5 SWAP3 PUSH1 0x1 PUSH1 0x1 PUSH1 0xA8 SHL SUB NOT SWAP1 SWAP3 AND SWAP1 SWAP2 OR SWAP1 DUP4 PUSH1 0x9 DUP2 GT ISZERO PUSH2 0x13D4 JUMPI PUSH2 0x13D4 PUSH2 0x1D4F JUMP JUMPDEST MUL OR SWAP1 SSTORE POP DUP2 SLOAD DUP2 SLOAD PUSH1 0xFF PUSH1 0xA8 SHL NOT AND PUSH1 0x1 PUSH1 0xA8 SHL SWAP2 DUP3 SWAP1 DIV PUSH1 0xFF AND ISZERO ISZERO SWAP1 SWAP2 MUL OR DUP2 SSTORE PUSH1 0x1 DUP1 DUP4 ADD SLOAD SWAP1 DUP3 ADD SSTORE PUSH1 0x2 SWAP2 DUP3 ADD SLOAD SWAP2 ADD SSTORE DUP1 PUSH2 0x1415 DUP2 PUSH2 0x22B0 JUMP JUMPDEST SWAP2 POP POP PUSH2 0x133D JUMP JUMPDEST POP PUSH2 0xCA4 PUSH1 0xD PUSH1 0x0 PUSH2 0x1CFB JUMP JUMPDEST PUSH2 0x1432 PUSH2 0x1CC0 JUMP JUMPDEST PUSH2 0x1442 DUP6 PUSH1 0x80 ADD MLOAD PUSH2 0x100 PUSH2 0x18AC JUMP JUMPDEST POP POP SWAP2 DUP4 MSTORE PUSH1 0x1 PUSH1 0x1 PUSH1 0xA0 SHL SUB AND PUSH1 0x20 DUP4 ADD MSTORE PUSH1 0x1 PUSH1 0x1 PUSH1 0xE0 SHL SUB NOT AND PUSH1 0x40 DUP3 ADD MSTORE SWAP1 JUMP JUMPDEST PUSH2 0x1474 DUP3 PUSH1 0x3 DUP4 MLOAD PUSH2 0x1911 JUMP JUMPDEST PUSH2 0x10E9 DUP3 DUP3 PUSH2 0x1A26 JUMP JUMPDEST PUSH1 0x40 MLOAD PUSH12 0xFFFFFFFFFFFFFFFFFFFFFFFF NOT ADDRESS PUSH1 0x60 SHL AND PUSH1 0x20 DUP3 ADD MSTORE PUSH1 0x34 DUP2 ADD DUP5 SWAP1 MSTORE PUSH1 0x0 SWAP1 PUSH1 0x54 ADD PUSH1 0x40 DUP1 MLOAD DUP1 DUP4 SUB PUSH1 0x1F NOT ADD DUP2 MSTORE DUP3 DUP3 MSTORE DUP1 MLOAD PUSH1 0x20 SWAP2 DUP3 ADD KECCAK256 PUSH1 0x0 DUP2 DUP2 MSTORE PUSH1 0x6 SWAP1 SWAP3 MSTORE SWAP2 DUP2 KECCAK256 DUP1 SLOAD PUSH1 0x1 PUSH1 0x1 PUSH1 0xA0 SHL SUB NOT AND PUSH1 0x1 PUSH1 0x1 PUSH1 0xA0 SHL SUB DUP11 AND OR SWAP1 SSTORE SWAP1 SWAP3 POP DUP3 SWAP2 PUSH32 0xB5E6E01E79F91267DC17B4E6314D5D4D03593D2CEEE0FBB452B750BD70EA5AF9 SWAP2 SWAP1 LOG2 PUSH1 0x3 SLOAD PUSH1 0x40 MLOAD PUSH4 0x2000575 PUSH1 0xE5 SHL DUP2 MSTORE PUSH1 0x1 PUSH1 0x1 PUSH1 0xA0 SHL SUB SWAP1 SWAP2 AND SWAP1 PUSH4 0x4000AEA0 SWAP1 PUSH2 0x1541 SWAP1 DUP9 SWAP1 DUP8 SWAP1 DUP8 SWAP1 PUSH1 0x4 ADD PUSH2 0x2331 JUMP JUMPDEST PUSH1 0x20 PUSH1 0x40 MLOAD DUP1 DUP4 SUB DUP2 PUSH1 0x0 DUP8 GAS CALL ISZERO DUP1 ISZERO PUSH2 0x1560 JUMPI RETURNDATASIZE PUSH1 0x0 DUP1 RETURNDATACOPY RETURNDATASIZE PUSH1 0x0 REVERT JUMPDEST POP POP POP POP PUSH1 0x40 MLOAD RETURNDATASIZE PUSH1 0x1F NOT PUSH1 0x1F DUP3 ADD AND DUP3 ADD DUP1 PUSH1 0x40 MSTORE POP DUP2 ADD SWAP1 PUSH2 0x1584 SWAP2 SWAP1 PUSH2 0x2358 JUMP JUMPDEST PUSH2 0x73D JUMPI PUSH1 0x40 MLOAD PUSH3 0x461BCD PUSH1 0xE5 SHL DUP2 MSTORE PUSH1 0x20 PUSH1 0x4 DUP3 ADD MSTORE PUSH1 0x23 PUSH1 0x24 DUP3 ADD MSTORE PUSH32 0x756E61626C6520746F207472616E73666572416E6443616C6C20746F206F7261 PUSH1 0x44 DUP3 ADD MSTORE PUSH3 0x636C65 PUSH1 0xE8 SHL PUSH1 0x64 DUP3 ADD MSTORE PUSH1 0x84 ADD PUSH2 0x605 JUMP JUMPDEST PUSH1 0x0 PUSH1 0x11 DUP2 SWAP1 SSTORE PUSH1 0x16 SLOAD PUSH2 0x15EF SWAP1 PUSH2 0x1A4D JUMP JUMPDEST PUSH1 0x0 JUMPDEST PUSH1 0xD SLOAD DUP2 LT ISZERO PUSH2 0x174C JUMPI PUSH1 0xF SLOAD PUSH1 0x1 PUSH1 0xA0 SHL SWAP1 DIV PUSH1 0xFF AND PUSH1 0x9 DUP2 GT ISZERO PUSH2 0x161A JUMPI PUSH2 0x161A PUSH2 0x1D4F JUMP JUMPDEST PUSH1 0xE PUSH1 0x0 PUSH1 0xD DUP5 DUP2 SLOAD DUP2 LT PUSH2 0x1631 JUMPI PUSH2 0x1631 PUSH2 0x2151 JUMP JUMPDEST PUSH1 0x0 SWAP2 DUP3 MSTORE PUSH1 0x20 DUP1 DUP4 KECCAK256 SWAP1 SWAP2 ADD SLOAD PUSH1 0x1 PUSH1 0x1 PUSH1 0xA0 SHL SUB AND DUP4 MSTORE DUP3 ADD SWAP3 SWAP1 SWAP3 MSTORE PUSH1 0x40 ADD SWAP1 KECCAK256 SLOAD PUSH1 0xFF PUSH1 0x1 PUSH1 0xA0 SHL SWAP1 SWAP2 DIV AND PUSH1 0x9 DUP2 GT ISZERO PUSH2 0x1672 JUMPI PUSH2 0x1672 PUSH2 0x1D4F JUMP JUMPDEST SUB PUSH2 0x173A JUMPI PUSH1 0xE PUSH1 0x0 PUSH1 0xD DUP4 DUP2 SLOAD DUP2 LT PUSH2 0x168E JUMPI PUSH2 0x168E PUSH2 0x2151 JUMP JUMPDEST PUSH1 0x0 SWAP2 DUP3 MSTORE PUSH1 0x20 DUP1 DUP4 KECCAK256 SWAP1 SWAP2 ADD SLOAD PUSH1 0x1 PUSH1 0x1 PUSH1 0xA0 SHL SUB AND DUP4 MSTORE DUP3 ADD SWAP3 SWAP1 SWAP3 MSTORE PUSH1 0x40 ADD SWAP1 KECCAK256 PUSH1 0x1 ADD SLOAD PUSH2 0x16C0 SWAP1 DUP4 PUSH2 0x2139 JUMP JUMPDEST SWAP2 POP PUSH1 0xE PUSH1 0x0 PUSH1 0xD DUP4 DUP2 SLOAD DUP2 LT PUSH2 0x16D9 JUMPI PUSH2 0x16D9 PUSH2 0x2151 JUMP JUMPDEST PUSH1 0x0 SWAP2 DUP3 MSTORE PUSH1 0x20 DUP1 DUP4 KECCAK256 SWAP1 SWAP2 ADD SLOAD PUSH1 0x1 PUSH1 0x1 PUSH1 0xA0 SHL SUB SWAP1 DUP2 AND DUP5 MSTORE DUP4 DUP3 ADD SWAP5 SWAP1 SWAP5 MSTORE PUSH1 0x40 SWAP3 DUP4 ADD DUP3 KECCAK256 SLOAD PUSH1 0x11 DUP1 SLOAD DUP5 MSTORE PUSH1 0x10 SWAP1 SWAP3 MSTORE SWAP3 DUP3 KECCAK256 DUP1 SLOAD PUSH1 0x1 PUSH1 0x1 PUSH1 0xA0 SHL SUB NOT AND SWAP4 SWAP1 SWAP5 AND SWAP3 SWAP1 SWAP3 OR SWAP1 SWAP3 SSTORE DUP1 SLOAD SWAP2 PUSH2 0x1734 DUP4 PUSH2 0x22B0 JUMP JUMPDEST SWAP2 SWAP1 POP SSTORE POP JUMPDEST DUP1 PUSH2 0x1744 DUP2 PUSH2 0x22B0 JUMP JUMPDEST SWAP2 POP POP PUSH2 0x15F2 JUMP JUMPDEST POP PUSH1 0x0 JUMPDEST PUSH1 0x11 SLOAD DUP2 LT ISZERO PUSH2 0x17D3 JUMPI PUSH1 0x0 DUP2 DUP2 MSTORE PUSH1 0x10 PUSH1 0x20 SWAP1 DUP2 MSTORE PUSH1 0x40 DUP1 DUP4 KECCAK256 SLOAD PUSH1 0x1 PUSH1 0x1 PUSH1 0xA0 SHL SUB AND DUP4 MSTORE PUSH1 0xE SWAP1 SWAP2 MSTORE SWAP1 KECCAK256 PUSH1 0x1 ADD SLOAD DUP3 SWAP1 PUSH2 0x178F SWAP1 PUSH1 0x64 PUSH2 0x2061 JUMP JUMPDEST PUSH2 0x1799 SWAP2 SWAP1 PUSH2 0x2096 JUMP JUMPDEST PUSH1 0x0 DUP3 DUP2 MSTORE PUSH1 0x10 PUSH1 0x20 SWAP1 DUP2 MSTORE PUSH1 0x40 DUP1 DUP4 KECCAK256 SLOAD PUSH1 0x1 PUSH1 0x1 PUSH1 0xA0 SHL SUB AND DUP4 MSTORE PUSH1 0xE SWAP1 SWAP2 MSTORE SWAP1 KECCAK256 PUSH1 0x2 ADD SSTORE DUP1 PUSH2 0x17CB DUP2 PUSH2 0x22B0 JUMP JUMPDEST SWAP2 POP POP PUSH2 0x1750 JUMP JUMPDEST POP POP JUMP JUMPDEST PUSH1 0x0 DUP3 PUSH1 0x1 PUSH1 0x1 PUSH1 0xA0 SHL SUB AND DUP3 PUSH1 0x40 MLOAD PUSH1 0x0 PUSH1 0x40 MLOAD DUP1 DUP4 SUB DUP2 DUP6 DUP8 GAS CALL SWAP3 POP POP POP RETURNDATASIZE DUP1 PUSH1 0x0 DUP2 EQ PUSH2 0x1824 JUMPI PUSH1 0x40 MLOAD SWAP2 POP PUSH1 0x1F NOT PUSH1 0x3F RETURNDATASIZE ADD AND DUP3 ADD PUSH1 0x40 MSTORE RETURNDATASIZE DUP3 MSTORE RETURNDATASIZE PUSH1 0x0 PUSH1 0x20 DUP5 ADD RETURNDATACOPY PUSH2 0x1829 JUMP JUMPDEST PUSH1 0x60 SWAP2 POP JUMPDEST POP POP SWAP1 POP DUP1 PUSH2 0x1871 JUMPI PUSH1 0x40 MLOAD PUSH3 0x461BCD PUSH1 0xE5 SHL DUP2 MSTORE PUSH1 0x20 PUSH1 0x4 DUP3 ADD MSTORE PUSH1 0x14 PUSH1 0x24 DUP3 ADD MSTORE PUSH20 0x2330B4B632B2103A37903830BC903BB4B73732B9 PUSH1 0x61 SHL PUSH1 0x44 DUP3 ADD MSTORE PUSH1 0x64 ADD PUSH2 0x605 JUMP JUMPDEST DUP3 PUSH1 0x1 PUSH1 0x1 PUSH1 0xA0 SHL SUB AND PUSH32 0x2897E467188C1EBBD157F72E82B2059710AEA0DF2BA4B6075E47E305087BBFFE DUP4 PUSH1 0x40 MLOAD PUSH2 0xBBA SWAP2 DUP2 MSTORE PUSH1 0x20 ADD SWAP1 JUMP JUMPDEST PUSH1 0x40 DUP1 MLOAD DUP1 DUP3 ADD SWAP1 SWAP2 MSTORE PUSH1 0x60 DUP2 MSTORE PUSH1 0x0 PUSH1 0x20 DUP3 ADD MSTORE PUSH2 0x18CC PUSH1 0x20 DUP4 PUSH2 0x237A JUMP JUMPDEST ISZERO PUSH2 0x18F4 JUMPI PUSH2 0x18DC PUSH1 0x20 DUP4 PUSH2 0x237A JUMP JUMPDEST PUSH2 0x18E7 SWAP1 PUSH1 0x20 PUSH2 0x21A9 JUMP JUMPDEST PUSH2 0x18F1 SWAP1 DUP4 PUSH2 0x2139 JUMP JUMPDEST SWAP2 POP JUMPDEST POP PUSH1 0x20 DUP3 DUP2 ADD DUP3 SWAP1 MSTORE PUSH1 0x40 DUP1 MLOAD DUP1 DUP6 MSTORE PUSH1 0x0 DUP2 MSTORE SWAP1 SWAP3 ADD ADD SWAP1 MSTORE SWAP1 JUMP JUMPDEST PUSH1 0x17 DUP2 PUSH8 0xFFFFFFFFFFFFFFFF AND GT PUSH2 0x193C JUMPI PUSH2 0x1936 DUP4 PUSH1 0xE0 PUSH1 0x5 DUP6 SWAP1 SHL AND DUP4 OR PUSH2 0x1A81 JUMP JUMPDEST POP POP POP POP JUMP JUMPDEST PUSH1 0xFF DUP2 PUSH8 0xFFFFFFFFFFFFFFFF AND GT PUSH2 0x197A JUMPI PUSH2 0x1963 DUP4 PUSH1 0x18 PUSH2 0x1FE0 PUSH1 0x5 DUP7 SWAP1 SHL AND OR PUSH2 0x1A81 JUMP JUMPDEST POP PUSH2 0x1936 DUP4 PUSH8 0xFFFFFFFFFFFFFFFF DUP4 AND PUSH1 0x1 PUSH2 0x1AA6 JUMP JUMPDEST PUSH2 0xFFFF DUP2 PUSH8 0xFFFFFFFFFFFFFFFF AND GT PUSH2 0x19B9 JUMPI PUSH2 0x19A2 DUP4 PUSH1 0x19 PUSH2 0x1FE0 PUSH1 0x5 DUP7 SWAP1 SHL AND OR PUSH2 0x1A81 JUMP JUMPDEST POP PUSH2 0x1936 DUP4 PUSH8 0xFFFFFFFFFFFFFFFF DUP4 AND PUSH1 0x2 PUSH2 0x1AA6 JUMP JUMPDEST PUSH4 0xFFFFFFFF DUP2 PUSH8 0xFFFFFFFFFFFFFFFF AND GT PUSH2 0x19FA JUMPI PUSH2 0x19E3 DUP4 PUSH1 0x1A PUSH2 0x1FE0 PUSH1 0x5 DUP7 SWAP1 SHL AND OR PUSH2 0x1A81 JUMP JUMPDEST POP PUSH2 0x1936 DUP4 PUSH8 0xFFFFFFFFFFFFFFFF DUP4 AND PUSH1 0x4 PUSH2 0x1AA6 JUMP JUMPDEST PUSH2 0x1A0F DUP4 PUSH1 0x1B PUSH2 0x1FE0 PUSH1 0x5 DUP7 SWAP1 SHL AND OR PUSH2 0x1A81 JUMP JUMPDEST POP PUSH2 0x1936 DUP4 PUSH8 0xFFFFFFFFFFFFFFFF DUP4 AND PUSH1 0x8 PUSH2 0x1AA6 JUMP JUMPDEST PUSH1 0x40 DUP1 MLOAD DUP1 DUP3 ADD SWAP1 SWAP2 MSTORE PUSH1 0x60 DUP2 MSTORE PUSH1 0x0 PUSH1 0x20 DUP3 ADD MSTORE PUSH2 0xE65 DUP4 DUP5 PUSH1 0x0 ADD MLOAD MLOAD DUP5 DUP6 MLOAD PUSH2 0x1ACC JUMP JUMPDEST DUP1 PUSH1 0x9 DUP2 GT ISZERO PUSH2 0x1A5F JUMPI PUSH2 0x1A5F PUSH2 0x1D4F JUMP JUMPDEST PUSH1 0xF DUP1 SLOAD PUSH1 0xFF PUSH1 0xA0 SHL NOT AND PUSH1 0x1 PUSH1 0xA0 SHL DUP4 PUSH1 0x9 DUP2 GT ISZERO PUSH2 0x12DF JUMPI PUSH2 0x12DF PUSH2 0x1D4F JUMP JUMPDEST PUSH1 0x40 DUP1 MLOAD DUP1 DUP3 ADD SWAP1 SWAP2 MSTORE PUSH1 0x60 DUP2 MSTORE PUSH1 0x0 PUSH1 0x20 DUP3 ADD MSTORE PUSH2 0xE65 DUP4 DUP5 PUSH1 0x0 ADD MLOAD MLOAD DUP5 PUSH2 0x1BB6 JUMP JUMPDEST PUSH1 0x40 DUP1 MLOAD DUP1 DUP3 ADD SWAP1 SWAP2 MSTORE PUSH1 0x60 DUP2 MSTORE PUSH1 0x0 PUSH1 0x20 DUP3 ADD MSTORE PUSH2 0x73D DUP5 DUP6 PUSH1 0x0 ADD MLOAD MLOAD DUP6 DUP6 PUSH2 0x1C11 JUMP JUMPDEST PUSH1 0x40 DUP1 MLOAD DUP1 DUP3 ADD SWAP1 SWAP2 MSTORE PUSH1 0x60 DUP2 MSTORE PUSH1 0x0 PUSH1 0x20 DUP3 ADD MSTORE DUP3 MLOAD DUP3 GT ISZERO PUSH2 0x1AEF JUMPI PUSH1 0x0 DUP1 REVERT JUMPDEST PUSH1 0x20 DUP6 ADD MLOAD PUSH2 0x1AFE DUP4 DUP7 PUSH2 0x2139 JUMP JUMPDEST GT ISZERO PUSH2 0x1B31 JUMPI PUSH2 0x1B31 DUP6 PUSH2 0x1B21 DUP8 PUSH1 0x20 ADD MLOAD DUP8 DUP7 PUSH2 0x1B1C SWAP2 SWAP1 PUSH2 0x2139 JUMP JUMPDEST PUSH2 0x1C92 JUMP JUMPDEST PUSH2 0x1B2C SWAP1 PUSH1 0x2 PUSH2 0x2061 JUMP JUMPDEST PUSH2 0x1CA9 JUMP JUMPDEST PUSH1 0x0 DUP1 DUP7 MLOAD DUP1 MLOAD DUP8 PUSH1 0x20 DUP4 ADD ADD SWAP4 POP DUP1 DUP9 DUP8 ADD GT ISZERO PUSH2 0x1B50 JUMPI DUP8 DUP7 ADD DUP3 MSTORE JUMPDEST POP POP POP PUSH1 0x20 DUP5 ADD JUMPDEST PUSH1 0x20 DUP5 LT PUSH2 0x1B90 JUMPI DUP1 MLOAD DUP3 MSTORE PUSH2 0x1B6F PUSH1 0x20 DUP4 PUSH2 0x2139 JUMP JUMPDEST SWAP2 POP PUSH2 0x1B7C PUSH1 0x20 DUP3 PUSH2 0x2139 JUMP JUMPDEST SWAP1 POP PUSH2 0x1B89 PUSH1 0x20 DUP6 PUSH2 0x21A9 JUMP JUMPDEST SWAP4 POP PUSH2 0x1B58 JUMP JUMPDEST MLOAD DUP2 MLOAD PUSH1 0x0 NOT PUSH1 0x20 DUP7 SWAP1 SUB PUSH2 0x100 EXP ADD SWAP1 DUP2 AND SWAP1 NOT SWAP2 SWAP1 SWAP2 AND OR SWAP1 MSTORE POP DUP4 SWAP5 SWAP4 POP POP POP POP JUMP JUMPDEST PUSH1 0x40 DUP1 MLOAD DUP1 DUP3 ADD SWAP1 SWAP2 MSTORE PUSH1 0x60 DUP2 MSTORE PUSH1 0x0 PUSH1 0x20 DUP3 ADD MSTORE DUP4 PUSH1 0x20 ADD MLOAD DUP4 LT PUSH2 0x1BEB JUMPI PUSH2 0x1BEB DUP5 DUP6 PUSH1 0x20 ADD MLOAD PUSH1 0x2 PUSH2 0x1B2C SWAP2 SWAP1 PUSH2 0x2061 JUMP JUMPDEST DUP4 MLOAD DUP1 MLOAD PUSH1 0x20 DUP6 DUP4 ADD ADD DUP5 DUP2 MSTORE8 POP DUP1 DUP6 SUB PUSH2 0x1C07 JUMPI PUSH1 0x1 DUP2 ADD DUP3 MSTORE JUMPDEST POP SWAP4 SWAP5 SWAP4 POP POP POP POP JUMP JUMPDEST PUSH1 0x40 DUP1 MLOAD DUP1 DUP3 ADD SWAP1 SWAP2 MSTORE PUSH1 0x60 DUP2 MSTORE PUSH1 0x0 PUSH1 0x20 DUP3 ADD MSTORE PUSH1 0x20 DUP6 ADD MLOAD PUSH2 0x1C35 DUP6 DUP5 PUSH2 0x2139 JUMP JUMPDEST GT ISZERO PUSH2 0x1C49 JUMPI PUSH2 0x1C49 DUP6 PUSH2 0x1B21 DUP7 DUP6 PUSH2 0x2139 JUMP JUMPDEST PUSH1 0x0 PUSH1 0x1 PUSH2 0x1C59 DUP5 PUSH2 0x100 PUSH2 0x22A4 JUMP JUMPDEST PUSH2 0x1C63 SWAP2 SWAP1 PUSH2 0x21A9 JUMP JUMPDEST SWAP1 POP DUP6 MLOAD DUP4 DUP7 DUP3 ADD ADD DUP6 DUP4 NOT DUP3 MLOAD AND OR DUP2 MSTORE POP DUP1 MLOAD DUP5 DUP8 ADD GT ISZERO PUSH2 0x1C87 JUMPI DUP4 DUP7 ADD DUP2 MSTORE JUMPDEST POP SWAP5 SWAP6 SWAP5 POP POP POP POP POP JUMP JUMPDEST PUSH1 0x0 DUP2 DUP4 GT ISZERO PUSH2 0x1CA3 JUMPI POP DUP2 PUSH2 0xC8C JUMP JUMPDEST POP SWAP2 SWAP1 POP JUMP JUMPDEST DUP2 MLOAD PUSH2 0x1CB5 DUP4 DUP4 PUSH2 0x18AC JUMP JUMPDEST POP PUSH2 0x1936 DUP4 DUP3 PUSH2 0x1A26 JUMP JUMPDEST PUSH1 0x40 DUP1 MLOAD PUSH1 0xA0 DUP2 ADD DUP3 MSTORE PUSH1 0x0 DUP1 DUP3 MSTORE PUSH1 0x20 DUP1 DUP4 ADD DUP3 SWAP1 MSTORE DUP3 DUP5 ADD DUP3 SWAP1 MSTORE PUSH1 0x60 DUP1 DUP5 ADD DUP4 SWAP1 MSTORE DUP5 MLOAD DUP1 DUP7 ADD SWAP1 SWAP6 MSTORE DUP5 MSTORE DUP4 ADD MSTORE SWAP1 PUSH1 0x80 DUP3 ADD MSTORE SWAP1 JUMP JUMPDEST POP DUP1 SLOAD PUSH1 0x0 DUP3 SSTORE SWAP1 PUSH1 0x0 MSTORE PUSH1 0x20 PUSH1 0x0 KECCAK256 SWAP1 DUP2 ADD SWAP1 PUSH2 0xEAF SWAP2 SWAP1 JUMPDEST DUP1 DUP3 GT ISZERO PUSH2 0x1D29 JUMPI PUSH1 0x0 DUP2 SSTORE PUSH1 0x1 ADD PUSH2 0x1D15 JUMP JUMPDEST POP SWAP1 JUMP JUMPDEST PUSH1 0x0 DUP1 PUSH1 0x40 DUP4 DUP6 SUB SLT ISZERO PUSH2 0x1D40 JUMPI PUSH1 0x0 DUP1 REVERT JUMPDEST POP POP DUP1 CALLDATALOAD SWAP3 PUSH1 0x20 SWAP1 SWAP2 ADD CALLDATALOAD SWAP2 POP JUMP JUMPDEST PUSH4 0x4E487B71 PUSH1 0xE0 SHL PUSH1 0x0 MSTORE PUSH1 0x21 PUSH1 0x4 MSTORE PUSH1 0x24 PUSH1 0x0 REVERT JUMPDEST PUSH1 0xA DUP2 LT PUSH2 0x1D75 JUMPI PUSH2 0x1D75 PUSH2 0x1D4F JUMP JUMPDEST SWAP1 MSTORE JUMP JUMPDEST DUP2 MLOAD PUSH1 0x1 PUSH1 0x1 PUSH1 0xA0 SHL SUB AND DUP2 MSTORE PUSH1 0x20 DUP1 DUP4 ADD MLOAD PUSH1 0xA0 DUP4 ADD SWAP2 PUSH2 0x1D9D SWAP1 DUP5 ADD DUP3 PUSH2 0x1D65 JUMP JUMPDEST POP PUSH1 0x40 DUP4 ADD MLOAD ISZERO ISZERO PUSH1 0x40 DUP4 ADD MSTORE PUSH1 0x60 DUP4 ADD MLOAD PUSH1 0x60 DUP4 ADD MSTORE PUSH1 0x80 DUP4 ADD MLOAD PUSH1 0x80 DUP4 ADD MSTORE SWAP3 SWAP2 POP POP JUMP JUMPDEST PUSH1 0x0 PUSH1 0x20 DUP3 DUP5 SUB SLT ISZERO PUSH2 0x1DD6 JUMPI PUSH1 0x0 DUP1 REVERT JUMPDEST DUP2 CALLDATALOAD PUSH1 0xFF DUP2 AND DUP2 EQ PUSH2 0xE65 JUMPI PUSH1 0x0 DUP1 REVERT JUMPDEST PUSH1 0x0 PUSH1 0x20 DUP3 DUP5 SUB SLT ISZERO PUSH2 0x1DF9 JUMPI PUSH1 0x0 DUP1 REVERT JUMPDEST POP CALLDATALOAD SWAP2 SWAP1 POP JUMP JUMPDEST DUP1 CALLDATALOAD PUSH1 0x1 PUSH1 0x1 PUSH1 0xA0 SHL SUB DUP2 AND DUP2 EQ PUSH2 0x1E17 JUMPI PUSH1 0x0 DUP1 REVERT JUMPDEST SWAP2 SWAP1 POP JUMP JUMPDEST PUSH1 0x0 DUP1 PUSH1 0x40 DUP4 DUP6 SUB SLT ISZERO PUSH2 0x1E2F JUMPI PUSH1 0x0 DUP1 REVERT JUMPDEST PUSH2 0x1E38 DUP4 PUSH2 0x1E00 JUMP JUMPDEST SWAP2 POP PUSH1 0x20 DUP4 ADD CALLDATALOAD PUSH1 0x1 PUSH1 0x1 PUSH1 0xE0 SHL SUB NOT DUP2 AND DUP2 EQ PUSH2 0x1E55 JUMPI PUSH1 0x0 DUP1 REVERT JUMPDEST DUP1 SWAP2 POP POP SWAP3 POP SWAP3 SWAP1 POP JUMP JUMPDEST PUSH1 0x20 DUP2 ADD PUSH1 0x3 DUP4 LT PUSH2 0x1E74 JUMPI PUSH2 0x1E74 PUSH2 0x1D4F JUMP JUMPDEST SWAP2 SWAP1 MSTORE SWAP1 JUMP JUMPDEST PUSH1 0x0 DUP2 MLOAD DUP1 DUP5 MSTORE PUSH1 0x0 JUMPDEST DUP2 DUP2 LT ISZERO PUSH2 0x1EA0 JUMPI PUSH1 0x20 DUP2 DUP6 ADD DUP2 ADD MLOAD DUP7 DUP4 ADD DUP3 ADD MSTORE ADD PUSH2 0x1E84 JUMP JUMPDEST DUP2 DUP2 GT ISZERO PUSH2 0x1EB2 JUMPI PUSH1 0x0 PUSH1 0x20 DUP4 DUP8 ADD ADD MSTORE JUMPDEST POP PUSH1 0x1F ADD PUSH1 0x1F NOT AND SWAP3 SWAP1 SWAP3 ADD PUSH1 0x20 ADD SWAP3 SWAP2 POP POP JUMP JUMPDEST PUSH1 0x20 DUP2 MSTORE PUSH1 0x0 PUSH2 0xE65 PUSH1 0x20 DUP4 ADD DUP5 PUSH2 0x1E7A JUMP JUMPDEST PUSH4 0x4E487B71 PUSH1 0xE0 SHL PUSH1 0x0 MSTORE PUSH1 0x41 PUSH1 0x4 MSTORE PUSH1 0x24 PUSH1 0x0 REVERT JUMPDEST PUSH1 0x0 PUSH1 0x20 DUP3 DUP5 SUB SLT ISZERO PUSH2 0x1F02 JUMPI PUSH1 0x0 DUP1 REVERT JUMPDEST DUP2 CALLDATALOAD PUSH8 0xFFFFFFFFFFFFFFFF DUP1 DUP3 GT ISZERO PUSH2 0x1F1A JUMPI PUSH1 0x0 DUP1 REVERT JUMPDEST DUP2 DUP5 ADD SWAP2 POP DUP5 PUSH1 0x1F DUP4 ADD SLT PUSH2 0x1F2E JUMPI PUSH1 0x0 DUP1 REVERT JUMPDEST DUP2 CALLDATALOAD DUP2 DUP2 GT ISZERO PUSH2 0x1F40 JUMPI PUSH2 0x1F40 PUSH2 0x1EDA JUMP JUMPDEST PUSH1 0x40 MLOAD PUSH1 0x1F DUP3 ADD PUSH1 0x1F NOT SWAP1 DUP2 AND PUSH1 0x3F ADD AND DUP2 ADD SWAP1 DUP4 DUP3 GT DUP2 DUP4 LT OR ISZERO PUSH2 0x1F68 JUMPI PUSH2 0x1F68 PUSH2 0x1EDA JUMP JUMPDEST DUP2 PUSH1 0x40 MSTORE DUP3 DUP2 MSTORE DUP8 PUSH1 0x20 DUP5 DUP8 ADD ADD GT ISZERO PUSH2 0x1F81 JUMPI PUSH1 0x0 DUP1 REVERT JUMPDEST DUP3 PUSH1 0x20 DUP7 ADD PUSH1 0x20 DUP4 ADD CALLDATACOPY PUSH1 0x0 SWAP3 DUP2 ADD PUSH1 0x20 ADD SWAP3 SWAP1 SWAP3 MSTORE POP SWAP6 SWAP5 POP POP POP POP POP JUMP JUMPDEST PUSH1 0x0 PUSH1 0x20 DUP3 DUP5 SUB SLT ISZERO PUSH2 0x1FB3 JUMPI PUSH1 0x0 DUP1 REVERT JUMPDEST PUSH2 0xE65 DUP3 PUSH2 0x1E00 JUMP JUMPDEST PUSH1 0x1 PUSH1 0x1 PUSH1 0xA0 SHL SUB DUP7 AND DUP2 MSTORE PUSH1 0xA0 DUP2 ADD PUSH2 0x1FD9 PUSH1 0x20 DUP4 ADD DUP8 PUSH2 0x1D65 JUMP JUMPDEST SWAP4 ISZERO ISZERO PUSH1 0x40 DUP3 ADD MSTORE PUSH1 0x60 DUP2 ADD SWAP3 SWAP1 SWAP3 MSTORE PUSH1 0x80 SWAP1 SWAP2 ADD MSTORE SWAP3 SWAP2 POP POP JUMP JUMPDEST PUSH1 0x20 DUP2 ADD PUSH2 0xC8C DUP3 DUP5 PUSH2 0x1D65 JUMP JUMPDEST PUSH1 0x20 DUP1 DUP3 MSTORE PUSH1 0x28 SWAP1 DUP3 ADD MSTORE PUSH32 0x536F75726365206D75737420626520746865206F7261636C65206F6620746865 PUSH1 0x40 DUP3 ADD MSTORE PUSH8 0x81C995C5D595CDD PUSH1 0xC2 SHL PUSH1 0x60 DUP3 ADD MSTORE PUSH1 0x80 ADD SWAP1 JUMP JUMPDEST PUSH4 0x4E487B71 PUSH1 0xE0 SHL PUSH1 0x0 MSTORE PUSH1 0x11 PUSH1 0x4 MSTORE PUSH1 0x24 PUSH1 0x0 REVERT JUMPDEST PUSH1 0x0 DUP2 PUSH1 0x0 NOT DIV DUP4 GT DUP3 ISZERO ISZERO AND ISZERO PUSH2 0x207B JUMPI PUSH2 0x207B PUSH2 0x204B JUMP JUMPDEST POP MUL SWAP1 JUMP JUMPDEST PUSH4 0x4E487B71 PUSH1 0xE0 SHL PUSH1 0x0 MSTORE PUSH1 0x12 PUSH1 0x4 MSTORE PUSH1 0x24 PUSH1 0x0 REVERT JUMPDEST PUSH1 0x0 DUP3 PUSH2 0x20A5 JUMPI PUSH2 0x20A5 PUSH2 0x2080 JUMP JUMPDEST POP DIV SWAP1 JUMP JUMPDEST DUP1 MLOAD PUSH10 0xFFFFFFFFFFFFFFFFFFFF DUP2 AND DUP2 EQ PUSH2 0x1E17 JUMPI PUSH1 0x0 DUP1 REVERT JUMPDEST PUSH1 0x0 DUP1 PUSH1 0x0 DUP1 PUSH1 0x0 PUSH1 0xA0 DUP7 DUP9 SUB SLT ISZERO PUSH2 0x20DC JUMPI PUSH1 0x0 DUP1 REVERT JUMPDEST PUSH2 0x20E5 DUP7 PUSH2 0x20AA JUMP JUMPDEST SWAP5 POP PUSH1 0x20 DUP7 ADD MLOAD SWAP4 POP PUSH1 0x40 DUP7 ADD MLOAD SWAP3 POP PUSH1 0x60 DUP7 ADD MLOAD SWAP2 POP PUSH2 0x2108 PUSH1 0x80 DUP8 ADD PUSH2 0x20AA JUMP JUMPDEST SWAP1 POP SWAP3 SWAP6 POP SWAP3 SWAP6 SWAP1 SWAP4 POP JUMP JUMPDEST PUSH1 0x0 PUSH1 0xFF DUP3 AND PUSH1 0xFF DUP5 AND DUP1 PUSH1 0xFF SUB DUP3 GT ISZERO PUSH2 0x2131 JUMPI PUSH2 0x2131 PUSH2 0x204B JUMP JUMPDEST ADD SWAP4 SWAP3 POP POP POP JUMP JUMPDEST PUSH1 0x0 DUP3 NOT DUP3 GT ISZERO PUSH2 0x214C JUMPI PUSH2 0x214C PUSH2 0x204B JUMP JUMPDEST POP ADD SWAP1 JUMP JUMPDEST PUSH4 0x4E487B71 PUSH1 0xE0 SHL PUSH1 0x0 MSTORE PUSH1 0x32 PUSH1 0x4 MSTORE PUSH1 0x24 PUSH1 0x0 REVERT JUMPDEST PUSH1 0x0 PUSH1 0xFF DUP3 AND PUSH1 0xFF DUP2 SUB PUSH2 0x217D JUMPI PUSH2 0x217D PUSH2 0x204B JUMP JUMPDEST PUSH1 0x1 ADD SWAP3 SWAP2 POP POP JUMP JUMPDEST PUSH1 0x0 PUSH1 0xFF DUP3 AND PUSH1 0xFF DUP5 AND DUP1 DUP3 LT ISZERO PUSH2 0x21A0 JUMPI PUSH2 0x21A0 PUSH2 0x204B JUMP JUMPDEST SWAP1 SUB SWAP4 SWAP3 POP POP POP JUMP JUMPDEST PUSH1 0x0 DUP3 DUP3 LT ISZERO PUSH2 0x21BB JUMPI PUSH2 0x21BB PUSH2 0x204B JUMP JUMPDEST POP SUB SWAP1 JUMP JUMPDEST PUSH1 0x1 DUP2 DUP2 JUMPDEST DUP1 DUP6 GT ISZERO PUSH2 0x21FB JUMPI DUP2 PUSH1 0x0 NOT DIV DUP3 GT ISZERO PUSH2 0x21E1 JUMPI PUSH2 0x21E1 PUSH2 0x204B JUMP JUMPDEST DUP1 DUP6 AND ISZERO PUSH2 0x21EE JUMPI SWAP2 DUP2 MUL SWAP2 JUMPDEST SWAP4 DUP5 SHR SWAP4 SWAP1 DUP1 MUL SWAP1 PUSH2 0x21C5 JUMP JUMPDEST POP SWAP3 POP SWAP3 SWAP1 POP JUMP JUMPDEST PUSH1 0x0 DUP3 PUSH2 0x2212 JUMPI POP PUSH1 0x1 PUSH2 0xC8C JUMP JUMPDEST DUP2 PUSH2 0x221F JUMPI POP PUSH1 0x0 PUSH2 0xC8C JUMP JUMPDEST DUP2 PUSH1 0x1 DUP2 EQ PUSH2 0x2235 JUMPI PUSH1 0x2 DUP2 EQ PUSH2 0x223F JUMPI PUSH2 0x225B JUMP JUMPDEST PUSH1 0x1 SWAP2 POP POP PUSH2 0xC8C JUMP JUMPDEST PUSH1 0xFF DUP5 GT ISZERO PUSH2 0x2250 JUMPI PUSH2 0x2250 PUSH2 0x204B JUMP JUMPDEST POP POP PUSH1 0x1 DUP3 SHL PUSH2 0xC8C JUMP JUMPDEST POP PUSH1 0x20 DUP4 LT PUSH2 0x133 DUP4 LT AND PUSH1 0x4E DUP5 LT PUSH1 0xB DUP5 LT AND OR ISZERO PUSH2 0x227E JUMPI POP DUP2 DUP2 EXP PUSH2 0xC8C JUMP JUMPDEST PUSH2 0x2288 DUP4 DUP4 PUSH2 0x21C0 JUMP JUMPDEST DUP1 PUSH1 0x0 NOT DIV DUP3 GT ISZERO PUSH2 0x229C JUMPI PUSH2 0x229C PUSH2 0x204B JUMP JUMPDEST MUL SWAP4 SWAP3 POP POP POP JUMP JUMPDEST PUSH1 0x0 PUSH2 0xE65 DUP4 DUP4 PUSH2 0x2203 JUMP JUMPDEST PUSH1 0x0 PUSH1 0x1 DUP3 ADD PUSH2 0x22C2 JUMPI PUSH2 0x22C2 PUSH2 0x204B JUMP JUMPDEST POP PUSH1 0x1 ADD SWAP1 JUMP JUMPDEST PUSH1 0x1 PUSH1 0x1 PUSH1 0xA0 SHL SUB DUP10 DUP2 AND DUP3 MSTORE PUSH1 0x20 DUP3 ADD DUP10 SWAP1 MSTORE PUSH1 0x40 DUP3 ADD DUP9 SWAP1 MSTORE DUP7 AND PUSH1 0x60 DUP3 ADD MSTORE PUSH1 0x1 PUSH1 0x1 PUSH1 0xE0 SHL SUB NOT DUP6 AND PUSH1 0x80 DUP3 ADD MSTORE PUSH1 0xA0 DUP2 ADD DUP5 SWAP1 MSTORE PUSH1 0xC0 DUP2 ADD DUP4 SWAP1 MSTORE PUSH2 0x100 PUSH1 0xE0 DUP3 ADD DUP2 SWAP1 MSTORE PUSH1 0x0 SWAP1 PUSH2 0x2322 DUP4 DUP3 ADD DUP6 PUSH2 0x1E7A JUMP JUMPDEST SWAP12 SWAP11 POP POP POP POP POP POP POP POP POP POP POP JUMP JUMPDEST PUSH1 0x1 DUP1 PUSH1 0xA0 SHL SUB DUP5 AND DUP2 MSTORE DUP3 PUSH1 0x20 DUP3 ADD MSTORE PUSH1 0x60 PUSH1 0x40 DUP3 ADD MSTORE PUSH1 0x0 PUSH2 0x10C2 PUSH1 0x60 DUP4 ADD DUP5 PUSH2 0x1E7A JUMP JUMPDEST PUSH1 0x0 PUSH1 0x20 DUP3 DUP5 SUB SLT ISZERO PUSH2 0x236A JUMPI PUSH1 0x0 DUP1 REVERT JUMPDEST DUP2 MLOAD DUP1 ISZERO ISZERO DUP2 EQ PUSH2 0xE65 JUMPI PUSH1 0x0 DUP1 REVERT JUMPDEST PUSH1 0x0 DUP3 PUSH2 0x2389 JUMPI PUSH2 0x2389 PUSH2 0x2080 JUMP JUMPDEST POP MOD SWAP1 JUMP INVALID PUSH9 0x747470733A2F2F6665 PUSH9 0x2D726573706C656E64 PUSH6 0x6E742E686572 PUSH16 0x6B756170702E636F6D2F636861726163 PUSH21 0x6572732F6C61746573743F666F726D61743D6A736F PUSH15 0xA26469706673582212207602E9F6A0 0x28 PUSH31 0x9F85B89F14B7B9E1FEA70624AFACD562DAE77D77039516290E64736F6C6343 STOP ADDMOD 0xD STOP CALLER ","sha1":"f460030cfc1f063505de7b7763742524181923d9","source":"//SPDX-License-Identifier: Apache-2.0\npragma solidity ^0.8.7;\n\n//import \"./User.sol\";\n//import \"./BetStatus.sol\";\nimport \"@openzeppelin/contracts/access/Ownable.sol\";\nimport \"@chainlink/contracts/src/v0.8/interfaces/AggregatorV3Interface.sol\";\nimport \"@chainlink/contracts/src/v0.8/KeeperCompatible.sol\";\n\nimport \"./APIConsumer.sol\";\n\n//contract APIConsumer{ function requestData() public view returns(bytes32);} \n\ncontract Betting is Ownable, APIConsumer {\n    enum Bet{EMPTY, ASKR, EMBLA,NIFL,MUSPELL,HEL,LIGHT_FAIRY,DARK_FAIRY,MECHA,GIANT}\n    enum POLL_STATE {\n        OPEN,\n        CLOSED,\n        CALCULATING_WINNERS\n    }\n    struct User {\n        address id;\n        Bet bet;\n        bool hasBet;\n        uint256 amountBet;\n        uint256 winningPercentage;  \n    }\n\n    POLL_STATE public poll_state;\n    mapping(string => int8) public resplendentThemes;\n    address[] public Voters;\n    mapping(address => User) public users; \n    address payable public contractAddress;\n    Bet public finalResultIs;\n    mapping(uint => address) public Winners;\n    uint public winnerCount;\n    User resetUser; \n    address nulladdress;\n    event WinnerPayed(address indexed winner, uint256 amount);\n    event api_data_received(uint indexed new_resplendent, address sender);\n    uint public resplendent;\n\n    APIConsumer internal ResplendentRequest;\n\n    // Ethereum Price Feed routine variables\n    AggregatorV3Interface internal ethUsdPriceFeed;\n    uint256 public usdEntryFee;\n    /**\n     * Network: Kovan\n     * Aggregator: ETH/USD\n     * Address: 0x9326BFA02ADD2366b30bacB125260Af641031331\n     * Network: Rinkeby\n     * Aggregator: ETH/USD\n     * Address: 0x8A753747A1Fa494EC906cE90E9f37563A8AF630e\n     */\n\n\n    constructor() public{\n        contractAddress = payable(address(this));\n        resplendent =42;\n        finalResultIs = Bet.EMPTY;\n        winnerCount = 0;\n        nulladdress = 0x0000000000000000000000000000000000000000;\n        resetUser = User(nulladdress,Bet(0), false, 0,0);  \n        ethUsdPriceFeed = AggregatorV3Interface(0x8A753747A1Fa494EC906cE90E9f37563A8AF630e);\n        usdEntryFee = 50 * (10**18); // current price, $50 in ETH \n        api_data =\"\";\n        poll_state = POLL_STATE.OPEN;\n}\n\n    // Open Lottery\n     function openPoll() public onlyOwner {\n        require(\n            poll_state == POLL_STATE.CLOSED,\n            \"Can't start a new lottery yet!\"\n        );\n        poll_state = POLL_STATE.OPEN;\n    }\n\n\n    //\n\n    function getPollStatus() public view returns (POLL_STATE) {\n        return(poll_state);\n    }\n\n    /**\n     * Returns the latest price\n     */\n    function getLatestPrice() public view returns (int) {\n        (\n            uint80 roundID, \n            int price,\n            uint startedAt,\n            uint timeStamp,\n            uint80 answeredInRound\n        ) = ethUsdPriceFeed.latestRoundData();\n        return price; // returns in gwei\n    }\n\n    // setting the entrance fee \n\n    function getEntranceFee() public view returns (uint256) {\n        (, int256 price, , , ) = ethUsdPriceFeed.latestRoundData();\n        uint256 adjustedPrice = uint256(price) * 10**10; // 18 decimals -> convert it to wei\n        // $50, $2,000 / ETH\n        // 50/2,000\n        // 50 * 100000 / 2000\n        uint256 costToEnter = (usdEntryFee * 10**18) / adjustedPrice;\n        return costToEnter; // returns in Wei\n    }\n\n\n    function placeBet(uint8 _bet) public payable{\n        require(!users[msg.sender].hasBet, \"User has already bet!\");\n        require(msg.value >= getEntranceFee(),\"Don't be cheap! $50 or more in ETH!\");\n        require(poll_state == POLL_STATE.OPEN, \"Polls are closed :/\");\n\n        User memory user = User(msg.sender,Bet(_bet+1),true,msg.value, 0);\n        Voters.push(msg.sender);\n        users[msg.sender] = user;\n    }\n    \n    function getPrizeMoney() public view returns(uint256){\n        return(contractAddress.balance * 99)/100; //Contract collects a 1% fee\n    }\n    \n    function getUserStructData() public view returns(User memory){\n        return users[msg.sender];\n    }\n\n    function setFinalResult(uint _resplendent) private {\n        finalResultIs = Bet(_resplendent);\n    }\n\n    function sortPlayersByBetsAndGetWinners() private {\n        uint256 totalAmountBetByWinners = 0;\n        winnerCount = 0;\n        setFinalResult(resplendent);\n        \n\n        for(uint256 i =0; i < Voters.length; i++){\n            if(users[Voters[i]].bet == finalResultIs){\n                totalAmountBetByWinners =totalAmountBetByWinners+ users[Voters[i]].amountBet;\n                Winners[winnerCount] = users[Voters[i]].id;\n                winnerCount++;\n            }\n        }\n        for (uint256 j = 0; j < winnerCount; j++) {    \n            users[Winners[j]].winningPercentage = (users[Winners[j]].amountBet*100) / totalAmountBetByWinners;\n        }\n    }\n\n\n    // working on this function\n    function requestResplendentValue() public onlyOwner {\n        requestData(address(this), getFunctionSelector());\n    }\n\n    function getFunctionSelector() public pure returns(bytes4) {\n        return this.fulfillResplendentValue.selector;\n    }\n\n    function fulfillResplendentValue(bytes32 _requestId, bytes32 _api_data) public recordChainlinkFulfillment(_requestId){\n        api_data = _api_data;\n        (resplendent,) = strToUint(bytes32ToString(_api_data));\n        resplendent +=1; // have to shift up since enum Bet's 0 is EMPTY while API's 0 is ASKR\n        emit api_data_received(resplendent,owner());\n    }\n    \n    function payWinners() private {\n        require(contractAddress.balance >= 0 wei, \"No bets placed\");\n        sortPlayersByBetsAndGetWinners();\n        require(winnerCount > 0, \"No winners this round\");\n        uint256 prizemoney = getPrizeMoney();\n\n        for (uint256 i = 0; i < winnerCount; i++) {\n            uint256 amountForWinner = (users[Winners[i]].winningPercentage * prizemoney)/100;\n            payout(payable(Winners[i]),amountForWinner);\n        }\n        payout(payable(owner()),address(this).balance);\n        poll_state = POLL_STATE.CLOSED;\n\n    }    \n    \n    function payout(address payable _to, uint256 _amount) private {\n        (bool success,) = _to.call{value:_amount}(\"\");\n        require(success, \"Failed to pay winner\");\n        emit WinnerPayed(_to, _amount);\n    }\n    \n    function CleanWinnningMapping() private{\n        for (uint i = 0; i < winnerCount; i++){\n            Winners[i] = nulladdress;\n        }\n\n        winnerCount = 0;\n\n        for(uint j = 0; j < Voters.length; j++)\n        {\n            users[Voters[j]] = resetUser;\n        }\n\n        delete Voters;\n    }\n\n    function finalResult() public onlyOwner {\n        poll_state = POLL_STATE.CALCULATING_WINNERS;\n        payWinners();\n        CleanWinnningMapping();\n    }\n    \n}\n","sourcePath":"contracts/Bet.sol","deployment":{"address":"0x0ae3A6b86e238eEe318B67C0bCB5f5974fD19C73","chainid":"4","blockHeight":11061262}}