{"abi":[{"inputs":[],"stateMutability":"nonpayable","type":"constructor","name":"constructor"},{"anonymous":false,"inputs":[{"indexed":true,"internalType":"bytes32","name":"id","type":"bytes32"}],"name":"ChainlinkCancelled","type":"event"},{"anonymous":false,"inputs":[{"indexed":true,"internalType":"bytes32","name":"id","type":"bytes32"}],"name":"ChainlinkFulfilled","type":"event"},{"anonymous":false,"inputs":[{"indexed":true,"internalType":"bytes32","name":"id","type":"bytes32"}],"name":"ChainlinkRequested","type":"event"},{"anonymous":false,"inputs":[{"indexed":true,"internalType":"address","name":"previousOwner","type":"address"},{"indexed":true,"internalType":"address","name":"newOwner","type":"address"}],"name":"OwnershipTransferred","type":"event"},{"anonymous":false,"inputs":[{"indexed":true,"internalType":"address","name":"winner","type":"address"},{"indexed":false,"internalType":"uint256","name":"amount","type":"uint256"}],"name":"WinnerPayed","type":"event"},{"anonymous":false,"inputs":[{"indexed":true,"internalType":"uint256","name":"new_resplendent","type":"uint256"},{"indexed":false,"internalType":"address","name":"sender","type":"address"}],"name":"api_data_received","type":"event"},{"inputs":[{"internalType":"uint256","name":"","type":"uint256"}],"name":"Voters","outputs":[{"internalType":"address","name":"","type":"address"}],"stateMutability":"view","type":"function"},{"inputs":[{"internalType":"uint256","name":"","type":"uint256"}],"name":"Winners","outputs":[{"internalType":"address","name":"","type":"address"}],"stateMutability":"view","type":"function"},{"inputs":[],"name":"api_data","outputs":[{"internalType":"bytes32","name":"","type":"bytes32"}],"stateMutability":"view","type":"function"},{"inputs":[{"internalType":"bytes32","name":"_bytes32","type":"bytes32"}],"name":"bytes32ToString","outputs":[{"internalType":"string","name":"","type":"string"}],"stateMutability":"pure","type":"function"},{"inputs":[],"name":"contractAddress","outputs":[{"internalType":"address payable","name":"","type":"address"}],"stateMutability":"view","type":"function"},{"inputs":[],"name":"finalResult","outputs":[],"stateMutability":"nonpayable","type":"function"},{"inputs":[],"name":"finalResultIs","outputs":[{"internalType":"enum Betting.Bet","name":"","type":"uint8"}],"stateMutability":"view","type":"function"},{"inputs":[{"internalType":"bytes32","name":"_requestId","type":"bytes32"},{"internalType":"bytes32","name":"_api_data","type":"bytes32"}],"name":"fulfill","outputs":[],"stateMutability":"nonpayable","type":"function"},{"inputs":[{"internalType":"bytes32","name":"_requestId","type":"bytes32"},{"internalType":"bytes32","name":"_api_data","type":"bytes32"}],"name":"fulfillResplendentValue","outputs":[],"stateMutability":"nonpayable","type":"function"},{"inputs":[],"name":"getEntranceFee","outputs":[{"internalType":"uint256","name":"","type":"uint256"}],"stateMutability":"view","type":"function"},{"inputs":[],"name":"getFunctionSelector","outputs":[{"internalType":"bytes4","name":"","type":"bytes4"}],"stateMutability":"pure","type":"function"},{"inputs":[],"name":"getLatestPrice","outputs":[{"internalType":"int256","name":"","type":"int256"}],"stateMutability":"view","type":"function"},{"inputs":[],"name":"getLotteryStatus","outputs":[{"internalType":"enum Betting.LOTTERY_STATE","name":"","type":"uint8"}],"stateMutability":"view","type":"function"},{"inputs":[],"name":"getPrizeMoney","outputs":[{"internalType":"uint256","name":"","type":"uint256"}],"stateMutability":"view","type":"function"},{"inputs":[],"name":"getUserStructData","outputs":[{"components":[{"internalType":"address","name":"id","type":"address"},{"internalType":"enum Betting.Bet","name":"bet","type":"uint8"},{"internalType":"bool","name":"hasBet","type":"bool"},{"internalType":"uint256","name":"amountBet","type":"uint256"},{"internalType":"uint256","name":"winningPercentage","type":"uint256"}],"internalType":"struct Betting.User","name":"","type":"tuple"}],"stateMutability":"view","type":"function"},{"inputs":[],"name":"lottery_state","outputs":[{"internalType":"enum Betting.LOTTERY_STATE","name":"","type":"uint8"}],"stateMutability":"view","type":"function"},{"inputs":[],"name":"owner","outputs":[{"internalType":"address","name":"","type":"address"}],"stateMutability":"view","type":"function"},{"inputs":[{"internalType":"uint8","name":"_bet","type":"uint8"}],"name":"placeBet","outputs":[],"stateMutability":"payable","type":"function"},{"inputs":[],"name":"renounceOwnership","outputs":[],"stateMutability":"nonpayable","type":"function"},{"inputs":[{"internalType":"address","name":"callBackContract","type":"address"},{"internalType":"bytes4","name":"functionSelector","type":"bytes4"}],"name":"requestData","outputs":[{"internalType":"bytes32","name":"requestId","type":"bytes32"}],"stateMutability":"nonpayable","type":"function"},{"inputs":[],"name":"requestResplendentValue","outputs":[],"stateMutability":"nonpayable","type":"function"},{"inputs":[],"name":"resplendent","outputs":[{"internalType":"uint256","name":"","type":"uint256"}],"stateMutability":"view","type":"function"},{"inputs":[{"internalType":"string","name":"","type":"string"}],"name":"resplendentThemes","outputs":[{"internalType":"int8","name":"","type":"int8"}],"stateMutability":"view","type":"function"},{"inputs":[],"name":"startLottery","outputs":[],"stateMutability":"nonpayable","type":"function"},{"inputs":[{"internalType":"string","name":"_str","type":"string"}],"name":"strToUint","outputs":[{"internalType":"uint256","name":"res","type":"uint256"},{"internalType":"bool","name":"err","type":"bool"}],"stateMutability":"pure","type":"function"},{"inputs":[{"internalType":"address","name":"newOwner","type":"address"}],"name":"transferOwnership","outputs":[],"stateMutability":"nonpayable","type":"function"},{"inputs":[],"name":"usdEntryFee","outputs":[{"internalType":"uint256","name":"","type":"uint256"}],"stateMutability":"view","type":"function"},{"inputs":[{"internalType":"address","name":"","type":"address"}],"name":"users","outputs":[{"internalType":"address","name":"id","type":"address"},{"internalType":"enum Betting.Bet","name":"bet","type":"uint8"},{"internalType":"bool","name":"hasBet","type":"bool"},{"internalType":"uint256","name":"amountBet","type":"uint256"},{"internalType":"uint256","name":"winningPercentage","type":"uint256"}],"stateMutability":"view","type":"function"},{"inputs":[],"name":"winnerCount","outputs":[{"internalType":"uint256","name":"","type":"uint256"}],"stateMutability":"view","type":"function"}],"bytecode":"608060405260016005553480156200001657600080fd5b50620000223362000135565b6200002c62000185565b6008805473f405b99aca8578b9eb989ee2b69d518aadb90c1f6001600160a01b0319918216179091557f376334623936383032386637346232656162643764343238663033626134356360095567016345785d8a0000600a55600f8054602a6016556001600160a81b0319163060ff60a01b19161790556000601181905560158054831690556040805160a0810182528281526020810183905290810182905260608101829052608001819052601280546001600160b01b03191690556013819055601481905560188054738a753747a1fa494ec906ce90e9f37563a8af630e9316929092179091556802b5e3af16b1880000601955600755600b805460ff1916905562000258565b600080546001600160a01b038381166001600160a01b0319831681178455604051919092169283917f8be0079c531659141344cd1fd0a4f28419497f9722a3daafe3b4186f6b6457e09190a35050565b6200022473c89bd4e1632d3a43cb03aaad5262cbe4038bc5716001600160a01b03166338cc48316040518163ffffffff1660e01b8152600401602060405180830381865afa158015620001dc573d6000803e3d6000fd5b505050506040513d601f19601f8201168201806040525081019062000202919062000226565b600380546001600160a01b0319166001600160a01b0392909216919091179055565b565b6000602082840312156200023957600080fd5b81516001600160a01b03811681146200025157600080fd5b9392505050565b6122f680620002686000396000f3fe6080604052600436106101c25760003560e01c806388ab139a116100f7578063a8ba022b11610095578063eedee56211610064578063eedee5621461054a578063f2fde38b14610578578063f3a8286f14610598578063f6b4dfb4146105ad57600080fd5b8063a8ba022b146104d4578063c5ef3ec5146104e9578063caa02e081461051e578063dd151ec71461053457600080fd5b80639201de55116100d15780639201de55146103cf5780639c35d98b146103fc578063a5e30f571461041c578063a87430ba1461046a57600080fd5b806388ab139a146103865780638da5cb5b1461039c5780638e15f473146103ba57600080fd5b80632b6524cd116101645780636103d9151161013e5780636103d915146102e957806365ff132914610337578063715018a614610357578063814479991461036c57600080fd5b80632b6524cd1461029557806343046844146102b65780635bb02e01146102c957600080fd5b80630eabaa5e116101a05780630eabaa5e1461022657806310d1c4c31461023c5780631356ea651461025e578063160344e21461028057600080fd5b8063042f2b65146101c75780630737c24b146101e957806309bc33a714610211575b600080fd5b3480156101d357600080fd5b506101e76101e2366004611be7565b6105cd565b005b3480156101f557600080fd5b506101fe610658565b6040519081526020015b60405180910390f35b34801561021d57600080fd5b506101fe610685565b34801561023257600080fd5b506101fe60165481565b34801561024857600080fd5b50604051635bb02e0160e01b8152602001610208565b34801561026a57600080fd5b50610273610745565b6040516102089190611c33565b34801561028c57600080fd5b506101e76107fb565b3480156102a157600080fd5b50600b5460ff165b6040516102089190611c7e565b6101e76102c4366004611c98565b610897565b3480156102d557600080fd5b506101e76102e4366004611be7565b610aea565b3480156102f557600080fd5b5061031f610304366004611cbb565b6010602052600090815260409020546001600160a01b031681565b6040516001600160a01b039091168152602001610208565b34801561034357600080fd5b506101fe610352366004611cf0565b610bd0565b34801561036357600080fd5b506101e7610c9b565b34801561037857600080fd5b50600b546102a99060ff1681565b34801561039257600080fd5b506101fe60195481565b3480156103a857600080fd5b506000546001600160a01b031661031f565b3480156103c657600080fd5b506101fe610cd1565b3480156103db57600080fd5b506103ef6103ea366004611cbb565b610d60565b6040516102089190611d81565b34801561040857600080fd5b5061031f610417366004611cbb565b610e97565b34801561042857600080fd5b50610457610437366004611daa565b8051602081830181018051600c8252928201919093012091525460000b81565b60405160009190910b8152602001610208565b34801561047657600080fd5b506104c3610485366004611e5b565b600e602052600090815260409020805460018201546002909201546001600160a01b0382169260ff600160a01b8404811693600160a81b9004169185565b604051610208959493929190611e76565b3480156104e057600080fd5b506101e7610ec1565b3480156104f557600080fd5b50610509610504366004611daa565b610eff565b60408051928352901515602083015201610208565b34801561052a57600080fd5b506101fe60115481565b34801561054057600080fd5b506101fe60075481565b34801561055657600080fd5b50600f5461056b90600160a01b900460ff1681565b6040516102089190611eaf565b34801561058457600080fd5b506101e7610593366004611e5b565b610ffe565b3480156105a457600080fd5b506101e7611096565b3480156105b957600080fd5b50600f5461031f906001600160a01b031681565b60008281526006602052604090205482906001600160a01b0316331461060e5760405162461bcd60e51b815260040161060590611ebd565b60405180910390fd5b60008181526006602052604080822080546001600160a01b03191690555182917f7cc135e0cebb02c3480ae5d74d377283180a2601f8f644edf7987b009316c63a91a25060075550565b600f54600090606490610676906001600160a01b0316316063611f1b565b6106809190611f50565b905090565b600080601860009054906101000a90046001600160a01b03166001600160a01b031663feaf968c6040518163ffffffff1660e01b815260040160a060405180830381865afa1580156106db573d6000803e3d6000fd5b505050506040513d601f19601f820116820180604052508101906106ff9190611f7e565b5050509150506000816402540be4006107189190611f1b565b9050600081601954670de0b6b3a76400006107339190611f1b565b61073d9190611f50565b949350505050565b6040805160a081018252600080825260208201819052918101829052606081018290526080810191909152336000908152600e6020908152604091829020825160a0810190935280546001600160a01b03811684529091830190600160a01b900460ff1660098111156107ba576107ba611c09565b60098111156107cb576107cb611c09565b81528154600160a81b900460ff161515602082015260018201546040820152600290910154606090910152919050565b6000546001600160a01b031633146108255760405162461bcd60e51b815260040161060590611fce565b6001600b5460ff16600281111561083e5761083e611c09565b1461088b5760405162461bcd60e51b815260206004820152601e60248201527f43616e27742073746172742061206e6577206c6f7474657279207965742100006044820152606401610605565b600b805460ff19169055565b336000908152600e6020526040902054600160a81b900460ff16156108f65760405162461bcd60e51b8152602060048201526015602482015274557365722068617320616c7265616479206265742160581b6044820152606401610605565b6108fe610685565b3410156109595760405162461bcd60e51b815260206004820152602360248201527f446f6e27742062652063686561702120243530206f72206d6f726520696e204560448201526254482160e81b6064820152608401610605565b6000600b5460ff16600281111561097257610972611c09565b146109b55760405162461bcd60e51b8152602060048201526013602482015272506f6c6c732061726520636c6f736564203a2f60681b6044820152606401610605565b6040805160a08101909152338152600090602081016109d5846001612003565b60ff1660098111156109e9576109e9611c09565b60098111156109fa576109fa611c09565b8152600160208083018290523460408085019190915260006060909401849052600d805493840190557fd7b6990105719101dabeb77144f2a3385c8033acd3af97e9423a695e81ad1eb590920180546001600160a01b031990811633908117909255908452600e825291909220835181546001600160a01b0391909116928116831782559284015193945084939092909183916001600160a81b03191617600160a01b836009811115610aaf57610aaf611c09565b021790555060408201518154901515600160a81b0260ff60a81b19909116178155606082015160018201556080909101516002909101555050565b60008281526006602052604090205482906001600160a01b03163314610b225760405162461bcd60e51b815260040161060590611ebd565b60008181526006602052604080822080546001600160a01b03191690555182917f7cc135e0cebb02c3480ae5d74d377283180a2601f8f644edf7987b009316c63a91a26007829055610b7661050483610d60565b5060168190557f2f2ec9b308c77557be0ca886a9fd58ffc8bdc94f0978011757a7417e90c4a4c7610baf6000546001600160a01b031690565b6040516001600160a01b0390911681526020015b60405180910390a2505050565b600080610be060095485856110d5565b9050610c226040518060400160405280600381526020016219d95d60ea1b81525060405180608001604052806043815260200161227e604391398391906110fa565b610c76604051806040016040528060048152602001630e0c2e8d60e31b8152506040518060400160405280600b81526020016a0e4cac2d8dabed2dcc8caf60ab1b815250836110fa9092919063ffffffff16565b600854600a54610c91916001600160a01b031690839061111d565b9150505b92915050565b6000546001600160a01b03163314610cc55760405162461bcd60e51b815260040161060590611fce565b610ccf60006111b0565b565b600080600080600080601860009054906101000a90046001600160a01b03166001600160a01b031663feaf968c6040518163ffffffff1660e01b815260040160a060405180830381865afa158015610d2d573d6000803e3d6000fd5b505050506040513d601f19601f82011682018060405250810190610d519190611f7e565b50919998505050505050505050565b606060005b60208160ff16108015610d995750828160ff1660208110610d8857610d88612028565b1a60f81b6001600160f81b03191615155b15610db05780610da88161203e565b915050610d65565b60008160ff1667ffffffffffffffff811115610dce57610dce611d94565b6040519080825280601f01601f191660200182016040528015610df8576020820181803683370190505b509050600091505b60208260ff16108015610e345750838260ff1660208110610e2357610e23612028565b1a60f81b6001600160f81b03191615155b15610e9057838260ff1660208110610e4e57610e4e612028565b1a60f81b818360ff1681518110610e6757610e67612028565b60200101906001600160f81b031916908160001a90535081610e888161203e565b925050610e00565b9392505050565b600d8181548110610ea757600080fd5b6000918252602090912001546001600160a01b0316905081565b6000546001600160a01b03163314610eeb5760405162461bcd60e51b815260040161060590611fce565b610efc30635bb02e0160e01b610bd0565b50565b60008060005b8351811015610ff35760006030858381518110610f2457610f24612028565b0160200151610f36919060f81c61205d565b60ff161080610f6d575060096030858381518110610f5657610f56612028565b0160200151610f68919060f81c61205d565b60ff16115b15610f7e5750600093849350915050565b6001818551610f8d9190612080565b610f979190612080565b610fa290600a61217b565b6030858381518110610fb657610fb6612028565b0160200151610fc8919060f81c61205d565b60ff16610fd59190611f1b565b610fdf9084612187565b925080610feb8161219f565b915050610f05565b509092600192509050565b6000546001600160a01b031633146110285760405162461bcd60e51b815260040161060590611fce565b6001600160a01b03811661108d5760405162461bcd60e51b815260206004820152602660248201527f4f776e61626c653a206e6577206f776e657220697320746865207a65726f206160448201526564647265737360d01b6064820152608401610605565b610efc816111b0565b6000546001600160a01b031633146110c05760405162461bcd60e51b815260040161060590611fce565b600b805460ff19166002179055610ccf611200565b6110dd611bac565b6110e5611bac565b6110f181868686611316565b95945050505050565b60808301516111099083611353565b60808301516111189082611353565b505050565b60055460009061112e816001612187565b600555835160408086015160808701515191516000936320214ca360e11b936111669386938493923092918a916001916024016121b8565b60408051601f198184030181529190526020810180516001600160e01b03166001600160e01b03199093169290921790915290506111a68683868461136a565b9695505050505050565b600080546001600160a01b038381166001600160a01b0319831681178455604051919092169283917f8be0079c531659141344cd1fd0a4f28419497f9722a3daafe3b4186f6b6457e09190a35050565b6112086114c8565b6000601154116112525760405162461bcd60e51b8152602060048201526015602482015274139bc81dda5b9b995c9cc81d1a1a5cc81c9bdd5b99605a1b6044820152606401610605565b600061125c610658565b905060005b6011548110156112e3576000818152601060209081526040808320546001600160a01b03168352600e9091528120600201546064906112a1908590611f1b565b6112ab9190611f50565b6000838152601060205260409020549091506112d0906001600160a01b0316826116c3565b50806112db8161219f565b915050611261565b506112ff6112f96000546001600160a01b031690565b476116c3565b600b80546001919060ff191682805b021790555050565b61131e611bac565b61132e8560800151610100611798565b50509183526001600160a01b031660208301526001600160e01b031916604082015290565b61136082600383516117fd565b6111188282611912565b6040516bffffffffffffffffffffffff193060601b1660208201526034810184905260009060540160408051808303601f1901815282825280516020918201206000818152600690925291812080546001600160a01b0319166001600160a01b038a1617905590925082917fb5e6e01e79f91267dc17b4e6314d5d4d03593d2ceee0fbb452b750bd70ea5af99190a2600354604051630200057560e51b81526001600160a01b0390911690634000aea09061142d90889087908790600401612220565b6020604051808303816000875af115801561144c573d6000803e3d6000fd5b505050506040513d601f19601f820116820180604052508101906114709190612247565b61073d5760405162461bcd60e51b815260206004820152602360248201527f756e61626c6520746f207472616e73666572416e6443616c6c20746f206f7261604482015262636c6560e81b6064820152608401610605565b600060118190556016546114db90611939565b60005b600d5481101561163857600f54600160a01b900460ff16600981111561150657611506611c09565b600e6000600d848154811061151d5761151d612028565b60009182526020808320909101546001600160a01b0316835282019290925260400190205460ff600160a01b90910416600981111561155e5761155e611c09565b0361162657600e6000600d838154811061157a5761157a612028565b60009182526020808320909101546001600160a01b031683528201929092526040019020600101546115ac9083612187565b9150600e6000600d83815481106115c5576115c5612028565b60009182526020808320909101546001600160a01b039081168452838201949094526040928301822054601180548452601090925292822080546001600160a01b03191693909416929092179092558054916116208361219f565b91905055505b806116308161219f565b9150506114de565b5060005b6011548110156116bf576000818152601060209081526040808320546001600160a01b03168352600e909152902060010154829061167b906064611f1b565b6116859190611f50565b6000828152601060209081526040808320546001600160a01b03168352600e909152902060020155806116b78161219f565b91505061163c565b5050565b6000826001600160a01b03168260405160006040518083038185875af1925050503d8060008114611710576040519150601f19603f3d011682016040523d82523d6000602084013e611715565b606091505b505090508061175d5760405162461bcd60e51b81526020600482015260146024820152732330b4b632b2103a37903830bc903bb4b73732b960611b6044820152606401610605565b826001600160a01b03167f2897e467188c1ebbd157f72e82b2059710aea0df2ba4b6075e47e305087bbffe83604051610bc391815260200190565b6040805180820190915260608152600060208201526117b8602083612269565b156117e0576117c8602083612269565b6117d3906020612080565b6117dd9083612187565b91505b506020828101829052604080518085526000815290920101905290565b60178167ffffffffffffffff1611611828576118228360e0600585901b16831761196d565b50505050565b60ff8167ffffffffffffffff16116118665761184f836018611fe0600586901b161761196d565b506118228367ffffffffffffffff83166001611992565b61ffff8167ffffffffffffffff16116118a55761188e836019611fe0600586901b161761196d565b506118228367ffffffffffffffff83166002611992565b63ffffffff8167ffffffffffffffff16116118e6576118cf83601a611fe0600586901b161761196d565b506118228367ffffffffffffffff83166004611992565b6118fb83601b611fe0600586901b161761196d565b506118228367ffffffffffffffff83166008611992565b604080518082019091526060815260006020820152610e90838460000151518485516119b8565b80600981111561194b5761194b611c09565b600f805460ff60a01b1916600160a01b83600981111561130e5761130e611c09565b604080518082019091526060815260006020820152610e908384600001515184611aa2565b60408051808201909152606081526000602082015261073d848560000151518585611afd565b60408051808201909152606081526000602082015282518211156119db57600080fd5b60208501516119ea8386612187565b1115611a1d57611a1d85611a0d87602001518786611a089190612187565b611b7e565b611a18906002611f1b565b611b95565b600080865180518760208301019350808887011115611a3c5787860182525b505050602084015b60208410611a7c5780518252611a5b602083612187565b9150611a68602082612187565b9050611a75602085612080565b9350611a44565b51815160001960208690036101000a019081169019919091161790525083949350505050565b60408051808201909152606081526000602082015283602001518310611ad757611ad78485602001516002611a189190611f1b565b8351805160208583010184815350808503611af3576001810182525b5093949350505050565b6040805180820190915260608152600060208201526020850151611b218584612187565b1115611b3557611b3585611a0d8685612187565b60006001611b458461010061217b565b611b4f9190612080565b9050855183868201018583198251161781525080518487011115611b735783860181525b509495945050505050565b600081831115611b8f575081610c95565b50919050565b8151611ba18383611798565b506118228382611912565b6040805160a0810182526000808252602080830182905282840182905260608084018390528451808601909552845283015290608082015290565b60008060408385031215611bfa57600080fd5b50508035926020909101359150565b634e487b7160e01b600052602160045260246000fd5b600a8110611c2f57611c2f611c09565b9052565b81516001600160a01b0316815260208083015160a0830191611c5790840182611c1f565b50604083015115156040830152606083015160608301526080830151608083015292915050565b6020810160038310611c9257611c92611c09565b91905290565b600060208284031215611caa57600080fd5b813560ff81168114610e9057600080fd5b600060208284031215611ccd57600080fd5b5035919050565b80356001600160a01b0381168114611ceb57600080fd5b919050565b60008060408385031215611d0357600080fd5b611d0c83611cd4565b915060208301356001600160e01b031981168114611d2957600080fd5b809150509250929050565b6000815180845260005b81811015611d5a57602081850181015186830182015201611d3e565b81811115611d6c576000602083870101525b50601f01601f19169290920160200192915050565b602081526000610e906020830184611d34565b634e487b7160e01b600052604160045260246000fd5b600060208284031215611dbc57600080fd5b813567ffffffffffffffff80821115611dd457600080fd5b818401915084601f830112611de857600080fd5b813581811115611dfa57611dfa611d94565b604051601f8201601f19908116603f01168101908382118183101715611e2257611e22611d94565b81604052828152876020848701011115611e3b57600080fd5b826020860160208301376000928101602001929092525095945050505050565b600060208284031215611e6d57600080fd5b610e9082611cd4565b6001600160a01b038616815260a08101611e936020830187611c1f565b9315156040820152606081019290925260809091015292915050565b60208101610c958284611c1f565b60208082526028908201527f536f75726365206d75737420626520746865206f7261636c65206f6620746865604082015267081c995c5d595cdd60c21b606082015260800190565b634e487b7160e01b600052601160045260246000fd5b6000816000190483118215151615611f3557611f35611f05565b500290565b634e487b7160e01b600052601260045260246000fd5b600082611f5f57611f5f611f3a565b500490565b805169ffffffffffffffffffff81168114611ceb57600080fd5b600080600080600060a08688031215611f9657600080fd5b611f9f86611f64565b9450602086015193506040860151925060608601519150611fc260808701611f64565b90509295509295909350565b6020808252818101527f4f776e61626c653a2063616c6c6572206973206e6f7420746865206f776e6572604082015260600190565b600060ff821660ff84168060ff0382111561202057612020611f05565b019392505050565b634e487b7160e01b600052603260045260246000fd5b600060ff821660ff810361205457612054611f05565b60010192915050565b600060ff821660ff84168082101561207757612077611f05565b90039392505050565b60008282101561209257612092611f05565b500390565b600181815b808511156120d25781600019048211156120b8576120b8611f05565b808516156120c557918102915b93841c939080029061209c565b509250929050565b6000826120e957506001610c95565b816120f657506000610c95565b816001811461210c576002811461211657612132565b6001915050610c95565b60ff84111561212757612127611f05565b50506001821b610c95565b5060208310610133831016604e8410600b8410161715612155575081810a610c95565b61215f8383612097565b806000190482111561217357612173611f05565b029392505050565b6000610e9083836120da565b6000821982111561219a5761219a611f05565b500190565b6000600182016121b1576121b1611f05565b5060010190565b6001600160a01b0389811682526020820189905260408201889052861660608201526001600160e01b03198516608082015260a0810184905260c0810183905261010060e0820181905260009061221183820185611d34565b9b9a5050505050505050505050565b60018060a01b03841681528260208201526060604082015260006110f16060830184611d34565b60006020828403121561225957600080fd5b81518015158114610e9057600080fd5b60008261227857612278611f3a565b50069056fe68747470733a2f2f6665682d726573706c656e64656e742e6865726f6b756170702e636f6d2f636861726163746572732f6c61746573743f666f726d61743d6a736f6ea26469706673582212207f46cf572490570fb7a2a2e858706bb37e5f10484516dba5cf31dae40147fa1b64736f6c634300080d0033","bytecodeSha1":"b20737c4050d7f4c86988fa3ad0ed0b89311cf20","compiler":{"evm_version":"istanbul","optimizer":{"enabled":true,"runs":200},"version":"0.8.13+commit.abaa5c0e"},"contractName":"Betting","language":"Solidity","natspec":{"kind":"dev","methods":{"constructor":{"notice":"Network: Kovan Aggregator: ETH/USD Address: 0x9326BFA02ADD2366b30bacB125260Af641031331 Network: Rinkeby Aggregator: ETH/USD Address: 0x8A753747A1Fa494EC906cE90E9f37563A8AF630e"},"fulfill(bytes32,bytes32)":{"notice":"Receive the response in the form of uint256"},"getLatestPrice()":{"notice":"Returns the latest price"},"owner()":{"details":"Returns the address of the current owner."},"renounceOwnership()":{"details":"Leaves the contract without owner. It will not be possible to call `onlyOwner` functions anymore. Can only be called by the current owner. NOTE: Renouncing ownership will leave the contract without an owner, thereby removing any functionality that is only available to the owner."},"requestData(address,bytes4)":{"notice":"Create a Chainlink request to retrieve API response, find the target data, then multiply by 1000000000000000000 (to remove decimal places from data)."},"transferOwnership(address)":{"details":"Transfers ownership of the contract to a new account (`newOwner`). Can only be called by the current owner."}},"version":1},"opcodes":"PUSH1 0x80 PUSH1 0x40 MSTORE PUSH1 0x4 CALLDATASIZE LT PUSH2 0x1C2 JUMPI PUSH1 0x0 CALLDATALOAD PUSH1 0xE0 SHR DUP1 PUSH4 0x88AB139A GT PUSH2 0xF7 JUMPI DUP1 PUSH4 0xA8BA022B GT PUSH2 0x95 JUMPI DUP1 PUSH4 0xEEDEE562 GT PUSH2 0x64 JUMPI DUP1 PUSH4 0xEEDEE562 EQ PUSH2 0x54A JUMPI DUP1 PUSH4 0xF2FDE38B EQ PUSH2 0x578 JUMPI DUP1 PUSH4 0xF3A8286F EQ PUSH2 0x598 JUMPI DUP1 PUSH4 0xF6B4DFB4 EQ PUSH2 0x5AD JUMPI PUSH1 0x0 DUP1 REVERT JUMPDEST DUP1 PUSH4 0xA8BA022B EQ PUSH2 0x4D4 JUMPI DUP1 PUSH4 0xC5EF3EC5 EQ PUSH2 0x4E9 JUMPI DUP1 PUSH4 0xCAA02E08 EQ PUSH2 0x51E JUMPI DUP1 PUSH4 0xDD151EC7 EQ PUSH2 0x534 JUMPI PUSH1 0x0 DUP1 REVERT JUMPDEST DUP1 PUSH4 0x9201DE55 GT PUSH2 0xD1 JUMPI DUP1 PUSH4 0x9201DE55 EQ PUSH2 0x3CF JUMPI DUP1 PUSH4 0x9C35D98B EQ PUSH2 0x3FC JUMPI DUP1 PUSH4 0xA5E30F57 EQ PUSH2 0x41C JUMPI DUP1 PUSH4 0xA87430BA EQ PUSH2 0x46A JUMPI PUSH1 0x0 DUP1 REVERT JUMPDEST DUP1 PUSH4 0x88AB139A EQ PUSH2 0x386 JUMPI DUP1 PUSH4 0x8DA5CB5B EQ PUSH2 0x39C JUMPI DUP1 PUSH4 0x8E15F473 EQ PUSH2 0x3BA JUMPI PUSH1 0x0 DUP1 REVERT JUMPDEST DUP1 PUSH4 0x2B6524CD GT PUSH2 0x164 JUMPI DUP1 PUSH4 0x6103D915 GT PUSH2 0x13E JUMPI DUP1 PUSH4 0x6103D915 EQ PUSH2 0x2E9 JUMPI DUP1 PUSH4 0x65FF1329 EQ PUSH2 0x337 JUMPI DUP1 PUSH4 0x715018A6 EQ PUSH2 0x357 JUMPI DUP1 PUSH4 0x81447999 EQ PUSH2 0x36C JUMPI PUSH1 0x0 DUP1 REVERT JUMPDEST DUP1 PUSH4 0x2B6524CD EQ PUSH2 0x295 JUMPI DUP1 PUSH4 0x43046844 EQ PUSH2 0x2B6 JUMPI DUP1 PUSH4 0x5BB02E01 EQ PUSH2 0x2C9 JUMPI PUSH1 0x0 DUP1 REVERT JUMPDEST DUP1 PUSH4 0xEABAA5E GT PUSH2 0x1A0 JUMPI DUP1 PUSH4 0xEABAA5E EQ PUSH2 0x226 JUMPI DUP1 PUSH4 0x10D1C4C3 EQ PUSH2 0x23C JUMPI DUP1 PUSH4 0x1356EA65 EQ PUSH2 0x25E JUMPI DUP1 PUSH4 0x160344E2 EQ PUSH2 0x280 JUMPI PUSH1 0x0 DUP1 REVERT JUMPDEST DUP1 PUSH4 0x42F2B65 EQ PUSH2 0x1C7 JUMPI DUP1 PUSH4 0x737C24B EQ PUSH2 0x1E9 JUMPI DUP1 PUSH4 0x9BC33A7 EQ PUSH2 0x211 JUMPI JUMPDEST PUSH1 0x0 DUP1 REVERT JUMPDEST CALLVALUE DUP1 ISZERO PUSH2 0x1D3 JUMPI PUSH1 0x0 DUP1 REVERT JUMPDEST POP PUSH2 0x1E7 PUSH2 0x1E2 CALLDATASIZE PUSH1 0x4 PUSH2 0x1BE7 JUMP JUMPDEST PUSH2 0x5CD JUMP JUMPDEST STOP JUMPDEST CALLVALUE DUP1 ISZERO PUSH2 0x1F5 JUMPI PUSH1 0x0 DUP1 REVERT JUMPDEST POP PUSH2 0x1FE PUSH2 0x658 JUMP JUMPDEST PUSH1 0x40 MLOAD SWAP1 DUP2 MSTORE PUSH1 0x20 ADD JUMPDEST PUSH1 0x40 MLOAD DUP1 SWAP2 SUB SWAP1 RETURN JUMPDEST CALLVALUE DUP1 ISZERO PUSH2 0x21D JUMPI PUSH1 0x0 DUP1 REVERT JUMPDEST POP PUSH2 0x1FE PUSH2 0x685 JUMP JUMPDEST CALLVALUE DUP1 ISZERO PUSH2 0x232 JUMPI PUSH1 0x0 DUP1 REVERT JUMPDEST POP PUSH2 0x1FE PUSH1 0x16 SLOAD DUP2 JUMP JUMPDEST CALLVALUE DUP1 ISZERO PUSH2 0x248 JUMPI PUSH1 0x0 DUP1 REVERT JUMPDEST POP PUSH1 0x40 MLOAD PUSH4 0x5BB02E01 PUSH1 0xE0 SHL DUP2 MSTORE PUSH1 0x20 ADD PUSH2 0x208 JUMP JUMPDEST CALLVALUE DUP1 ISZERO PUSH2 0x26A JUMPI PUSH1 0x0 DUP1 REVERT JUMPDEST POP PUSH2 0x273 PUSH2 0x745 JUMP JUMPDEST PUSH1 0x40 MLOAD PUSH2 0x208 SWAP2 SWAP1 PUSH2 0x1C33 JUMP JUMPDEST CALLVALUE DUP1 ISZERO PUSH2 0x28C JUMPI PUSH1 0x0 DUP1 REVERT JUMPDEST POP PUSH2 0x1E7 PUSH2 0x7FB JUMP JUMPDEST CALLVALUE DUP1 ISZERO PUSH2 0x2A1 JUMPI PUSH1 0x0 DUP1 REVERT JUMPDEST POP PUSH1 0xB SLOAD PUSH1 0xFF AND JUMPDEST PUSH1 0x40 MLOAD PUSH2 0x208 SWAP2 SWAP1 PUSH2 0x1C7E JUMP JUMPDEST PUSH2 0x1E7 PUSH2 0x2C4 CALLDATASIZE PUSH1 0x4 PUSH2 0x1C98 JUMP JUMPDEST PUSH2 0x897 JUMP JUMPDEST CALLVALUE DUP1 ISZERO PUSH2 0x2D5 JUMPI PUSH1 0x0 DUP1 REVERT JUMPDEST POP PUSH2 0x1E7 PUSH2 0x2E4 CALLDATASIZE PUSH1 0x4 PUSH2 0x1BE7 JUMP JUMPDEST PUSH2 0xAEA JUMP JUMPDEST CALLVALUE DUP1 ISZERO PUSH2 0x2F5 JUMPI PUSH1 0x0 DUP1 REVERT JUMPDEST POP PUSH2 0x31F PUSH2 0x304 CALLDATASIZE PUSH1 0x4 PUSH2 0x1CBB JUMP JUMPDEST PUSH1 0x10 PUSH1 0x20 MSTORE PUSH1 0x0 SWAP1 DUP2 MSTORE PUSH1 0x40 SWAP1 KECCAK256 SLOAD PUSH1 0x1 PUSH1 0x1 PUSH1 0xA0 SHL SUB AND DUP2 JUMP JUMPDEST PUSH1 0x40 MLOAD PUSH1 0x1 PUSH1 0x1 PUSH1 0xA0 SHL SUB SWAP1 SWAP2 AND DUP2 MSTORE PUSH1 0x20 ADD PUSH2 0x208 JUMP JUMPDEST CALLVALUE DUP1 ISZERO PUSH2 0x343 JUMPI PUSH1 0x0 DUP1 REVERT JUMPDEST POP PUSH2 0x1FE PUSH2 0x352 CALLDATASIZE PUSH1 0x4 PUSH2 0x1CF0 JUMP JUMPDEST PUSH2 0xBD0 JUMP JUMPDEST CALLVALUE DUP1 ISZERO PUSH2 0x363 JUMPI PUSH1 0x0 DUP1 REVERT JUMPDEST POP PUSH2 0x1E7 PUSH2 0xC9B JUMP JUMPDEST CALLVALUE DUP1 ISZERO PUSH2 0x378 JUMPI PUSH1 0x0 DUP1 REVERT JUMPDEST POP PUSH1 0xB SLOAD PUSH2 0x2A9 SWAP1 PUSH1 0xFF AND DUP2 JUMP JUMPDEST CALLVALUE DUP1 ISZERO PUSH2 0x392 JUMPI PUSH1 0x0 DUP1 REVERT JUMPDEST POP PUSH2 0x1FE PUSH1 0x19 SLOAD DUP2 JUMP JUMPDEST CALLVALUE DUP1 ISZERO PUSH2 0x3A8 JUMPI PUSH1 0x0 DUP1 REVERT JUMPDEST POP PUSH1 0x0 SLOAD PUSH1 0x1 PUSH1 0x1 PUSH1 0xA0 SHL SUB AND PUSH2 0x31F JUMP JUMPDEST CALLVALUE DUP1 ISZERO PUSH2 0x3C6 JUMPI PUSH1 0x0 DUP1 REVERT JUMPDEST POP PUSH2 0x1FE PUSH2 0xCD1 JUMP JUMPDEST CALLVALUE DUP1 ISZERO PUSH2 0x3DB JUMPI PUSH1 0x0 DUP1 REVERT JUMPDEST POP PUSH2 0x3EF PUSH2 0x3EA CALLDATASIZE PUSH1 0x4 PUSH2 0x1CBB JUMP JUMPDEST PUSH2 0xD60 JUMP JUMPDEST PUSH1 0x40 MLOAD PUSH2 0x208 SWAP2 SWAP1 PUSH2 0x1D81 JUMP JUMPDEST CALLVALUE DUP1 ISZERO PUSH2 0x408 JUMPI PUSH1 0x0 DUP1 REVERT JUMPDEST POP PUSH2 0x31F PUSH2 0x417 CALLDATASIZE PUSH1 0x4 PUSH2 0x1CBB JUMP JUMPDEST PUSH2 0xE97 JUMP JUMPDEST CALLVALUE DUP1 ISZERO PUSH2 0x428 JUMPI PUSH1 0x0 DUP1 REVERT JUMPDEST POP PUSH2 0x457 PUSH2 0x437 CALLDATASIZE PUSH1 0x4 PUSH2 0x1DAA JUMP JUMPDEST DUP1 MLOAD PUSH1 0x20 DUP2 DUP4 ADD DUP2 ADD DUP1 MLOAD PUSH1 0xC DUP3 MSTORE SWAP3 DUP3 ADD SWAP2 SWAP1 SWAP4 ADD KECCAK256 SWAP2 MSTORE SLOAD PUSH1 0x0 SIGNEXTEND DUP2 JUMP JUMPDEST PUSH1 0x40 MLOAD PUSH1 0x0 SWAP2 SWAP1 SWAP2 SIGNEXTEND DUP2 MSTORE PUSH1 0x20 ADD PUSH2 0x208 JUMP JUMPDEST CALLVALUE DUP1 ISZERO PUSH2 0x476 JUMPI PUSH1 0x0 DUP1 REVERT JUMPDEST POP PUSH2 0x4C3 PUSH2 0x485 CALLDATASIZE PUSH1 0x4 PUSH2 0x1E5B JUMP JUMPDEST PUSH1 0xE PUSH1 0x20 MSTORE PUSH1 0x0 SWAP1 DUP2 MSTORE PUSH1 0x40 SWAP1 KECCAK256 DUP1 SLOAD PUSH1 0x1 DUP3 ADD SLOAD PUSH1 0x2 SWAP1 SWAP3 ADD SLOAD PUSH1 0x1 PUSH1 0x1 PUSH1 0xA0 SHL SUB DUP3 AND SWAP3 PUSH1 0xFF PUSH1 0x1 PUSH1 0xA0 SHL DUP5 DIV DUP2 AND SWAP4 PUSH1 0x1 PUSH1 0xA8 SHL SWAP1 DIV AND SWAP2 DUP6 JUMP JUMPDEST PUSH1 0x40 MLOAD PUSH2 0x208 SWAP6 SWAP5 SWAP4 SWAP3 SWAP2 SWAP1 PUSH2 0x1E76 JUMP JUMPDEST CALLVALUE DUP1 ISZERO PUSH2 0x4E0 JUMPI PUSH1 0x0 DUP1 REVERT JUMPDEST POP PUSH2 0x1E7 PUSH2 0xEC1 JUMP JUMPDEST CALLVALUE DUP1 ISZERO PUSH2 0x4F5 JUMPI PUSH1 0x0 DUP1 REVERT JUMPDEST POP PUSH2 0x509 PUSH2 0x504 CALLDATASIZE PUSH1 0x4 PUSH2 0x1DAA JUMP JUMPDEST PUSH2 0xEFF JUMP JUMPDEST PUSH1 0x40 DUP1 MLOAD SWAP3 DUP4 MSTORE SWAP1 ISZERO ISZERO PUSH1 0x20 DUP4 ADD MSTORE ADD PUSH2 0x208 JUMP JUMPDEST CALLVALUE DUP1 ISZERO PUSH2 0x52A JUMPI PUSH1 0x0 DUP1 REVERT JUMPDEST POP PUSH2 0x1FE PUSH1 0x11 SLOAD DUP2 JUMP JUMPDEST CALLVALUE DUP1 ISZERO PUSH2 0x540 JUMPI PUSH1 0x0 DUP1 REVERT JUMPDEST POP PUSH2 0x1FE PUSH1 0x7 SLOAD DUP2 JUMP JUMPDEST CALLVALUE DUP1 ISZERO PUSH2 0x556 JUMPI PUSH1 0x0 DUP1 REVERT JUMPDEST POP PUSH1 0xF SLOAD PUSH2 0x56B SWAP1 PUSH1 0x1 PUSH1 0xA0 SHL SWAP1 DIV PUSH1 0xFF AND DUP2 JUMP JUMPDEST PUSH1 0x40 MLOAD PUSH2 0x208 SWAP2 SWAP1 PUSH2 0x1EAF JUMP JUMPDEST CALLVALUE DUP1 ISZERO PUSH2 0x584 JUMPI PUSH1 0x0 DUP1 REVERT JUMPDEST POP PUSH2 0x1E7 PUSH2 0x593 CALLDATASIZE PUSH1 0x4 PUSH2 0x1E5B JUMP JUMPDEST PUSH2 0xFFE JUMP JUMPDEST CALLVALUE DUP1 ISZERO PUSH2 0x5A4 JUMPI PUSH1 0x0 DUP1 REVERT JUMPDEST POP PUSH2 0x1E7 PUSH2 0x1096 JUMP JUMPDEST CALLVALUE DUP1 ISZERO PUSH2 0x5B9 JUMPI PUSH1 0x0 DUP1 REVERT JUMPDEST POP PUSH1 0xF SLOAD PUSH2 0x31F SWAP1 PUSH1 0x1 PUSH1 0x1 PUSH1 0xA0 SHL SUB AND DUP2 JUMP JUMPDEST PUSH1 0x0 DUP3 DUP2 MSTORE PUSH1 0x6 PUSH1 0x20 MSTORE PUSH1 0x40 SWAP1 KECCAK256 SLOAD DUP3 SWAP1 PUSH1 0x1 PUSH1 0x1 PUSH1 0xA0 SHL SUB AND CALLER EQ PUSH2 0x60E JUMPI PUSH1 0x40 MLOAD PUSH3 0x461BCD PUSH1 0xE5 SHL DUP2 MSTORE PUSH1 0x4 ADD PUSH2 0x605 SWAP1 PUSH2 0x1EBD JUMP JUMPDEST PUSH1 0x40 MLOAD DUP1 SWAP2 SUB SWAP1 REVERT JUMPDEST PUSH1 0x0 DUP2 DUP2 MSTORE PUSH1 0x6 PUSH1 0x20 MSTORE PUSH1 0x40 DUP1 DUP3 KECCAK256 DUP1 SLOAD PUSH1 0x1 PUSH1 0x1 PUSH1 0xA0 SHL SUB NOT AND SWAP1 SSTORE MLOAD DUP3 SWAP2 PUSH32 0x7CC135E0CEBB02C3480AE5D74D377283180A2601F8F644EDF7987B009316C63A SWAP2 LOG2 POP PUSH1 0x7 SSTORE POP JUMP JUMPDEST PUSH1 0xF SLOAD PUSH1 0x0 SWAP1 PUSH1 0x64 SWAP1 PUSH2 0x676 SWAP1 PUSH1 0x1 PUSH1 0x1 PUSH1 0xA0 SHL SUB AND BALANCE PUSH1 0x63 PUSH2 0x1F1B JUMP JUMPDEST PUSH2 0x680 SWAP2 SWAP1 PUSH2 0x1F50 JUMP JUMPDEST SWAP1 POP SWAP1 JUMP JUMPDEST PUSH1 0x0 DUP1 PUSH1 0x18 PUSH1 0x0 SWAP1 SLOAD SWAP1 PUSH2 0x100 EXP SWAP1 DIV PUSH1 0x1 PUSH1 0x1 PUSH1 0xA0 SHL SUB AND PUSH1 0x1 PUSH1 0x1 PUSH1 0xA0 SHL SUB AND PUSH4 0xFEAF968C PUSH1 0x40 MLOAD DUP2 PUSH4 0xFFFFFFFF AND PUSH1 0xE0 SHL DUP2 MSTORE PUSH1 0x4 ADD PUSH1 0xA0 PUSH1 0x40 MLOAD DUP1 DUP4 SUB DUP2 DUP7 GAS STATICCALL ISZERO DUP1 ISZERO PUSH2 0x6DB JUMPI RETURNDATASIZE PUSH1 0x0 DUP1 RETURNDATACOPY RETURNDATASIZE PUSH1 0x0 REVERT JUMPDEST POP POP POP POP PUSH1 0x40 MLOAD RETURNDATASIZE PUSH1 0x1F NOT PUSH1 0x1F DUP3 ADD AND DUP3 ADD DUP1 PUSH1 0x40 MSTORE POP DUP2 ADD SWAP1 PUSH2 0x6FF SWAP2 SWAP1 PUSH2 0x1F7E JUMP JUMPDEST POP POP POP SWAP2 POP POP PUSH1 0x0 DUP2 PUSH5 0x2540BE400 PUSH2 0x718 SWAP2 SWAP1 PUSH2 0x1F1B JUMP JUMPDEST SWAP1 POP PUSH1 0x0 DUP2 PUSH1 0x19 SLOAD PUSH8 0xDE0B6B3A7640000 PUSH2 0x733 SWAP2 SWAP1 PUSH2 0x1F1B JUMP JUMPDEST PUSH2 0x73D SWAP2 SWAP1 PUSH2 0x1F50 JUMP JUMPDEST SWAP5 SWAP4 POP POP POP POP JUMP JUMPDEST PUSH1 0x40 DUP1 MLOAD PUSH1 0xA0 DUP2 ADD DUP3 MSTORE PUSH1 0x0 DUP1 DUP3 MSTORE PUSH1 0x20 DUP3 ADD DUP2 SWAP1 MSTORE SWAP2 DUP2 ADD DUP3 SWAP1 MSTORE PUSH1 0x60 DUP2 ADD DUP3 SWAP1 MSTORE PUSH1 0x80 DUP2 ADD SWAP2 SWAP1 SWAP2 MSTORE CALLER PUSH1 0x0 SWAP1 DUP2 MSTORE PUSH1 0xE PUSH1 0x20 SWAP1 DUP2 MSTORE PUSH1 0x40 SWAP2 DUP3 SWAP1 KECCAK256 DUP3 MLOAD PUSH1 0xA0 DUP2 ADD SWAP1 SWAP4 MSTORE DUP1 SLOAD PUSH1 0x1 PUSH1 0x1 PUSH1 0xA0 SHL SUB DUP2 AND DUP5 MSTORE SWAP1 SWAP2 DUP4 ADD SWAP1 PUSH1 0x1 PUSH1 0xA0 SHL SWAP1 DIV PUSH1 0xFF AND PUSH1 0x9 DUP2 GT ISZERO PUSH2 0x7BA JUMPI PUSH2 0x7BA PUSH2 0x1C09 JUMP JUMPDEST PUSH1 0x9 DUP2 GT ISZERO PUSH2 0x7CB JUMPI PUSH2 0x7CB PUSH2 0x1C09 JUMP JUMPDEST DUP2 MSTORE DUP2 SLOAD PUSH1 0x1 PUSH1 0xA8 SHL SWAP1 DIV PUSH1 0xFF AND ISZERO ISZERO PUSH1 0x20 DUP3 ADD MSTORE PUSH1 0x1 DUP3 ADD SLOAD PUSH1 0x40 DUP3 ADD MSTORE PUSH1 0x2 SWAP1 SWAP2 ADD SLOAD PUSH1 0x60 SWAP1 SWAP2 ADD MSTORE SWAP2 SWAP1 POP JUMP JUMPDEST PUSH1 0x0 SLOAD PUSH1 0x1 PUSH1 0x1 PUSH1 0xA0 SHL SUB AND CALLER EQ PUSH2 0x825 JUMPI PUSH1 0x40 MLOAD PUSH3 0x461BCD PUSH1 0xE5 SHL DUP2 MSTORE PUSH1 0x4 ADD PUSH2 0x605 SWAP1 PUSH2 0x1FCE JUMP JUMPDEST PUSH1 0x1 PUSH1 0xB SLOAD PUSH1 0xFF AND PUSH1 0x2 DUP2 GT ISZERO PUSH2 0x83E JUMPI PUSH2 0x83E PUSH2 0x1C09 JUMP JUMPDEST EQ PUSH2 0x88B JUMPI PUSH1 0x40 MLOAD PUSH3 0x461BCD PUSH1 0xE5 SHL DUP2 MSTORE PUSH1 0x20 PUSH1 0x4 DUP3 ADD MSTORE PUSH1 0x1E PUSH1 0x24 DUP3 ADD MSTORE PUSH32 0x43616E27742073746172742061206E6577206C6F747465727920796574210000 PUSH1 0x44 DUP3 ADD MSTORE PUSH1 0x64 ADD PUSH2 0x605 JUMP JUMPDEST PUSH1 0xB DUP1 SLOAD PUSH1 0xFF NOT AND SWAP1 SSTORE JUMP JUMPDEST CALLER PUSH1 0x0 SWAP1 DUP2 MSTORE PUSH1 0xE PUSH1 0x20 MSTORE PUSH1 0x40 SWAP1 KECCAK256 SLOAD PUSH1 0x1 PUSH1 0xA8 SHL SWAP1 DIV PUSH1 0xFF AND ISZERO PUSH2 0x8F6 JUMPI PUSH1 0x40 MLOAD PUSH3 0x461BCD PUSH1 0xE5 SHL DUP2 MSTORE PUSH1 0x20 PUSH1 0x4 DUP3 ADD MSTORE PUSH1 0x15 PUSH1 0x24 DUP3 ADD MSTORE PUSH21 0x557365722068617320616C72656164792062657421 PUSH1 0x58 SHL PUSH1 0x44 DUP3 ADD MSTORE PUSH1 0x64 ADD PUSH2 0x605 JUMP JUMPDEST PUSH2 0x8FE PUSH2 0x685 JUMP JUMPDEST CALLVALUE LT ISZERO PUSH2 0x959 JUMPI PUSH1 0x40 MLOAD PUSH3 0x461BCD PUSH1 0xE5 SHL DUP2 MSTORE PUSH1 0x20 PUSH1 0x4 DUP3 ADD MSTORE PUSH1 0x23 PUSH1 0x24 DUP3 ADD MSTORE PUSH32 0x446F6E27742062652063686561702120243530206F72206D6F726520696E2045 PUSH1 0x44 DUP3 ADD MSTORE PUSH3 0x544821 PUSH1 0xE8 SHL PUSH1 0x64 DUP3 ADD MSTORE PUSH1 0x84 ADD PUSH2 0x605 JUMP JUMPDEST PUSH1 0x0 PUSH1 0xB SLOAD PUSH1 0xFF AND PUSH1 0x2 DUP2 GT ISZERO PUSH2 0x972 JUMPI PUSH2 0x972 PUSH2 0x1C09 JUMP JUMPDEST EQ PUSH2 0x9B5 JUMPI PUSH1 0x40 MLOAD PUSH3 0x461BCD PUSH1 0xE5 SHL DUP2 MSTORE PUSH1 0x20 PUSH1 0x4 DUP3 ADD MSTORE PUSH1 0x13 PUSH1 0x24 DUP3 ADD MSTORE PUSH19 0x506F6C6C732061726520636C6F736564203A2F PUSH1 0x68 SHL PUSH1 0x44 DUP3 ADD MSTORE PUSH1 0x64 ADD PUSH2 0x605 JUMP JUMPDEST PUSH1 0x40 DUP1 MLOAD PUSH1 0xA0 DUP2 ADD SWAP1 SWAP2 MSTORE CALLER DUP2 MSTORE PUSH1 0x0 SWAP1 PUSH1 0x20 DUP2 ADD PUSH2 0x9D5 DUP5 PUSH1 0x1 PUSH2 0x2003 JUMP JUMPDEST PUSH1 0xFF AND PUSH1 0x9 DUP2 GT ISZERO PUSH2 0x9E9 JUMPI PUSH2 0x9E9 PUSH2 0x1C09 JUMP JUMPDEST PUSH1 0x9 DUP2 GT ISZERO PUSH2 0x9FA JUMPI PUSH2 0x9FA PUSH2 0x1C09 JUMP JUMPDEST DUP2 MSTORE PUSH1 0x1 PUSH1 0x20 DUP1 DUP4 ADD DUP3 SWAP1 MSTORE CALLVALUE PUSH1 0x40 DUP1 DUP6 ADD SWAP2 SWAP1 SWAP2 MSTORE PUSH1 0x0 PUSH1 0x60 SWAP1 SWAP5 ADD DUP5 SWAP1 MSTORE PUSH1 0xD DUP1 SLOAD SWAP4 DUP5 ADD SWAP1 SSTORE PUSH32 0xD7B6990105719101DABEB77144F2A3385C8033ACD3AF97E9423A695E81AD1EB5 SWAP1 SWAP3 ADD DUP1 SLOAD PUSH1 0x1 PUSH1 0x1 PUSH1 0xA0 SHL SUB NOT SWAP1 DUP2 AND CALLER SWAP1 DUP2 OR SWAP1 SWAP3 SSTORE SWAP1 DUP5 MSTORE PUSH1 0xE DUP3 MSTORE SWAP2 SWAP1 SWAP3 KECCAK256 DUP4 MLOAD DUP2 SLOAD PUSH1 0x1 PUSH1 0x1 PUSH1 0xA0 SHL SUB SWAP2 SWAP1 SWAP2 AND SWAP3 DUP2 AND DUP4 OR DUP3 SSTORE SWAP3 DUP5 ADD MLOAD SWAP4 SWAP5 POP DUP5 SWAP4 SWAP1 SWAP3 SWAP1 SWAP2 DUP4 SWAP2 PUSH1 0x1 PUSH1 0x1 PUSH1 0xA8 SHL SUB NOT AND OR PUSH1 0x1 PUSH1 0xA0 SHL DUP4 PUSH1 0x9 DUP2 GT ISZERO PUSH2 0xAAF JUMPI PUSH2 0xAAF PUSH2 0x1C09 JUMP JUMPDEST MUL OR SWAP1 SSTORE POP PUSH1 0x40 DUP3 ADD MLOAD DUP2 SLOAD SWAP1 ISZERO ISZERO PUSH1 0x1 PUSH1 0xA8 SHL MUL PUSH1 0xFF PUSH1 0xA8 SHL NOT SWAP1 SWAP2 AND OR DUP2 SSTORE PUSH1 0x60 DUP3 ADD MLOAD PUSH1 0x1 DUP3 ADD SSTORE PUSH1 0x80 SWAP1 SWAP2 ADD MLOAD PUSH1 0x2 SWAP1 SWAP2 ADD SSTORE POP POP JUMP JUMPDEST PUSH1 0x0 DUP3 DUP2 MSTORE PUSH1 0x6 PUSH1 0x20 MSTORE PUSH1 0x40 SWAP1 KECCAK256 SLOAD DUP3 SWAP1 PUSH1 0x1 PUSH1 0x1 PUSH1 0xA0 SHL SUB AND CALLER EQ PUSH2 0xB22 JUMPI PUSH1 0x40 MLOAD PUSH3 0x461BCD PUSH1 0xE5 SHL DUP2 MSTORE PUSH1 0x4 ADD PUSH2 0x605 SWAP1 PUSH2 0x1EBD JUMP JUMPDEST PUSH1 0x0 DUP2 DUP2 MSTORE PUSH1 0x6 PUSH1 0x20 MSTORE PUSH1 0x40 DUP1 DUP3 KECCAK256 DUP1 SLOAD PUSH1 0x1 PUSH1 0x1 PUSH1 0xA0 SHL SUB NOT AND SWAP1 SSTORE MLOAD DUP3 SWAP2 PUSH32 0x7CC135E0CEBB02C3480AE5D74D377283180A2601F8F644EDF7987B009316C63A SWAP2 LOG2 PUSH1 0x7 DUP3 SWAP1 SSTORE PUSH2 0xB76 PUSH2 0x504 DUP4 PUSH2 0xD60 JUMP JUMPDEST POP PUSH1 0x16 DUP2 SWAP1 SSTORE PUSH32 0x2F2EC9B308C77557BE0CA886A9FD58FFC8BDC94F0978011757A7417E90C4A4C7 PUSH2 0xBAF PUSH1 0x0 SLOAD PUSH1 0x1 PUSH1 0x1 PUSH1 0xA0 SHL SUB AND SWAP1 JUMP JUMPDEST PUSH1 0x40 MLOAD PUSH1 0x1 PUSH1 0x1 PUSH1 0xA0 SHL SUB SWAP1 SWAP2 AND DUP2 MSTORE PUSH1 0x20 ADD JUMPDEST PUSH1 0x40 MLOAD DUP1 SWAP2 SUB SWAP1 LOG2 POP POP POP JUMP JUMPDEST PUSH1 0x0 DUP1 PUSH2 0xBE0 PUSH1 0x9 SLOAD DUP6 DUP6 PUSH2 0x10D5 JUMP JUMPDEST SWAP1 POP PUSH2 0xC22 PUSH1 0x40 MLOAD DUP1 PUSH1 0x40 ADD PUSH1 0x40 MSTORE DUP1 PUSH1 0x3 DUP2 MSTORE PUSH1 0x20 ADD PUSH3 0x19D95D PUSH1 0xEA SHL DUP2 MSTORE POP PUSH1 0x40 MLOAD DUP1 PUSH1 0x80 ADD PUSH1 0x40 MSTORE DUP1 PUSH1 0x43 DUP2 MSTORE PUSH1 0x20 ADD PUSH2 0x227E PUSH1 0x43 SWAP2 CODECOPY DUP4 SWAP2 SWAP1 PUSH2 0x10FA JUMP JUMPDEST PUSH2 0xC76 PUSH1 0x40 MLOAD DUP1 PUSH1 0x40 ADD PUSH1 0x40 MSTORE DUP1 PUSH1 0x4 DUP2 MSTORE PUSH1 0x20 ADD PUSH4 0xE0C2E8D PUSH1 0xE3 SHL DUP2 MSTORE POP PUSH1 0x40 MLOAD DUP1 PUSH1 0x40 ADD PUSH1 0x40 MSTORE DUP1 PUSH1 0xB DUP2 MSTORE PUSH1 0x20 ADD PUSH11 0xE4CAC2D8DABED2DCC8CAF PUSH1 0xAB SHL DUP2 MSTORE POP DUP4 PUSH2 0x10FA SWAP1 SWAP3 SWAP2 SWAP1 PUSH4 0xFFFFFFFF AND JUMP JUMPDEST PUSH1 0x8 SLOAD PUSH1 0xA SLOAD PUSH2 0xC91 SWAP2 PUSH1 0x1 PUSH1 0x1 PUSH1 0xA0 SHL SUB AND SWAP1 DUP4 SWAP1 PUSH2 0x111D JUMP JUMPDEST SWAP2 POP POP JUMPDEST SWAP3 SWAP2 POP POP JUMP JUMPDEST PUSH1 0x0 SLOAD PUSH1 0x1 PUSH1 0x1 PUSH1 0xA0 SHL SUB AND CALLER EQ PUSH2 0xCC5 JUMPI PUSH1 0x40 MLOAD PUSH3 0x461BCD PUSH1 0xE5 SHL DUP2 MSTORE PUSH1 0x4 ADD PUSH2 0x605 SWAP1 PUSH2 0x1FCE JUMP JUMPDEST PUSH2 0xCCF PUSH1 0x0 PUSH2 0x11B0 JUMP JUMPDEST JUMP JUMPDEST PUSH1 0x0 DUP1 PUSH1 0x0 DUP1 PUSH1 0x0 DUP1 PUSH1 0x18 PUSH1 0x0 SWAP1 SLOAD SWAP1 PUSH2 0x100 EXP SWAP1 DIV PUSH1 0x1 PUSH1 0x1 PUSH1 0xA0 SHL SUB AND PUSH1 0x1 PUSH1 0x1 PUSH1 0xA0 SHL SUB AND PUSH4 0xFEAF968C PUSH1 0x40 MLOAD DUP2 PUSH4 0xFFFFFFFF AND PUSH1 0xE0 SHL DUP2 MSTORE PUSH1 0x4 ADD PUSH1 0xA0 PUSH1 0x40 MLOAD DUP1 DUP4 SUB DUP2 DUP7 GAS STATICCALL ISZERO DUP1 ISZERO PUSH2 0xD2D JUMPI RETURNDATASIZE PUSH1 0x0 DUP1 RETURNDATACOPY RETURNDATASIZE PUSH1 0x0 REVERT JUMPDEST POP POP POP POP PUSH1 0x40 MLOAD RETURNDATASIZE PUSH1 0x1F NOT PUSH1 0x1F DUP3 ADD AND DUP3 ADD DUP1 PUSH1 0x40 MSTORE POP DUP2 ADD SWAP1 PUSH2 0xD51 SWAP2 SWAP1 PUSH2 0x1F7E JUMP JUMPDEST POP SWAP2 SWAP10 SWAP9 POP POP POP POP POP POP POP POP POP JUMP JUMPDEST PUSH1 0x60 PUSH1 0x0 JUMPDEST PUSH1 0x20 DUP2 PUSH1 0xFF AND LT DUP1 ISZERO PUSH2 0xD99 JUMPI POP DUP3 DUP2 PUSH1 0xFF AND PUSH1 0x20 DUP2 LT PUSH2 0xD88 JUMPI PUSH2 0xD88 PUSH2 0x2028 JUMP JUMPDEST BYTE PUSH1 0xF8 SHL PUSH1 0x1 PUSH1 0x1 PUSH1 0xF8 SHL SUB NOT AND ISZERO ISZERO JUMPDEST ISZERO PUSH2 0xDB0 JUMPI DUP1 PUSH2 0xDA8 DUP2 PUSH2 0x203E JUMP JUMPDEST SWAP2 POP POP PUSH2 0xD65 JUMP JUMPDEST PUSH1 0x0 DUP2 PUSH1 0xFF AND PUSH8 0xFFFFFFFFFFFFFFFF DUP2 GT ISZERO PUSH2 0xDCE JUMPI PUSH2 0xDCE PUSH2 0x1D94 JUMP JUMPDEST PUSH1 0x40 MLOAD SWAP1 DUP1 DUP3 MSTORE DUP1 PUSH1 0x1F ADD PUSH1 0x1F NOT AND PUSH1 0x20 ADD DUP3 ADD PUSH1 0x40 MSTORE DUP1 ISZERO PUSH2 0xDF8 JUMPI PUSH1 0x20 DUP3 ADD DUP2 DUP1 CALLDATASIZE DUP4 CALLDATACOPY ADD SWAP1 POP JUMPDEST POP SWAP1 POP PUSH1 0x0 SWAP2 POP JUMPDEST PUSH1 0x20 DUP3 PUSH1 0xFF AND LT DUP1 ISZERO PUSH2 0xE34 JUMPI POP DUP4 DUP3 PUSH1 0xFF AND PUSH1 0x20 DUP2 LT PUSH2 0xE23 JUMPI PUSH2 0xE23 PUSH2 0x2028 JUMP JUMPDEST BYTE PUSH1 0xF8 SHL PUSH1 0x1 PUSH1 0x1 PUSH1 0xF8 SHL SUB NOT AND ISZERO ISZERO JUMPDEST ISZERO PUSH2 0xE90 JUMPI DUP4 DUP3 PUSH1 0xFF AND PUSH1 0x20 DUP2 LT PUSH2 0xE4E JUMPI PUSH2 0xE4E PUSH2 0x2028 JUMP JUMPDEST BYTE PUSH1 0xF8 SHL DUP2 DUP4 PUSH1 0xFF AND DUP2 MLOAD DUP2 LT PUSH2 0xE67 JUMPI PUSH2 0xE67 PUSH2 0x2028 JUMP JUMPDEST PUSH1 0x20 ADD ADD SWAP1 PUSH1 0x1 PUSH1 0x1 PUSH1 0xF8 SHL SUB NOT AND SWAP1 DUP2 PUSH1 0x0 BYTE SWAP1 MSTORE8 POP DUP2 PUSH2 0xE88 DUP2 PUSH2 0x203E JUMP JUMPDEST SWAP3 POP POP PUSH2 0xE00 JUMP JUMPDEST SWAP4 SWAP3 POP POP POP JUMP JUMPDEST PUSH1 0xD DUP2 DUP2 SLOAD DUP2 LT PUSH2 0xEA7 JUMPI PUSH1 0x0 DUP1 REVERT JUMPDEST PUSH1 0x0 SWAP2 DUP3 MSTORE PUSH1 0x20 SWAP1 SWAP2 KECCAK256 ADD SLOAD PUSH1 0x1 PUSH1 0x1 PUSH1 0xA0 SHL SUB AND SWAP1 POP DUP2 JUMP JUMPDEST PUSH1 0x0 SLOAD PUSH1 0x1 PUSH1 0x1 PUSH1 0xA0 SHL SUB AND CALLER EQ PUSH2 0xEEB JUMPI PUSH1 0x40 MLOAD PUSH3 0x461BCD PUSH1 0xE5 SHL DUP2 MSTORE PUSH1 0x4 ADD PUSH2 0x605 SWAP1 PUSH2 0x1FCE JUMP JUMPDEST PUSH2 0xEFC ADDRESS PUSH4 0x5BB02E01 PUSH1 0xE0 SHL PUSH2 0xBD0 JUMP JUMPDEST POP JUMP JUMPDEST PUSH1 0x0 DUP1 PUSH1 0x0 JUMPDEST DUP4 MLOAD DUP2 LT ISZERO PUSH2 0xFF3 JUMPI PUSH1 0x0 PUSH1 0x30 DUP6 DUP4 DUP2 MLOAD DUP2 LT PUSH2 0xF24 JUMPI PUSH2 0xF24 PUSH2 0x2028 JUMP JUMPDEST ADD PUSH1 0x20 ADD MLOAD PUSH2 0xF36 SWAP2 SWAP1 PUSH1 0xF8 SHR PUSH2 0x205D JUMP JUMPDEST PUSH1 0xFF AND LT DUP1 PUSH2 0xF6D JUMPI POP PUSH1 0x9 PUSH1 0x30 DUP6 DUP4 DUP2 MLOAD DUP2 LT PUSH2 0xF56 JUMPI PUSH2 0xF56 PUSH2 0x2028 JUMP JUMPDEST ADD PUSH1 0x20 ADD MLOAD PUSH2 0xF68 SWAP2 SWAP1 PUSH1 0xF8 SHR PUSH2 0x205D JUMP JUMPDEST PUSH1 0xFF AND GT JUMPDEST ISZERO PUSH2 0xF7E JUMPI POP PUSH1 0x0 SWAP4 DUP5 SWAP4 POP SWAP2 POP POP JUMP JUMPDEST PUSH1 0x1 DUP2 DUP6 MLOAD PUSH2 0xF8D SWAP2 SWAP1 PUSH2 0x2080 JUMP JUMPDEST PUSH2 0xF97 SWAP2 SWAP1 PUSH2 0x2080 JUMP JUMPDEST PUSH2 0xFA2 SWAP1 PUSH1 0xA PUSH2 0x217B JUMP JUMPDEST PUSH1 0x30 DUP6 DUP4 DUP2 MLOAD DUP2 LT PUSH2 0xFB6 JUMPI PUSH2 0xFB6 PUSH2 0x2028 JUMP JUMPDEST ADD PUSH1 0x20 ADD MLOAD PUSH2 0xFC8 SWAP2 SWAP1 PUSH1 0xF8 SHR PUSH2 0x205D JUMP JUMPDEST PUSH1 0xFF AND PUSH2 0xFD5 SWAP2 SWAP1 PUSH2 0x1F1B JUMP JUMPDEST PUSH2 0xFDF SWAP1 DUP5 PUSH2 0x2187 JUMP JUMPDEST SWAP3 POP DUP1 PUSH2 0xFEB DUP2 PUSH2 0x219F JUMP JUMPDEST SWAP2 POP POP PUSH2 0xF05 JUMP JUMPDEST POP SWAP1 SWAP3 PUSH1 0x1 SWAP3 POP SWAP1 POP JUMP JUMPDEST PUSH1 0x0 SLOAD PUSH1 0x1 PUSH1 0x1 PUSH1 0xA0 SHL SUB AND CALLER EQ PUSH2 0x1028 JUMPI PUSH1 0x40 MLOAD PUSH3 0x461BCD PUSH1 0xE5 SHL DUP2 MSTORE PUSH1 0x4 ADD PUSH2 0x605 SWAP1 PUSH2 0x1FCE JUMP JUMPDEST PUSH1 0x1 PUSH1 0x1 PUSH1 0xA0 SHL SUB DUP2 AND PUSH2 0x108D JUMPI PUSH1 0x40 MLOAD PUSH3 0x461BCD PUSH1 0xE5 SHL DUP2 MSTORE PUSH1 0x20 PUSH1 0x4 DUP3 ADD MSTORE PUSH1 0x26 PUSH1 0x24 DUP3 ADD MSTORE PUSH32 0x4F776E61626C653A206E6577206F776E657220697320746865207A65726F2061 PUSH1 0x44 DUP3 ADD MSTORE PUSH6 0x646472657373 PUSH1 0xD0 SHL PUSH1 0x64 DUP3 ADD MSTORE PUSH1 0x84 ADD PUSH2 0x605 JUMP JUMPDEST PUSH2 0xEFC DUP2 PUSH2 0x11B0 JUMP JUMPDEST PUSH1 0x0 SLOAD PUSH1 0x1 PUSH1 0x1 PUSH1 0xA0 SHL SUB AND CALLER EQ PUSH2 0x10C0 JUMPI PUSH1 0x40 MLOAD PUSH3 0x461BCD PUSH1 0xE5 SHL DUP2 MSTORE PUSH1 0x4 ADD PUSH2 0x605 SWAP1 PUSH2 0x1FCE JUMP JUMPDEST PUSH1 0xB DUP1 SLOAD PUSH1 0xFF NOT AND PUSH1 0x2 OR SWAP1 SSTORE PUSH2 0xCCF PUSH2 0x1200 JUMP JUMPDEST PUSH2 0x10DD PUSH2 0x1BAC JUMP JUMPDEST PUSH2 0x10E5 PUSH2 0x1BAC JUMP JUMPDEST PUSH2 0x10F1 DUP2 DUP7 DUP7 DUP7 PUSH2 0x1316 JUMP JUMPDEST SWAP6 SWAP5 POP POP POP POP POP JUMP JUMPDEST PUSH1 0x80 DUP4 ADD MLOAD PUSH2 0x1109 SWAP1 DUP4 PUSH2 0x1353 JUMP JUMPDEST PUSH1 0x80 DUP4 ADD MLOAD PUSH2 0x1118 SWAP1 DUP3 PUSH2 0x1353 JUMP JUMPDEST POP POP POP JUMP JUMPDEST PUSH1 0x5 SLOAD PUSH1 0x0 SWAP1 PUSH2 0x112E DUP2 PUSH1 0x1 PUSH2 0x2187 JUMP JUMPDEST PUSH1 0x5 SSTORE DUP4 MLOAD PUSH1 0x40 DUP1 DUP7 ADD MLOAD PUSH1 0x80 DUP8 ADD MLOAD MLOAD SWAP2 MLOAD PUSH1 0x0 SWAP4 PUSH4 0x20214CA3 PUSH1 0xE1 SHL SWAP4 PUSH2 0x1166 SWAP4 DUP7 SWAP4 DUP5 SWAP4 SWAP3 ADDRESS SWAP3 SWAP2 DUP11 SWAP2 PUSH1 0x1 SWAP2 PUSH1 0x24 ADD PUSH2 0x21B8 JUMP JUMPDEST PUSH1 0x40 DUP1 MLOAD PUSH1 0x1F NOT DUP2 DUP5 SUB ADD DUP2 MSTORE SWAP2 SWAP1 MSTORE PUSH1 0x20 DUP2 ADD DUP1 MLOAD PUSH1 0x1 PUSH1 0x1 PUSH1 0xE0 SHL SUB AND PUSH1 0x1 PUSH1 0x1 PUSH1 0xE0 SHL SUB NOT SWAP1 SWAP4 AND SWAP3 SWAP1 SWAP3 OR SWAP1 SWAP2 MSTORE SWAP1 POP PUSH2 0x11A6 DUP7 DUP4 DUP7 DUP5 PUSH2 0x136A JUMP JUMPDEST SWAP7 SWAP6 POP POP POP POP POP POP JUMP JUMPDEST PUSH1 0x0 DUP1 SLOAD PUSH1 0x1 PUSH1 0x1 PUSH1 0xA0 SHL SUB DUP4 DUP2 AND PUSH1 0x1 PUSH1 0x1 PUSH1 0xA0 SHL SUB NOT DUP4 AND DUP2 OR DUP5 SSTORE PUSH1 0x40 MLOAD SWAP2 SWAP1 SWAP3 AND SWAP3 DUP4 SWAP2 PUSH32 0x8BE0079C531659141344CD1FD0A4F28419497F9722A3DAAFE3B4186F6B6457E0 SWAP2 SWAP1 LOG3 POP POP JUMP JUMPDEST PUSH2 0x1208 PUSH2 0x14C8 JUMP JUMPDEST PUSH1 0x0 PUSH1 0x11 SLOAD GT PUSH2 0x1252 JUMPI PUSH1 0x40 MLOAD PUSH3 0x461BCD PUSH1 0xE5 SHL DUP2 MSTORE PUSH1 0x20 PUSH1 0x4 DUP3 ADD MSTORE PUSH1 0x15 PUSH1 0x24 DUP3 ADD MSTORE PUSH21 0x139BC81DDA5B9B995C9CC81D1A1A5CC81C9BDD5B99 PUSH1 0x5A SHL PUSH1 0x44 DUP3 ADD MSTORE PUSH1 0x64 ADD PUSH2 0x605 JUMP JUMPDEST PUSH1 0x0 PUSH2 0x125C PUSH2 0x658 JUMP JUMPDEST SWAP1 POP PUSH1 0x0 JUMPDEST PUSH1 0x11 SLOAD DUP2 LT ISZERO PUSH2 0x12E3 JUMPI PUSH1 0x0 DUP2 DUP2 MSTORE PUSH1 0x10 PUSH1 0x20 SWAP1 DUP2 MSTORE PUSH1 0x40 DUP1 DUP4 KECCAK256 SLOAD PUSH1 0x1 PUSH1 0x1 PUSH1 0xA0 SHL SUB AND DUP4 MSTORE PUSH1 0xE SWAP1 SWAP2 MSTORE DUP2 KECCAK256 PUSH1 0x2 ADD SLOAD PUSH1 0x64 SWAP1 PUSH2 0x12A1 SWAP1 DUP6 SWAP1 PUSH2 0x1F1B JUMP JUMPDEST PUSH2 0x12AB SWAP2 SWAP1 PUSH2 0x1F50 JUMP JUMPDEST PUSH1 0x0 DUP4 DUP2 MSTORE PUSH1 0x10 PUSH1 0x20 MSTORE PUSH1 0x40 SWAP1 KECCAK256 SLOAD SWAP1 SWAP2 POP PUSH2 0x12D0 SWAP1 PUSH1 0x1 PUSH1 0x1 PUSH1 0xA0 SHL SUB AND DUP3 PUSH2 0x16C3 JUMP JUMPDEST POP DUP1 PUSH2 0x12DB DUP2 PUSH2 0x219F JUMP JUMPDEST SWAP2 POP POP PUSH2 0x1261 JUMP JUMPDEST POP PUSH2 0x12FF PUSH2 0x12F9 PUSH1 0x0 SLOAD PUSH1 0x1 PUSH1 0x1 PUSH1 0xA0 SHL SUB AND SWAP1 JUMP JUMPDEST SELFBALANCE PUSH2 0x16C3 JUMP JUMPDEST PUSH1 0xB DUP1 SLOAD PUSH1 0x1 SWAP2 SWAP1 PUSH1 0xFF NOT AND DUP3 DUP1 JUMPDEST MUL OR SWAP1 SSTORE POP POP JUMP JUMPDEST PUSH2 0x131E PUSH2 0x1BAC JUMP JUMPDEST PUSH2 0x132E DUP6 PUSH1 0x80 ADD MLOAD PUSH2 0x100 PUSH2 0x1798 JUMP JUMPDEST POP POP SWAP2 DUP4 MSTORE PUSH1 0x1 PUSH1 0x1 PUSH1 0xA0 SHL SUB AND PUSH1 0x20 DUP4 ADD MSTORE PUSH1 0x1 PUSH1 0x1 PUSH1 0xE0 SHL SUB NOT AND PUSH1 0x40 DUP3 ADD MSTORE SWAP1 JUMP JUMPDEST PUSH2 0x1360 DUP3 PUSH1 0x3 DUP4 MLOAD PUSH2 0x17FD JUMP JUMPDEST PUSH2 0x1118 DUP3 DUP3 PUSH2 0x1912 JUMP JUMPDEST PUSH1 0x40 MLOAD PUSH12 0xFFFFFFFFFFFFFFFFFFFFFFFF NOT ADDRESS PUSH1 0x60 SHL AND PUSH1 0x20 DUP3 ADD MSTORE PUSH1 0x34 DUP2 ADD DUP5 SWAP1 MSTORE PUSH1 0x0 SWAP1 PUSH1 0x54 ADD PUSH1 0x40 DUP1 MLOAD DUP1 DUP4 SUB PUSH1 0x1F NOT ADD DUP2 MSTORE DUP3 DUP3 MSTORE DUP1 MLOAD PUSH1 0x20 SWAP2 DUP3 ADD KECCAK256 PUSH1 0x0 DUP2 DUP2 MSTORE PUSH1 0x6 SWAP1 SWAP3 MSTORE SWAP2 DUP2 KECCAK256 DUP1 SLOAD PUSH1 0x1 PUSH1 0x1 PUSH1 0xA0 SHL SUB NOT AND PUSH1 0x1 PUSH1 0x1 PUSH1 0xA0 SHL SUB DUP11 AND OR SWAP1 SSTORE SWAP1 SWAP3 POP DUP3 SWAP2 PUSH32 0xB5E6E01E79F91267DC17B4E6314D5D4D03593D2CEEE0FBB452B750BD70EA5AF9 SWAP2 SWAP1 LOG2 PUSH1 0x3 SLOAD PUSH1 0x40 MLOAD PUSH4 0x2000575 PUSH1 0xE5 SHL DUP2 MSTORE PUSH1 0x1 PUSH1 0x1 PUSH1 0xA0 SHL SUB SWAP1 SWAP2 AND SWAP1 PUSH4 0x4000AEA0 SWAP1 PUSH2 0x142D SWAP1 DUP9 SWAP1 DUP8 SWAP1 DUP8 SWAP1 PUSH1 0x4 ADD PUSH2 0x2220 JUMP JUMPDEST PUSH1 0x20 PUSH1 0x40 MLOAD DUP1 DUP4 SUB DUP2 PUSH1 0x0 DUP8 GAS CALL ISZERO DUP1 ISZERO PUSH2 0x144C JUMPI RETURNDATASIZE PUSH1 0x0 DUP1 RETURNDATACOPY RETURNDATASIZE PUSH1 0x0 REVERT JUMPDEST POP POP POP POP PUSH1 0x40 MLOAD RETURNDATASIZE PUSH1 0x1F NOT PUSH1 0x1F DUP3 ADD AND DUP3 ADD DUP1 PUSH1 0x40 MSTORE POP DUP2 ADD SWAP1 PUSH2 0x1470 SWAP2 SWAP1 PUSH2 0x2247 JUMP JUMPDEST PUSH2 0x73D JUMPI PUSH1 0x40 MLOAD PUSH3 0x461BCD PUSH1 0xE5 SHL DUP2 MSTORE PUSH1 0x20 PUSH1 0x4 DUP3 ADD MSTORE PUSH1 0x23 PUSH1 0x24 DUP3 ADD MSTORE PUSH32 0x756E61626C6520746F207472616E73666572416E6443616C6C20746F206F7261 PUSH1 0x44 DUP3 ADD MSTORE PUSH3 0x636C65 PUSH1 0xE8 SHL PUSH1 0x64 DUP3 ADD MSTORE PUSH1 0x84 ADD PUSH2 0x605 JUMP JUMPDEST PUSH1 0x0 PUSH1 0x11 DUP2 SWAP1 SSTORE PUSH1 0x16 SLOAD PUSH2 0x14DB SWAP1 PUSH2 0x1939 JUMP JUMPDEST PUSH1 0x0 JUMPDEST PUSH1 0xD SLOAD DUP2 LT ISZERO PUSH2 0x1638 JUMPI PUSH1 0xF SLOAD PUSH1 0x1 PUSH1 0xA0 SHL SWAP1 DIV PUSH1 0xFF AND PUSH1 0x9 DUP2 GT ISZERO PUSH2 0x1506 JUMPI PUSH2 0x1506 PUSH2 0x1C09 JUMP JUMPDEST PUSH1 0xE PUSH1 0x0 PUSH1 0xD DUP5 DUP2 SLOAD DUP2 LT PUSH2 0x151D JUMPI PUSH2 0x151D PUSH2 0x2028 JUMP JUMPDEST PUSH1 0x0 SWAP2 DUP3 MSTORE PUSH1 0x20 DUP1 DUP4 KECCAK256 SWAP1 SWAP2 ADD SLOAD PUSH1 0x1 PUSH1 0x1 PUSH1 0xA0 SHL SUB AND DUP4 MSTORE DUP3 ADD SWAP3 SWAP1 SWAP3 MSTORE PUSH1 0x40 ADD SWAP1 KECCAK256 SLOAD PUSH1 0xFF PUSH1 0x1 PUSH1 0xA0 SHL SWAP1 SWAP2 DIV AND PUSH1 0x9 DUP2 GT ISZERO PUSH2 0x155E JUMPI PUSH2 0x155E PUSH2 0x1C09 JUMP JUMPDEST SUB PUSH2 0x1626 JUMPI PUSH1 0xE PUSH1 0x0 PUSH1 0xD DUP4 DUP2 SLOAD DUP2 LT PUSH2 0x157A JUMPI PUSH2 0x157A PUSH2 0x2028 JUMP JUMPDEST PUSH1 0x0 SWAP2 DUP3 MSTORE PUSH1 0x20 DUP1 DUP4 KECCAK256 SWAP1 SWAP2 ADD SLOAD PUSH1 0x1 PUSH1 0x1 PUSH1 0xA0 SHL SUB AND DUP4 MSTORE DUP3 ADD SWAP3 SWAP1 SWAP3 MSTORE PUSH1 0x40 ADD SWAP1 KECCAK256 PUSH1 0x1 ADD SLOAD PUSH2 0x15AC SWAP1 DUP4 PUSH2 0x2187 JUMP JUMPDEST SWAP2 POP PUSH1 0xE PUSH1 0x0 PUSH1 0xD DUP4 DUP2 SLOAD DUP2 LT PUSH2 0x15C5 JUMPI PUSH2 0x15C5 PUSH2 0x2028 JUMP JUMPDEST PUSH1 0x0 SWAP2 DUP3 MSTORE PUSH1 0x20 DUP1 DUP4 KECCAK256 SWAP1 SWAP2 ADD SLOAD PUSH1 0x1 PUSH1 0x1 PUSH1 0xA0 SHL SUB SWAP1 DUP2 AND DUP5 MSTORE DUP4 DUP3 ADD SWAP5 SWAP1 SWAP5 MSTORE PUSH1 0x40 SWAP3 DUP4 ADD DUP3 KECCAK256 SLOAD PUSH1 0x11 DUP1 SLOAD DUP5 MSTORE PUSH1 0x10 SWAP1 SWAP3 MSTORE SWAP3 DUP3 KECCAK256 DUP1 SLOAD PUSH1 0x1 PUSH1 0x1 PUSH1 0xA0 SHL SUB NOT AND SWAP4 SWAP1 SWAP5 AND SWAP3 SWAP1 SWAP3 OR SWAP1 SWAP3 SSTORE DUP1 SLOAD SWAP2 PUSH2 0x1620 DUP4 PUSH2 0x219F JUMP JUMPDEST SWAP2 SWAP1 POP SSTORE POP JUMPDEST DUP1 PUSH2 0x1630 DUP2 PUSH2 0x219F JUMP JUMPDEST SWAP2 POP POP PUSH2 0x14DE JUMP JUMPDEST POP PUSH1 0x0 JUMPDEST PUSH1 0x11 SLOAD DUP2 LT ISZERO PUSH2 0x16BF JUMPI PUSH1 0x0 DUP2 DUP2 MSTORE PUSH1 0x10 PUSH1 0x20 SWAP1 DUP2 MSTORE PUSH1 0x40 DUP1 DUP4 KECCAK256 SLOAD PUSH1 0x1 PUSH1 0x1 PUSH1 0xA0 SHL SUB AND DUP4 MSTORE PUSH1 0xE SWAP1 SWAP2 MSTORE SWAP1 KECCAK256 PUSH1 0x1 ADD SLOAD DUP3 SWAP1 PUSH2 0x167B SWAP1 PUSH1 0x64 PUSH2 0x1F1B JUMP JUMPDEST PUSH2 0x1685 SWAP2 SWAP1 PUSH2 0x1F50 JUMP JUMPDEST PUSH1 0x0 DUP3 DUP2 MSTORE PUSH1 0x10 PUSH1 0x20 SWAP1 DUP2 MSTORE PUSH1 0x40 DUP1 DUP4 KECCAK256 SLOAD PUSH1 0x1 PUSH1 0x1 PUSH1 0xA0 SHL SUB AND DUP4 MSTORE PUSH1 0xE SWAP1 SWAP2 MSTORE SWAP1 KECCAK256 PUSH1 0x2 ADD SSTORE DUP1 PUSH2 0x16B7 DUP2 PUSH2 0x219F JUMP JUMPDEST SWAP2 POP POP PUSH2 0x163C JUMP JUMPDEST POP POP JUMP JUMPDEST PUSH1 0x0 DUP3 PUSH1 0x1 PUSH1 0x1 PUSH1 0xA0 SHL SUB AND DUP3 PUSH1 0x40 MLOAD PUSH1 0x0 PUSH1 0x40 MLOAD DUP1 DUP4 SUB DUP2 DUP6 DUP8 GAS CALL SWAP3 POP POP POP RETURNDATASIZE DUP1 PUSH1 0x0 DUP2 EQ PUSH2 0x1710 JUMPI PUSH1 0x40 MLOAD SWAP2 POP PUSH1 0x1F NOT PUSH1 0x3F RETURNDATASIZE ADD AND DUP3 ADD PUSH1 0x40 MSTORE RETURNDATASIZE DUP3 MSTORE RETURNDATASIZE PUSH1 0x0 PUSH1 0x20 DUP5 ADD RETURNDATACOPY PUSH2 0x1715 JUMP JUMPDEST PUSH1 0x60 SWAP2 POP JUMPDEST POP POP SWAP1 POP DUP1 PUSH2 0x175D JUMPI PUSH1 0x40 MLOAD PUSH3 0x461BCD PUSH1 0xE5 SHL DUP2 MSTORE PUSH1 0x20 PUSH1 0x4 DUP3 ADD MSTORE PUSH1 0x14 PUSH1 0x24 DUP3 ADD MSTORE PUSH20 0x2330B4B632B2103A37903830BC903BB4B73732B9 PUSH1 0x61 SHL PUSH1 0x44 DUP3 ADD MSTORE PUSH1 0x64 ADD PUSH2 0x605 JUMP JUMPDEST DUP3 PUSH1 0x1 PUSH1 0x1 PUSH1 0xA0 SHL SUB AND PUSH32 0x2897E467188C1EBBD157F72E82B2059710AEA0DF2BA4B6075E47E305087BBFFE DUP4 PUSH1 0x40 MLOAD PUSH2 0xBC3 SWAP2 DUP2 MSTORE PUSH1 0x20 ADD SWAP1 JUMP JUMPDEST PUSH1 0x40 DUP1 MLOAD DUP1 DUP3 ADD SWAP1 SWAP2 MSTORE PUSH1 0x60 DUP2 MSTORE PUSH1 0x0 PUSH1 0x20 DUP3 ADD MSTORE PUSH2 0x17B8 PUSH1 0x20 DUP4 PUSH2 0x2269 JUMP JUMPDEST ISZERO PUSH2 0x17E0 JUMPI PUSH2 0x17C8 PUSH1 0x20 DUP4 PUSH2 0x2269 JUMP JUMPDEST PUSH2 0x17D3 SWAP1 PUSH1 0x20 PUSH2 0x2080 JUMP JUMPDEST PUSH2 0x17DD SWAP1 DUP4 PUSH2 0x2187 JUMP JUMPDEST SWAP2 POP JUMPDEST POP PUSH1 0x20 DUP3 DUP2 ADD DUP3 SWAP1 MSTORE PUSH1 0x40 DUP1 MLOAD DUP1 DUP6 MSTORE PUSH1 0x0 DUP2 MSTORE SWAP1 SWAP3 ADD ADD SWAP1 MSTORE SWAP1 JUMP JUMPDEST PUSH1 0x17 DUP2 PUSH8 0xFFFFFFFFFFFFFFFF AND GT PUSH2 0x1828 JUMPI PUSH2 0x1822 DUP4 PUSH1 0xE0 PUSH1 0x5 DUP6 SWAP1 SHL AND DUP4 OR PUSH2 0x196D JUMP JUMPDEST POP POP POP POP JUMP JUMPDEST PUSH1 0xFF DUP2 PUSH8 0xFFFFFFFFFFFFFFFF AND GT PUSH2 0x1866 JUMPI PUSH2 0x184F DUP4 PUSH1 0x18 PUSH2 0x1FE0 PUSH1 0x5 DUP7 SWAP1 SHL AND OR PUSH2 0x196D JUMP JUMPDEST POP PUSH2 0x1822 DUP4 PUSH8 0xFFFFFFFFFFFFFFFF DUP4 AND PUSH1 0x1 PUSH2 0x1992 JUMP JUMPDEST PUSH2 0xFFFF DUP2 PUSH8 0xFFFFFFFFFFFFFFFF AND GT PUSH2 0x18A5 JUMPI PUSH2 0x188E DUP4 PUSH1 0x19 PUSH2 0x1FE0 PUSH1 0x5 DUP7 SWAP1 SHL AND OR PUSH2 0x196D JUMP JUMPDEST POP PUSH2 0x1822 DUP4 PUSH8 0xFFFFFFFFFFFFFFFF DUP4 AND PUSH1 0x2 PUSH2 0x1992 JUMP JUMPDEST PUSH4 0xFFFFFFFF DUP2 PUSH8 0xFFFFFFFFFFFFFFFF AND GT PUSH2 0x18E6 JUMPI PUSH2 0x18CF DUP4 PUSH1 0x1A PUSH2 0x1FE0 PUSH1 0x5 DUP7 SWAP1 SHL AND OR PUSH2 0x196D JUMP JUMPDEST POP PUSH2 0x1822 DUP4 PUSH8 0xFFFFFFFFFFFFFFFF DUP4 AND PUSH1 0x4 PUSH2 0x1992 JUMP JUMPDEST PUSH2 0x18FB DUP4 PUSH1 0x1B PUSH2 0x1FE0 PUSH1 0x5 DUP7 SWAP1 SHL AND OR PUSH2 0x196D JUMP JUMPDEST POP PUSH2 0x1822 DUP4 PUSH8 0xFFFFFFFFFFFFFFFF DUP4 AND PUSH1 0x8 PUSH2 0x1992 JUMP JUMPDEST PUSH1 0x40 DUP1 MLOAD DUP1 DUP3 ADD SWAP1 SWAP2 MSTORE PUSH1 0x60 DUP2 MSTORE PUSH1 0x0 PUSH1 0x20 DUP3 ADD MSTORE PUSH2 0xE90 DUP4 DUP5 PUSH1 0x0 ADD MLOAD MLOAD DUP5 DUP6 MLOAD PUSH2 0x19B8 JUMP JUMPDEST DUP1 PUSH1 0x9 DUP2 GT ISZERO PUSH2 0x194B JUMPI PUSH2 0x194B PUSH2 0x1C09 JUMP JUMPDEST PUSH1 0xF DUP1 SLOAD PUSH1 0xFF PUSH1 0xA0 SHL NOT AND PUSH1 0x1 PUSH1 0xA0 SHL DUP4 PUSH1 0x9 DUP2 GT ISZERO PUSH2 0x130E JUMPI PUSH2 0x130E PUSH2 0x1C09 JUMP JUMPDEST PUSH1 0x40 DUP1 MLOAD DUP1 DUP3 ADD SWAP1 SWAP2 MSTORE PUSH1 0x60 DUP2 MSTORE PUSH1 0x0 PUSH1 0x20 DUP3 ADD MSTORE PUSH2 0xE90 DUP4 DUP5 PUSH1 0x0 ADD MLOAD MLOAD DUP5 PUSH2 0x1AA2 JUMP JUMPDEST PUSH1 0x40 DUP1 MLOAD DUP1 DUP3 ADD SWAP1 SWAP2 MSTORE PUSH1 0x60 DUP2 MSTORE PUSH1 0x0 PUSH1 0x20 DUP3 ADD MSTORE PUSH2 0x73D DUP5 DUP6 PUSH1 0x0 ADD MLOAD MLOAD DUP6 DUP6 PUSH2 0x1AFD JUMP JUMPDEST PUSH1 0x40 DUP1 MLOAD DUP1 DUP3 ADD SWAP1 SWAP2 MSTORE PUSH1 0x60 DUP2 MSTORE PUSH1 0x0 PUSH1 0x20 DUP3 ADD MSTORE DUP3 MLOAD DUP3 GT ISZERO PUSH2 0x19DB JUMPI PUSH1 0x0 DUP1 REVERT JUMPDEST PUSH1 0x20 DUP6 ADD MLOAD PUSH2 0x19EA DUP4 DUP7 PUSH2 0x2187 JUMP JUMPDEST GT ISZERO PUSH2 0x1A1D JUMPI PUSH2 0x1A1D DUP6 PUSH2 0x1A0D DUP8 PUSH1 0x20 ADD MLOAD DUP8 DUP7 PUSH2 0x1A08 SWAP2 SWAP1 PUSH2 0x2187 JUMP JUMPDEST PUSH2 0x1B7E JUMP JUMPDEST PUSH2 0x1A18 SWAP1 PUSH1 0x2 PUSH2 0x1F1B JUMP JUMPDEST PUSH2 0x1B95 JUMP JUMPDEST PUSH1 0x0 DUP1 DUP7 MLOAD DUP1 MLOAD DUP8 PUSH1 0x20 DUP4 ADD ADD SWAP4 POP DUP1 DUP9 DUP8 ADD GT ISZERO PUSH2 0x1A3C JUMPI DUP8 DUP7 ADD DUP3 MSTORE JUMPDEST POP POP POP PUSH1 0x20 DUP5 ADD JUMPDEST PUSH1 0x20 DUP5 LT PUSH2 0x1A7C JUMPI DUP1 MLOAD DUP3 MSTORE PUSH2 0x1A5B PUSH1 0x20 DUP4 PUSH2 0x2187 JUMP JUMPDEST SWAP2 POP PUSH2 0x1A68 PUSH1 0x20 DUP3 PUSH2 0x2187 JUMP JUMPDEST SWAP1 POP PUSH2 0x1A75 PUSH1 0x20 DUP6 PUSH2 0x2080 JUMP JUMPDEST SWAP4 POP PUSH2 0x1A44 JUMP JUMPDEST MLOAD DUP2 MLOAD PUSH1 0x0 NOT PUSH1 0x20 DUP7 SWAP1 SUB PUSH2 0x100 EXP ADD SWAP1 DUP2 AND SWAP1 NOT SWAP2 SWAP1 SWAP2 AND OR SWAP1 MSTORE POP DUP4 SWAP5 SWAP4 POP POP POP POP JUMP JUMPDEST PUSH1 0x40 DUP1 MLOAD DUP1 DUP3 ADD SWAP1 SWAP2 MSTORE PUSH1 0x60 DUP2 MSTORE PUSH1 0x0 PUSH1 0x20 DUP3 ADD MSTORE DUP4 PUSH1 0x20 ADD MLOAD DUP4 LT PUSH2 0x1AD7 JUMPI PUSH2 0x1AD7 DUP5 DUP6 PUSH1 0x20 ADD MLOAD PUSH1 0x2 PUSH2 0x1A18 SWAP2 SWAP1 PUSH2 0x1F1B JUMP JUMPDEST DUP4 MLOAD DUP1 MLOAD PUSH1 0x20 DUP6 DUP4 ADD ADD DUP5 DUP2 MSTORE8 POP DUP1 DUP6 SUB PUSH2 0x1AF3 JUMPI PUSH1 0x1 DUP2 ADD DUP3 MSTORE JUMPDEST POP SWAP4 SWAP5 SWAP4 POP POP POP POP JUMP JUMPDEST PUSH1 0x40 DUP1 MLOAD DUP1 DUP3 ADD SWAP1 SWAP2 MSTORE PUSH1 0x60 DUP2 MSTORE PUSH1 0x0 PUSH1 0x20 DUP3 ADD MSTORE PUSH1 0x20 DUP6 ADD MLOAD PUSH2 0x1B21 DUP6 DUP5 PUSH2 0x2187 JUMP JUMPDEST GT ISZERO PUSH2 0x1B35 JUMPI PUSH2 0x1B35 DUP6 PUSH2 0x1A0D DUP7 DUP6 PUSH2 0x2187 JUMP JUMPDEST PUSH1 0x0 PUSH1 0x1 PUSH2 0x1B45 DUP5 PUSH2 0x100 PUSH2 0x217B JUMP JUMPDEST PUSH2 0x1B4F SWAP2 SWAP1 PUSH2 0x2080 JUMP JUMPDEST SWAP1 POP DUP6 MLOAD DUP4 DUP7 DUP3 ADD ADD DUP6 DUP4 NOT DUP3 MLOAD AND OR DUP2 MSTORE POP DUP1 MLOAD DUP5 DUP8 ADD GT ISZERO PUSH2 0x1B73 JUMPI DUP4 DUP7 ADD DUP2 MSTORE JUMPDEST POP SWAP5 SWAP6 SWAP5 POP POP POP POP POP JUMP JUMPDEST PUSH1 0x0 DUP2 DUP4 GT ISZERO PUSH2 0x1B8F JUMPI POP DUP2 PUSH2 0xC95 JUMP JUMPDEST POP SWAP2 SWAP1 POP JUMP JUMPDEST DUP2 MLOAD PUSH2 0x1BA1 DUP4 DUP4 PUSH2 0x1798 JUMP JUMPDEST POP PUSH2 0x1822 DUP4 DUP3 PUSH2 0x1912 JUMP JUMPDEST PUSH1 0x40 DUP1 MLOAD PUSH1 0xA0 DUP2 ADD DUP3 MSTORE PUSH1 0x0 DUP1 DUP3 MSTORE PUSH1 0x20 DUP1 DUP4 ADD DUP3 SWAP1 MSTORE DUP3 DUP5 ADD DUP3 SWAP1 MSTORE PUSH1 0x60 DUP1 DUP5 ADD DUP4 SWAP1 MSTORE DUP5 MLOAD DUP1 DUP7 ADD SWAP1 SWAP6 MSTORE DUP5 MSTORE DUP4 ADD MSTORE SWAP1 PUSH1 0x80 DUP3 ADD MSTORE SWAP1 JUMP JUMPDEST PUSH1 0x0 DUP1 PUSH1 0x40 DUP4 DUP6 SUB SLT ISZERO PUSH2 0x1BFA JUMPI PUSH1 0x0 DUP1 REVERT JUMPDEST POP POP DUP1 CALLDATALOAD SWAP3 PUSH1 0x20 SWAP1 SWAP2 ADD CALLDATALOAD SWAP2 POP JUMP JUMPDEST PUSH4 0x4E487B71 PUSH1 0xE0 SHL PUSH1 0x0 MSTORE PUSH1 0x21 PUSH1 0x4 MSTORE PUSH1 0x24 PUSH1 0x0 REVERT JUMPDEST PUSH1 0xA DUP2 LT PUSH2 0x1C2F JUMPI PUSH2 0x1C2F PUSH2 0x1C09 JUMP JUMPDEST SWAP1 MSTORE JUMP JUMPDEST DUP2 MLOAD PUSH1 0x1 PUSH1 0x1 PUSH1 0xA0 SHL SUB AND DUP2 MSTORE PUSH1 0x20 DUP1 DUP4 ADD MLOAD PUSH1 0xA0 DUP4 ADD SWAP2 PUSH2 0x1C57 SWAP1 DUP5 ADD DUP3 PUSH2 0x1C1F JUMP JUMPDEST POP PUSH1 0x40 DUP4 ADD MLOAD ISZERO ISZERO PUSH1 0x40 DUP4 ADD MSTORE PUSH1 0x60 DUP4 ADD MLOAD PUSH1 0x60 DUP4 ADD MSTORE PUSH1 0x80 DUP4 ADD MLOAD PUSH1 0x80 DUP4 ADD MSTORE SWAP3 SWAP2 POP POP JUMP JUMPDEST PUSH1 0x20 DUP2 ADD PUSH1 0x3 DUP4 LT PUSH2 0x1C92 JUMPI PUSH2 0x1C92 PUSH2 0x1C09 JUMP JUMPDEST SWAP2 SWAP1 MSTORE SWAP1 JUMP JUMPDEST PUSH1 0x0 PUSH1 0x20 DUP3 DUP5 SUB SLT ISZERO PUSH2 0x1CAA JUMPI PUSH1 0x0 DUP1 REVERT JUMPDEST DUP2 CALLDATALOAD PUSH1 0xFF DUP2 AND DUP2 EQ PUSH2 0xE90 JUMPI PUSH1 0x0 DUP1 REVERT JUMPDEST PUSH1 0x0 PUSH1 0x20 DUP3 DUP5 SUB SLT ISZERO PUSH2 0x1CCD JUMPI PUSH1 0x0 DUP1 REVERT JUMPDEST POP CALLDATALOAD SWAP2 SWAP1 POP JUMP JUMPDEST DUP1 CALLDATALOAD PUSH1 0x1 PUSH1 0x1 PUSH1 0xA0 SHL SUB DUP2 AND DUP2 EQ PUSH2 0x1CEB JUMPI PUSH1 0x0 DUP1 REVERT JUMPDEST SWAP2 SWAP1 POP JUMP JUMPDEST PUSH1 0x0 DUP1 PUSH1 0x40 DUP4 DUP6 SUB SLT ISZERO PUSH2 0x1D03 JUMPI PUSH1 0x0 DUP1 REVERT JUMPDEST PUSH2 0x1D0C DUP4 PUSH2 0x1CD4 JUMP JUMPDEST SWAP2 POP PUSH1 0x20 DUP4 ADD CALLDATALOAD PUSH1 0x1 PUSH1 0x1 PUSH1 0xE0 SHL SUB NOT DUP2 AND DUP2 EQ PUSH2 0x1D29 JUMPI PUSH1 0x0 DUP1 REVERT JUMPDEST DUP1 SWAP2 POP POP SWAP3 POP SWAP3 SWAP1 POP JUMP JUMPDEST PUSH1 0x0 DUP2 MLOAD DUP1 DUP5 MSTORE PUSH1 0x0 JUMPDEST DUP2 DUP2 LT ISZERO PUSH2 0x1D5A JUMPI PUSH1 0x20 DUP2 DUP6 ADD DUP2 ADD MLOAD DUP7 DUP4 ADD DUP3 ADD MSTORE ADD PUSH2 0x1D3E JUMP JUMPDEST DUP2 DUP2 GT ISZERO PUSH2 0x1D6C JUMPI PUSH1 0x0 PUSH1 0x20 DUP4 DUP8 ADD ADD MSTORE JUMPDEST POP PUSH1 0x1F ADD PUSH1 0x1F NOT AND SWAP3 SWAP1 SWAP3 ADD PUSH1 0x20 ADD SWAP3 SWAP2 POP POP JUMP JUMPDEST PUSH1 0x20 DUP2 MSTORE PUSH1 0x0 PUSH2 0xE90 PUSH1 0x20 DUP4 ADD DUP5 PUSH2 0x1D34 JUMP JUMPDEST PUSH4 0x4E487B71 PUSH1 0xE0 SHL PUSH1 0x0 MSTORE PUSH1 0x41 PUSH1 0x4 MSTORE PUSH1 0x24 PUSH1 0x0 REVERT JUMPDEST PUSH1 0x0 PUSH1 0x20 DUP3 DUP5 SUB SLT ISZERO PUSH2 0x1DBC JUMPI PUSH1 0x0 DUP1 REVERT JUMPDEST DUP2 CALLDATALOAD PUSH8 0xFFFFFFFFFFFFFFFF DUP1 DUP3 GT ISZERO PUSH2 0x1DD4 JUMPI PUSH1 0x0 DUP1 REVERT JUMPDEST DUP2 DUP5 ADD SWAP2 POP DUP5 PUSH1 0x1F DUP4 ADD SLT PUSH2 0x1DE8 JUMPI PUSH1 0x0 DUP1 REVERT JUMPDEST DUP2 CALLDATALOAD DUP2 DUP2 GT ISZERO PUSH2 0x1DFA JUMPI PUSH2 0x1DFA PUSH2 0x1D94 JUMP JUMPDEST PUSH1 0x40 MLOAD PUSH1 0x1F DUP3 ADD PUSH1 0x1F NOT SWAP1 DUP2 AND PUSH1 0x3F ADD AND DUP2 ADD SWAP1 DUP4 DUP3 GT DUP2 DUP4 LT OR ISZERO PUSH2 0x1E22 JUMPI PUSH2 0x1E22 PUSH2 0x1D94 JUMP JUMPDEST DUP2 PUSH1 0x40 MSTORE DUP3 DUP2 MSTORE DUP8 PUSH1 0x20 DUP5 DUP8 ADD ADD GT ISZERO PUSH2 0x1E3B JUMPI PUSH1 0x0 DUP1 REVERT JUMPDEST DUP3 PUSH1 0x20 DUP7 ADD PUSH1 0x20 DUP4 ADD CALLDATACOPY PUSH1 0x0 SWAP3 DUP2 ADD PUSH1 0x20 ADD SWAP3 SWAP1 SWAP3 MSTORE POP SWAP6 SWAP5 POP POP POP POP POP JUMP JUMPDEST PUSH1 0x0 PUSH1 0x20 DUP3 DUP5 SUB SLT ISZERO PUSH2 0x1E6D JUMPI PUSH1 0x0 DUP1 REVERT JUMPDEST PUSH2 0xE90 DUP3 PUSH2 0x1CD4 JUMP JUMPDEST PUSH1 0x1 PUSH1 0x1 PUSH1 0xA0 SHL SUB DUP7 AND DUP2 MSTORE PUSH1 0xA0 DUP2 ADD PUSH2 0x1E93 PUSH1 0x20 DUP4 ADD DUP8 PUSH2 0x1C1F JUMP JUMPDEST SWAP4 ISZERO ISZERO PUSH1 0x40 DUP3 ADD MSTORE PUSH1 0x60 DUP2 ADD SWAP3 SWAP1 SWAP3 MSTORE PUSH1 0x80 SWAP1 SWAP2 ADD MSTORE SWAP3 SWAP2 POP POP JUMP JUMPDEST PUSH1 0x20 DUP2 ADD PUSH2 0xC95 DUP3 DUP5 PUSH2 0x1C1F JUMP JUMPDEST PUSH1 0x20 DUP1 DUP3 MSTORE PUSH1 0x28 SWAP1 DUP3 ADD MSTORE PUSH32 0x536F75726365206D75737420626520746865206F7261636C65206F6620746865 PUSH1 0x40 DUP3 ADD MSTORE PUSH8 0x81C995C5D595CDD PUSH1 0xC2 SHL PUSH1 0x60 DUP3 ADD MSTORE PUSH1 0x80 ADD SWAP1 JUMP JUMPDEST PUSH4 0x4E487B71 PUSH1 0xE0 SHL PUSH1 0x0 MSTORE PUSH1 0x11 PUSH1 0x4 MSTORE PUSH1 0x24 PUSH1 0x0 REVERT JUMPDEST PUSH1 0x0 DUP2 PUSH1 0x0 NOT DIV DUP4 GT DUP3 ISZERO ISZERO AND ISZERO PUSH2 0x1F35 JUMPI PUSH2 0x1F35 PUSH2 0x1F05 JUMP JUMPDEST POP MUL SWAP1 JUMP JUMPDEST PUSH4 0x4E487B71 PUSH1 0xE0 SHL PUSH1 0x0 MSTORE PUSH1 0x12 PUSH1 0x4 MSTORE PUSH1 0x24 PUSH1 0x0 REVERT JUMPDEST PUSH1 0x0 DUP3 PUSH2 0x1F5F JUMPI PUSH2 0x1F5F PUSH2 0x1F3A JUMP JUMPDEST POP DIV SWAP1 JUMP JUMPDEST DUP1 MLOAD PUSH10 0xFFFFFFFFFFFFFFFFFFFF DUP2 AND DUP2 EQ PUSH2 0x1CEB JUMPI PUSH1 0x0 DUP1 REVERT JUMPDEST PUSH1 0x0 DUP1 PUSH1 0x0 DUP1 PUSH1 0x0 PUSH1 0xA0 DUP7 DUP9 SUB SLT ISZERO PUSH2 0x1F96 JUMPI PUSH1 0x0 DUP1 REVERT JUMPDEST PUSH2 0x1F9F DUP7 PUSH2 0x1F64 JUMP JUMPDEST SWAP5 POP PUSH1 0x20 DUP7 ADD MLOAD SWAP4 POP PUSH1 0x40 DUP7 ADD MLOAD SWAP3 POP PUSH1 0x60 DUP7 ADD MLOAD SWAP2 POP PUSH2 0x1FC2 PUSH1 0x80 DUP8 ADD PUSH2 0x1F64 JUMP JUMPDEST SWAP1 POP SWAP3 SWAP6 POP SWAP3 SWAP6 SWAP1 SWAP4 POP JUMP JUMPDEST PUSH1 0x20 DUP1 DUP3 MSTORE DUP2 DUP2 ADD MSTORE PUSH32 0x4F776E61626C653A2063616C6C6572206973206E6F7420746865206F776E6572 PUSH1 0x40 DUP3 ADD MSTORE PUSH1 0x60 ADD SWAP1 JUMP JUMPDEST PUSH1 0x0 PUSH1 0xFF DUP3 AND PUSH1 0xFF DUP5 AND DUP1 PUSH1 0xFF SUB DUP3 GT ISZERO PUSH2 0x2020 JUMPI PUSH2 0x2020 PUSH2 0x1F05 JUMP JUMPDEST ADD SWAP4 SWAP3 POP POP POP JUMP JUMPDEST PUSH4 0x4E487B71 PUSH1 0xE0 SHL PUSH1 0x0 MSTORE PUSH1 0x32 PUSH1 0x4 MSTORE PUSH1 0x24 PUSH1 0x0 REVERT JUMPDEST PUSH1 0x0 PUSH1 0xFF DUP3 AND PUSH1 0xFF DUP2 SUB PUSH2 0x2054 JUMPI PUSH2 0x2054 PUSH2 0x1F05 JUMP JUMPDEST PUSH1 0x1 ADD SWAP3 SWAP2 POP POP JUMP JUMPDEST PUSH1 0x0 PUSH1 0xFF DUP3 AND PUSH1 0xFF DUP5 AND DUP1 DUP3 LT ISZERO PUSH2 0x2077 JUMPI PUSH2 0x2077 PUSH2 0x1F05 JUMP JUMPDEST SWAP1 SUB SWAP4 SWAP3 POP POP POP JUMP JUMPDEST PUSH1 0x0 DUP3 DUP3 LT ISZERO PUSH2 0x2092 JUMPI PUSH2 0x2092 PUSH2 0x1F05 JUMP JUMPDEST POP SUB SWAP1 JUMP JUMPDEST PUSH1 0x1 DUP2 DUP2 JUMPDEST DUP1 DUP6 GT ISZERO PUSH2 0x20D2 JUMPI DUP2 PUSH1 0x0 NOT DIV DUP3 GT ISZERO PUSH2 0x20B8 JUMPI PUSH2 0x20B8 PUSH2 0x1F05 JUMP JUMPDEST DUP1 DUP6 AND ISZERO PUSH2 0x20C5 JUMPI SWAP2 DUP2 MUL SWAP2 JUMPDEST SWAP4 DUP5 SHR SWAP4 SWAP1 DUP1 MUL SWAP1 PUSH2 0x209C JUMP JUMPDEST POP SWAP3 POP SWAP3 SWAP1 POP JUMP JUMPDEST PUSH1 0x0 DUP3 PUSH2 0x20E9 JUMPI POP PUSH1 0x1 PUSH2 0xC95 JUMP JUMPDEST DUP2 PUSH2 0x20F6 JUMPI POP PUSH1 0x0 PUSH2 0xC95 JUMP JUMPDEST DUP2 PUSH1 0x1 DUP2 EQ PUSH2 0x210C JUMPI PUSH1 0x2 DUP2 EQ PUSH2 0x2116 JUMPI PUSH2 0x2132 JUMP JUMPDEST PUSH1 0x1 SWAP2 POP POP PUSH2 0xC95 JUMP JUMPDEST PUSH1 0xFF DUP5 GT ISZERO PUSH2 0x2127 JUMPI PUSH2 0x2127 PUSH2 0x1F05 JUMP JUMPDEST POP POP PUSH1 0x1 DUP3 SHL PUSH2 0xC95 JUMP JUMPDEST POP PUSH1 0x20 DUP4 LT PUSH2 0x133 DUP4 LT AND PUSH1 0x4E DUP5 LT PUSH1 0xB DUP5 LT AND OR ISZERO PUSH2 0x2155 JUMPI POP DUP2 DUP2 EXP PUSH2 0xC95 JUMP JUMPDEST PUSH2 0x215F DUP4 DUP4 PUSH2 0x2097 JUMP JUMPDEST DUP1 PUSH1 0x0 NOT DIV DUP3 GT ISZERO PUSH2 0x2173 JUMPI PUSH2 0x2173 PUSH2 0x1F05 JUMP JUMPDEST MUL SWAP4 SWAP3 POP POP POP JUMP JUMPDEST PUSH1 0x0 PUSH2 0xE90 DUP4 DUP4 PUSH2 0x20DA JUMP JUMPDEST PUSH1 0x0 DUP3 NOT DUP3 GT ISZERO PUSH2 0x219A JUMPI PUSH2 0x219A PUSH2 0x1F05 JUMP JUMPDEST POP ADD SWAP1 JUMP JUMPDEST PUSH1 0x0 PUSH1 0x1 DUP3 ADD PUSH2 0x21B1 JUMPI PUSH2 0x21B1 PUSH2 0x1F05 JUMP JUMPDEST POP PUSH1 0x1 ADD SWAP1 JUMP JUMPDEST PUSH1 0x1 PUSH1 0x1 PUSH1 0xA0 SHL SUB DUP10 DUP2 AND DUP3 MSTORE PUSH1 0x20 DUP3 ADD DUP10 SWAP1 MSTORE PUSH1 0x40 DUP3 ADD DUP9 SWAP1 MSTORE DUP7 AND PUSH1 0x60 DUP3 ADD MSTORE PUSH1 0x1 PUSH1 0x1 PUSH1 0xE0 SHL SUB NOT DUP6 AND PUSH1 0x80 DUP3 ADD MSTORE PUSH1 0xA0 DUP2 ADD DUP5 SWAP1 MSTORE PUSH1 0xC0 DUP2 ADD DUP4 SWAP1 MSTORE PUSH2 0x100 PUSH1 0xE0 DUP3 ADD DUP2 SWAP1 MSTORE PUSH1 0x0 SWAP1 PUSH2 0x2211 DUP4 DUP3 ADD DUP6 PUSH2 0x1D34 JUMP JUMPDEST SWAP12 SWAP11 POP POP POP POP POP POP POP POP POP POP POP JUMP JUMPDEST PUSH1 0x1 DUP1 PUSH1 0xA0 SHL SUB DUP5 AND DUP2 MSTORE DUP3 PUSH1 0x20 DUP3 ADD MSTORE PUSH1 0x60 PUSH1 0x40 DUP3 ADD MSTORE PUSH1 0x0 PUSH2 0x10F1 PUSH1 0x60 DUP4 ADD DUP5 PUSH2 0x1D34 JUMP JUMPDEST PUSH1 0x0 PUSH1 0x20 DUP3 DUP5 SUB SLT ISZERO PUSH2 0x2259 JUMPI PUSH1 0x0 DUP1 REVERT JUMPDEST DUP2 MLOAD DUP1 ISZERO ISZERO DUP2 EQ PUSH2 0xE90 JUMPI PUSH1 0x0 DUP1 REVERT JUMPDEST PUSH1 0x0 DUP3 PUSH2 0x2278 JUMPI PUSH2 0x2278 PUSH2 0x1F3A JUMP JUMPDEST POP MOD SWAP1 JUMP INVALID PUSH9 0x747470733A2F2F6665 PUSH9 0x2D726573706C656E64 PUSH6 0x6E742E686572 PUSH16 0x6B756170702E636F6D2F636861726163 PUSH21 0x6572732F6C61746573743F666F726D61743D6A736F PUSH15 0xA26469706673582212207F46CF5724 SWAP1 JUMPI 0xF 0xB7 LOG2 LOG2 0xE8 PC PUSH17 0x6BB37E5F10484516DBA5CF31DAE40147FA SHL PUSH5 0x736F6C6343 STOP ADDMOD 0xD STOP CALLER ","sha1":"2ac775d9f7dd27a19c624f96dcebfc00fb901042","source":"//SPDX-License-Identifier: Apache-2.0\npragma solidity ^0.8.7;\n\n//import \"./User.sol\";\n//import \"./BetStatus.sol\";\nimport \"@openzeppelin/contracts/access/Ownable.sol\";\nimport \"@chainlink/contracts/src/v0.8/interfaces/AggregatorV3Interface.sol\";\nimport \"./APIConsumer.sol\";\n\n//contract APIConsumer{ function requestData() public view returns(bytes32);} \n\ncontract Betting is Ownable, APIConsumer {\n    enum Bet{EMPTY, ASKR, EMBLA,NIFL,MUSPELL,HEL,LIGHT_FAIRY,DARK_FAIRY,MECHA,GIANT}\n    enum LOTTERY_STATE {\n        OPEN,\n        CLOSED,\n        CALCULATING_WINNER\n    }\n    struct User {\n        address id;\n        Bet bet;\n        bool hasBet;\n        uint256 amountBet;\n        uint256 winningPercentage;  \n    }\n\n    LOTTERY_STATE public lottery_state;\n    mapping(string => int8) public resplendentThemes;\n    address[] public Voters;\n    mapping(address => User) public users; \n    address payable public contractAddress;\n    Bet public finalResultIs;\n    mapping(uint => address) public Winners;\n    uint public winnerCount;\n    User resetUser; \n    address nulladdress;\n    event WinnerPayed(address indexed winner, uint256 amount);\n    event api_data_received(uint indexed new_resplendent, address sender);\n    uint public resplendent;\n\n    APIConsumer internal ResplendentRequest;\n\n    // Ethereum Price Feed routine variables\n    AggregatorV3Interface internal ethUsdPriceFeed;\n    uint256 public usdEntryFee;\n    /**\n     * Network: Kovan\n     * Aggregator: ETH/USD\n     * Address: 0x9326BFA02ADD2366b30bacB125260Af641031331\n     * Network: Rinkeby\n     * Aggregator: ETH/USD\n     * Address: 0x8A753747A1Fa494EC906cE90E9f37563A8AF630e\n     */\n\n\n    constructor() public{\n        contractAddress = payable(address(this));\n        resplendent =42;\n        finalResultIs = Bet.EMPTY;\n        winnerCount = 0;\n        nulladdress = 0x0000000000000000000000000000000000000000;\n        resetUser = User(nulladdress,Bet(0), false, 0,0);  \n        ethUsdPriceFeed = AggregatorV3Interface(0x8A753747A1Fa494EC906cE90E9f37563A8AF630e);\n        usdEntryFee = 50 * (10**18); // current price, $50 in ETH \n        api_data =\"\";\n        lottery_state = LOTTERY_STATE.OPEN;\n}\n\n    // Open Lottery\n     function startLottery() public onlyOwner {\n        require(\n            lottery_state == LOTTERY_STATE.CLOSED,\n            \"Can't start a new lottery yet!\"\n        );\n        lottery_state = LOTTERY_STATE.OPEN;\n    }\n\n\n    //\n\n    function getLotteryStatus() public view returns (LOTTERY_STATE) {\n        return(lottery_state);\n    }\n\n    /**\n     * Returns the latest price\n     */\n    function getLatestPrice() public view returns (int) {\n        (\n            uint80 roundID, \n            int price,\n            uint startedAt,\n            uint timeStamp,\n            uint80 answeredInRound\n        ) = ethUsdPriceFeed.latestRoundData();\n        return price; // returns in gwei\n    }\n\n    // setting the entrance fee \n\n    function getEntranceFee() public view returns (uint256) {\n        (, int256 price, , , ) = ethUsdPriceFeed.latestRoundData();\n        uint256 adjustedPrice = uint256(price) * 10**10; // 18 decimals -> convert it to wei\n        // $50, $2,000 / ETH\n        // 50/2,000\n        // 50 * 100000 / 2000\n        uint256 costToEnter = (usdEntryFee * 10**18) / adjustedPrice;\n        return costToEnter; // returns in Wei\n    }\n\n\n    function placeBet(uint8 _bet) public payable{\n        require(!users[msg.sender].hasBet, \"User has already bet!\");\n        require(msg.value >= getEntranceFee(),\"Don't be cheap! $50 or more in ETH!\");\n        require(lottery_state == LOTTERY_STATE.OPEN, \"Polls are closed :/\");\n\n        User memory user = User(msg.sender,Bet(_bet+1),true,msg.value, 0);\n        Voters.push(msg.sender);\n        users[msg.sender] = user;\n    }\n    \n    function getPrizeMoney() public view returns(uint256){\n        return(contractAddress.balance * 99)/100; //Contract collects a 1% fee\n    }\n    \n    function getUserStructData() public view returns(User memory){\n        return users[msg.sender];\n    }\n\n    function setFinalResult(uint _resplendent) private {\n        finalResultIs = Bet(_resplendent);\n    }\n\n    function sortPlayersByBetsAndGetWinners() private {\n        uint256 totalAmountBetByWinners = 0;\n        winnerCount = 0;\n        setFinalResult(resplendent);\n        \n\n        for(uint256 i =0; i < Voters.length; i++){\n            if(users[Voters[i]].bet == finalResultIs){\n                totalAmountBetByWinners =totalAmountBetByWinners+ users[Voters[i]].amountBet;\n                Winners[winnerCount] = users[Voters[i]].id;\n                winnerCount++;\n            }\n        }\n        for (uint256 j = 0; j < winnerCount; j++) {    \n            users[Winners[j]].winningPercentage = (users[Winners[j]].amountBet*100) / totalAmountBetByWinners;\n        }\n    }\n\n\n    // working on this function\n    function requestResplendentValue() public onlyOwner {\n        requestData(address(this), getFunctionSelector());\n    }\n\n    function getFunctionSelector() public pure returns(bytes4) {\n        return this.fulfillResplendentValue.selector;\n    }\n\n    function fulfillResplendentValue(bytes32 _requestId, bytes32 _api_data) public recordChainlinkFulfillment(_requestId){\n        api_data = _api_data;\n        (resplendent,) = strToUint(bytes32ToString(_api_data));\n        emit api_data_received(resplendent,owner());\n    }\n    \n    function payWinners() private {\n        require(contractAddress.balance >= 0 wei, \"No bets placed\");\n        sortPlayersByBetsAndGetWinners();\n        require(winnerCount > 0, \"No winners this round\");\n        uint256 prizemoney = getPrizeMoney();\n\n        for (uint256 i = 0; i < winnerCount; i++) {\n            uint256 amountForWinner = (users[Winners[i]].winningPercentage * prizemoney)/100;\n            payout(payable(Winners[i]),amountForWinner);\n        }\n        payout(payable(owner()),address(this).balance);\n        lottery_state = LOTTERY_STATE.CLOSED;\n\n    }    \n    \n    function payout(address payable _to, uint256 _amount) private {\n        (bool success,) = _to.call{value:_amount}(\"\");\n        require(success, \"Failed to pay winner\");\n        emit WinnerPayed(_to, _amount);\n    }\n    \n    function CleanWinnningMapping() private{\n        for (uint i = 0; i < winnerCount; i++){\n            Winners[i] = nulladdress;\n        }\n\n        winnerCount = 0;\n\n        for(uint j = 0; j < Voters.length; j++)\n        {\n            users[Voters[j]] = resetUser;\n        }\n\n        delete Voters;\n    }\n\n    function finalResult() public onlyOwner {\n        lottery_state = LOTTERY_STATE.CALCULATING_WINNER;\n        payWinners();\n        //CleanWinnningMapping();\n    }\n    \n}\n","sourcePath":"contracts/Bet.sol","type":"contract","deployment":{"address":"0x88590eC187Ac36fad5D5836cBb46050e7D2a85a3","chainid":"4","blockHeight":10967047}}