{"abi":[{"inputs":[],"stateMutability":"nonpayable","type":"constructor","name":"constructor"},{"anonymous":false,"inputs":[{"indexed":true,"internalType":"bytes32","name":"id","type":"bytes32"}],"name":"ChainlinkCancelled","type":"event"},{"anonymous":false,"inputs":[{"indexed":true,"internalType":"bytes32","name":"id","type":"bytes32"}],"name":"ChainlinkFulfilled","type":"event"},{"anonymous":false,"inputs":[{"indexed":true,"internalType":"bytes32","name":"id","type":"bytes32"}],"name":"ChainlinkRequested","type":"event"},{"anonymous":false,"inputs":[{"indexed":true,"internalType":"address","name":"previousOwner","type":"address"},{"indexed":true,"internalType":"address","name":"newOwner","type":"address"}],"name":"OwnershipTransferred","type":"event"},{"anonymous":false,"inputs":[{"indexed":true,"internalType":"address","name":"winner","type":"address"},{"indexed":false,"internalType":"uint256","name":"amount","type":"uint256"}],"name":"WinnerPayed","type":"event"},{"anonymous":false,"inputs":[{"indexed":true,"internalType":"uint256","name":"new_resplendent","type":"uint256"},{"indexed":false,"internalType":"address","name":"sender","type":"address"}],"name":"api_data_received","type":"event"},{"inputs":[{"internalType":"uint256","name":"","type":"uint256"}],"name":"Voters","outputs":[{"internalType":"address","name":"","type":"address"}],"stateMutability":"view","type":"function"},{"inputs":[{"internalType":"uint256","name":"","type":"uint256"}],"name":"Winners","outputs":[{"internalType":"address","name":"","type":"address"}],"stateMutability":"view","type":"function"},{"inputs":[],"name":"api_data","outputs":[{"internalType":"bytes32","name":"","type":"bytes32"}],"stateMutability":"view","type":"function"},{"inputs":[{"internalType":"bytes32","name":"_bytes32","type":"bytes32"}],"name":"bytes32ToString","outputs":[{"internalType":"string","name":"","type":"string"}],"stateMutability":"pure","type":"function"},{"inputs":[],"name":"contractAddress","outputs":[{"internalType":"address payable","name":"","type":"address"}],"stateMutability":"view","type":"function"},{"inputs":[],"name":"finalResult","outputs":[],"stateMutability":"nonpayable","type":"function"},{"inputs":[],"name":"finalResultIs","outputs":[{"internalType":"enum Betting.Bet","name":"","type":"uint8"}],"stateMutability":"view","type":"function"},{"inputs":[{"internalType":"bytes32","name":"_requestId","type":"bytes32"},{"internalType":"bytes32","name":"_api_data","type":"bytes32"}],"name":"fulfill","outputs":[],"stateMutability":"nonpayable","type":"function"},{"inputs":[{"internalType":"bytes32","name":"_requestId","type":"bytes32"},{"internalType":"bytes32","name":"_api_data","type":"bytes32"}],"name":"fulfillResplendentValue","outputs":[],"stateMutability":"nonpayable","type":"function"},{"inputs":[],"name":"getEntranceFee","outputs":[{"internalType":"uint256","name":"","type":"uint256"}],"stateMutability":"view","type":"function"},{"inputs":[],"name":"getFunctionSelector","outputs":[{"internalType":"bytes4","name":"","type":"bytes4"}],"stateMutability":"pure","type":"function"},{"inputs":[],"name":"getLatestPrice","outputs":[{"internalType":"int256","name":"","type":"int256"}],"stateMutability":"view","type":"function"},{"inputs":[],"name":"getPrizeMoney","outputs":[{"internalType":"uint256","name":"","type":"uint256"}],"stateMutability":"view","type":"function"},{"inputs":[],"name":"getUserStructData","outputs":[{"components":[{"internalType":"address","name":"id","type":"address"},{"internalType":"enum Betting.Bet","name":"bet","type":"uint8"},{"internalType":"bool","name":"hasBet","type":"bool"},{"internalType":"uint256","name":"amountBet","type":"uint256"},{"internalType":"uint256","name":"winningPercentage","type":"uint256"}],"internalType":"struct Betting.User","name":"","type":"tuple"}],"stateMutability":"view","type":"function"},{"inputs":[],"name":"owner","outputs":[{"internalType":"address","name":"","type":"address"}],"stateMutability":"view","type":"function"},{"inputs":[{"internalType":"enum Betting.Bet","name":"_bet","type":"uint8"}],"name":"placeBet","outputs":[],"stateMutability":"payable","type":"function"},{"inputs":[],"name":"renounceOwnership","outputs":[],"stateMutability":"nonpayable","type":"function"},{"inputs":[{"internalType":"address","name":"callBackContract","type":"address"},{"internalType":"bytes4","name":"functionSelector","type":"bytes4"}],"name":"requestData","outputs":[{"internalType":"bytes32","name":"requestId","type":"bytes32"}],"stateMutability":"nonpayable","type":"function"},{"inputs":[],"name":"requestResplendentValue","outputs":[],"stateMutability":"nonpayable","type":"function"},{"inputs":[],"name":"resplendent","outputs":[{"internalType":"uint256","name":"","type":"uint256"}],"stateMutability":"view","type":"function"},{"inputs":[{"internalType":"string","name":"","type":"string"}],"name":"resplendentThemes","outputs":[{"internalType":"int8","name":"","type":"int8"}],"stateMutability":"view","type":"function"},{"inputs":[{"internalType":"string","name":"_str","type":"string"}],"name":"strToUint","outputs":[{"internalType":"uint256","name":"res","type":"uint256"},{"internalType":"bool","name":"err","type":"bool"}],"stateMutability":"pure","type":"function"},{"inputs":[{"internalType":"address","name":"newOwner","type":"address"}],"name":"transferOwnership","outputs":[],"stateMutability":"nonpayable","type":"function"},{"inputs":[],"name":"usdEntryFee","outputs":[{"internalType":"uint256","name":"","type":"uint256"}],"stateMutability":"view","type":"function"},{"inputs":[{"internalType":"address","name":"","type":"address"}],"name":"users","outputs":[{"internalType":"address","name":"id","type":"address"},{"internalType":"enum Betting.Bet","name":"bet","type":"uint8"},{"internalType":"bool","name":"hasBet","type":"bool"},{"internalType":"uint256","name":"amountBet","type":"uint256"},{"internalType":"uint256","name":"winningPercentage","type":"uint256"}],"stateMutability":"view","type":"function"},{"inputs":[],"name":"winnerCount","outputs":[{"internalType":"uint256","name":"","type":"uint256"}],"stateMutability":"view","type":"function"}],"bytecode":"608060405260016005553480156200001657600080fd5b5062000022336200012b565b6200002c6200017b565b6008805473f405b99aca8578b9eb989ee2b69d518aadb90c1f6001600160a01b0319918216179091557f376334623936383032386637346232656162643764343238663033626134356360095567016345785d8a0000600a55600e8054602a6015556001600160a81b0319163060ff60a01b19161790556000601081905560148054831690556040805160a0810182528281526020810183905290810182905260608101829052608001819052601180546001600160b01b03191690556012819055601381905560178054738a753747a1fa494ec906ce90e9f37563a8af630e9316929092179091556802b5e3af16b18800006018556007556200024e565b600080546001600160a01b038381166001600160a01b0319831681178455604051919092169283917f8be0079c531659141344cd1fd0a4f28419497f9722a3daafe3b4186f6b6457e09190a35050565b6200021a73c89bd4e1632d3a43cb03aaad5262cbe4038bc5716001600160a01b03166338cc48316040518163ffffffff1660e01b8152600401602060405180830381865afa158015620001d2573d6000803e3d6000fd5b505050506040513d601f19601f82011682018060405250810190620001f891906200021c565b600380546001600160a01b0319166001600160a01b0392909216919091179055565b565b6000602082840312156200022f57600080fd5b81516001600160a01b03811681146200024757600080fd5b9392505050565b6120e1806200025e6000396000f3fe6080604052600436106101815760003560e01c80638e15f473116100d1578063c5ef3ec51161008a578063eedee56211610064578063eedee562146104b9578063f2fde38b146104e7578063f3a8286f14610507578063f6b4dfb41461051c57600080fd5b8063c5ef3ec514610458578063caa02e081461048d578063dd151ec7146104a357600080fd5b80638e15f473146103295780639201de551461033e5780639c35d98b1461036b578063a5e30f571461038b578063a87430ba146103d9578063a8ba022b1461044357600080fd5b8063430468441161013e57806365ff13291161011857806365ff1329146102c0578063715018a6146102e057806388ab139a146102f55780638da5cb5b1461030b57600080fd5b8063430468441461023f5780635bb02e01146102525780636103d9151461027257600080fd5b8063042f2b65146101865780630737c24b146101a857806309bc33a7146101d05780630eabaa5e146101e557806310d1c4c3146101fb5780631356ea651461021d575b600080fd5b34801561019257600080fd5b506101a66101a1366004611a0b565b61053c565b005b3480156101b457600080fd5b506101bd6105c7565b6040519081526020015b60405180910390f35b3480156101dc57600080fd5b506101bd6105f4565b3480156101f157600080fd5b506101bd60155481565b34801561020757600080fd5b50604051635bb02e0160e01b81526020016101c7565b34801561022957600080fd5b506102326106b4565b6040516101c79190611a65565b6101a661024d366004611ab0565b61076a565b34801561025e57600080fd5b506101a661026d366004611a0b565b61094a565b34801561027e57600080fd5b506102a861028d366004611ad1565b600f602052600090815260409020546001600160a01b031681565b6040516001600160a01b0390911681526020016101c7565b3480156102cc57600080fd5b506101bd6102db366004611b06565b610a30565b3480156102ec57600080fd5b506101a6610af7565b34801561030157600080fd5b506101bd60185481565b34801561031757600080fd5b506000546001600160a01b03166102a8565b34801561033557600080fd5b506101bd610b2d565b34801561034a57600080fd5b5061035e610359366004611ad1565b610bbc565b6040516101c79190611b97565b34801561037757600080fd5b506102a8610386366004611ad1565b610cf3565b34801561039757600080fd5b506103c66103a6366004611bc0565b8051602081830181018051600b8252928201919093012091525460000b81565b60405160009190910b81526020016101c7565b3480156103e557600080fd5b506104326103f4366004611c71565b600d602052600090815260409020805460018201546002909201546001600160a01b0382169260ff600160a01b8404811693600160a81b9004169185565b6040516101c7959493929190611c8c565b34801561044f57600080fd5b506101a6610d1d565b34801561046457600080fd5b50610478610473366004611bc0565b610d5b565b604080519283529015156020830152016101c7565b34801561049957600080fd5b506101bd60105481565b3480156104af57600080fd5b506101bd60075481565b3480156104c557600080fd5b50600e546104da90600160a01b900460ff1681565b6040516101c79190611cc5565b3480156104f357600080fd5b506101a6610502366004611c71565b610e5a565b34801561051357600080fd5b506101a6610ef2565b34801561052857600080fd5b50600e546102a8906001600160a01b031681565b60008281526006602052604090205482906001600160a01b0316331461057d5760405162461bcd60e51b815260040161057490611cd3565b60405180910390fd5b60008181526006602052604080822080546001600160a01b03191690555182917f7cc135e0cebb02c3480ae5d74d377283180a2601f8f644edf7987b009316c63a91a25060075550565b600e546000906064906105e5906001600160a01b0316316063611d31565b6105ef9190611d66565b905090565b600080601760009054906101000a90046001600160a01b03166001600160a01b031663feaf968c6040518163ffffffff1660e01b815260040160a060405180830381865afa15801561064a573d6000803e3d6000fd5b505050506040513d601f19601f8201168201806040525081019061066e9190611d94565b5050509150506000816402540be4006106879190611d31565b9050600081601854670de0b6b3a76400006106a29190611d31565b6106ac9190611d66565b949350505050565b6040805160a081018252600080825260208201819052918101829052606081018290526080810191909152336000908152600d6020908152604091829020825160a0810190935280546001600160a01b03811684529091830190600160a01b900460ff16600981111561072957610729611a2d565b600981111561073a5761073a611a2d565b81528154600160a81b900460ff161515602082015260018201546040820152600290910154606090910152919050565b336000908152600d6020526040902054600160a81b900460ff16156107c95760405162461bcd60e51b8152602060048201526015602482015274557365722068617320616c7265616479206265742160581b6044820152606401610574565b6107d16105f4565b34101561082c5760405162461bcd60e51b815260206004820152602360248201527f446f6e27742062652063686561702120243530206f72206d6f726520696e204560448201526254482160e81b6064820152608401610574565b60006040518060a00160405280336001600160a01b0316815260200183600981111561085a5761085a611a2d565b8152600160208083018290523460408085019190915260006060909401849052600c805493840190557fdf6966c971051c3d54ec59162606531493a51404a002842f56009d7e5cf4a8c790920180546001600160a01b031990811633908117909255908452600d825291909220835181546001600160a01b0391909116928116831782559284015193945084939092909183916001600160a81b03191617600160a01b83600981111561090f5761090f611a2d565b021790555060408201518154901515600160a81b0260ff60a81b19909116178155606082015160018201556080909101516002909101555050565b60008281526006602052604090205482906001600160a01b031633146109825760405162461bcd60e51b815260040161057490611cd3565b60008181526006602052604080822080546001600160a01b03191690555182917f7cc135e0cebb02c3480ae5d74d377283180a2601f8f644edf7987b009316c63a91a260078290556109d661047383610bbc565b5060158190557f2f2ec9b308c77557be0ca886a9fd58ffc8bdc94f0978011757a7417e90c4a4c7610a0f6000546001600160a01b031690565b6040516001600160a01b0390911681526020015b60405180910390a2505050565b600080610a406009548585610f24565b9050610a826040518060400160405280600381526020016219d95d60ea1b8152506040518060600160405280603d815260200161206f603d9139839190610f49565b610ad2604051806040016040528060048152602001630e0c2e8d60e31b815250604051806040016040528060078152602001667468656d652e3160c81b81525083610f499092919063ffffffff16565b600854600a54610aed916001600160a01b0316908390610f6c565b9150505b92915050565b6000546001600160a01b03163314610b215760405162461bcd60e51b815260040161057490611de4565b610b2b6000610fff565b565b600080600080600080601760009054906101000a90046001600160a01b03166001600160a01b031663feaf968c6040518163ffffffff1660e01b815260040160a060405180830381865afa158015610b89573d6000803e3d6000fd5b505050506040513d601f19601f82011682018060405250810190610bad9190611d94565b50919998505050505050505050565b606060005b60208160ff16108015610bf55750828160ff1660208110610be457610be4611e19565b1a60f81b6001600160f81b03191615155b15610c0c5780610c0481611e2f565b915050610bc1565b60008160ff1667ffffffffffffffff811115610c2a57610c2a611baa565b6040519080825280601f01601f191660200182016040528015610c54576020820181803683370190505b509050600091505b60208260ff16108015610c905750838260ff1660208110610c7f57610c7f611e19565b1a60f81b6001600160f81b03191615155b15610cec57838260ff1660208110610caa57610caa611e19565b1a60f81b818360ff1681518110610cc357610cc3611e19565b60200101906001600160f81b031916908160001a90535081610ce481611e2f565b925050610c5c565b9392505050565b600c8181548110610d0357600080fd5b6000918252602090912001546001600160a01b0316905081565b6000546001600160a01b03163314610d475760405162461bcd60e51b815260040161057490611de4565b610d5830635bb02e0160e01b610a30565b50565b60008060005b8351811015610e4f5760006030858381518110610d8057610d80611e19565b0160200151610d92919060f81c611e4e565b60ff161080610dc9575060096030858381518110610db257610db2611e19565b0160200151610dc4919060f81c611e4e565b60ff16115b15610dda5750600093849350915050565b6001818551610de99190611e71565b610df39190611e71565b610dfe90600a611f6c565b6030858381518110610e1257610e12611e19565b0160200151610e24919060f81c611e4e565b60ff16610e319190611d31565b610e3b9084611f78565b925080610e4781611f90565b915050610d61565b509092600192509050565b6000546001600160a01b03163314610e845760405162461bcd60e51b815260040161057490611de4565b6001600160a01b038116610ee95760405162461bcd60e51b815260206004820152602660248201527f4f776e61626c653a206e6577206f776e657220697320746865207a65726f206160448201526564647265737360d01b6064820152608401610574565b610d5881610fff565b6000546001600160a01b03163314610f1c5760405162461bcd60e51b815260040161057490611de4565b610b2b61104f565b610f2c6119d0565b610f346119d0565b610f4081868686611136565b95945050505050565b6080830151610f589083611173565b6080830151610f679082611173565b505050565b600554600090610f7d816001611f78565b600555835160408086015160808701515191516000936320214ca360e11b93610fb59386938493923092918a91600191602401611fa9565b60408051601f198184030181529190526020810180516001600160e01b03166001600160e01b0319909316929092179091529050610ff58683868461118a565b9695505050505050565b600080546001600160a01b038381166001600160a01b0319831681178455604051919092169283917f8be0079c531659141344cd1fd0a4f28419497f9722a3daafe3b4186f6b6457e09190a35050565b6110576112e8565b6000601054116110a15760405162461bcd60e51b8152602060048201526015602482015274139bc81dda5b9b995c9cc81d1a1a5cc81c9bdd5b99605a1b6044820152606401610574565b60006110ab6105c7565b905060005b601054811015611132576000818152600f60209081526040808320546001600160a01b03168352600d9091528120600201546064906110f0908590611d31565b6110fa9190611d66565b6000838152600f602052604090205490915061111f906001600160a01b0316826114df565b508061112a81611f90565b9150506110b0565b5050565b61113e6119d0565b61114e85608001516101006115b4565b50509183526001600160a01b031660208301526001600160e01b031916604082015290565b6111808260038351611619565b610f67828261172e565b6040516bffffffffffffffffffffffff193060601b1660208201526034810184905260009060540160408051808303601f1901815282825280516020918201206000818152600690925291812080546001600160a01b0319166001600160a01b038a1617905590925082917fb5e6e01e79f91267dc17b4e6314d5d4d03593d2ceee0fbb452b750bd70ea5af99190a2600354604051630200057560e51b81526001600160a01b0390911690634000aea09061124d90889087908790600401612011565b6020604051808303816000875af115801561126c573d6000803e3d6000fd5b505050506040513d601f19601f820116820180604052508101906112909190612038565b6106ac5760405162461bcd60e51b815260206004820152602360248201527f756e61626c6520746f207472616e73666572416e6443616c6c20746f206f7261604482015262636c6560e81b6064820152608401610574565b600060108190556015546112fb90611755565b60005b600c5481101561145857600e54600160a01b900460ff16600981111561132657611326611a2d565b600d6000600c848154811061133d5761133d611e19565b60009182526020808320909101546001600160a01b0316835282019290925260400190205460ff600160a01b90910416600981111561137e5761137e611a2d565b0361144657600d6000600c838154811061139a5761139a611e19565b60009182526020808320909101546001600160a01b031683528201929092526040019020600101546113cc9083611f78565b9150600d6000600c83815481106113e5576113e5611e19565b60009182526020808320909101546001600160a01b039081168452838201949094526040928301822054601080548452600f90925292822080546001600160a01b031916939094169290921790925580549161144083611f90565b91905055505b8061145081611f90565b9150506112fe565b5060005b601054811015611132576000818152600f60209081526040808320546001600160a01b03168352600d909152902060010154829061149b906064611d31565b6114a59190611d66565b6000828152600f60209081526040808320546001600160a01b03168352600d909152902060020155806114d781611f90565b91505061145c565b6000826001600160a01b03168260405160006040518083038185875af1925050503d806000811461152c576040519150601f19603f3d011682016040523d82523d6000602084013e611531565b606091505b50509050806115795760405162461bcd60e51b81526020600482015260146024820152732330b4b632b2103a37903830bc903bb4b73732b960611b6044820152606401610574565b826001600160a01b03167f2897e467188c1ebbd157f72e82b2059710aea0df2ba4b6075e47e305087bbffe83604051610a2391815260200190565b6040805180820190915260608152600060208201526115d460208361205a565b156115fc576115e460208361205a565b6115ef906020611e71565b6115f99083611f78565b91505b506020828101829052604080518085526000815290920101905290565b60178167ffffffffffffffff16116116445761163e8360e0600585901b168317611791565b50505050565b60ff8167ffffffffffffffff16116116825761166b836018611fe0600586901b1617611791565b5061163e8367ffffffffffffffff831660016117b6565b61ffff8167ffffffffffffffff16116116c1576116aa836019611fe0600586901b1617611791565b5061163e8367ffffffffffffffff831660026117b6565b63ffffffff8167ffffffffffffffff1611611702576116eb83601a611fe0600586901b1617611791565b5061163e8367ffffffffffffffff831660046117b6565b61171783601b611fe0600586901b1617611791565b5061163e8367ffffffffffffffff831660086117b6565b604080518082019091526060815260006020820152610cec838460000151518485516117dc565b80600981111561176757611767611a2d565b600e805460ff60a01b1916600160a01b83600981111561178957611789611a2d565b021790555050565b604080518082019091526060815260006020820152610cec83846000015151846118c6565b6040805180820190915260608152600060208201526106ac848560000151518585611921565b60408051808201909152606081526000602082015282518211156117ff57600080fd5b602085015161180e8386611f78565b111561184157611841856118318760200151878661182c9190611f78565b6119a2565b61183c906002611d31565b6119b9565b6000808651805187602083010193508088870111156118605787860182525b505050602084015b602084106118a0578051825261187f602083611f78565b915061188c602082611f78565b9050611899602085611e71565b9350611868565b51815160001960208690036101000a019081169019919091161790525083949350505050565b604080518082019091526060815260006020820152836020015183106118fb576118fb848560200151600261183c9190611d31565b8351805160208583010184815350808503611917576001810182525b5093949350505050565b60408051808201909152606081526000602082015260208501516119458584611f78565b111561195957611959856118318685611f78565b6000600161196984610100611f6c565b6119739190611e71565b90508551838682010185831982511617815250805184870111156119975783860181525b509495945050505050565b6000818311156119b3575081610af1565b50919050565b81516119c583836115b4565b5061163e838261172e565b6040805160a0810182526000808252602080830182905282840182905260608084018390528451808601909552845283015290608082015290565b60008060408385031215611a1e57600080fd5b50508035926020909101359150565b634e487b7160e01b600052602160045260246000fd5b600a8110611a6157634e487b7160e01b600052602160045260246000fd5b9052565b81516001600160a01b0316815260208083015160a0830191611a8990840182611a43565b50604083015115156040830152606083015160608301526080830151608083015292915050565b600060208284031215611ac257600080fd5b8135600a8110610cec57600080fd5b600060208284031215611ae357600080fd5b5035919050565b80356001600160a01b0381168114611b0157600080fd5b919050565b60008060408385031215611b1957600080fd5b611b2283611aea565b915060208301356001600160e01b031981168114611b3f57600080fd5b809150509250929050565b6000815180845260005b81811015611b7057602081850181015186830182015201611b54565b81811115611b82576000602083870101525b50601f01601f19169290920160200192915050565b602081526000610cec6020830184611b4a565b634e487b7160e01b600052604160045260246000fd5b600060208284031215611bd257600080fd5b813567ffffffffffffffff80821115611bea57600080fd5b818401915084601f830112611bfe57600080fd5b813581811115611c1057611c10611baa565b604051601f8201601f19908116603f01168101908382118183101715611c3857611c38611baa565b81604052828152876020848701011115611c5157600080fd5b826020860160208301376000928101602001929092525095945050505050565b600060208284031215611c8357600080fd5b610cec82611aea565b6001600160a01b038616815260a08101611ca96020830187611a43565b9315156040820152606081019290925260809091015292915050565b60208101610af18284611a43565b60208082526028908201527f536f75726365206d75737420626520746865206f7261636c65206f6620746865604082015267081c995c5d595cdd60c21b606082015260800190565b634e487b7160e01b600052601160045260246000fd5b6000816000190483118215151615611d4b57611d4b611d1b565b500290565b634e487b7160e01b600052601260045260246000fd5b600082611d7557611d75611d50565b500490565b805169ffffffffffffffffffff81168114611b0157600080fd5b600080600080600060a08688031215611dac57600080fd5b611db586611d7a565b9450602086015193506040860151925060608601519150611dd860808701611d7a565b90509295509295909350565b6020808252818101527f4f776e61626c653a2063616c6c6572206973206e6f7420746865206f776e6572604082015260600190565b634e487b7160e01b600052603260045260246000fd5b600060ff821660ff8103611e4557611e45611d1b565b60010192915050565b600060ff821660ff841680821015611e6857611e68611d1b565b90039392505050565b600082821015611e8357611e83611d1b565b500390565b600181815b80851115611ec3578160001904821115611ea957611ea9611d1b565b80851615611eb657918102915b93841c9390800290611e8d565b509250929050565b600082611eda57506001610af1565b81611ee757506000610af1565b8160018114611efd5760028114611f0757611f23565b6001915050610af1565b60ff841115611f1857611f18611d1b565b50506001821b610af1565b5060208310610133831016604e8410600b8410161715611f46575081810a610af1565b611f508383611e88565b8060001904821115611f6457611f64611d1b565b029392505050565b6000610cec8383611ecb565b60008219821115611f8b57611f8b611d1b565b500190565b600060018201611fa257611fa2611d1b565b5060010190565b6001600160a01b0389811682526020820189905260408201889052861660608201526001600160e01b03198516608082015260a0810184905260c0810183905261010060e0820181905260009061200283820185611b4a565b9b9a5050505050505050505050565b60018060a01b0384168152826020820152606060408201526000610f406060830184611b4a565b60006020828403121561204a57600080fd5b81518015158114610cec57600080fd5b60008261206957612069611d50565b50069056fe68747470733a2f2f6665682d726573706c656e64656e742d6170692e6865726f6b756170702e636f6d2f726573706c656e64656e74732f6c6174657374a26469706673582212203f58d50bb82fbce9f7b0515a940966d2b16fb9082730cd093988965a125f0eeb64736f6c634300080d0033","bytecodeSha1":"bd28779befc8a8e1b0c7e037dbf034dd0e367445","compiler":{"evm_version":"istanbul","optimizer":{"enabled":true,"runs":200},"version":"0.8.13+commit.abaa5c0e"},"contractName":"Betting","language":"Solidity","natspec":{"kind":"dev","methods":{"constructor":{"notice":"Network: Kovan Aggregator: ETH/USD Address: 0x9326BFA02ADD2366b30bacB125260Af641031331 Network: Rinkeby Aggregator: ETH/USD Address: 0x8A753747A1Fa494EC906cE90E9f37563A8AF630e"},"fulfill(bytes32,bytes32)":{"notice":"Receive the response in the form of uint256"},"getLatestPrice()":{"notice":"Returns the latest price"},"owner()":{"details":"Returns the address of the current owner."},"renounceOwnership()":{"details":"Leaves the contract without owner. It will not be possible to call `onlyOwner` functions anymore. Can only be called by the current owner. NOTE: Renouncing ownership will leave the contract without an owner, thereby removing any functionality that is only available to the owner."},"requestData(address,bytes4)":{"notice":"Create a Chainlink request to retrieve API response, find the target data, then multiply by 1000000000000000000 (to remove decimal places from data)."},"transferOwnership(address)":{"details":"Transfers ownership of the contract to a new account (`newOwner`). Can only be called by the current owner."}},"version":1},"opcodes":"PUSH1 0x80 PUSH1 0x40 MSTORE PUSH1 0x4 CALLDATASIZE LT PUSH2 0x181 JUMPI PUSH1 0x0 CALLDATALOAD PUSH1 0xE0 SHR DUP1 PUSH4 0x8E15F473 GT PUSH2 0xD1 JUMPI DUP1 PUSH4 0xC5EF3EC5 GT PUSH2 0x8A JUMPI DUP1 PUSH4 0xEEDEE562 GT PUSH2 0x64 JUMPI DUP1 PUSH4 0xEEDEE562 EQ PUSH2 0x4B9 JUMPI DUP1 PUSH4 0xF2FDE38B EQ PUSH2 0x4E7 JUMPI DUP1 PUSH4 0xF3A8286F EQ PUSH2 0x507 JUMPI DUP1 PUSH4 0xF6B4DFB4 EQ PUSH2 0x51C JUMPI PUSH1 0x0 DUP1 REVERT JUMPDEST DUP1 PUSH4 0xC5EF3EC5 EQ PUSH2 0x458 JUMPI DUP1 PUSH4 0xCAA02E08 EQ PUSH2 0x48D JUMPI DUP1 PUSH4 0xDD151EC7 EQ PUSH2 0x4A3 JUMPI PUSH1 0x0 DUP1 REVERT JUMPDEST DUP1 PUSH4 0x8E15F473 EQ PUSH2 0x329 JUMPI DUP1 PUSH4 0x9201DE55 EQ PUSH2 0x33E JUMPI DUP1 PUSH4 0x9C35D98B EQ PUSH2 0x36B JUMPI DUP1 PUSH4 0xA5E30F57 EQ PUSH2 0x38B JUMPI DUP1 PUSH4 0xA87430BA EQ PUSH2 0x3D9 JUMPI DUP1 PUSH4 0xA8BA022B EQ PUSH2 0x443 JUMPI PUSH1 0x0 DUP1 REVERT JUMPDEST DUP1 PUSH4 0x43046844 GT PUSH2 0x13E JUMPI DUP1 PUSH4 0x65FF1329 GT PUSH2 0x118 JUMPI DUP1 PUSH4 0x65FF1329 EQ PUSH2 0x2C0 JUMPI DUP1 PUSH4 0x715018A6 EQ PUSH2 0x2E0 JUMPI DUP1 PUSH4 0x88AB139A EQ PUSH2 0x2F5 JUMPI DUP1 PUSH4 0x8DA5CB5B EQ PUSH2 0x30B JUMPI PUSH1 0x0 DUP1 REVERT JUMPDEST DUP1 PUSH4 0x43046844 EQ PUSH2 0x23F JUMPI DUP1 PUSH4 0x5BB02E01 EQ PUSH2 0x252 JUMPI DUP1 PUSH4 0x6103D915 EQ PUSH2 0x272 JUMPI PUSH1 0x0 DUP1 REVERT JUMPDEST DUP1 PUSH4 0x42F2B65 EQ PUSH2 0x186 JUMPI DUP1 PUSH4 0x737C24B EQ PUSH2 0x1A8 JUMPI DUP1 PUSH4 0x9BC33A7 EQ PUSH2 0x1D0 JUMPI DUP1 PUSH4 0xEABAA5E EQ PUSH2 0x1E5 JUMPI DUP1 PUSH4 0x10D1C4C3 EQ PUSH2 0x1FB JUMPI DUP1 PUSH4 0x1356EA65 EQ PUSH2 0x21D JUMPI JUMPDEST PUSH1 0x0 DUP1 REVERT JUMPDEST CALLVALUE DUP1 ISZERO PUSH2 0x192 JUMPI PUSH1 0x0 DUP1 REVERT JUMPDEST POP PUSH2 0x1A6 PUSH2 0x1A1 CALLDATASIZE PUSH1 0x4 PUSH2 0x1A0B JUMP JUMPDEST PUSH2 0x53C JUMP JUMPDEST STOP JUMPDEST CALLVALUE DUP1 ISZERO PUSH2 0x1B4 JUMPI PUSH1 0x0 DUP1 REVERT JUMPDEST POP PUSH2 0x1BD PUSH2 0x5C7 JUMP JUMPDEST PUSH1 0x40 MLOAD SWAP1 DUP2 MSTORE PUSH1 0x20 ADD JUMPDEST PUSH1 0x40 MLOAD DUP1 SWAP2 SUB SWAP1 RETURN JUMPDEST CALLVALUE DUP1 ISZERO PUSH2 0x1DC JUMPI PUSH1 0x0 DUP1 REVERT JUMPDEST POP PUSH2 0x1BD PUSH2 0x5F4 JUMP JUMPDEST CALLVALUE DUP1 ISZERO PUSH2 0x1F1 JUMPI PUSH1 0x0 DUP1 REVERT JUMPDEST POP PUSH2 0x1BD PUSH1 0x15 SLOAD DUP2 JUMP JUMPDEST CALLVALUE DUP1 ISZERO PUSH2 0x207 JUMPI PUSH1 0x0 DUP1 REVERT JUMPDEST POP PUSH1 0x40 MLOAD PUSH4 0x5BB02E01 PUSH1 0xE0 SHL DUP2 MSTORE PUSH1 0x20 ADD PUSH2 0x1C7 JUMP JUMPDEST CALLVALUE DUP1 ISZERO PUSH2 0x229 JUMPI PUSH1 0x0 DUP1 REVERT JUMPDEST POP PUSH2 0x232 PUSH2 0x6B4 JUMP JUMPDEST PUSH1 0x40 MLOAD PUSH2 0x1C7 SWAP2 SWAP1 PUSH2 0x1A65 JUMP JUMPDEST PUSH2 0x1A6 PUSH2 0x24D CALLDATASIZE PUSH1 0x4 PUSH2 0x1AB0 JUMP JUMPDEST PUSH2 0x76A JUMP JUMPDEST CALLVALUE DUP1 ISZERO PUSH2 0x25E JUMPI PUSH1 0x0 DUP1 REVERT JUMPDEST POP PUSH2 0x1A6 PUSH2 0x26D CALLDATASIZE PUSH1 0x4 PUSH2 0x1A0B JUMP JUMPDEST PUSH2 0x94A JUMP JUMPDEST CALLVALUE DUP1 ISZERO PUSH2 0x27E JUMPI PUSH1 0x0 DUP1 REVERT JUMPDEST POP PUSH2 0x2A8 PUSH2 0x28D CALLDATASIZE PUSH1 0x4 PUSH2 0x1AD1 JUMP JUMPDEST PUSH1 0xF PUSH1 0x20 MSTORE PUSH1 0x0 SWAP1 DUP2 MSTORE PUSH1 0x40 SWAP1 KECCAK256 SLOAD PUSH1 0x1 PUSH1 0x1 PUSH1 0xA0 SHL SUB AND DUP2 JUMP JUMPDEST PUSH1 0x40 MLOAD PUSH1 0x1 PUSH1 0x1 PUSH1 0xA0 SHL SUB SWAP1 SWAP2 AND DUP2 MSTORE PUSH1 0x20 ADD PUSH2 0x1C7 JUMP JUMPDEST CALLVALUE DUP1 ISZERO PUSH2 0x2CC JUMPI PUSH1 0x0 DUP1 REVERT JUMPDEST POP PUSH2 0x1BD PUSH2 0x2DB CALLDATASIZE PUSH1 0x4 PUSH2 0x1B06 JUMP JUMPDEST PUSH2 0xA30 JUMP JUMPDEST CALLVALUE DUP1 ISZERO PUSH2 0x2EC JUMPI PUSH1 0x0 DUP1 REVERT JUMPDEST POP PUSH2 0x1A6 PUSH2 0xAF7 JUMP JUMPDEST CALLVALUE DUP1 ISZERO PUSH2 0x301 JUMPI PUSH1 0x0 DUP1 REVERT JUMPDEST POP PUSH2 0x1BD PUSH1 0x18 SLOAD DUP2 JUMP JUMPDEST CALLVALUE DUP1 ISZERO PUSH2 0x317 JUMPI PUSH1 0x0 DUP1 REVERT JUMPDEST POP PUSH1 0x0 SLOAD PUSH1 0x1 PUSH1 0x1 PUSH1 0xA0 SHL SUB AND PUSH2 0x2A8 JUMP JUMPDEST CALLVALUE DUP1 ISZERO PUSH2 0x335 JUMPI PUSH1 0x0 DUP1 REVERT JUMPDEST POP PUSH2 0x1BD PUSH2 0xB2D JUMP JUMPDEST CALLVALUE DUP1 ISZERO PUSH2 0x34A JUMPI PUSH1 0x0 DUP1 REVERT JUMPDEST POP PUSH2 0x35E PUSH2 0x359 CALLDATASIZE PUSH1 0x4 PUSH2 0x1AD1 JUMP JUMPDEST PUSH2 0xBBC JUMP JUMPDEST PUSH1 0x40 MLOAD PUSH2 0x1C7 SWAP2 SWAP1 PUSH2 0x1B97 JUMP JUMPDEST CALLVALUE DUP1 ISZERO PUSH2 0x377 JUMPI PUSH1 0x0 DUP1 REVERT JUMPDEST POP PUSH2 0x2A8 PUSH2 0x386 CALLDATASIZE PUSH1 0x4 PUSH2 0x1AD1 JUMP JUMPDEST PUSH2 0xCF3 JUMP JUMPDEST CALLVALUE DUP1 ISZERO PUSH2 0x397 JUMPI PUSH1 0x0 DUP1 REVERT JUMPDEST POP PUSH2 0x3C6 PUSH2 0x3A6 CALLDATASIZE PUSH1 0x4 PUSH2 0x1BC0 JUMP JUMPDEST DUP1 MLOAD PUSH1 0x20 DUP2 DUP4 ADD DUP2 ADD DUP1 MLOAD PUSH1 0xB DUP3 MSTORE SWAP3 DUP3 ADD SWAP2 SWAP1 SWAP4 ADD KECCAK256 SWAP2 MSTORE SLOAD PUSH1 0x0 SIGNEXTEND DUP2 JUMP JUMPDEST PUSH1 0x40 MLOAD PUSH1 0x0 SWAP2 SWAP1 SWAP2 SIGNEXTEND DUP2 MSTORE PUSH1 0x20 ADD PUSH2 0x1C7 JUMP JUMPDEST CALLVALUE DUP1 ISZERO PUSH2 0x3E5 JUMPI PUSH1 0x0 DUP1 REVERT JUMPDEST POP PUSH2 0x432 PUSH2 0x3F4 CALLDATASIZE PUSH1 0x4 PUSH2 0x1C71 JUMP JUMPDEST PUSH1 0xD PUSH1 0x20 MSTORE PUSH1 0x0 SWAP1 DUP2 MSTORE PUSH1 0x40 SWAP1 KECCAK256 DUP1 SLOAD PUSH1 0x1 DUP3 ADD SLOAD PUSH1 0x2 SWAP1 SWAP3 ADD SLOAD PUSH1 0x1 PUSH1 0x1 PUSH1 0xA0 SHL SUB DUP3 AND SWAP3 PUSH1 0xFF PUSH1 0x1 PUSH1 0xA0 SHL DUP5 DIV DUP2 AND SWAP4 PUSH1 0x1 PUSH1 0xA8 SHL SWAP1 DIV AND SWAP2 DUP6 JUMP JUMPDEST PUSH1 0x40 MLOAD PUSH2 0x1C7 SWAP6 SWAP5 SWAP4 SWAP3 SWAP2 SWAP1 PUSH2 0x1C8C JUMP JUMPDEST CALLVALUE DUP1 ISZERO PUSH2 0x44F JUMPI PUSH1 0x0 DUP1 REVERT JUMPDEST POP PUSH2 0x1A6 PUSH2 0xD1D JUMP JUMPDEST CALLVALUE DUP1 ISZERO PUSH2 0x464 JUMPI PUSH1 0x0 DUP1 REVERT JUMPDEST POP PUSH2 0x478 PUSH2 0x473 CALLDATASIZE PUSH1 0x4 PUSH2 0x1BC0 JUMP JUMPDEST PUSH2 0xD5B JUMP JUMPDEST PUSH1 0x40 DUP1 MLOAD SWAP3 DUP4 MSTORE SWAP1 ISZERO ISZERO PUSH1 0x20 DUP4 ADD MSTORE ADD PUSH2 0x1C7 JUMP JUMPDEST CALLVALUE DUP1 ISZERO PUSH2 0x499 JUMPI PUSH1 0x0 DUP1 REVERT JUMPDEST POP PUSH2 0x1BD PUSH1 0x10 SLOAD DUP2 JUMP JUMPDEST CALLVALUE DUP1 ISZERO PUSH2 0x4AF JUMPI PUSH1 0x0 DUP1 REVERT JUMPDEST POP PUSH2 0x1BD PUSH1 0x7 SLOAD DUP2 JUMP JUMPDEST CALLVALUE DUP1 ISZERO PUSH2 0x4C5 JUMPI PUSH1 0x0 DUP1 REVERT JUMPDEST POP PUSH1 0xE SLOAD PUSH2 0x4DA SWAP1 PUSH1 0x1 PUSH1 0xA0 SHL SWAP1 DIV PUSH1 0xFF AND DUP2 JUMP JUMPDEST PUSH1 0x40 MLOAD PUSH2 0x1C7 SWAP2 SWAP1 PUSH2 0x1CC5 JUMP JUMPDEST CALLVALUE DUP1 ISZERO PUSH2 0x4F3 JUMPI PUSH1 0x0 DUP1 REVERT JUMPDEST POP PUSH2 0x1A6 PUSH2 0x502 CALLDATASIZE PUSH1 0x4 PUSH2 0x1C71 JUMP JUMPDEST PUSH2 0xE5A JUMP JUMPDEST CALLVALUE DUP1 ISZERO PUSH2 0x513 JUMPI PUSH1 0x0 DUP1 REVERT JUMPDEST POP PUSH2 0x1A6 PUSH2 0xEF2 JUMP JUMPDEST CALLVALUE DUP1 ISZERO PUSH2 0x528 JUMPI PUSH1 0x0 DUP1 REVERT JUMPDEST POP PUSH1 0xE SLOAD PUSH2 0x2A8 SWAP1 PUSH1 0x1 PUSH1 0x1 PUSH1 0xA0 SHL SUB AND DUP2 JUMP JUMPDEST PUSH1 0x0 DUP3 DUP2 MSTORE PUSH1 0x6 PUSH1 0x20 MSTORE PUSH1 0x40 SWAP1 KECCAK256 SLOAD DUP3 SWAP1 PUSH1 0x1 PUSH1 0x1 PUSH1 0xA0 SHL SUB AND CALLER EQ PUSH2 0x57D JUMPI PUSH1 0x40 MLOAD PUSH3 0x461BCD PUSH1 0xE5 SHL DUP2 MSTORE PUSH1 0x4 ADD PUSH2 0x574 SWAP1 PUSH2 0x1CD3 JUMP JUMPDEST PUSH1 0x40 MLOAD DUP1 SWAP2 SUB SWAP1 REVERT JUMPDEST PUSH1 0x0 DUP2 DUP2 MSTORE PUSH1 0x6 PUSH1 0x20 MSTORE PUSH1 0x40 DUP1 DUP3 KECCAK256 DUP1 SLOAD PUSH1 0x1 PUSH1 0x1 PUSH1 0xA0 SHL SUB NOT AND SWAP1 SSTORE MLOAD DUP3 SWAP2 PUSH32 0x7CC135E0CEBB02C3480AE5D74D377283180A2601F8F644EDF7987B009316C63A SWAP2 LOG2 POP PUSH1 0x7 SSTORE POP JUMP JUMPDEST PUSH1 0xE SLOAD PUSH1 0x0 SWAP1 PUSH1 0x64 SWAP1 PUSH2 0x5E5 SWAP1 PUSH1 0x1 PUSH1 0x1 PUSH1 0xA0 SHL SUB AND BALANCE PUSH1 0x63 PUSH2 0x1D31 JUMP JUMPDEST PUSH2 0x5EF SWAP2 SWAP1 PUSH2 0x1D66 JUMP JUMPDEST SWAP1 POP SWAP1 JUMP JUMPDEST PUSH1 0x0 DUP1 PUSH1 0x17 PUSH1 0x0 SWAP1 SLOAD SWAP1 PUSH2 0x100 EXP SWAP1 DIV PUSH1 0x1 PUSH1 0x1 PUSH1 0xA0 SHL SUB AND PUSH1 0x1 PUSH1 0x1 PUSH1 0xA0 SHL SUB AND PUSH4 0xFEAF968C PUSH1 0x40 MLOAD DUP2 PUSH4 0xFFFFFFFF AND PUSH1 0xE0 SHL DUP2 MSTORE PUSH1 0x4 ADD PUSH1 0xA0 PUSH1 0x40 MLOAD DUP1 DUP4 SUB DUP2 DUP7 GAS STATICCALL ISZERO DUP1 ISZERO PUSH2 0x64A JUMPI RETURNDATASIZE PUSH1 0x0 DUP1 RETURNDATACOPY RETURNDATASIZE PUSH1 0x0 REVERT JUMPDEST POP POP POP POP PUSH1 0x40 MLOAD RETURNDATASIZE PUSH1 0x1F NOT PUSH1 0x1F DUP3 ADD AND DUP3 ADD DUP1 PUSH1 0x40 MSTORE POP DUP2 ADD SWAP1 PUSH2 0x66E SWAP2 SWAP1 PUSH2 0x1D94 JUMP JUMPDEST POP POP POP SWAP2 POP POP PUSH1 0x0 DUP2 PUSH5 0x2540BE400 PUSH2 0x687 SWAP2 SWAP1 PUSH2 0x1D31 JUMP JUMPDEST SWAP1 POP PUSH1 0x0 DUP2 PUSH1 0x18 SLOAD PUSH8 0xDE0B6B3A7640000 PUSH2 0x6A2 SWAP2 SWAP1 PUSH2 0x1D31 JUMP JUMPDEST PUSH2 0x6AC SWAP2 SWAP1 PUSH2 0x1D66 JUMP JUMPDEST SWAP5 SWAP4 POP POP POP POP JUMP JUMPDEST PUSH1 0x40 DUP1 MLOAD PUSH1 0xA0 DUP2 ADD DUP3 MSTORE PUSH1 0x0 DUP1 DUP3 MSTORE PUSH1 0x20 DUP3 ADD DUP2 SWAP1 MSTORE SWAP2 DUP2 ADD DUP3 SWAP1 MSTORE PUSH1 0x60 DUP2 ADD DUP3 SWAP1 MSTORE PUSH1 0x80 DUP2 ADD SWAP2 SWAP1 SWAP2 MSTORE CALLER PUSH1 0x0 SWAP1 DUP2 MSTORE PUSH1 0xD PUSH1 0x20 SWAP1 DUP2 MSTORE PUSH1 0x40 SWAP2 DUP3 SWAP1 KECCAK256 DUP3 MLOAD PUSH1 0xA0 DUP2 ADD SWAP1 SWAP4 MSTORE DUP1 SLOAD PUSH1 0x1 PUSH1 0x1 PUSH1 0xA0 SHL SUB DUP2 AND DUP5 MSTORE SWAP1 SWAP2 DUP4 ADD SWAP1 PUSH1 0x1 PUSH1 0xA0 SHL SWAP1 DIV PUSH1 0xFF AND PUSH1 0x9 DUP2 GT ISZERO PUSH2 0x729 JUMPI PUSH2 0x729 PUSH2 0x1A2D JUMP JUMPDEST PUSH1 0x9 DUP2 GT ISZERO PUSH2 0x73A JUMPI PUSH2 0x73A PUSH2 0x1A2D JUMP JUMPDEST DUP2 MSTORE DUP2 SLOAD PUSH1 0x1 PUSH1 0xA8 SHL SWAP1 DIV PUSH1 0xFF AND ISZERO ISZERO PUSH1 0x20 DUP3 ADD MSTORE PUSH1 0x1 DUP3 ADD SLOAD PUSH1 0x40 DUP3 ADD MSTORE PUSH1 0x2 SWAP1 SWAP2 ADD SLOAD PUSH1 0x60 SWAP1 SWAP2 ADD MSTORE SWAP2 SWAP1 POP JUMP JUMPDEST CALLER PUSH1 0x0 SWAP1 DUP2 MSTORE PUSH1 0xD PUSH1 0x20 MSTORE PUSH1 0x40 SWAP1 KECCAK256 SLOAD PUSH1 0x1 PUSH1 0xA8 SHL SWAP1 DIV PUSH1 0xFF AND ISZERO PUSH2 0x7C9 JUMPI PUSH1 0x40 MLOAD PUSH3 0x461BCD PUSH1 0xE5 SHL DUP2 MSTORE PUSH1 0x20 PUSH1 0x4 DUP3 ADD MSTORE PUSH1 0x15 PUSH1 0x24 DUP3 ADD MSTORE PUSH21 0x557365722068617320616C72656164792062657421 PUSH1 0x58 SHL PUSH1 0x44 DUP3 ADD MSTORE PUSH1 0x64 ADD PUSH2 0x574 JUMP JUMPDEST PUSH2 0x7D1 PUSH2 0x5F4 JUMP JUMPDEST CALLVALUE LT ISZERO PUSH2 0x82C JUMPI PUSH1 0x40 MLOAD PUSH3 0x461BCD PUSH1 0xE5 SHL DUP2 MSTORE PUSH1 0x20 PUSH1 0x4 DUP3 ADD MSTORE PUSH1 0x23 PUSH1 0x24 DUP3 ADD MSTORE PUSH32 0x446F6E27742062652063686561702120243530206F72206D6F726520696E2045 PUSH1 0x44 DUP3 ADD MSTORE PUSH3 0x544821 PUSH1 0xE8 SHL PUSH1 0x64 DUP3 ADD MSTORE PUSH1 0x84 ADD PUSH2 0x574 JUMP JUMPDEST PUSH1 0x0 PUSH1 0x40 MLOAD DUP1 PUSH1 0xA0 ADD PUSH1 0x40 MSTORE DUP1 CALLER PUSH1 0x1 PUSH1 0x1 PUSH1 0xA0 SHL SUB AND DUP2 MSTORE PUSH1 0x20 ADD DUP4 PUSH1 0x9 DUP2 GT ISZERO PUSH2 0x85A JUMPI PUSH2 0x85A PUSH2 0x1A2D JUMP JUMPDEST DUP2 MSTORE PUSH1 0x1 PUSH1 0x20 DUP1 DUP4 ADD DUP3 SWAP1 MSTORE CALLVALUE PUSH1 0x40 DUP1 DUP6 ADD SWAP2 SWAP1 SWAP2 MSTORE PUSH1 0x0 PUSH1 0x60 SWAP1 SWAP5 ADD DUP5 SWAP1 MSTORE PUSH1 0xC DUP1 SLOAD SWAP4 DUP5 ADD SWAP1 SSTORE PUSH32 0xDF6966C971051C3D54EC59162606531493A51404A002842F56009D7E5CF4A8C7 SWAP1 SWAP3 ADD DUP1 SLOAD PUSH1 0x1 PUSH1 0x1 PUSH1 0xA0 SHL SUB NOT SWAP1 DUP2 AND CALLER SWAP1 DUP2 OR SWAP1 SWAP3 SSTORE SWAP1 DUP5 MSTORE PUSH1 0xD DUP3 MSTORE SWAP2 SWAP1 SWAP3 KECCAK256 DUP4 MLOAD DUP2 SLOAD PUSH1 0x1 PUSH1 0x1 PUSH1 0xA0 SHL SUB SWAP2 SWAP1 SWAP2 AND SWAP3 DUP2 AND DUP4 OR DUP3 SSTORE SWAP3 DUP5 ADD MLOAD SWAP4 SWAP5 POP DUP5 SWAP4 SWAP1 SWAP3 SWAP1 SWAP2 DUP4 SWAP2 PUSH1 0x1 PUSH1 0x1 PUSH1 0xA8 SHL SUB NOT AND OR PUSH1 0x1 PUSH1 0xA0 SHL DUP4 PUSH1 0x9 DUP2 GT ISZERO PUSH2 0x90F JUMPI PUSH2 0x90F PUSH2 0x1A2D JUMP JUMPDEST MUL OR SWAP1 SSTORE POP PUSH1 0x40 DUP3 ADD MLOAD DUP2 SLOAD SWAP1 ISZERO ISZERO PUSH1 0x1 PUSH1 0xA8 SHL MUL PUSH1 0xFF PUSH1 0xA8 SHL NOT SWAP1 SWAP2 AND OR DUP2 SSTORE PUSH1 0x60 DUP3 ADD MLOAD PUSH1 0x1 DUP3 ADD SSTORE PUSH1 0x80 SWAP1 SWAP2 ADD MLOAD PUSH1 0x2 SWAP1 SWAP2 ADD SSTORE POP POP JUMP JUMPDEST PUSH1 0x0 DUP3 DUP2 MSTORE PUSH1 0x6 PUSH1 0x20 MSTORE PUSH1 0x40 SWAP1 KECCAK256 SLOAD DUP3 SWAP1 PUSH1 0x1 PUSH1 0x1 PUSH1 0xA0 SHL SUB AND CALLER EQ PUSH2 0x982 JUMPI PUSH1 0x40 MLOAD PUSH3 0x461BCD PUSH1 0xE5 SHL DUP2 MSTORE PUSH1 0x4 ADD PUSH2 0x574 SWAP1 PUSH2 0x1CD3 JUMP JUMPDEST PUSH1 0x0 DUP2 DUP2 MSTORE PUSH1 0x6 PUSH1 0x20 MSTORE PUSH1 0x40 DUP1 DUP3 KECCAK256 DUP1 SLOAD PUSH1 0x1 PUSH1 0x1 PUSH1 0xA0 SHL SUB NOT AND SWAP1 SSTORE MLOAD DUP3 SWAP2 PUSH32 0x7CC135E0CEBB02C3480AE5D74D377283180A2601F8F644EDF7987B009316C63A SWAP2 LOG2 PUSH1 0x7 DUP3 SWAP1 SSTORE PUSH2 0x9D6 PUSH2 0x473 DUP4 PUSH2 0xBBC JUMP JUMPDEST POP PUSH1 0x15 DUP2 SWAP1 SSTORE PUSH32 0x2F2EC9B308C77557BE0CA886A9FD58FFC8BDC94F0978011757A7417E90C4A4C7 PUSH2 0xA0F PUSH1 0x0 SLOAD PUSH1 0x1 PUSH1 0x1 PUSH1 0xA0 SHL SUB AND SWAP1 JUMP JUMPDEST PUSH1 0x40 MLOAD PUSH1 0x1 PUSH1 0x1 PUSH1 0xA0 SHL SUB SWAP1 SWAP2 AND DUP2 MSTORE PUSH1 0x20 ADD JUMPDEST PUSH1 0x40 MLOAD DUP1 SWAP2 SUB SWAP1 LOG2 POP POP POP JUMP JUMPDEST PUSH1 0x0 DUP1 PUSH2 0xA40 PUSH1 0x9 SLOAD DUP6 DUP6 PUSH2 0xF24 JUMP JUMPDEST SWAP1 POP PUSH2 0xA82 PUSH1 0x40 MLOAD DUP1 PUSH1 0x40 ADD PUSH1 0x40 MSTORE DUP1 PUSH1 0x3 DUP2 MSTORE PUSH1 0x20 ADD PUSH3 0x19D95D PUSH1 0xEA SHL DUP2 MSTORE POP PUSH1 0x40 MLOAD DUP1 PUSH1 0x60 ADD PUSH1 0x40 MSTORE DUP1 PUSH1 0x3D DUP2 MSTORE PUSH1 0x20 ADD PUSH2 0x206F PUSH1 0x3D SWAP2 CODECOPY DUP4 SWAP2 SWAP1 PUSH2 0xF49 JUMP JUMPDEST PUSH2 0xAD2 PUSH1 0x40 MLOAD DUP1 PUSH1 0x40 ADD PUSH1 0x40 MSTORE DUP1 PUSH1 0x4 DUP2 MSTORE PUSH1 0x20 ADD PUSH4 0xE0C2E8D PUSH1 0xE3 SHL DUP2 MSTORE POP PUSH1 0x40 MLOAD DUP1 PUSH1 0x40 ADD PUSH1 0x40 MSTORE DUP1 PUSH1 0x7 DUP2 MSTORE PUSH1 0x20 ADD PUSH7 0x7468656D652E31 PUSH1 0xC8 SHL DUP2 MSTORE POP DUP4 PUSH2 0xF49 SWAP1 SWAP3 SWAP2 SWAP1 PUSH4 0xFFFFFFFF AND JUMP JUMPDEST PUSH1 0x8 SLOAD PUSH1 0xA SLOAD PUSH2 0xAED SWAP2 PUSH1 0x1 PUSH1 0x1 PUSH1 0xA0 SHL SUB AND SWAP1 DUP4 SWAP1 PUSH2 0xF6C JUMP JUMPDEST SWAP2 POP POP JUMPDEST SWAP3 SWAP2 POP POP JUMP JUMPDEST PUSH1 0x0 SLOAD PUSH1 0x1 PUSH1 0x1 PUSH1 0xA0 SHL SUB AND CALLER EQ PUSH2 0xB21 JUMPI PUSH1 0x40 MLOAD PUSH3 0x461BCD PUSH1 0xE5 SHL DUP2 MSTORE PUSH1 0x4 ADD PUSH2 0x574 SWAP1 PUSH2 0x1DE4 JUMP JUMPDEST PUSH2 0xB2B PUSH1 0x0 PUSH2 0xFFF JUMP JUMPDEST JUMP JUMPDEST PUSH1 0x0 DUP1 PUSH1 0x0 DUP1 PUSH1 0x0 DUP1 PUSH1 0x17 PUSH1 0x0 SWAP1 SLOAD SWAP1 PUSH2 0x100 EXP SWAP1 DIV PUSH1 0x1 PUSH1 0x1 PUSH1 0xA0 SHL SUB AND PUSH1 0x1 PUSH1 0x1 PUSH1 0xA0 SHL SUB AND PUSH4 0xFEAF968C PUSH1 0x40 MLOAD DUP2 PUSH4 0xFFFFFFFF AND PUSH1 0xE0 SHL DUP2 MSTORE PUSH1 0x4 ADD PUSH1 0xA0 PUSH1 0x40 MLOAD DUP1 DUP4 SUB DUP2 DUP7 GAS STATICCALL ISZERO DUP1 ISZERO PUSH2 0xB89 JUMPI RETURNDATASIZE PUSH1 0x0 DUP1 RETURNDATACOPY RETURNDATASIZE PUSH1 0x0 REVERT JUMPDEST POP POP POP POP PUSH1 0x40 MLOAD RETURNDATASIZE PUSH1 0x1F NOT PUSH1 0x1F DUP3 ADD AND DUP3 ADD DUP1 PUSH1 0x40 MSTORE POP DUP2 ADD SWAP1 PUSH2 0xBAD SWAP2 SWAP1 PUSH2 0x1D94 JUMP JUMPDEST POP SWAP2 SWAP10 SWAP9 POP POP POP POP POP POP POP POP POP JUMP JUMPDEST PUSH1 0x60 PUSH1 0x0 JUMPDEST PUSH1 0x20 DUP2 PUSH1 0xFF AND LT DUP1 ISZERO PUSH2 0xBF5 JUMPI POP DUP3 DUP2 PUSH1 0xFF AND PUSH1 0x20 DUP2 LT PUSH2 0xBE4 JUMPI PUSH2 0xBE4 PUSH2 0x1E19 JUMP JUMPDEST BYTE PUSH1 0xF8 SHL PUSH1 0x1 PUSH1 0x1 PUSH1 0xF8 SHL SUB NOT AND ISZERO ISZERO JUMPDEST ISZERO PUSH2 0xC0C JUMPI DUP1 PUSH2 0xC04 DUP2 PUSH2 0x1E2F JUMP JUMPDEST SWAP2 POP POP PUSH2 0xBC1 JUMP JUMPDEST PUSH1 0x0 DUP2 PUSH1 0xFF AND PUSH8 0xFFFFFFFFFFFFFFFF DUP2 GT ISZERO PUSH2 0xC2A JUMPI PUSH2 0xC2A PUSH2 0x1BAA JUMP JUMPDEST PUSH1 0x40 MLOAD SWAP1 DUP1 DUP3 MSTORE DUP1 PUSH1 0x1F ADD PUSH1 0x1F NOT AND PUSH1 0x20 ADD DUP3 ADD PUSH1 0x40 MSTORE DUP1 ISZERO PUSH2 0xC54 JUMPI PUSH1 0x20 DUP3 ADD DUP2 DUP1 CALLDATASIZE DUP4 CALLDATACOPY ADD SWAP1 POP JUMPDEST POP SWAP1 POP PUSH1 0x0 SWAP2 POP JUMPDEST PUSH1 0x20 DUP3 PUSH1 0xFF AND LT DUP1 ISZERO PUSH2 0xC90 JUMPI POP DUP4 DUP3 PUSH1 0xFF AND PUSH1 0x20 DUP2 LT PUSH2 0xC7F JUMPI PUSH2 0xC7F PUSH2 0x1E19 JUMP JUMPDEST BYTE PUSH1 0xF8 SHL PUSH1 0x1 PUSH1 0x1 PUSH1 0xF8 SHL SUB NOT AND ISZERO ISZERO JUMPDEST ISZERO PUSH2 0xCEC JUMPI DUP4 DUP3 PUSH1 0xFF AND PUSH1 0x20 DUP2 LT PUSH2 0xCAA JUMPI PUSH2 0xCAA PUSH2 0x1E19 JUMP JUMPDEST BYTE PUSH1 0xF8 SHL DUP2 DUP4 PUSH1 0xFF AND DUP2 MLOAD DUP2 LT PUSH2 0xCC3 JUMPI PUSH2 0xCC3 PUSH2 0x1E19 JUMP JUMPDEST PUSH1 0x20 ADD ADD SWAP1 PUSH1 0x1 PUSH1 0x1 PUSH1 0xF8 SHL SUB NOT AND SWAP1 DUP2 PUSH1 0x0 BYTE SWAP1 MSTORE8 POP DUP2 PUSH2 0xCE4 DUP2 PUSH2 0x1E2F JUMP JUMPDEST SWAP3 POP POP PUSH2 0xC5C JUMP JUMPDEST SWAP4 SWAP3 POP POP POP JUMP JUMPDEST PUSH1 0xC DUP2 DUP2 SLOAD DUP2 LT PUSH2 0xD03 JUMPI PUSH1 0x0 DUP1 REVERT JUMPDEST PUSH1 0x0 SWAP2 DUP3 MSTORE PUSH1 0x20 SWAP1 SWAP2 KECCAK256 ADD SLOAD PUSH1 0x1 PUSH1 0x1 PUSH1 0xA0 SHL SUB AND SWAP1 POP DUP2 JUMP JUMPDEST PUSH1 0x0 SLOAD PUSH1 0x1 PUSH1 0x1 PUSH1 0xA0 SHL SUB AND CALLER EQ PUSH2 0xD47 JUMPI PUSH1 0x40 MLOAD PUSH3 0x461BCD PUSH1 0xE5 SHL DUP2 MSTORE PUSH1 0x4 ADD PUSH2 0x574 SWAP1 PUSH2 0x1DE4 JUMP JUMPDEST PUSH2 0xD58 ADDRESS PUSH4 0x5BB02E01 PUSH1 0xE0 SHL PUSH2 0xA30 JUMP JUMPDEST POP JUMP JUMPDEST PUSH1 0x0 DUP1 PUSH1 0x0 JUMPDEST DUP4 MLOAD DUP2 LT ISZERO PUSH2 0xE4F JUMPI PUSH1 0x0 PUSH1 0x30 DUP6 DUP4 DUP2 MLOAD DUP2 LT PUSH2 0xD80 JUMPI PUSH2 0xD80 PUSH2 0x1E19 JUMP JUMPDEST ADD PUSH1 0x20 ADD MLOAD PUSH2 0xD92 SWAP2 SWAP1 PUSH1 0xF8 SHR PUSH2 0x1E4E JUMP JUMPDEST PUSH1 0xFF AND LT DUP1 PUSH2 0xDC9 JUMPI POP PUSH1 0x9 PUSH1 0x30 DUP6 DUP4 DUP2 MLOAD DUP2 LT PUSH2 0xDB2 JUMPI PUSH2 0xDB2 PUSH2 0x1E19 JUMP JUMPDEST ADD PUSH1 0x20 ADD MLOAD PUSH2 0xDC4 SWAP2 SWAP1 PUSH1 0xF8 SHR PUSH2 0x1E4E JUMP JUMPDEST PUSH1 0xFF AND GT JUMPDEST ISZERO PUSH2 0xDDA JUMPI POP PUSH1 0x0 SWAP4 DUP5 SWAP4 POP SWAP2 POP POP JUMP JUMPDEST PUSH1 0x1 DUP2 DUP6 MLOAD PUSH2 0xDE9 SWAP2 SWAP1 PUSH2 0x1E71 JUMP JUMPDEST PUSH2 0xDF3 SWAP2 SWAP1 PUSH2 0x1E71 JUMP JUMPDEST PUSH2 0xDFE SWAP1 PUSH1 0xA PUSH2 0x1F6C JUMP JUMPDEST PUSH1 0x30 DUP6 DUP4 DUP2 MLOAD DUP2 LT PUSH2 0xE12 JUMPI PUSH2 0xE12 PUSH2 0x1E19 JUMP JUMPDEST ADD PUSH1 0x20 ADD MLOAD PUSH2 0xE24 SWAP2 SWAP1 PUSH1 0xF8 SHR PUSH2 0x1E4E JUMP JUMPDEST PUSH1 0xFF AND PUSH2 0xE31 SWAP2 SWAP1 PUSH2 0x1D31 JUMP JUMPDEST PUSH2 0xE3B SWAP1 DUP5 PUSH2 0x1F78 JUMP JUMPDEST SWAP3 POP DUP1 PUSH2 0xE47 DUP2 PUSH2 0x1F90 JUMP JUMPDEST SWAP2 POP POP PUSH2 0xD61 JUMP JUMPDEST POP SWAP1 SWAP3 PUSH1 0x1 SWAP3 POP SWAP1 POP JUMP JUMPDEST PUSH1 0x0 SLOAD PUSH1 0x1 PUSH1 0x1 PUSH1 0xA0 SHL SUB AND CALLER EQ PUSH2 0xE84 JUMPI PUSH1 0x40 MLOAD PUSH3 0x461BCD PUSH1 0xE5 SHL DUP2 MSTORE PUSH1 0x4 ADD PUSH2 0x574 SWAP1 PUSH2 0x1DE4 JUMP JUMPDEST PUSH1 0x1 PUSH1 0x1 PUSH1 0xA0 SHL SUB DUP2 AND PUSH2 0xEE9 JUMPI PUSH1 0x40 MLOAD PUSH3 0x461BCD PUSH1 0xE5 SHL DUP2 MSTORE PUSH1 0x20 PUSH1 0x4 DUP3 ADD MSTORE PUSH1 0x26 PUSH1 0x24 DUP3 ADD MSTORE PUSH32 0x4F776E61626C653A206E6577206F776E657220697320746865207A65726F2061 PUSH1 0x44 DUP3 ADD MSTORE PUSH6 0x646472657373 PUSH1 0xD0 SHL PUSH1 0x64 DUP3 ADD MSTORE PUSH1 0x84 ADD PUSH2 0x574 JUMP JUMPDEST PUSH2 0xD58 DUP2 PUSH2 0xFFF JUMP JUMPDEST PUSH1 0x0 SLOAD PUSH1 0x1 PUSH1 0x1 PUSH1 0xA0 SHL SUB AND CALLER EQ PUSH2 0xF1C JUMPI PUSH1 0x40 MLOAD PUSH3 0x461BCD PUSH1 0xE5 SHL DUP2 MSTORE PUSH1 0x4 ADD PUSH2 0x574 SWAP1 PUSH2 0x1DE4 JUMP JUMPDEST PUSH2 0xB2B PUSH2 0x104F JUMP JUMPDEST PUSH2 0xF2C PUSH2 0x19D0 JUMP JUMPDEST PUSH2 0xF34 PUSH2 0x19D0 JUMP JUMPDEST PUSH2 0xF40 DUP2 DUP7 DUP7 DUP7 PUSH2 0x1136 JUMP JUMPDEST SWAP6 SWAP5 POP POP POP POP POP JUMP JUMPDEST PUSH1 0x80 DUP4 ADD MLOAD PUSH2 0xF58 SWAP1 DUP4 PUSH2 0x1173 JUMP JUMPDEST PUSH1 0x80 DUP4 ADD MLOAD PUSH2 0xF67 SWAP1 DUP3 PUSH2 0x1173 JUMP JUMPDEST POP POP POP JUMP JUMPDEST PUSH1 0x5 SLOAD PUSH1 0x0 SWAP1 PUSH2 0xF7D DUP2 PUSH1 0x1 PUSH2 0x1F78 JUMP JUMPDEST PUSH1 0x5 SSTORE DUP4 MLOAD PUSH1 0x40 DUP1 DUP7 ADD MLOAD PUSH1 0x80 DUP8 ADD MLOAD MLOAD SWAP2 MLOAD PUSH1 0x0 SWAP4 PUSH4 0x20214CA3 PUSH1 0xE1 SHL SWAP4 PUSH2 0xFB5 SWAP4 DUP7 SWAP4 DUP5 SWAP4 SWAP3 ADDRESS SWAP3 SWAP2 DUP11 SWAP2 PUSH1 0x1 SWAP2 PUSH1 0x24 ADD PUSH2 0x1FA9 JUMP JUMPDEST PUSH1 0x40 DUP1 MLOAD PUSH1 0x1F NOT DUP2 DUP5 SUB ADD DUP2 MSTORE SWAP2 SWAP1 MSTORE PUSH1 0x20 DUP2 ADD DUP1 MLOAD PUSH1 0x1 PUSH1 0x1 PUSH1 0xE0 SHL SUB AND PUSH1 0x1 PUSH1 0x1 PUSH1 0xE0 SHL SUB NOT SWAP1 SWAP4 AND SWAP3 SWAP1 SWAP3 OR SWAP1 SWAP2 MSTORE SWAP1 POP PUSH2 0xFF5 DUP7 DUP4 DUP7 DUP5 PUSH2 0x118A JUMP JUMPDEST SWAP7 SWAP6 POP POP POP POP POP POP JUMP JUMPDEST PUSH1 0x0 DUP1 SLOAD PUSH1 0x1 PUSH1 0x1 PUSH1 0xA0 SHL SUB DUP4 DUP2 AND PUSH1 0x1 PUSH1 0x1 PUSH1 0xA0 SHL SUB NOT DUP4 AND DUP2 OR DUP5 SSTORE PUSH1 0x40 MLOAD SWAP2 SWAP1 SWAP3 AND SWAP3 DUP4 SWAP2 PUSH32 0x8BE0079C531659141344CD1FD0A4F28419497F9722A3DAAFE3B4186F6B6457E0 SWAP2 SWAP1 LOG3 POP POP JUMP JUMPDEST PUSH2 0x1057 PUSH2 0x12E8 JUMP JUMPDEST PUSH1 0x0 PUSH1 0x10 SLOAD GT PUSH2 0x10A1 JUMPI PUSH1 0x40 MLOAD PUSH3 0x461BCD PUSH1 0xE5 SHL DUP2 MSTORE PUSH1 0x20 PUSH1 0x4 DUP3 ADD MSTORE PUSH1 0x15 PUSH1 0x24 DUP3 ADD MSTORE PUSH21 0x139BC81DDA5B9B995C9CC81D1A1A5CC81C9BDD5B99 PUSH1 0x5A SHL PUSH1 0x44 DUP3 ADD MSTORE PUSH1 0x64 ADD PUSH2 0x574 JUMP JUMPDEST PUSH1 0x0 PUSH2 0x10AB PUSH2 0x5C7 JUMP JUMPDEST SWAP1 POP PUSH1 0x0 JUMPDEST PUSH1 0x10 SLOAD DUP2 LT ISZERO PUSH2 0x1132 JUMPI PUSH1 0x0 DUP2 DUP2 MSTORE PUSH1 0xF PUSH1 0x20 SWAP1 DUP2 MSTORE PUSH1 0x40 DUP1 DUP4 KECCAK256 SLOAD PUSH1 0x1 PUSH1 0x1 PUSH1 0xA0 SHL SUB AND DUP4 MSTORE PUSH1 0xD SWAP1 SWAP2 MSTORE DUP2 KECCAK256 PUSH1 0x2 ADD SLOAD PUSH1 0x64 SWAP1 PUSH2 0x10F0 SWAP1 DUP6 SWAP1 PUSH2 0x1D31 JUMP JUMPDEST PUSH2 0x10FA SWAP2 SWAP1 PUSH2 0x1D66 JUMP JUMPDEST PUSH1 0x0 DUP4 DUP2 MSTORE PUSH1 0xF PUSH1 0x20 MSTORE PUSH1 0x40 SWAP1 KECCAK256 SLOAD SWAP1 SWAP2 POP PUSH2 0x111F SWAP1 PUSH1 0x1 PUSH1 0x1 PUSH1 0xA0 SHL SUB AND DUP3 PUSH2 0x14DF JUMP JUMPDEST POP DUP1 PUSH2 0x112A DUP2 PUSH2 0x1F90 JUMP JUMPDEST SWAP2 POP POP PUSH2 0x10B0 JUMP JUMPDEST POP POP JUMP JUMPDEST PUSH2 0x113E PUSH2 0x19D0 JUMP JUMPDEST PUSH2 0x114E DUP6 PUSH1 0x80 ADD MLOAD PUSH2 0x100 PUSH2 0x15B4 JUMP JUMPDEST POP POP SWAP2 DUP4 MSTORE PUSH1 0x1 PUSH1 0x1 PUSH1 0xA0 SHL SUB AND PUSH1 0x20 DUP4 ADD MSTORE PUSH1 0x1 PUSH1 0x1 PUSH1 0xE0 SHL SUB NOT AND PUSH1 0x40 DUP3 ADD MSTORE SWAP1 JUMP JUMPDEST PUSH2 0x1180 DUP3 PUSH1 0x3 DUP4 MLOAD PUSH2 0x1619 JUMP JUMPDEST PUSH2 0xF67 DUP3 DUP3 PUSH2 0x172E JUMP JUMPDEST PUSH1 0x40 MLOAD PUSH12 0xFFFFFFFFFFFFFFFFFFFFFFFF NOT ADDRESS PUSH1 0x60 SHL AND PUSH1 0x20 DUP3 ADD MSTORE PUSH1 0x34 DUP2 ADD DUP5 SWAP1 MSTORE PUSH1 0x0 SWAP1 PUSH1 0x54 ADD PUSH1 0x40 DUP1 MLOAD DUP1 DUP4 SUB PUSH1 0x1F NOT ADD DUP2 MSTORE DUP3 DUP3 MSTORE DUP1 MLOAD PUSH1 0x20 SWAP2 DUP3 ADD KECCAK256 PUSH1 0x0 DUP2 DUP2 MSTORE PUSH1 0x6 SWAP1 SWAP3 MSTORE SWAP2 DUP2 KECCAK256 DUP1 SLOAD PUSH1 0x1 PUSH1 0x1 PUSH1 0xA0 SHL SUB NOT AND PUSH1 0x1 PUSH1 0x1 PUSH1 0xA0 SHL SUB DUP11 AND OR SWAP1 SSTORE SWAP1 SWAP3 POP DUP3 SWAP2 PUSH32 0xB5E6E01E79F91267DC17B4E6314D5D4D03593D2CEEE0FBB452B750BD70EA5AF9 SWAP2 SWAP1 LOG2 PUSH1 0x3 SLOAD PUSH1 0x40 MLOAD PUSH4 0x2000575 PUSH1 0xE5 SHL DUP2 MSTORE PUSH1 0x1 PUSH1 0x1 PUSH1 0xA0 SHL SUB SWAP1 SWAP2 AND SWAP1 PUSH4 0x4000AEA0 SWAP1 PUSH2 0x124D SWAP1 DUP9 SWAP1 DUP8 SWAP1 DUP8 SWAP1 PUSH1 0x4 ADD PUSH2 0x2011 JUMP JUMPDEST PUSH1 0x20 PUSH1 0x40 MLOAD DUP1 DUP4 SUB DUP2 PUSH1 0x0 DUP8 GAS CALL ISZERO DUP1 ISZERO PUSH2 0x126C JUMPI RETURNDATASIZE PUSH1 0x0 DUP1 RETURNDATACOPY RETURNDATASIZE PUSH1 0x0 REVERT JUMPDEST POP POP POP POP PUSH1 0x40 MLOAD RETURNDATASIZE PUSH1 0x1F NOT PUSH1 0x1F DUP3 ADD AND DUP3 ADD DUP1 PUSH1 0x40 MSTORE POP DUP2 ADD SWAP1 PUSH2 0x1290 SWAP2 SWAP1 PUSH2 0x2038 JUMP JUMPDEST PUSH2 0x6AC JUMPI PUSH1 0x40 MLOAD PUSH3 0x461BCD PUSH1 0xE5 SHL DUP2 MSTORE PUSH1 0x20 PUSH1 0x4 DUP3 ADD MSTORE PUSH1 0x23 PUSH1 0x24 DUP3 ADD MSTORE PUSH32 0x756E61626C6520746F207472616E73666572416E6443616C6C20746F206F7261 PUSH1 0x44 DUP3 ADD MSTORE PUSH3 0x636C65 PUSH1 0xE8 SHL PUSH1 0x64 DUP3 ADD MSTORE PUSH1 0x84 ADD PUSH2 0x574 JUMP JUMPDEST PUSH1 0x0 PUSH1 0x10 DUP2 SWAP1 SSTORE PUSH1 0x15 SLOAD PUSH2 0x12FB SWAP1 PUSH2 0x1755 JUMP JUMPDEST PUSH1 0x0 JUMPDEST PUSH1 0xC SLOAD DUP2 LT ISZERO PUSH2 0x1458 JUMPI PUSH1 0xE SLOAD PUSH1 0x1 PUSH1 0xA0 SHL SWAP1 DIV PUSH1 0xFF AND PUSH1 0x9 DUP2 GT ISZERO PUSH2 0x1326 JUMPI PUSH2 0x1326 PUSH2 0x1A2D JUMP JUMPDEST PUSH1 0xD PUSH1 0x0 PUSH1 0xC DUP5 DUP2 SLOAD DUP2 LT PUSH2 0x133D JUMPI PUSH2 0x133D PUSH2 0x1E19 JUMP JUMPDEST PUSH1 0x0 SWAP2 DUP3 MSTORE PUSH1 0x20 DUP1 DUP4 KECCAK256 SWAP1 SWAP2 ADD SLOAD PUSH1 0x1 PUSH1 0x1 PUSH1 0xA0 SHL SUB AND DUP4 MSTORE DUP3 ADD SWAP3 SWAP1 SWAP3 MSTORE PUSH1 0x40 ADD SWAP1 KECCAK256 SLOAD PUSH1 0xFF PUSH1 0x1 PUSH1 0xA0 SHL SWAP1 SWAP2 DIV AND PUSH1 0x9 DUP2 GT ISZERO PUSH2 0x137E JUMPI PUSH2 0x137E PUSH2 0x1A2D JUMP JUMPDEST SUB PUSH2 0x1446 JUMPI PUSH1 0xD PUSH1 0x0 PUSH1 0xC DUP4 DUP2 SLOAD DUP2 LT PUSH2 0x139A JUMPI PUSH2 0x139A PUSH2 0x1E19 JUMP JUMPDEST PUSH1 0x0 SWAP2 DUP3 MSTORE PUSH1 0x20 DUP1 DUP4 KECCAK256 SWAP1 SWAP2 ADD SLOAD PUSH1 0x1 PUSH1 0x1 PUSH1 0xA0 SHL SUB AND DUP4 MSTORE DUP3 ADD SWAP3 SWAP1 SWAP3 MSTORE PUSH1 0x40 ADD SWAP1 KECCAK256 PUSH1 0x1 ADD SLOAD PUSH2 0x13CC SWAP1 DUP4 PUSH2 0x1F78 JUMP JUMPDEST SWAP2 POP PUSH1 0xD PUSH1 0x0 PUSH1 0xC DUP4 DUP2 SLOAD DUP2 LT PUSH2 0x13E5 JUMPI PUSH2 0x13E5 PUSH2 0x1E19 JUMP JUMPDEST PUSH1 0x0 SWAP2 DUP3 MSTORE PUSH1 0x20 DUP1 DUP4 KECCAK256 SWAP1 SWAP2 ADD SLOAD PUSH1 0x1 PUSH1 0x1 PUSH1 0xA0 SHL SUB SWAP1 DUP2 AND DUP5 MSTORE DUP4 DUP3 ADD SWAP5 SWAP1 SWAP5 MSTORE PUSH1 0x40 SWAP3 DUP4 ADD DUP3 KECCAK256 SLOAD PUSH1 0x10 DUP1 SLOAD DUP5 MSTORE PUSH1 0xF SWAP1 SWAP3 MSTORE SWAP3 DUP3 KECCAK256 DUP1 SLOAD PUSH1 0x1 PUSH1 0x1 PUSH1 0xA0 SHL SUB NOT AND SWAP4 SWAP1 SWAP5 AND SWAP3 SWAP1 SWAP3 OR SWAP1 SWAP3 SSTORE DUP1 SLOAD SWAP2 PUSH2 0x1440 DUP4 PUSH2 0x1F90 JUMP JUMPDEST SWAP2 SWAP1 POP SSTORE POP JUMPDEST DUP1 PUSH2 0x1450 DUP2 PUSH2 0x1F90 JUMP JUMPDEST SWAP2 POP POP PUSH2 0x12FE JUMP JUMPDEST POP PUSH1 0x0 JUMPDEST PUSH1 0x10 SLOAD DUP2 LT ISZERO PUSH2 0x1132 JUMPI PUSH1 0x0 DUP2 DUP2 MSTORE PUSH1 0xF PUSH1 0x20 SWAP1 DUP2 MSTORE PUSH1 0x40 DUP1 DUP4 KECCAK256 SLOAD PUSH1 0x1 PUSH1 0x1 PUSH1 0xA0 SHL SUB AND DUP4 MSTORE PUSH1 0xD SWAP1 SWAP2 MSTORE SWAP1 KECCAK256 PUSH1 0x1 ADD SLOAD DUP3 SWAP1 PUSH2 0x149B SWAP1 PUSH1 0x64 PUSH2 0x1D31 JUMP JUMPDEST PUSH2 0x14A5 SWAP2 SWAP1 PUSH2 0x1D66 JUMP JUMPDEST PUSH1 0x0 DUP3 DUP2 MSTORE PUSH1 0xF PUSH1 0x20 SWAP1 DUP2 MSTORE PUSH1 0x40 DUP1 DUP4 KECCAK256 SLOAD PUSH1 0x1 PUSH1 0x1 PUSH1 0xA0 SHL SUB AND DUP4 MSTORE PUSH1 0xD SWAP1 SWAP2 MSTORE SWAP1 KECCAK256 PUSH1 0x2 ADD SSTORE DUP1 PUSH2 0x14D7 DUP2 PUSH2 0x1F90 JUMP JUMPDEST SWAP2 POP POP PUSH2 0x145C JUMP JUMPDEST PUSH1 0x0 DUP3 PUSH1 0x1 PUSH1 0x1 PUSH1 0xA0 SHL SUB AND DUP3 PUSH1 0x40 MLOAD PUSH1 0x0 PUSH1 0x40 MLOAD DUP1 DUP4 SUB DUP2 DUP6 DUP8 GAS CALL SWAP3 POP POP POP RETURNDATASIZE DUP1 PUSH1 0x0 DUP2 EQ PUSH2 0x152C JUMPI PUSH1 0x40 MLOAD SWAP2 POP PUSH1 0x1F NOT PUSH1 0x3F RETURNDATASIZE ADD AND DUP3 ADD PUSH1 0x40 MSTORE RETURNDATASIZE DUP3 MSTORE RETURNDATASIZE PUSH1 0x0 PUSH1 0x20 DUP5 ADD RETURNDATACOPY PUSH2 0x1531 JUMP JUMPDEST PUSH1 0x60 SWAP2 POP JUMPDEST POP POP SWAP1 POP DUP1 PUSH2 0x1579 JUMPI PUSH1 0x40 MLOAD PUSH3 0x461BCD PUSH1 0xE5 SHL DUP2 MSTORE PUSH1 0x20 PUSH1 0x4 DUP3 ADD MSTORE PUSH1 0x14 PUSH1 0x24 DUP3 ADD MSTORE PUSH20 0x2330B4B632B2103A37903830BC903BB4B73732B9 PUSH1 0x61 SHL PUSH1 0x44 DUP3 ADD MSTORE PUSH1 0x64 ADD PUSH2 0x574 JUMP JUMPDEST DUP3 PUSH1 0x1 PUSH1 0x1 PUSH1 0xA0 SHL SUB AND PUSH32 0x2897E467188C1EBBD157F72E82B2059710AEA0DF2BA4B6075E47E305087BBFFE DUP4 PUSH1 0x40 MLOAD PUSH2 0xA23 SWAP2 DUP2 MSTORE PUSH1 0x20 ADD SWAP1 JUMP JUMPDEST PUSH1 0x40 DUP1 MLOAD DUP1 DUP3 ADD SWAP1 SWAP2 MSTORE PUSH1 0x60 DUP2 MSTORE PUSH1 0x0 PUSH1 0x20 DUP3 ADD MSTORE PUSH2 0x15D4 PUSH1 0x20 DUP4 PUSH2 0x205A JUMP JUMPDEST ISZERO PUSH2 0x15FC JUMPI PUSH2 0x15E4 PUSH1 0x20 DUP4 PUSH2 0x205A JUMP JUMPDEST PUSH2 0x15EF SWAP1 PUSH1 0x20 PUSH2 0x1E71 JUMP JUMPDEST PUSH2 0x15F9 SWAP1 DUP4 PUSH2 0x1F78 JUMP JUMPDEST SWAP2 POP JUMPDEST POP PUSH1 0x20 DUP3 DUP2 ADD DUP3 SWAP1 MSTORE PUSH1 0x40 DUP1 MLOAD DUP1 DUP6 MSTORE PUSH1 0x0 DUP2 MSTORE SWAP1 SWAP3 ADD ADD SWAP1 MSTORE SWAP1 JUMP JUMPDEST PUSH1 0x17 DUP2 PUSH8 0xFFFFFFFFFFFFFFFF AND GT PUSH2 0x1644 JUMPI PUSH2 0x163E DUP4 PUSH1 0xE0 PUSH1 0x5 DUP6 SWAP1 SHL AND DUP4 OR PUSH2 0x1791 JUMP JUMPDEST POP POP POP POP JUMP JUMPDEST PUSH1 0xFF DUP2 PUSH8 0xFFFFFFFFFFFFFFFF AND GT PUSH2 0x1682 JUMPI PUSH2 0x166B DUP4 PUSH1 0x18 PUSH2 0x1FE0 PUSH1 0x5 DUP7 SWAP1 SHL AND OR PUSH2 0x1791 JUMP JUMPDEST POP PUSH2 0x163E DUP4 PUSH8 0xFFFFFFFFFFFFFFFF DUP4 AND PUSH1 0x1 PUSH2 0x17B6 JUMP JUMPDEST PUSH2 0xFFFF DUP2 PUSH8 0xFFFFFFFFFFFFFFFF AND GT PUSH2 0x16C1 JUMPI PUSH2 0x16AA DUP4 PUSH1 0x19 PUSH2 0x1FE0 PUSH1 0x5 DUP7 SWAP1 SHL AND OR PUSH2 0x1791 JUMP JUMPDEST POP PUSH2 0x163E DUP4 PUSH8 0xFFFFFFFFFFFFFFFF DUP4 AND PUSH1 0x2 PUSH2 0x17B6 JUMP JUMPDEST PUSH4 0xFFFFFFFF DUP2 PUSH8 0xFFFFFFFFFFFFFFFF AND GT PUSH2 0x1702 JUMPI PUSH2 0x16EB DUP4 PUSH1 0x1A PUSH2 0x1FE0 PUSH1 0x5 DUP7 SWAP1 SHL AND OR PUSH2 0x1791 JUMP JUMPDEST POP PUSH2 0x163E DUP4 PUSH8 0xFFFFFFFFFFFFFFFF DUP4 AND PUSH1 0x4 PUSH2 0x17B6 JUMP JUMPDEST PUSH2 0x1717 DUP4 PUSH1 0x1B PUSH2 0x1FE0 PUSH1 0x5 DUP7 SWAP1 SHL AND OR PUSH2 0x1791 JUMP JUMPDEST POP PUSH2 0x163E DUP4 PUSH8 0xFFFFFFFFFFFFFFFF DUP4 AND PUSH1 0x8 PUSH2 0x17B6 JUMP JUMPDEST PUSH1 0x40 DUP1 MLOAD DUP1 DUP3 ADD SWAP1 SWAP2 MSTORE PUSH1 0x60 DUP2 MSTORE PUSH1 0x0 PUSH1 0x20 DUP3 ADD MSTORE PUSH2 0xCEC DUP4 DUP5 PUSH1 0x0 ADD MLOAD MLOAD DUP5 DUP6 MLOAD PUSH2 0x17DC JUMP JUMPDEST DUP1 PUSH1 0x9 DUP2 GT ISZERO PUSH2 0x1767 JUMPI PUSH2 0x1767 PUSH2 0x1A2D JUMP JUMPDEST PUSH1 0xE DUP1 SLOAD PUSH1 0xFF PUSH1 0xA0 SHL NOT AND PUSH1 0x1 PUSH1 0xA0 SHL DUP4 PUSH1 0x9 DUP2 GT ISZERO PUSH2 0x1789 JUMPI PUSH2 0x1789 PUSH2 0x1A2D JUMP JUMPDEST MUL OR SWAP1 SSTORE POP POP JUMP JUMPDEST PUSH1 0x40 DUP1 MLOAD DUP1 DUP3 ADD SWAP1 SWAP2 MSTORE PUSH1 0x60 DUP2 MSTORE PUSH1 0x0 PUSH1 0x20 DUP3 ADD MSTORE PUSH2 0xCEC DUP4 DUP5 PUSH1 0x0 ADD MLOAD MLOAD DUP5 PUSH2 0x18C6 JUMP JUMPDEST PUSH1 0x40 DUP1 MLOAD DUP1 DUP3 ADD SWAP1 SWAP2 MSTORE PUSH1 0x60 DUP2 MSTORE PUSH1 0x0 PUSH1 0x20 DUP3 ADD MSTORE PUSH2 0x6AC DUP5 DUP6 PUSH1 0x0 ADD MLOAD MLOAD DUP6 DUP6 PUSH2 0x1921 JUMP JUMPDEST PUSH1 0x40 DUP1 MLOAD DUP1 DUP3 ADD SWAP1 SWAP2 MSTORE PUSH1 0x60 DUP2 MSTORE PUSH1 0x0 PUSH1 0x20 DUP3 ADD MSTORE DUP3 MLOAD DUP3 GT ISZERO PUSH2 0x17FF JUMPI PUSH1 0x0 DUP1 REVERT JUMPDEST PUSH1 0x20 DUP6 ADD MLOAD PUSH2 0x180E DUP4 DUP7 PUSH2 0x1F78 JUMP JUMPDEST GT ISZERO PUSH2 0x1841 JUMPI PUSH2 0x1841 DUP6 PUSH2 0x1831 DUP8 PUSH1 0x20 ADD MLOAD DUP8 DUP7 PUSH2 0x182C SWAP2 SWAP1 PUSH2 0x1F78 JUMP JUMPDEST PUSH2 0x19A2 JUMP JUMPDEST PUSH2 0x183C SWAP1 PUSH1 0x2 PUSH2 0x1D31 JUMP JUMPDEST PUSH2 0x19B9 JUMP JUMPDEST PUSH1 0x0 DUP1 DUP7 MLOAD DUP1 MLOAD DUP8 PUSH1 0x20 DUP4 ADD ADD SWAP4 POP DUP1 DUP9 DUP8 ADD GT ISZERO PUSH2 0x1860 JUMPI DUP8 DUP7 ADD DUP3 MSTORE JUMPDEST POP POP POP PUSH1 0x20 DUP5 ADD JUMPDEST PUSH1 0x20 DUP5 LT PUSH2 0x18A0 JUMPI DUP1 MLOAD DUP3 MSTORE PUSH2 0x187F PUSH1 0x20 DUP4 PUSH2 0x1F78 JUMP JUMPDEST SWAP2 POP PUSH2 0x188C PUSH1 0x20 DUP3 PUSH2 0x1F78 JUMP JUMPDEST SWAP1 POP PUSH2 0x1899 PUSH1 0x20 DUP6 PUSH2 0x1E71 JUMP JUMPDEST SWAP4 POP PUSH2 0x1868 JUMP JUMPDEST MLOAD DUP2 MLOAD PUSH1 0x0 NOT PUSH1 0x20 DUP7 SWAP1 SUB PUSH2 0x100 EXP ADD SWAP1 DUP2 AND SWAP1 NOT SWAP2 SWAP1 SWAP2 AND OR SWAP1 MSTORE POP DUP4 SWAP5 SWAP4 POP POP POP POP JUMP JUMPDEST PUSH1 0x40 DUP1 MLOAD DUP1 DUP3 ADD SWAP1 SWAP2 MSTORE PUSH1 0x60 DUP2 MSTORE PUSH1 0x0 PUSH1 0x20 DUP3 ADD MSTORE DUP4 PUSH1 0x20 ADD MLOAD DUP4 LT PUSH2 0x18FB JUMPI PUSH2 0x18FB DUP5 DUP6 PUSH1 0x20 ADD MLOAD PUSH1 0x2 PUSH2 0x183C SWAP2 SWAP1 PUSH2 0x1D31 JUMP JUMPDEST DUP4 MLOAD DUP1 MLOAD PUSH1 0x20 DUP6 DUP4 ADD ADD DUP5 DUP2 MSTORE8 POP DUP1 DUP6 SUB PUSH2 0x1917 JUMPI PUSH1 0x1 DUP2 ADD DUP3 MSTORE JUMPDEST POP SWAP4 SWAP5 SWAP4 POP POP POP POP JUMP JUMPDEST PUSH1 0x40 DUP1 MLOAD DUP1 DUP3 ADD SWAP1 SWAP2 MSTORE PUSH1 0x60 DUP2 MSTORE PUSH1 0x0 PUSH1 0x20 DUP3 ADD MSTORE PUSH1 0x20 DUP6 ADD MLOAD PUSH2 0x1945 DUP6 DUP5 PUSH2 0x1F78 JUMP JUMPDEST GT ISZERO PUSH2 0x1959 JUMPI PUSH2 0x1959 DUP6 PUSH2 0x1831 DUP7 DUP6 PUSH2 0x1F78 JUMP JUMPDEST PUSH1 0x0 PUSH1 0x1 PUSH2 0x1969 DUP5 PUSH2 0x100 PUSH2 0x1F6C JUMP JUMPDEST PUSH2 0x1973 SWAP2 SWAP1 PUSH2 0x1E71 JUMP JUMPDEST SWAP1 POP DUP6 MLOAD DUP4 DUP7 DUP3 ADD ADD DUP6 DUP4 NOT DUP3 MLOAD AND OR DUP2 MSTORE POP DUP1 MLOAD DUP5 DUP8 ADD GT ISZERO PUSH2 0x1997 JUMPI DUP4 DUP7 ADD DUP2 MSTORE JUMPDEST POP SWAP5 SWAP6 SWAP5 POP POP POP POP POP JUMP JUMPDEST PUSH1 0x0 DUP2 DUP4 GT ISZERO PUSH2 0x19B3 JUMPI POP DUP2 PUSH2 0xAF1 JUMP JUMPDEST POP SWAP2 SWAP1 POP JUMP JUMPDEST DUP2 MLOAD PUSH2 0x19C5 DUP4 DUP4 PUSH2 0x15B4 JUMP JUMPDEST POP PUSH2 0x163E DUP4 DUP3 PUSH2 0x172E JUMP JUMPDEST PUSH1 0x40 DUP1 MLOAD PUSH1 0xA0 DUP2 ADD DUP3 MSTORE PUSH1 0x0 DUP1 DUP3 MSTORE PUSH1 0x20 DUP1 DUP4 ADD DUP3 SWAP1 MSTORE DUP3 DUP5 ADD DUP3 SWAP1 MSTORE PUSH1 0x60 DUP1 DUP5 ADD DUP4 SWAP1 MSTORE DUP5 MLOAD DUP1 DUP7 ADD SWAP1 SWAP6 MSTORE DUP5 MSTORE DUP4 ADD MSTORE SWAP1 PUSH1 0x80 DUP3 ADD MSTORE SWAP1 JUMP JUMPDEST PUSH1 0x0 DUP1 PUSH1 0x40 DUP4 DUP6 SUB SLT ISZERO PUSH2 0x1A1E JUMPI PUSH1 0x0 DUP1 REVERT JUMPDEST POP POP DUP1 CALLDATALOAD SWAP3 PUSH1 0x20 SWAP1 SWAP2 ADD CALLDATALOAD SWAP2 POP JUMP JUMPDEST PUSH4 0x4E487B71 PUSH1 0xE0 SHL PUSH1 0x0 MSTORE PUSH1 0x21 PUSH1 0x4 MSTORE PUSH1 0x24 PUSH1 0x0 REVERT JUMPDEST PUSH1 0xA DUP2 LT PUSH2 0x1A61 JUMPI PUSH4 0x4E487B71 PUSH1 0xE0 SHL PUSH1 0x0 MSTORE PUSH1 0x21 PUSH1 0x4 MSTORE PUSH1 0x24 PUSH1 0x0 REVERT JUMPDEST SWAP1 MSTORE JUMP JUMPDEST DUP2 MLOAD PUSH1 0x1 PUSH1 0x1 PUSH1 0xA0 SHL SUB AND DUP2 MSTORE PUSH1 0x20 DUP1 DUP4 ADD MLOAD PUSH1 0xA0 DUP4 ADD SWAP2 PUSH2 0x1A89 SWAP1 DUP5 ADD DUP3 PUSH2 0x1A43 JUMP JUMPDEST POP PUSH1 0x40 DUP4 ADD MLOAD ISZERO ISZERO PUSH1 0x40 DUP4 ADD MSTORE PUSH1 0x60 DUP4 ADD MLOAD PUSH1 0x60 DUP4 ADD MSTORE PUSH1 0x80 DUP4 ADD MLOAD PUSH1 0x80 DUP4 ADD MSTORE SWAP3 SWAP2 POP POP JUMP JUMPDEST PUSH1 0x0 PUSH1 0x20 DUP3 DUP5 SUB SLT ISZERO PUSH2 0x1AC2 JUMPI PUSH1 0x0 DUP1 REVERT JUMPDEST DUP2 CALLDATALOAD PUSH1 0xA DUP2 LT PUSH2 0xCEC JUMPI PUSH1 0x0 DUP1 REVERT JUMPDEST PUSH1 0x0 PUSH1 0x20 DUP3 DUP5 SUB SLT ISZERO PUSH2 0x1AE3 JUMPI PUSH1 0x0 DUP1 REVERT JUMPDEST POP CALLDATALOAD SWAP2 SWAP1 POP JUMP JUMPDEST DUP1 CALLDATALOAD PUSH1 0x1 PUSH1 0x1 PUSH1 0xA0 SHL SUB DUP2 AND DUP2 EQ PUSH2 0x1B01 JUMPI PUSH1 0x0 DUP1 REVERT JUMPDEST SWAP2 SWAP1 POP JUMP JUMPDEST PUSH1 0x0 DUP1 PUSH1 0x40 DUP4 DUP6 SUB SLT ISZERO PUSH2 0x1B19 JUMPI PUSH1 0x0 DUP1 REVERT JUMPDEST PUSH2 0x1B22 DUP4 PUSH2 0x1AEA JUMP JUMPDEST SWAP2 POP PUSH1 0x20 DUP4 ADD CALLDATALOAD PUSH1 0x1 PUSH1 0x1 PUSH1 0xE0 SHL SUB NOT DUP2 AND DUP2 EQ PUSH2 0x1B3F JUMPI PUSH1 0x0 DUP1 REVERT JUMPDEST DUP1 SWAP2 POP POP SWAP3 POP SWAP3 SWAP1 POP JUMP JUMPDEST PUSH1 0x0 DUP2 MLOAD DUP1 DUP5 MSTORE PUSH1 0x0 JUMPDEST DUP2 DUP2 LT ISZERO PUSH2 0x1B70 JUMPI PUSH1 0x20 DUP2 DUP6 ADD DUP2 ADD MLOAD DUP7 DUP4 ADD DUP3 ADD MSTORE ADD PUSH2 0x1B54 JUMP JUMPDEST DUP2 DUP2 GT ISZERO PUSH2 0x1B82 JUMPI PUSH1 0x0 PUSH1 0x20 DUP4 DUP8 ADD ADD MSTORE JUMPDEST POP PUSH1 0x1F ADD PUSH1 0x1F NOT AND SWAP3 SWAP1 SWAP3 ADD PUSH1 0x20 ADD SWAP3 SWAP2 POP POP JUMP JUMPDEST PUSH1 0x20 DUP2 MSTORE PUSH1 0x0 PUSH2 0xCEC PUSH1 0x20 DUP4 ADD DUP5 PUSH2 0x1B4A JUMP JUMPDEST PUSH4 0x4E487B71 PUSH1 0xE0 SHL PUSH1 0x0 MSTORE PUSH1 0x41 PUSH1 0x4 MSTORE PUSH1 0x24 PUSH1 0x0 REVERT JUMPDEST PUSH1 0x0 PUSH1 0x20 DUP3 DUP5 SUB SLT ISZERO PUSH2 0x1BD2 JUMPI PUSH1 0x0 DUP1 REVERT JUMPDEST DUP2 CALLDATALOAD PUSH8 0xFFFFFFFFFFFFFFFF DUP1 DUP3 GT ISZERO PUSH2 0x1BEA JUMPI PUSH1 0x0 DUP1 REVERT JUMPDEST DUP2 DUP5 ADD SWAP2 POP DUP5 PUSH1 0x1F DUP4 ADD SLT PUSH2 0x1BFE JUMPI PUSH1 0x0 DUP1 REVERT JUMPDEST DUP2 CALLDATALOAD DUP2 DUP2 GT ISZERO PUSH2 0x1C10 JUMPI PUSH2 0x1C10 PUSH2 0x1BAA JUMP JUMPDEST PUSH1 0x40 MLOAD PUSH1 0x1F DUP3 ADD PUSH1 0x1F NOT SWAP1 DUP2 AND PUSH1 0x3F ADD AND DUP2 ADD SWAP1 DUP4 DUP3 GT DUP2 DUP4 LT OR ISZERO PUSH2 0x1C38 JUMPI PUSH2 0x1C38 PUSH2 0x1BAA JUMP JUMPDEST DUP2 PUSH1 0x40 MSTORE DUP3 DUP2 MSTORE DUP8 PUSH1 0x20 DUP5 DUP8 ADD ADD GT ISZERO PUSH2 0x1C51 JUMPI PUSH1 0x0 DUP1 REVERT JUMPDEST DUP3 PUSH1 0x20 DUP7 ADD PUSH1 0x20 DUP4 ADD CALLDATACOPY PUSH1 0x0 SWAP3 DUP2 ADD PUSH1 0x20 ADD SWAP3 SWAP1 SWAP3 MSTORE POP SWAP6 SWAP5 POP POP POP POP POP JUMP JUMPDEST PUSH1 0x0 PUSH1 0x20 DUP3 DUP5 SUB SLT ISZERO PUSH2 0x1C83 JUMPI PUSH1 0x0 DUP1 REVERT JUMPDEST PUSH2 0xCEC DUP3 PUSH2 0x1AEA JUMP JUMPDEST PUSH1 0x1 PUSH1 0x1 PUSH1 0xA0 SHL SUB DUP7 AND DUP2 MSTORE PUSH1 0xA0 DUP2 ADD PUSH2 0x1CA9 PUSH1 0x20 DUP4 ADD DUP8 PUSH2 0x1A43 JUMP JUMPDEST SWAP4 ISZERO ISZERO PUSH1 0x40 DUP3 ADD MSTORE PUSH1 0x60 DUP2 ADD SWAP3 SWAP1 SWAP3 MSTORE PUSH1 0x80 SWAP1 SWAP2 ADD MSTORE SWAP3 SWAP2 POP POP JUMP JUMPDEST PUSH1 0x20 DUP2 ADD PUSH2 0xAF1 DUP3 DUP5 PUSH2 0x1A43 JUMP JUMPDEST PUSH1 0x20 DUP1 DUP3 MSTORE PUSH1 0x28 SWAP1 DUP3 ADD MSTORE PUSH32 0x536F75726365206D75737420626520746865206F7261636C65206F6620746865 PUSH1 0x40 DUP3 ADD MSTORE PUSH8 0x81C995C5D595CDD PUSH1 0xC2 SHL PUSH1 0x60 DUP3 ADD MSTORE PUSH1 0x80 ADD SWAP1 JUMP JUMPDEST PUSH4 0x4E487B71 PUSH1 0xE0 SHL PUSH1 0x0 MSTORE PUSH1 0x11 PUSH1 0x4 MSTORE PUSH1 0x24 PUSH1 0x0 REVERT JUMPDEST PUSH1 0x0 DUP2 PUSH1 0x0 NOT DIV DUP4 GT DUP3 ISZERO ISZERO AND ISZERO PUSH2 0x1D4B JUMPI PUSH2 0x1D4B PUSH2 0x1D1B JUMP JUMPDEST POP MUL SWAP1 JUMP JUMPDEST PUSH4 0x4E487B71 PUSH1 0xE0 SHL PUSH1 0x0 MSTORE PUSH1 0x12 PUSH1 0x4 MSTORE PUSH1 0x24 PUSH1 0x0 REVERT JUMPDEST PUSH1 0x0 DUP3 PUSH2 0x1D75 JUMPI PUSH2 0x1D75 PUSH2 0x1D50 JUMP JUMPDEST POP DIV SWAP1 JUMP JUMPDEST DUP1 MLOAD PUSH10 0xFFFFFFFFFFFFFFFFFFFF DUP2 AND DUP2 EQ PUSH2 0x1B01 JUMPI PUSH1 0x0 DUP1 REVERT JUMPDEST PUSH1 0x0 DUP1 PUSH1 0x0 DUP1 PUSH1 0x0 PUSH1 0xA0 DUP7 DUP9 SUB SLT ISZERO PUSH2 0x1DAC JUMPI PUSH1 0x0 DUP1 REVERT JUMPDEST PUSH2 0x1DB5 DUP7 PUSH2 0x1D7A JUMP JUMPDEST SWAP5 POP PUSH1 0x20 DUP7 ADD MLOAD SWAP4 POP PUSH1 0x40 DUP7 ADD MLOAD SWAP3 POP PUSH1 0x60 DUP7 ADD MLOAD SWAP2 POP PUSH2 0x1DD8 PUSH1 0x80 DUP8 ADD PUSH2 0x1D7A JUMP JUMPDEST SWAP1 POP SWAP3 SWAP6 POP SWAP3 SWAP6 SWAP1 SWAP4 POP JUMP JUMPDEST PUSH1 0x20 DUP1 DUP3 MSTORE DUP2 DUP2 ADD MSTORE PUSH32 0x4F776E61626C653A2063616C6C6572206973206E6F7420746865206F776E6572 PUSH1 0x40 DUP3 ADD MSTORE PUSH1 0x60 ADD SWAP1 JUMP JUMPDEST PUSH4 0x4E487B71 PUSH1 0xE0 SHL PUSH1 0x0 MSTORE PUSH1 0x32 PUSH1 0x4 MSTORE PUSH1 0x24 PUSH1 0x0 REVERT JUMPDEST PUSH1 0x0 PUSH1 0xFF DUP3 AND PUSH1 0xFF DUP2 SUB PUSH2 0x1E45 JUMPI PUSH2 0x1E45 PUSH2 0x1D1B JUMP JUMPDEST PUSH1 0x1 ADD SWAP3 SWAP2 POP POP JUMP JUMPDEST PUSH1 0x0 PUSH1 0xFF DUP3 AND PUSH1 0xFF DUP5 AND DUP1 DUP3 LT ISZERO PUSH2 0x1E68 JUMPI PUSH2 0x1E68 PUSH2 0x1D1B JUMP JUMPDEST SWAP1 SUB SWAP4 SWAP3 POP POP POP JUMP JUMPDEST PUSH1 0x0 DUP3 DUP3 LT ISZERO PUSH2 0x1E83 JUMPI PUSH2 0x1E83 PUSH2 0x1D1B JUMP JUMPDEST POP SUB SWAP1 JUMP JUMPDEST PUSH1 0x1 DUP2 DUP2 JUMPDEST DUP1 DUP6 GT ISZERO PUSH2 0x1EC3 JUMPI DUP2 PUSH1 0x0 NOT DIV DUP3 GT ISZERO PUSH2 0x1EA9 JUMPI PUSH2 0x1EA9 PUSH2 0x1D1B JUMP JUMPDEST DUP1 DUP6 AND ISZERO PUSH2 0x1EB6 JUMPI SWAP2 DUP2 MUL SWAP2 JUMPDEST SWAP4 DUP5 SHR SWAP4 SWAP1 DUP1 MUL SWAP1 PUSH2 0x1E8D JUMP JUMPDEST POP SWAP3 POP SWAP3 SWAP1 POP JUMP JUMPDEST PUSH1 0x0 DUP3 PUSH2 0x1EDA JUMPI POP PUSH1 0x1 PUSH2 0xAF1 JUMP JUMPDEST DUP2 PUSH2 0x1EE7 JUMPI POP PUSH1 0x0 PUSH2 0xAF1 JUMP JUMPDEST DUP2 PUSH1 0x1 DUP2 EQ PUSH2 0x1EFD JUMPI PUSH1 0x2 DUP2 EQ PUSH2 0x1F07 JUMPI PUSH2 0x1F23 JUMP JUMPDEST PUSH1 0x1 SWAP2 POP POP PUSH2 0xAF1 JUMP JUMPDEST PUSH1 0xFF DUP5 GT ISZERO PUSH2 0x1F18 JUMPI PUSH2 0x1F18 PUSH2 0x1D1B JUMP JUMPDEST POP POP PUSH1 0x1 DUP3 SHL PUSH2 0xAF1 JUMP JUMPDEST POP PUSH1 0x20 DUP4 LT PUSH2 0x133 DUP4 LT AND PUSH1 0x4E DUP5 LT PUSH1 0xB DUP5 LT AND OR ISZERO PUSH2 0x1F46 JUMPI POP DUP2 DUP2 EXP PUSH2 0xAF1 JUMP JUMPDEST PUSH2 0x1F50 DUP4 DUP4 PUSH2 0x1E88 JUMP JUMPDEST DUP1 PUSH1 0x0 NOT DIV DUP3 GT ISZERO PUSH2 0x1F64 JUMPI PUSH2 0x1F64 PUSH2 0x1D1B JUMP JUMPDEST MUL SWAP4 SWAP3 POP POP POP JUMP JUMPDEST PUSH1 0x0 PUSH2 0xCEC DUP4 DUP4 PUSH2 0x1ECB JUMP JUMPDEST PUSH1 0x0 DUP3 NOT DUP3 GT ISZERO PUSH2 0x1F8B JUMPI PUSH2 0x1F8B PUSH2 0x1D1B JUMP JUMPDEST POP ADD SWAP1 JUMP JUMPDEST PUSH1 0x0 PUSH1 0x1 DUP3 ADD PUSH2 0x1FA2 JUMPI PUSH2 0x1FA2 PUSH2 0x1D1B JUMP JUMPDEST POP PUSH1 0x1 ADD SWAP1 JUMP JUMPDEST PUSH1 0x1 PUSH1 0x1 PUSH1 0xA0 SHL SUB DUP10 DUP2 AND DUP3 MSTORE PUSH1 0x20 DUP3 ADD DUP10 SWAP1 MSTORE PUSH1 0x40 DUP3 ADD DUP9 SWAP1 MSTORE DUP7 AND PUSH1 0x60 DUP3 ADD MSTORE PUSH1 0x1 PUSH1 0x1 PUSH1 0xE0 SHL SUB NOT DUP6 AND PUSH1 0x80 DUP3 ADD MSTORE PUSH1 0xA0 DUP2 ADD DUP5 SWAP1 MSTORE PUSH1 0xC0 DUP2 ADD DUP4 SWAP1 MSTORE PUSH2 0x100 PUSH1 0xE0 DUP3 ADD DUP2 SWAP1 MSTORE PUSH1 0x0 SWAP1 PUSH2 0x2002 DUP4 DUP3 ADD DUP6 PUSH2 0x1B4A JUMP JUMPDEST SWAP12 SWAP11 POP POP POP POP POP POP POP POP POP POP POP JUMP JUMPDEST PUSH1 0x1 DUP1 PUSH1 0xA0 SHL SUB DUP5 AND DUP2 MSTORE DUP3 PUSH1 0x20 DUP3 ADD MSTORE PUSH1 0x60 PUSH1 0x40 DUP3 ADD MSTORE PUSH1 0x0 PUSH2 0xF40 PUSH1 0x60 DUP4 ADD DUP5 PUSH2 0x1B4A JUMP JUMPDEST PUSH1 0x0 PUSH1 0x20 DUP3 DUP5 SUB SLT ISZERO PUSH2 0x204A JUMPI PUSH1 0x0 DUP1 REVERT JUMPDEST DUP2 MLOAD DUP1 ISZERO ISZERO DUP2 EQ PUSH2 0xCEC JUMPI PUSH1 0x0 DUP1 REVERT JUMPDEST PUSH1 0x0 DUP3 PUSH2 0x2069 JUMPI PUSH2 0x2069 PUSH2 0x1D50 JUMP JUMPDEST POP MOD SWAP1 JUMP INVALID PUSH9 0x747470733A2F2F6665 PUSH9 0x2D726573706C656E64 PUSH6 0x6E742D617069 0x2E PUSH9 0x65726F6B756170702E PUSH4 0x6F6D2F72 PUSH6 0x73706C656E64 PUSH6 0x6E74732F6C61 PUSH21 0x657374A26469706673582212203F58D50BB82FBCE9 0xF7 0xB0 MLOAD GAS SWAP5 MULMOD PUSH7 0xD2B16FB9082730 0xCD MULMOD CODECOPY DUP9 SWAP7 GAS SLT 0x5F 0xE 0xEB PUSH5 0x736F6C6343 STOP ADDMOD 0xD STOP CALLER ","sha1":"56ded2763125d18f7cd157383cce46eb22f7763a","source":"//SPDX-License-Identifier: Apache-2.0\npragma solidity ^0.8.7;\n\n//import \"./User.sol\";\n//import \"./BetStatus.sol\";\nimport \"@openzeppelin/contracts/access/Ownable.sol\";\nimport \"@chainlink/contracts/src/v0.8/interfaces/AggregatorV3Interface.sol\";\nimport \"./APIConsumer.sol\";\n\n//contract APIConsumer{ function requestData() public view returns(bytes32);} \n\ncontract Betting is Ownable, APIConsumer {\n    enum Bet{EMPTY, ASKR, EMBLA,NIFL,MUSPELL,HEL,LIGHT_FAIRY,DARK_FAIRY,MECHA,GIANT}\n    struct User {\n        address id;\n        Bet bet;\n        bool hasBet;\n        uint256 amountBet;\n        uint256 winningPercentage;  \n    }\n\n    mapping(string => int8) public resplendentThemes;\n    address[] public Voters;\n    mapping(address => User) public users; \n    address payable public contractAddress;\n    Bet public finalResultIs;\n    mapping(uint => address) public Winners;\n    uint public winnerCount;\n    User resetUser; \n    address nulladdress;\n    event WinnerPayed(address indexed winner, uint256 amount);\n    event api_data_received(uint indexed new_resplendent, address sender);\n    uint public resplendent;\n    \n    APIConsumer internal ResplendentRequest;\n\n    // Ethereum Price Feed routine variables\n    AggregatorV3Interface internal ethUsdPriceFeed;\n    uint256 public usdEntryFee;\n    /**\n     * Network: Kovan\n     * Aggregator: ETH/USD\n     * Address: 0x9326BFA02ADD2366b30bacB125260Af641031331\n     * Network: Rinkeby\n     * Aggregator: ETH/USD\n     * Address: 0x8A753747A1Fa494EC906cE90E9f37563A8AF630e\n     */\n\n\n    constructor() public{\n        contractAddress = payable(address(this));\n        resplendent =42;\n        finalResultIs = Bet.EMPTY;\n        winnerCount = 0;\n        nulladdress = 0x0000000000000000000000000000000000000000;\n        resetUser = User(nulladdress,Bet(0), false, 0,0);  \n        ethUsdPriceFeed = AggregatorV3Interface(0x8A753747A1Fa494EC906cE90E9f37563A8AF630e);\n        usdEntryFee = 50 * (10**18); // current price, $50 in ETH \n        api_data =\"\";\n    }\n    \n    /**\n     * Returns the latest price\n     */\n    function getLatestPrice() public view returns (int) {\n        (\n            uint80 roundID, \n            int price,\n            uint startedAt,\n            uint timeStamp,\n            uint80 answeredInRound\n        ) = ethUsdPriceFeed.latestRoundData();\n        return price; // returns in gwei\n    }\n\n    // setting the entrance fee \n\n    function getEntranceFee() public view returns (uint256) {\n        (, int256 price, , , ) = ethUsdPriceFeed.latestRoundData();\n        uint256 adjustedPrice = uint256(price) * 10**10; // 18 decimals -> convert it to wei\n        // $50, $2,000 / ETH\n        // 50/2,000\n        // 50 * 100000 / 2000\n        uint256 costToEnter = (usdEntryFee * 10**18) / adjustedPrice;\n        return costToEnter; // returns in Wei\n    }\n\n\n    function placeBet(Bet _bet) public payable{\n        require(!users[msg.sender].hasBet, \"User has already bet!\");\n        require(msg.value >= getEntranceFee(),\"Don't be cheap! $50 or more in ETH!\");\n\n        User memory user = User(msg.sender,_bet,true,msg.value, 0);\n        Voters.push(msg.sender);\n        users[msg.sender] = user;\n    }\n    \n    function getPrizeMoney() public view returns(uint256){\n        return(contractAddress.balance * 99)/100; //Contract collects a 1% fee\n    }\n    \n    function getUserStructData() public view returns(User memory){\n        return users[msg.sender];\n    }\n\n    function setFinalResult(uint _resplendent) private {\n        finalResultIs = Bet(_resplendent);\n    }\n\n    function sortPlayersByBetsAndGetWinners() private {\n        uint256 totalAmountBetByWinners = 0;\n        winnerCount = 0;\n        setFinalResult(resplendent);\n        \n\n        for(uint256 i =0; i < Voters.length; i++){\n            if(users[Voters[i]].bet == finalResultIs){\n                totalAmountBetByWinners =totalAmountBetByWinners+ users[Voters[i]].amountBet;\n                Winners[winnerCount] = users[Voters[i]].id;\n                winnerCount++;\n            }\n        }\n        for (uint256 j = 0; j < winnerCount; j++) {    \n            users[Winners[j]].winningPercentage = (users[Winners[j]].amountBet*100) / totalAmountBetByWinners;\n        }\n    }\n\n\n    // working on this function\n    function requestResplendentValue() public onlyOwner {\n        requestData(address(this), getFunctionSelector());\n    }\n\n    function getFunctionSelector() public pure returns(bytes4) {\n        return this.fulfillResplendentValue.selector;\n    }\n\n    function fulfillResplendentValue(bytes32 _requestId, bytes32 _api_data) public recordChainlinkFulfillment(_requestId){\n        api_data = _api_data;\n        (resplendent,) = strToUint(bytes32ToString(_api_data));\n        emit api_data_received(resplendent,owner());\n    }\n    \n    function payWinners() private {\n        require(contractAddress.balance >= 0 wei, \"No bets placed\");\n        sortPlayersByBetsAndGetWinners();\n        require(winnerCount > 0, \"No winners this round\");\n        uint256 prizemoney = getPrizeMoney();\n\n        for (uint256 i = 0; i < winnerCount; i++) {\n            uint256 amountForWinner = (users[Winners[i]].winningPercentage * prizemoney)/100;\n            payout(payable(Winners[i]),amountForWinner);\n        }\n    }    \n    \n    function payout(address payable _to, uint256 _amount) private {\n        (bool success,) = _to.call{value:_amount}(\"\");\n        require(success, \"Failed to pay winner\");\n        emit WinnerPayed(_to, _amount);\n    }\n    \n    function CleanWinnningMapping() private{\n        for (uint i = 0; i < winnerCount; i++){\n            Winners[i] = nulladdress;\n        }\n\n        winnerCount = 0;\n\n        for(uint j = 0; j < Voters.length; j++)\n        {\n            users[Voters[j]] = resetUser;\n        }\n\n        delete Voters;\n    }\n\n    function finalResult() public onlyOwner {\n        payWinners();\n        //CleanWinnningMapping();\n    }\n    \n}\n","sourcePath":"contracts/Bet.sol","type":"contract","deployment":{"address":"0x970bf0b60580ab517A0Da4FdE184F1d03eBdfC4D","chainid":"4","blockHeight":10818581}}