{"abi":[{"inputs":[],"stateMutability":"nonpayable","type":"constructor","name":"constructor"},{"anonymous":false,"inputs":[{"indexed":true,"internalType":"address","name":"previousOwner","type":"address"},{"indexed":true,"internalType":"address","name":"newOwner","type":"address"}],"name":"OwnershipTransferred","type":"event"},{"anonymous":false,"inputs":[{"indexed":true,"internalType":"address","name":"winner","type":"address"},{"indexed":false,"internalType":"uint256","name":"amount","type":"uint256"}],"name":"WinnerPayed","type":"event"},{"inputs":[{"internalType":"uint256","name":"","type":"uint256"}],"name":"Voters","outputs":[{"internalType":"address","name":"","type":"address"}],"stateMutability":"view","type":"function"},{"inputs":[{"internalType":"uint256","name":"","type":"uint256"}],"name":"Winners","outputs":[{"internalType":"address","name":"","type":"address"}],"stateMutability":"view","type":"function"},{"inputs":[],"name":"contractAddress","outputs":[{"internalType":"address payable","name":"","type":"address"}],"stateMutability":"view","type":"function"},{"inputs":[],"name":"finalResult","outputs":[],"stateMutability":"nonpayable","type":"function"},{"inputs":[],"name":"finalResultIs","outputs":[{"internalType":"enum Betting.Bet","name":"","type":"uint8"}],"stateMutability":"view","type":"function"},{"inputs":[],"name":"getPrizeMoney","outputs":[{"internalType":"uint256","name":"","type":"uint256"}],"stateMutability":"view","type":"function"},{"inputs":[{"internalType":"uint8","name":"_num","type":"uint8"}],"name":"getResplendentValue","outputs":[],"stateMutability":"nonpayable","type":"function"},{"inputs":[],"name":"owner","outputs":[{"internalType":"address","name":"","type":"address"}],"stateMutability":"view","type":"function"},{"inputs":[{"internalType":"enum Betting.Bet","name":"_bet","type":"uint8"}],"name":"placeBet","outputs":[],"stateMutability":"payable","type":"function"},{"inputs":[],"name":"renounceOwnership","outputs":[],"stateMutability":"nonpayable","type":"function"},{"inputs":[],"name":"resplendent","outputs":[{"internalType":"uint256","name":"","type":"uint256"}],"stateMutability":"view","type":"function"},{"inputs":[{"internalType":"address","name":"newOwner","type":"address"}],"name":"transferOwnership","outputs":[],"stateMutability":"nonpayable","type":"function"},{"inputs":[{"internalType":"address","name":"","type":"address"}],"name":"users","outputs":[{"internalType":"address","name":"id","type":"address"},{"internalType":"enum Betting.Bet","name":"bet","type":"uint8"},{"internalType":"bool","name":"hasBet","type":"bool"},{"internalType":"uint256","name":"amountBet","type":"uint256"},{"internalType":"uint256","name":"winningPercentage","type":"uint256"}],"stateMutability":"view","type":"function"},{"inputs":[],"name":"winnerCount","outputs":[{"internalType":"uint256","name":"","type":"uint256"}],"stateMutability":"view","type":"function"}],"bytecode":"608060405234801561001057600080fd5b5061001a33610093565b600380546001600a556001600160a81b0319163060ff60a01b191617905560006005819055600980546001600160a01b03191690556040805160a0810182528281526020810183905290810182905260608101829052608001819052600680546001600160b01b031916905560078190556008556100e3565b600080546001600160a01b038381166001600160a01b0319831681178455604051919092169283917f8be0079c531659141344cd1fd0a4f28419497f9722a3daafe3b4186f6b6457e09190a35050565b610c72806100f26000396000f3fe6080604052600436106100dd5760003560e01c8063a87430ba1161007f578063eedee56211610059578063eedee56214610279578063f2fde38b146102a7578063f3a8286f146102c7578063f6b4dfb4146102dc57600080fd5b8063a87430ba146101d6578063ad51f46f14610243578063caa02e081461026357600080fd5b80636103d915116100bb5780636103d91514610135578063715018a6146101835780638da5cb5b146101985780639c35d98b146101b657600080fd5b80630737c24b146100e25780630eabaa5e1461010a5780634304684414610120575b600080fd5b3480156100ee57600080fd5b506100f76102fc565b6040519081526020015b60405180910390f35b34801561011657600080fd5b506100f7600a5481565b61013361012e366004610a55565b610329565b005b34801561014157600080fd5b5061016b610150366004610a7d565b6004602052600090815260409020546001600160a01b031681565b6040516001600160a01b039091168152602001610101565b34801561018f57600080fd5b506101336104aa565b3480156101a457600080fd5b506000546001600160a01b031661016b565b3480156101c257600080fd5b5061016b6101d1366004610a7d565b6104e0565b3480156101e257600080fd5b506102326101f1366004610a96565b60026020819052600091825260409091208054600182015491909201546001600160a01b0383169260ff600160a01b8204811693600160a81b909204169185565b604051610101959493929190610af7565b34801561024f57600080fd5b5061013361025e366004610b30565b61050a565b34801561026f57600080fd5b506100f760055481565b34801561028557600080fd5b5060035461029a90600160a01b900460ff1681565b6040516101019190610b53565b3480156102b357600080fd5b506101336102c2366004610a96565b61053c565b3480156102d357600080fd5b506101336105d7565b3480156102e857600080fd5b5060035461016b906001600160a01b031681565b60035460009060649061031a906001600160a01b0316316063610b7d565b6103249190610b9c565b905090565b33600090815260026020526040902054600160a81b900460ff161561038d5760405162461bcd60e51b8152602060048201526015602482015274557365722068617320616c7265616479206265742160581b60448201526064015b60405180910390fd5b60006040518060a00160405280336001600160a01b031681526020018360068111156103bb576103bb610abf565b815260016020808301829052346040808501919091526000606090940184905282548084019093557fb10e2d527612073b26eecdfd717e6a320cf44b4afac2b0732d9fcbe2b7fa0cf690920180546001600160a01b0319908116339081179092559084526002825291909220835181546001600160a01b0391909116928116831782559284015193945084939092909183916001600160a81b03191617600160a01b83600681111561046f5761046f610abf565b021790555060408201518154901515600160a81b0260ff60a81b19909116178155606082015160018201556080909101516002909101555050565b6000546001600160a01b031633146104d45760405162461bcd60e51b815260040161038490610bbe565b6104de6000610609565b565b600181815481106104f057600080fd5b6000918252602090912001546001600160a01b0316905081565b6000546001600160a01b031633146105345760405162461bcd60e51b815260040161038490610bbe565b60ff16600a55565b6000546001600160a01b031633146105665760405162461bcd60e51b815260040161038490610bbe565b6001600160a01b0381166105cb5760405162461bcd60e51b815260206004820152602660248201527f4f776e61626c653a206e6577206f776e657220697320746865207a65726f206160448201526564647265737360d01b6064820152608401610384565b6105d481610609565b50565b6000546001600160a01b031633146106015760405162461bcd60e51b815260040161038490610bbe565b6104de610659565b600080546001600160a01b038381166001600160a01b0319831681178455604051919092169283917f8be0079c531659141344cd1fd0a4f28419497f9722a3daafe3b4186f6b6457e09190a35050565b61066161073f565b6000600554116106ab5760405162461bcd60e51b8152602060048201526015602482015274139bc81dda5b9b995c9cc81d1a1a5cc81c9bdd5b99605a1b6044820152606401610384565b60006106b56102fc565b905060005b60055481101561073b576000818152600460209081526040808320546001600160a01b03168352600291829052822001546064906106f9908590610b7d565b6107039190610b9c565b600083815260046020526040902054909150610728906001600160a01b031682610937565b508061073381610bf3565b9150506106ba565b5050565b60006005819055600a5461075290610a19565b60005b6001548110156108b057600354600160a01b900460ff16600681111561077d5761077d610abf565b600260006001848154811061079457610794610c0e565b60009182526020808320909101546001600160a01b0316835282019290925260400190205460ff600160a01b9091041660068111156107d5576107d5610abf565b141561089e5760026000600183815481106107f2576107f2610c0e565b60009182526020808320909101546001600160a01b031683528201929092526040019020600101546108249083610c24565b9150600260006001838154811061083d5761083d610c0e565b60009182526020808320909101546001600160a01b039081168452838201949094526040928301822054600580548452600490925292822080546001600160a01b031916939094169290921790925580549161089883610bf3565b91905055505b806108a881610bf3565b915050610755565b5060005b60055481101561073b576000818152600460209081526040808320546001600160a01b03168352600290915290206001015482906108f3906064610b7d565b6108fd9190610b9c565b6000828152600460209081526040808320546001600160a01b0316835260029182905290912001558061092f81610bf3565b9150506108b4565b6000826001600160a01b03168260405160006040518083038185875af1925050503d8060008114610984576040519150601f19603f3d011682016040523d82523d6000602084013e610989565b606091505b50509050806109d15760405162461bcd60e51b81526020600482015260146024820152732330b4b632b2103a37903830bc903bb4b73732b960611b6044820152606401610384565b826001600160a01b03167f2897e467188c1ebbd157f72e82b2059710aea0df2ba4b6075e47e305087bbffe83604051610a0c91815260200190565b60405180910390a2505050565b806006811115610a2b57610a2b610abf565b6003805460ff60a01b1916600160a01b836006811115610a4d57610a4d610abf565b021790555050565b600060208284031215610a6757600080fd5b813560078110610a7657600080fd5b9392505050565b600060208284031215610a8f57600080fd5b5035919050565b600060208284031215610aa857600080fd5b81356001600160a01b0381168114610a7657600080fd5b634e487b7160e01b600052602160045260246000fd5b60078110610af357634e487b7160e01b600052602160045260246000fd5b9052565b6001600160a01b038616815260a08101610b146020830187610ad5565b9315156040820152606081019290925260809091015292915050565b600060208284031215610b4257600080fd5b813560ff81168114610a7657600080fd5b60208101610b618284610ad5565b92915050565b634e487b7160e01b600052601160045260246000fd5b6000816000190483118215151615610b9757610b97610b67565b500290565b600082610bb957634e487b7160e01b600052601260045260246000fd5b500490565b6020808252818101527f4f776e61626c653a2063616c6c6572206973206e6f7420746865206f776e6572604082015260600190565b6000600019821415610c0757610c07610b67565b5060010190565b634e487b7160e01b600052603260045260246000fd5b60008219821115610c3757610c37610b67565b50019056fea2646970667358221220d0eee67e6232a66f9b1d9eee30aac612605db84c977cd673f6bab92bdedb90d664736f6c634300080a0033","bytecodeSha1":"0cda5153f3600e87cf66cfa911382bebfa0420d2","compiler":{"evm_version":"istanbul","optimizer":{"enabled":true,"runs":200},"version":"0.8.10+commit.fc410830"},"contractName":"Betting","language":"Solidity","natspec":{"kind":"dev","methods":{"owner()":{"details":"Returns the address of the current owner."},"renounceOwnership()":{"details":"Leaves the contract without owner. It will not be possible to call `onlyOwner` functions anymore. Can only be called by the current owner. NOTE: Renouncing ownership will leave the contract without an owner, thereby removing any functionality that is only available to the owner."},"transferOwnership(address)":{"details":"Transfers ownership of the contract to a new account (`newOwner`). Can only be called by the current owner."}},"version":1},"opcodes":"PUSH1 0x80 PUSH1 0x40 MSTORE PUSH1 0x4 CALLDATASIZE LT PUSH2 0xDD JUMPI PUSH1 0x0 CALLDATALOAD PUSH1 0xE0 SHR DUP1 PUSH4 0xA87430BA GT PUSH2 0x7F JUMPI DUP1 PUSH4 0xEEDEE562 GT PUSH2 0x59 JUMPI DUP1 PUSH4 0xEEDEE562 EQ PUSH2 0x279 JUMPI DUP1 PUSH4 0xF2FDE38B EQ PUSH2 0x2A7 JUMPI DUP1 PUSH4 0xF3A8286F EQ PUSH2 0x2C7 JUMPI DUP1 PUSH4 0xF6B4DFB4 EQ PUSH2 0x2DC JUMPI PUSH1 0x0 DUP1 REVERT JUMPDEST DUP1 PUSH4 0xA87430BA EQ PUSH2 0x1D6 JUMPI DUP1 PUSH4 0xAD51F46F EQ PUSH2 0x243 JUMPI DUP1 PUSH4 0xCAA02E08 EQ PUSH2 0x263 JUMPI PUSH1 0x0 DUP1 REVERT JUMPDEST DUP1 PUSH4 0x6103D915 GT PUSH2 0xBB JUMPI DUP1 PUSH4 0x6103D915 EQ PUSH2 0x135 JUMPI DUP1 PUSH4 0x715018A6 EQ PUSH2 0x183 JUMPI DUP1 PUSH4 0x8DA5CB5B EQ PUSH2 0x198 JUMPI DUP1 PUSH4 0x9C35D98B EQ PUSH2 0x1B6 JUMPI PUSH1 0x0 DUP1 REVERT JUMPDEST DUP1 PUSH4 0x737C24B EQ PUSH2 0xE2 JUMPI DUP1 PUSH4 0xEABAA5E EQ PUSH2 0x10A JUMPI DUP1 PUSH4 0x43046844 EQ PUSH2 0x120 JUMPI JUMPDEST PUSH1 0x0 DUP1 REVERT JUMPDEST CALLVALUE DUP1 ISZERO PUSH2 0xEE JUMPI PUSH1 0x0 DUP1 REVERT JUMPDEST POP PUSH2 0xF7 PUSH2 0x2FC JUMP JUMPDEST PUSH1 0x40 MLOAD SWAP1 DUP2 MSTORE PUSH1 0x20 ADD JUMPDEST PUSH1 0x40 MLOAD DUP1 SWAP2 SUB SWAP1 RETURN JUMPDEST CALLVALUE DUP1 ISZERO PUSH2 0x116 JUMPI PUSH1 0x0 DUP1 REVERT JUMPDEST POP PUSH2 0xF7 PUSH1 0xA SLOAD DUP2 JUMP JUMPDEST PUSH2 0x133 PUSH2 0x12E CALLDATASIZE PUSH1 0x4 PUSH2 0xA55 JUMP JUMPDEST PUSH2 0x329 JUMP JUMPDEST STOP JUMPDEST CALLVALUE DUP1 ISZERO PUSH2 0x141 JUMPI PUSH1 0x0 DUP1 REVERT JUMPDEST POP PUSH2 0x16B PUSH2 0x150 CALLDATASIZE PUSH1 0x4 PUSH2 0xA7D JUMP JUMPDEST PUSH1 0x4 PUSH1 0x20 MSTORE PUSH1 0x0 SWAP1 DUP2 MSTORE PUSH1 0x40 SWAP1 KECCAK256 SLOAD PUSH1 0x1 PUSH1 0x1 PUSH1 0xA0 SHL SUB AND DUP2 JUMP JUMPDEST PUSH1 0x40 MLOAD PUSH1 0x1 PUSH1 0x1 PUSH1 0xA0 SHL SUB SWAP1 SWAP2 AND DUP2 MSTORE PUSH1 0x20 ADD PUSH2 0x101 JUMP JUMPDEST CALLVALUE DUP1 ISZERO PUSH2 0x18F JUMPI PUSH1 0x0 DUP1 REVERT JUMPDEST POP PUSH2 0x133 PUSH2 0x4AA JUMP JUMPDEST CALLVALUE DUP1 ISZERO PUSH2 0x1A4 JUMPI PUSH1 0x0 DUP1 REVERT JUMPDEST POP PUSH1 0x0 SLOAD PUSH1 0x1 PUSH1 0x1 PUSH1 0xA0 SHL SUB AND PUSH2 0x16B JUMP JUMPDEST CALLVALUE DUP1 ISZERO PUSH2 0x1C2 JUMPI PUSH1 0x0 DUP1 REVERT JUMPDEST POP PUSH2 0x16B PUSH2 0x1D1 CALLDATASIZE PUSH1 0x4 PUSH2 0xA7D JUMP JUMPDEST PUSH2 0x4E0 JUMP JUMPDEST CALLVALUE DUP1 ISZERO PUSH2 0x1E2 JUMPI PUSH1 0x0 DUP1 REVERT JUMPDEST POP PUSH2 0x232 PUSH2 0x1F1 CALLDATASIZE PUSH1 0x4 PUSH2 0xA96 JUMP JUMPDEST PUSH1 0x2 PUSH1 0x20 DUP2 SWAP1 MSTORE PUSH1 0x0 SWAP2 DUP3 MSTORE PUSH1 0x40 SWAP1 SWAP2 KECCAK256 DUP1 SLOAD PUSH1 0x1 DUP3 ADD SLOAD SWAP2 SWAP1 SWAP3 ADD SLOAD PUSH1 0x1 PUSH1 0x1 PUSH1 0xA0 SHL SUB DUP4 AND SWAP3 PUSH1 0xFF PUSH1 0x1 PUSH1 0xA0 SHL DUP3 DIV DUP2 AND SWAP4 PUSH1 0x1 PUSH1 0xA8 SHL SWAP1 SWAP3 DIV AND SWAP2 DUP6 JUMP JUMPDEST PUSH1 0x40 MLOAD PUSH2 0x101 SWAP6 SWAP5 SWAP4 SWAP3 SWAP2 SWAP1 PUSH2 0xAF7 JUMP JUMPDEST CALLVALUE DUP1 ISZERO PUSH2 0x24F JUMPI PUSH1 0x0 DUP1 REVERT JUMPDEST POP PUSH2 0x133 PUSH2 0x25E CALLDATASIZE PUSH1 0x4 PUSH2 0xB30 JUMP JUMPDEST PUSH2 0x50A JUMP JUMPDEST CALLVALUE DUP1 ISZERO PUSH2 0x26F JUMPI PUSH1 0x0 DUP1 REVERT JUMPDEST POP PUSH2 0xF7 PUSH1 0x5 SLOAD DUP2 JUMP JUMPDEST CALLVALUE DUP1 ISZERO PUSH2 0x285 JUMPI PUSH1 0x0 DUP1 REVERT JUMPDEST POP PUSH1 0x3 SLOAD PUSH2 0x29A SWAP1 PUSH1 0x1 PUSH1 0xA0 SHL SWAP1 DIV PUSH1 0xFF AND DUP2 JUMP JUMPDEST PUSH1 0x40 MLOAD PUSH2 0x101 SWAP2 SWAP1 PUSH2 0xB53 JUMP JUMPDEST CALLVALUE DUP1 ISZERO PUSH2 0x2B3 JUMPI PUSH1 0x0 DUP1 REVERT JUMPDEST POP PUSH2 0x133 PUSH2 0x2C2 CALLDATASIZE PUSH1 0x4 PUSH2 0xA96 JUMP JUMPDEST PUSH2 0x53C JUMP JUMPDEST CALLVALUE DUP1 ISZERO PUSH2 0x2D3 JUMPI PUSH1 0x0 DUP1 REVERT JUMPDEST POP PUSH2 0x133 PUSH2 0x5D7 JUMP JUMPDEST CALLVALUE DUP1 ISZERO PUSH2 0x2E8 JUMPI PUSH1 0x0 DUP1 REVERT JUMPDEST POP PUSH1 0x3 SLOAD PUSH2 0x16B SWAP1 PUSH1 0x1 PUSH1 0x1 PUSH1 0xA0 SHL SUB AND DUP2 JUMP JUMPDEST PUSH1 0x3 SLOAD PUSH1 0x0 SWAP1 PUSH1 0x64 SWAP1 PUSH2 0x31A SWAP1 PUSH1 0x1 PUSH1 0x1 PUSH1 0xA0 SHL SUB AND BALANCE PUSH1 0x63 PUSH2 0xB7D JUMP JUMPDEST PUSH2 0x324 SWAP2 SWAP1 PUSH2 0xB9C JUMP JUMPDEST SWAP1 POP SWAP1 JUMP JUMPDEST CALLER PUSH1 0x0 SWAP1 DUP2 MSTORE PUSH1 0x2 PUSH1 0x20 MSTORE PUSH1 0x40 SWAP1 KECCAK256 SLOAD PUSH1 0x1 PUSH1 0xA8 SHL SWAP1 DIV PUSH1 0xFF AND ISZERO PUSH2 0x38D JUMPI PUSH1 0x40 MLOAD PUSH3 0x461BCD PUSH1 0xE5 SHL DUP2 MSTORE PUSH1 0x20 PUSH1 0x4 DUP3 ADD MSTORE PUSH1 0x15 PUSH1 0x24 DUP3 ADD MSTORE PUSH21 0x557365722068617320616C72656164792062657421 PUSH1 0x58 SHL PUSH1 0x44 DUP3 ADD MSTORE PUSH1 0x64 ADD JUMPDEST PUSH1 0x40 MLOAD DUP1 SWAP2 SUB SWAP1 REVERT JUMPDEST PUSH1 0x0 PUSH1 0x40 MLOAD DUP1 PUSH1 0xA0 ADD PUSH1 0x40 MSTORE DUP1 CALLER PUSH1 0x1 PUSH1 0x1 PUSH1 0xA0 SHL SUB AND DUP2 MSTORE PUSH1 0x20 ADD DUP4 PUSH1 0x6 DUP2 GT ISZERO PUSH2 0x3BB JUMPI PUSH2 0x3BB PUSH2 0xABF JUMP JUMPDEST DUP2 MSTORE PUSH1 0x1 PUSH1 0x20 DUP1 DUP4 ADD DUP3 SWAP1 MSTORE CALLVALUE PUSH1 0x40 DUP1 DUP6 ADD SWAP2 SWAP1 SWAP2 MSTORE PUSH1 0x0 PUSH1 0x60 SWAP1 SWAP5 ADD DUP5 SWAP1 MSTORE DUP3 SLOAD DUP1 DUP5 ADD SWAP1 SWAP4 SSTORE PUSH32 0xB10E2D527612073B26EECDFD717E6A320CF44B4AFAC2B0732D9FCBE2B7FA0CF6 SWAP1 SWAP3 ADD DUP1 SLOAD PUSH1 0x1 PUSH1 0x1 PUSH1 0xA0 SHL SUB NOT SWAP1 DUP2 AND CALLER SWAP1 DUP2 OR SWAP1 SWAP3 SSTORE SWAP1 DUP5 MSTORE PUSH1 0x2 DUP3 MSTORE SWAP2 SWAP1 SWAP3 KECCAK256 DUP4 MLOAD DUP2 SLOAD PUSH1 0x1 PUSH1 0x1 PUSH1 0xA0 SHL SUB SWAP2 SWAP1 SWAP2 AND SWAP3 DUP2 AND DUP4 OR DUP3 SSTORE SWAP3 DUP5 ADD MLOAD SWAP4 SWAP5 POP DUP5 SWAP4 SWAP1 SWAP3 SWAP1 SWAP2 DUP4 SWAP2 PUSH1 0x1 PUSH1 0x1 PUSH1 0xA8 SHL SUB NOT AND OR PUSH1 0x1 PUSH1 0xA0 SHL DUP4 PUSH1 0x6 DUP2 GT ISZERO PUSH2 0x46F JUMPI PUSH2 0x46F PUSH2 0xABF JUMP JUMPDEST MUL OR SWAP1 SSTORE POP PUSH1 0x40 DUP3 ADD MLOAD DUP2 SLOAD SWAP1 ISZERO ISZERO PUSH1 0x1 PUSH1 0xA8 SHL MUL PUSH1 0xFF PUSH1 0xA8 SHL NOT SWAP1 SWAP2 AND OR DUP2 SSTORE PUSH1 0x60 DUP3 ADD MLOAD PUSH1 0x1 DUP3 ADD SSTORE PUSH1 0x80 SWAP1 SWAP2 ADD MLOAD PUSH1 0x2 SWAP1 SWAP2 ADD SSTORE POP POP JUMP JUMPDEST PUSH1 0x0 SLOAD PUSH1 0x1 PUSH1 0x1 PUSH1 0xA0 SHL SUB AND CALLER EQ PUSH2 0x4D4 JUMPI PUSH1 0x40 MLOAD PUSH3 0x461BCD PUSH1 0xE5 SHL DUP2 MSTORE PUSH1 0x4 ADD PUSH2 0x384 SWAP1 PUSH2 0xBBE JUMP JUMPDEST PUSH2 0x4DE PUSH1 0x0 PUSH2 0x609 JUMP JUMPDEST JUMP JUMPDEST PUSH1 0x1 DUP2 DUP2 SLOAD DUP2 LT PUSH2 0x4F0 JUMPI PUSH1 0x0 DUP1 REVERT JUMPDEST PUSH1 0x0 SWAP2 DUP3 MSTORE PUSH1 0x20 SWAP1 SWAP2 KECCAK256 ADD SLOAD PUSH1 0x1 PUSH1 0x1 PUSH1 0xA0 SHL SUB AND SWAP1 POP DUP2 JUMP JUMPDEST PUSH1 0x0 SLOAD PUSH1 0x1 PUSH1 0x1 PUSH1 0xA0 SHL SUB AND CALLER EQ PUSH2 0x534 JUMPI PUSH1 0x40 MLOAD PUSH3 0x461BCD PUSH1 0xE5 SHL DUP2 MSTORE PUSH1 0x4 ADD PUSH2 0x384 SWAP1 PUSH2 0xBBE JUMP JUMPDEST PUSH1 0xFF AND PUSH1 0xA SSTORE JUMP JUMPDEST PUSH1 0x0 SLOAD PUSH1 0x1 PUSH1 0x1 PUSH1 0xA0 SHL SUB AND CALLER EQ PUSH2 0x566 JUMPI PUSH1 0x40 MLOAD PUSH3 0x461BCD PUSH1 0xE5 SHL DUP2 MSTORE PUSH1 0x4 ADD PUSH2 0x384 SWAP1 PUSH2 0xBBE JUMP JUMPDEST PUSH1 0x1 PUSH1 0x1 PUSH1 0xA0 SHL SUB DUP2 AND PUSH2 0x5CB JUMPI PUSH1 0x40 MLOAD PUSH3 0x461BCD PUSH1 0xE5 SHL DUP2 MSTORE PUSH1 0x20 PUSH1 0x4 DUP3 ADD MSTORE PUSH1 0x26 PUSH1 0x24 DUP3 ADD MSTORE PUSH32 0x4F776E61626C653A206E6577206F776E657220697320746865207A65726F2061 PUSH1 0x44 DUP3 ADD MSTORE PUSH6 0x646472657373 PUSH1 0xD0 SHL PUSH1 0x64 DUP3 ADD MSTORE PUSH1 0x84 ADD PUSH2 0x384 JUMP JUMPDEST PUSH2 0x5D4 DUP2 PUSH2 0x609 JUMP JUMPDEST POP JUMP JUMPDEST PUSH1 0x0 SLOAD PUSH1 0x1 PUSH1 0x1 PUSH1 0xA0 SHL SUB AND CALLER EQ PUSH2 0x601 JUMPI PUSH1 0x40 MLOAD PUSH3 0x461BCD PUSH1 0xE5 SHL DUP2 MSTORE PUSH1 0x4 ADD PUSH2 0x384 SWAP1 PUSH2 0xBBE JUMP JUMPDEST PUSH2 0x4DE PUSH2 0x659 JUMP JUMPDEST PUSH1 0x0 DUP1 SLOAD PUSH1 0x1 PUSH1 0x1 PUSH1 0xA0 SHL SUB DUP4 DUP2 AND PUSH1 0x1 PUSH1 0x1 PUSH1 0xA0 SHL SUB NOT DUP4 AND DUP2 OR DUP5 SSTORE PUSH1 0x40 MLOAD SWAP2 SWAP1 SWAP3 AND SWAP3 DUP4 SWAP2 PUSH32 0x8BE0079C531659141344CD1FD0A4F28419497F9722A3DAAFE3B4186F6B6457E0 SWAP2 SWAP1 LOG3 POP POP JUMP JUMPDEST PUSH2 0x661 PUSH2 0x73F JUMP JUMPDEST PUSH1 0x0 PUSH1 0x5 SLOAD GT PUSH2 0x6AB JUMPI PUSH1 0x40 MLOAD PUSH3 0x461BCD PUSH1 0xE5 SHL DUP2 MSTORE PUSH1 0x20 PUSH1 0x4 DUP3 ADD MSTORE PUSH1 0x15 PUSH1 0x24 DUP3 ADD MSTORE PUSH21 0x139BC81DDA5B9B995C9CC81D1A1A5CC81C9BDD5B99 PUSH1 0x5A SHL PUSH1 0x44 DUP3 ADD MSTORE PUSH1 0x64 ADD PUSH2 0x384 JUMP JUMPDEST PUSH1 0x0 PUSH2 0x6B5 PUSH2 0x2FC JUMP JUMPDEST SWAP1 POP PUSH1 0x0 JUMPDEST PUSH1 0x5 SLOAD DUP2 LT ISZERO PUSH2 0x73B JUMPI PUSH1 0x0 DUP2 DUP2 MSTORE PUSH1 0x4 PUSH1 0x20 SWAP1 DUP2 MSTORE PUSH1 0x40 DUP1 DUP4 KECCAK256 SLOAD PUSH1 0x1 PUSH1 0x1 PUSH1 0xA0 SHL SUB AND DUP4 MSTORE PUSH1 0x2 SWAP2 DUP3 SWAP1 MSTORE DUP3 KECCAK256 ADD SLOAD PUSH1 0x64 SWAP1 PUSH2 0x6F9 SWAP1 DUP6 SWAP1 PUSH2 0xB7D JUMP JUMPDEST PUSH2 0x703 SWAP2 SWAP1 PUSH2 0xB9C JUMP JUMPDEST PUSH1 0x0 DUP4 DUP2 MSTORE PUSH1 0x4 PUSH1 0x20 MSTORE PUSH1 0x40 SWAP1 KECCAK256 SLOAD SWAP1 SWAP2 POP PUSH2 0x728 SWAP1 PUSH1 0x1 PUSH1 0x1 PUSH1 0xA0 SHL SUB AND DUP3 PUSH2 0x937 JUMP JUMPDEST POP DUP1 PUSH2 0x733 DUP2 PUSH2 0xBF3 JUMP JUMPDEST SWAP2 POP POP PUSH2 0x6BA JUMP JUMPDEST POP POP JUMP JUMPDEST PUSH1 0x0 PUSH1 0x5 DUP2 SWAP1 SSTORE PUSH1 0xA SLOAD PUSH2 0x752 SWAP1 PUSH2 0xA19 JUMP JUMPDEST PUSH1 0x0 JUMPDEST PUSH1 0x1 SLOAD DUP2 LT ISZERO PUSH2 0x8B0 JUMPI PUSH1 0x3 SLOAD PUSH1 0x1 PUSH1 0xA0 SHL SWAP1 DIV PUSH1 0xFF AND PUSH1 0x6 DUP2 GT ISZERO PUSH2 0x77D JUMPI PUSH2 0x77D PUSH2 0xABF JUMP JUMPDEST PUSH1 0x2 PUSH1 0x0 PUSH1 0x1 DUP5 DUP2 SLOAD DUP2 LT PUSH2 0x794 JUMPI PUSH2 0x794 PUSH2 0xC0E JUMP JUMPDEST PUSH1 0x0 SWAP2 DUP3 MSTORE PUSH1 0x20 DUP1 DUP4 KECCAK256 SWAP1 SWAP2 ADD SLOAD PUSH1 0x1 PUSH1 0x1 PUSH1 0xA0 SHL SUB AND DUP4 MSTORE DUP3 ADD SWAP3 SWAP1 SWAP3 MSTORE PUSH1 0x40 ADD SWAP1 KECCAK256 SLOAD PUSH1 0xFF PUSH1 0x1 PUSH1 0xA0 SHL SWAP1 SWAP2 DIV AND PUSH1 0x6 DUP2 GT ISZERO PUSH2 0x7D5 JUMPI PUSH2 0x7D5 PUSH2 0xABF JUMP JUMPDEST EQ ISZERO PUSH2 0x89E JUMPI PUSH1 0x2 PUSH1 0x0 PUSH1 0x1 DUP4 DUP2 SLOAD DUP2 LT PUSH2 0x7F2 JUMPI PUSH2 0x7F2 PUSH2 0xC0E JUMP JUMPDEST PUSH1 0x0 SWAP2 DUP3 MSTORE PUSH1 0x20 DUP1 DUP4 KECCAK256 SWAP1 SWAP2 ADD SLOAD PUSH1 0x1 PUSH1 0x1 PUSH1 0xA0 SHL SUB AND DUP4 MSTORE DUP3 ADD SWAP3 SWAP1 SWAP3 MSTORE PUSH1 0x40 ADD SWAP1 KECCAK256 PUSH1 0x1 ADD SLOAD PUSH2 0x824 SWAP1 DUP4 PUSH2 0xC24 JUMP JUMPDEST SWAP2 POP PUSH1 0x2 PUSH1 0x0 PUSH1 0x1 DUP4 DUP2 SLOAD DUP2 LT PUSH2 0x83D JUMPI PUSH2 0x83D PUSH2 0xC0E JUMP JUMPDEST PUSH1 0x0 SWAP2 DUP3 MSTORE PUSH1 0x20 DUP1 DUP4 KECCAK256 SWAP1 SWAP2 ADD SLOAD PUSH1 0x1 PUSH1 0x1 PUSH1 0xA0 SHL SUB SWAP1 DUP2 AND DUP5 MSTORE DUP4 DUP3 ADD SWAP5 SWAP1 SWAP5 MSTORE PUSH1 0x40 SWAP3 DUP4 ADD DUP3 KECCAK256 SLOAD PUSH1 0x5 DUP1 SLOAD DUP5 MSTORE PUSH1 0x4 SWAP1 SWAP3 MSTORE SWAP3 DUP3 KECCAK256 DUP1 SLOAD PUSH1 0x1 PUSH1 0x1 PUSH1 0xA0 SHL SUB NOT AND SWAP4 SWAP1 SWAP5 AND SWAP3 SWAP1 SWAP3 OR SWAP1 SWAP3 SSTORE DUP1 SLOAD SWAP2 PUSH2 0x898 DUP4 PUSH2 0xBF3 JUMP JUMPDEST SWAP2 SWAP1 POP SSTORE POP JUMPDEST DUP1 PUSH2 0x8A8 DUP2 PUSH2 0xBF3 JUMP JUMPDEST SWAP2 POP POP PUSH2 0x755 JUMP JUMPDEST POP PUSH1 0x0 JUMPDEST PUSH1 0x5 SLOAD DUP2 LT ISZERO PUSH2 0x73B JUMPI PUSH1 0x0 DUP2 DUP2 MSTORE PUSH1 0x4 PUSH1 0x20 SWAP1 DUP2 MSTORE PUSH1 0x40 DUP1 DUP4 KECCAK256 SLOAD PUSH1 0x1 PUSH1 0x1 PUSH1 0xA0 SHL SUB AND DUP4 MSTORE PUSH1 0x2 SWAP1 SWAP2 MSTORE SWAP1 KECCAK256 PUSH1 0x1 ADD SLOAD DUP3 SWAP1 PUSH2 0x8F3 SWAP1 PUSH1 0x64 PUSH2 0xB7D JUMP JUMPDEST PUSH2 0x8FD SWAP2 SWAP1 PUSH2 0xB9C JUMP JUMPDEST PUSH1 0x0 DUP3 DUP2 MSTORE PUSH1 0x4 PUSH1 0x20 SWAP1 DUP2 MSTORE PUSH1 0x40 DUP1 DUP4 KECCAK256 SLOAD PUSH1 0x1 PUSH1 0x1 PUSH1 0xA0 SHL SUB AND DUP4 MSTORE PUSH1 0x2 SWAP2 DUP3 SWAP1 MSTORE SWAP1 SWAP2 KECCAK256 ADD SSTORE DUP1 PUSH2 0x92F DUP2 PUSH2 0xBF3 JUMP JUMPDEST SWAP2 POP POP PUSH2 0x8B4 JUMP JUMPDEST PUSH1 0x0 DUP3 PUSH1 0x1 PUSH1 0x1 PUSH1 0xA0 SHL SUB AND DUP3 PUSH1 0x40 MLOAD PUSH1 0x0 PUSH1 0x40 MLOAD DUP1 DUP4 SUB DUP2 DUP6 DUP8 GAS CALL SWAP3 POP POP POP RETURNDATASIZE DUP1 PUSH1 0x0 DUP2 EQ PUSH2 0x984 JUMPI PUSH1 0x40 MLOAD SWAP2 POP PUSH1 0x1F NOT PUSH1 0x3F RETURNDATASIZE ADD AND DUP3 ADD PUSH1 0x40 MSTORE RETURNDATASIZE DUP3 MSTORE RETURNDATASIZE PUSH1 0x0 PUSH1 0x20 DUP5 ADD RETURNDATACOPY PUSH2 0x989 JUMP JUMPDEST PUSH1 0x60 SWAP2 POP JUMPDEST POP POP SWAP1 POP DUP1 PUSH2 0x9D1 JUMPI PUSH1 0x40 MLOAD PUSH3 0x461BCD PUSH1 0xE5 SHL DUP2 MSTORE PUSH1 0x20 PUSH1 0x4 DUP3 ADD MSTORE PUSH1 0x14 PUSH1 0x24 DUP3 ADD MSTORE PUSH20 0x2330B4B632B2103A37903830BC903BB4B73732B9 PUSH1 0x61 SHL PUSH1 0x44 DUP3 ADD MSTORE PUSH1 0x64 ADD PUSH2 0x384 JUMP JUMPDEST DUP3 PUSH1 0x1 PUSH1 0x1 PUSH1 0xA0 SHL SUB AND PUSH32 0x2897E467188C1EBBD157F72E82B2059710AEA0DF2BA4B6075E47E305087BBFFE DUP4 PUSH1 0x40 MLOAD PUSH2 0xA0C SWAP2 DUP2 MSTORE PUSH1 0x20 ADD SWAP1 JUMP JUMPDEST PUSH1 0x40 MLOAD DUP1 SWAP2 SUB SWAP1 LOG2 POP POP POP JUMP JUMPDEST DUP1 PUSH1 0x6 DUP2 GT ISZERO PUSH2 0xA2B JUMPI PUSH2 0xA2B PUSH2 0xABF JUMP JUMPDEST PUSH1 0x3 DUP1 SLOAD PUSH1 0xFF PUSH1 0xA0 SHL NOT AND PUSH1 0x1 PUSH1 0xA0 SHL DUP4 PUSH1 0x6 DUP2 GT ISZERO PUSH2 0xA4D JUMPI PUSH2 0xA4D PUSH2 0xABF JUMP JUMPDEST MUL OR SWAP1 SSTORE POP POP JUMP JUMPDEST PUSH1 0x0 PUSH1 0x20 DUP3 DUP5 SUB SLT ISZERO PUSH2 0xA67 JUMPI PUSH1 0x0 DUP1 REVERT JUMPDEST DUP2 CALLDATALOAD PUSH1 0x7 DUP2 LT PUSH2 0xA76 JUMPI PUSH1 0x0 DUP1 REVERT JUMPDEST SWAP4 SWAP3 POP POP POP JUMP JUMPDEST PUSH1 0x0 PUSH1 0x20 DUP3 DUP5 SUB SLT ISZERO PUSH2 0xA8F JUMPI PUSH1 0x0 DUP1 REVERT JUMPDEST POP CALLDATALOAD SWAP2 SWAP1 POP JUMP JUMPDEST PUSH1 0x0 PUSH1 0x20 DUP3 DUP5 SUB SLT ISZERO PUSH2 0xAA8 JUMPI PUSH1 0x0 DUP1 REVERT JUMPDEST DUP2 CALLDATALOAD PUSH1 0x1 PUSH1 0x1 PUSH1 0xA0 SHL SUB DUP2 AND DUP2 EQ PUSH2 0xA76 JUMPI PUSH1 0x0 DUP1 REVERT JUMPDEST PUSH4 0x4E487B71 PUSH1 0xE0 SHL PUSH1 0x0 MSTORE PUSH1 0x21 PUSH1 0x4 MSTORE PUSH1 0x24 PUSH1 0x0 REVERT JUMPDEST PUSH1 0x7 DUP2 LT PUSH2 0xAF3 JUMPI PUSH4 0x4E487B71 PUSH1 0xE0 SHL PUSH1 0x0 MSTORE PUSH1 0x21 PUSH1 0x4 MSTORE PUSH1 0x24 PUSH1 0x0 REVERT JUMPDEST SWAP1 MSTORE JUMP JUMPDEST PUSH1 0x1 PUSH1 0x1 PUSH1 0xA0 SHL SUB DUP7 AND DUP2 MSTORE PUSH1 0xA0 DUP2 ADD PUSH2 0xB14 PUSH1 0x20 DUP4 ADD DUP8 PUSH2 0xAD5 JUMP JUMPDEST SWAP4 ISZERO ISZERO PUSH1 0x40 DUP3 ADD MSTORE PUSH1 0x60 DUP2 ADD SWAP3 SWAP1 SWAP3 MSTORE PUSH1 0x80 SWAP1 SWAP2 ADD MSTORE SWAP3 SWAP2 POP POP JUMP JUMPDEST PUSH1 0x0 PUSH1 0x20 DUP3 DUP5 SUB SLT ISZERO PUSH2 0xB42 JUMPI PUSH1 0x0 DUP1 REVERT JUMPDEST DUP2 CALLDATALOAD PUSH1 0xFF DUP2 AND DUP2 EQ PUSH2 0xA76 JUMPI PUSH1 0x0 DUP1 REVERT JUMPDEST PUSH1 0x20 DUP2 ADD PUSH2 0xB61 DUP3 DUP5 PUSH2 0xAD5 JUMP JUMPDEST SWAP3 SWAP2 POP POP JUMP JUMPDEST PUSH4 0x4E487B71 PUSH1 0xE0 SHL PUSH1 0x0 MSTORE PUSH1 0x11 PUSH1 0x4 MSTORE PUSH1 0x24 PUSH1 0x0 REVERT JUMPDEST PUSH1 0x0 DUP2 PUSH1 0x0 NOT DIV DUP4 GT DUP3 ISZERO ISZERO AND ISZERO PUSH2 0xB97 JUMPI PUSH2 0xB97 PUSH2 0xB67 JUMP JUMPDEST POP MUL SWAP1 JUMP JUMPDEST PUSH1 0x0 DUP3 PUSH2 0xBB9 JUMPI PUSH4 0x4E487B71 PUSH1 0xE0 SHL PUSH1 0x0 MSTORE PUSH1 0x12 PUSH1 0x4 MSTORE PUSH1 0x24 PUSH1 0x0 REVERT JUMPDEST POP DIV SWAP1 JUMP JUMPDEST PUSH1 0x20 DUP1 DUP3 MSTORE DUP2 DUP2 ADD MSTORE PUSH32 0x4F776E61626C653A2063616C6C6572206973206E6F7420746865206F776E6572 PUSH1 0x40 DUP3 ADD MSTORE PUSH1 0x60 ADD SWAP1 JUMP JUMPDEST PUSH1 0x0 PUSH1 0x0 NOT DUP3 EQ ISZERO PUSH2 0xC07 JUMPI PUSH2 0xC07 PUSH2 0xB67 JUMP JUMPDEST POP PUSH1 0x1 ADD SWAP1 JUMP JUMPDEST PUSH4 0x4E487B71 PUSH1 0xE0 SHL PUSH1 0x0 MSTORE PUSH1 0x32 PUSH1 0x4 MSTORE PUSH1 0x24 PUSH1 0x0 REVERT JUMPDEST PUSH1 0x0 DUP3 NOT DUP3 GT ISZERO PUSH2 0xC37 JUMPI PUSH2 0xC37 PUSH2 0xB67 JUMP JUMPDEST POP ADD SWAP1 JUMP INVALID LOG2 PUSH5 0x6970667358 0x22 SLT KECCAK256 0xD0 0xEE 0xE6 PUSH31 0x6232A66F9B1D9EEE30AAC612605DB84C977CD673F6BAB92BDEDB90D664736F PUSH13 0x634300080A0033000000000000 ","sha1":"1eb80a2ad7a1763cba3f9ed30ae385110c12e44b","source":"//SPDX-License-Identifier: Apache-2.0\npragma solidity ^0.8.7;\n\n//import \"./User.sol\";\n//import \"./BetStatus.sol\";\nimport \"@openzeppelin/contracts/access/Ownable.sol\";\n\ncontract Betting is Ownable {\n    enum Bet{EMPTY, ASKR, EMBLA,NIFL,MUSPELL,FAIRY,MECHA}\n    struct User {\n        address id;\n        Bet bet;\n        bool hasBet;\n        uint256 amountBet;\n        uint256 winningPercentage;  \n    }\n    address[] public Voters;\n    mapping(address => User) public users; \n    address payable public contractAddress;\n    Bet public finalResultIs;\n    mapping(uint => address) public Winners;\n    uint public winnerCount;\n    User resetUser; \n    address nulladdress;\n    event WinnerPayed(address indexed winner, uint256 amount);\n    uint public resplendent;\n\n\n    constructor() public{\n        contractAddress = payable(address(this));\n        resplendent =1;\n        finalResultIs = Bet.EMPTY;\n        winnerCount = 0;\n        nulladdress = 0x0000000000000000000000000000000000000000;\n        resetUser = User(nulladdress,Bet(0), false, 0,0);        \n    }\n    \n    function placeBet(Bet _bet) public payable{\n        require(!users[msg.sender].hasBet, \"User has already bet!\");\n        \n        User memory user = User(msg.sender,_bet,true,msg.value, 0);\n        Voters.push(msg.sender);\n        users[msg.sender] = user;\n    }\n    \n    function getPrizeMoney() public view returns(uint256){\n        return(contractAddress.balance * 99)/100; //Contract collects a 1% fee\n    }\n    \n    function setFinalResult(uint _resplendent) private {\n        finalResultIs = Bet(_resplendent);\n    }\n\n    function sortPlayersByBetsAndGetWinners() private {\n        uint256 totalAmountBetByWinners = 0;\n        winnerCount = 0;\n        setFinalResult(resplendent);\n        \n\n        for(uint256 i =0; i < Voters.length; i++){\n            if(users[Voters[i]].bet == finalResultIs){\n                totalAmountBetByWinners =totalAmountBetByWinners+ users[Voters[i]].amountBet;\n                Winners[winnerCount] = users[Voters[i]].id;\n                winnerCount++;\n            }\n        }\n        for (uint256 j = 0; j < winnerCount; j++) {    \n            users[Winners[j]].winningPercentage = (users[Winners[j]].amountBet*100) / totalAmountBetByWinners;\n        }\n    }\n\n    function getResplendentValue(uint8 _num) public onlyOwner {\n        resplendent = _num;\n    }\n    \n    function payWinners() private {\n        require(contractAddress.balance >= 0 wei, \"No bets placed\");\n        sortPlayersByBetsAndGetWinners();\n        require(winnerCount > 0, \"No winners this round\");\n        uint256 prizemoney = getPrizeMoney();\n\n        for (uint256 i = 0; i < winnerCount; i++) {\n            uint256 amountForWinner = (users[Winners[i]].winningPercentage * prizemoney)/100;\n            payout(payable(Winners[i]),amountForWinner);\n        }\n    }    \n    \n    function payout(address payable _to, uint256 _amount) private {\n        (bool success,) = _to.call{value:_amount}(\"\");\n        require(success, \"Failed to pay winner\");\n        emit WinnerPayed(_to, _amount);\n    }\n    \n    function CleanWinnningMapping() private{\n        for (uint i = 0; i < winnerCount; i++){\n            Winners[i] = nulladdress;\n        }\n\n        winnerCount = 0;\n\n        for(uint j = 0; j < Voters.length; j++)\n        {\n            users[Voters[j]] = resetUser;\n        }\n\n        delete Voters;\n    }\n\n    function finalResult() public onlyOwner {\n        payWinners();\n        //CleanWinnningMapping();\n    }\n    \n}\n","sourcePath":"contracts/Bet.sol","type":"contract","deployment":{"address":"0x0c9d88C5cadF54F7c8bEeA0A757B67BA65C8a351","chainid":"42","blockHeight":28864999}}