{
  "abi": [
    {
      "inputs": [],
      "stateMutability": "nonpayable",
      "type": "constructor"
    },
    {
      "anonymous": false,
      "inputs": [
        {
          "indexed": true,
          "internalType": "bytes32",
          "name": "id",
          "type": "bytes32"
        }
      ],
      "name": "ChainlinkCancelled",
      "type": "event"
    },
    {
      "anonymous": false,
      "inputs": [
        {
          "indexed": true,
          "internalType": "bytes32",
          "name": "id",
          "type": "bytes32"
        }
      ],
      "name": "ChainlinkFulfilled",
      "type": "event"
    },
    {
      "anonymous": false,
      "inputs": [
        {
          "indexed": true,
          "internalType": "bytes32",
          "name": "id",
          "type": "bytes32"
        }
      ],
      "name": "ChainlinkRequested",
      "type": "event"
    },
    {
      "inputs": [],
      "name": "api_data",
      "outputs": [
        {
          "internalType": "bytes32",
          "name": "",
          "type": "bytes32"
        }
      ],
      "stateMutability": "view",
      "type": "function"
    },
    {
      "inputs": [
        {
          "internalType": "bytes32",
          "name": "_bytes32",
          "type": "bytes32"
        }
      ],
      "name": "bytes32ToString",
      "outputs": [
        {
          "internalType": "string",
          "name": "",
          "type": "string"
        }
      ],
      "stateMutability": "pure",
      "type": "function"
    },
    {
      "inputs": [
        {
          "internalType": "bytes32",
          "name": "_requestId",
          "type": "bytes32"
        },
        {
          "internalType": "bytes32",
          "name": "_api_data",
          "type": "bytes32"
        }
      ],
      "name": "fulfill",
      "outputs": [],
      "stateMutability": "nonpayable",
      "type": "function"
    },
    {
      "inputs": [
        {
          "internalType": "address",
          "name": "callBackContract",
          "type": "address"
        },
        {
          "internalType": "bytes4",
          "name": "functionSelector",
          "type": "bytes4"
        }
      ],
      "name": "requestData",
      "outputs": [
        {
          "internalType": "bytes32",
          "name": "requestId",
          "type": "bytes32"
        }
      ],
      "stateMutability": "nonpayable",
      "type": "function"
    },
    {
      "inputs": [
        {
          "internalType": "string",
          "name": "_str",
          "type": "string"
        }
      ],
      "name": "strToUint",
      "outputs": [
        {
          "internalType": "uint256",
          "name": "res",
          "type": "uint256"
        },
        {
          "internalType": "bool",
          "name": "err",
          "type": "bool"
        }
      ],
      "stateMutability": "pure",
      "type": "function"
    }
  ],
  "bytecode": "6080604052600160045534801561001557600080fd5b5061001e610079565b600780546001600160a01b031916733a56ae4a2831c3d3514b5d7af5578e45ebdb7a401790557f326538633662363866663036346433326166396231303139643564353962616460085567016345785d8a0000600955610146565b61011473c89bd4e1632d3a43cb03aaad5262cbe4038bc5716001600160a01b03166338cc48316040518163ffffffff1660e01b8152600401602060405180830381865afa1580156100ce573d6000803e3d6000fd5b505050506040513d601f19601f820116820180604052508101906100f29190610116565b600280546001600160a01b0319166001600160a01b0392909216919091179055565b565b60006020828403121561012857600080fd5b81516001600160a01b038116811461013f57600080fd5b9392505050565b611027806101556000396000f3fe608060405234801561001057600080fd5b50600436106100575760003560e01c8063042f2b651461005c57806365ff1329146100715780639201de5514610097578063c5ef3ec5146100b7578063dd151ec7146100df575b600080fd5b61006f61006a366004610b62565b6100e8565b005b61008461007f366004610b84565b6101b0565b6040519081526020015b60405180910390f35b6100aa6100a5366004610bd6565b61027b565b60405161008e9190610c3c565b6100ca6100c5366004610c65565b6103b2565b6040805192835290151560208301520161008e565b61008460065481565b60008281526005602052604090205482906001600160a01b031633146101665760405162461bcd60e51b815260206004820152602860248201527f536f75726365206d75737420626520746865206f7261636c65206f6620746865604482015267081c995c5d595cdd60c21b60648201526084015b60405180910390fd5b60008181526005602052604080822080546001600160a01b03191690555182917f7cc135e0cebb02c3480ae5d74d377283180a2601f8f644edf7987b009316c63a91a25060065550565b6000806101c060085485856104b1565b90506102026040518060400160405280600381526020016219d95d60ea1b815250604051806080016040528060438152602001610faf604391398391906104d6565b610256604051806040016040528060048152602001630e0c2e8d60e31b8152506040518060400160405280600b81526020016a0e4cac2d8dabed2dcc8caf60ab1b815250836104d69092919063ffffffff16565b600754600954610271916001600160a01b03169083906104f9565b9150505b92915050565b606060005b60208160ff161080156102b45750828160ff16602081106102a3576102a3610d16565b1a60f81b6001600160f81b03191615155b156102cb57806102c381610d42565b915050610280565b60008160ff1667ffffffffffffffff8111156102e9576102e9610c4f565b6040519080825280601f01601f191660200182016040528015610313576020820181803683370190505b509050600091505b60208260ff1610801561034f5750838260ff166020811061033e5761033e610d16565b1a60f81b6001600160f81b03191615155b156103ab57838260ff166020811061036957610369610d16565b1a60f81b818360ff168151811061038257610382610d16565b60200101906001600160f81b031916908160001a905350816103a381610d42565b92505061031b565b9392505050565b60008060005b83518110156104a657600060308583815181106103d7576103d7610d16565b01602001516103e9919060f81c610d61565b60ff16108061042057506009603085838151811061040957610409610d16565b016020015161041b919060f81c610d61565b60ff16115b156104315750600093849350915050565b60018185516104409190610d84565b61044a9190610d84565b61045590600a610e7f565b603085838151811061046957610469610d16565b016020015161047b919060f81c610d61565b60ff166104889190610e8b565b6104929084610eaa565b92508061049e81610ec2565b9150506103b8565b509092600192509050565b6104b9610b27565b6104c1610b27565b6104cd8186868661058c565b95945050505050565b60808301516104e590836105d2565b60808301516104f490826105d2565b505050565b60045460009061050a816001610eaa565b600455835160408086015160808701515191516000936320214ca360e11b936105429386938493923092918a91600191602401610edb565b60408051601f198184030181529190526020810180516001600160e01b03166001600160e01b0319909316929092179091529050610582868386846105e9565b9695505050505050565b610594610b27565b6105a48560800151610100610747565b50508284526001600160a01b03821660208501526001600160e01b031981166040850152835b949350505050565b6105df82600383516107ac565b6104f482826108c1565b6040516bffffffffffffffffffffffff193060601b1660208201526034810184905260009060540160408051808303601f1901815282825280516020918201206000818152600590925291812080546001600160a01b0319166001600160a01b038a1617905590925082917fb5e6e01e79f91267dc17b4e6314d5d4d03593d2ceee0fbb452b750bd70ea5af99190a2600254604051630200057560e51b81526001600160a01b0390911690634000aea0906106ac90889087908790600401610f43565b6020604051808303816000875af11580156106cb573d6000803e3d6000fd5b505050506040513d601f19601f820116820180604052508101906106ef9190610f6a565b6105ca5760405162461bcd60e51b815260206004820152602360248201527f756e61626c6520746f207472616e73666572416e6443616c6c20746f206f7261604482015262636c6560e81b606482015260840161015d565b604080518082019091526060815260006020820152610767602083610f8c565b1561078f57610777602083610f8c565b610782906020610d84565b61078c9083610eaa565b91505b506020828101829052604080518085526000815290920101905290565b60178167ffffffffffffffff16116107d7576107d18360e0600585901b1683176108e8565b50505050565b60ff8167ffffffffffffffff1611610815576107fe836018611fe0600586901b16176108e8565b506107d18367ffffffffffffffff8316600161090d565b61ffff8167ffffffffffffffff16116108545761083d836019611fe0600586901b16176108e8565b506107d18367ffffffffffffffff8316600261090d565b63ffffffff8167ffffffffffffffff16116108955761087e83601a611fe0600586901b16176108e8565b506107d18367ffffffffffffffff8316600461090d565b6108aa83601b611fe0600586901b16176108e8565b506107d18367ffffffffffffffff8316600861090d565b6040805180820190915260608152600060208201526103ab83846000015151848551610933565b6040805180820190915260608152600060208201526103ab8384600001515184610a1d565b6040805180820190915260608152600060208201526105ca848560000151518585610a78565b604080518082019091526060815260006020820152825182111561095657600080fd5b60208501516109658386610eaa565b11156109985761099885610988876020015187866109839190610eaa565b610af9565b610993906002610e8b565b610b10565b6000808651805187602083010193508088870111156109b75787860182525b505050602084015b602084106109f757805182526109d6602083610eaa565b91506109e3602082610eaa565b90506109f0602085610d84565b93506109bf565b51815160001960208690036101000a019081169019919091161790525083949350505050565b60408051808201909152606081526000602082015283602001518310610a5257610a5284856020015160026109939190610e8b565b8351805160208583010184815350808503610a6e576001810182525b5093949350505050565b6040805180820190915260608152600060208201526020850151610a9c8584610eaa565b1115610ab057610ab0856109888685610eaa565b60006001610ac084610100610e7f565b610aca9190610d84565b9050855183868201018583198251161781525080518487011115610aee5783860181525b509495945050505050565b600081831115610b0a575081610275565b50919050565b8151610b1c8383610747565b506107d183826108c1565b6040805160a0810182526000808252602080830182905282840182905260608084018390528451808601909552845283015290608082015290565b60008060408385031215610b7557600080fd5b50508035926020909101359150565b60008060408385031215610b9757600080fd5b82356001600160a01b0381168114610bae57600080fd5b915060208301356001600160e01b031981168114610bcb57600080fd5b809150509250929050565b600060208284031215610be857600080fd5b5035919050565b6000815180845260005b81811015610c1557602081850181015186830182015201610bf9565b81811115610c27576000602083870101525b50601f01601f19169290920160200192915050565b6020815260006103ab6020830184610bef565b634e487b7160e01b600052604160045260246000fd5b600060208284031215610c7757600080fd5b813567ffffffffffffffff80821115610c8f57600080fd5b818401915084601f830112610ca357600080fd5b813581811115610cb557610cb5610c4f565b604051601f8201601f19908116603f01168101908382118183101715610cdd57610cdd610c4f565b81604052828152876020848701011115610cf657600080fd5b826020860160208301376000928101602001929092525095945050505050565b634e487b7160e01b600052603260045260246000fd5b634e487b7160e01b600052601160045260246000fd5b600060ff821660ff8103610d5857610d58610d2c565b60010192915050565b600060ff821660ff841680821015610d7b57610d7b610d2c565b90039392505050565b600082821015610d9657610d96610d2c565b500390565b600181815b80851115610dd6578160001904821115610dbc57610dbc610d2c565b80851615610dc957918102915b93841c9390800290610da0565b509250929050565b600082610ded57506001610275565b81610dfa57506000610275565b8160018114610e105760028114610e1a57610e36565b6001915050610275565b60ff841115610e2b57610e2b610d2c565b50506001821b610275565b5060208310610133831016604e8410600b8410161715610e59575081810a610275565b610e638383610d9b565b8060001904821115610e7757610e77610d2c565b029392505050565b60006103ab8383610dde565b6000816000190483118215151615610ea557610ea5610d2c565b500290565b60008219821115610ebd57610ebd610d2c565b500190565b600060018201610ed457610ed4610d2c565b5060010190565b6001600160a01b0389811682526020820189905260408201889052861660608201526001600160e01b03198516608082015260a0810184905260c0810183905261010060e08201819052600090610f3483820185610bef565b9b9a5050505050505050505050565b60018060a01b03841681528260208201526060604082015260006104cd6060830184610bef565b600060208284031215610f7c57600080fd5b815180151581146103ab57600080fd5b600082610fa957634e487b7160e01b600052601260045260246000fd5b50069056fe68747470733a2f2f6665682d726573706c656e64656e742e6865726f6b756170702e636f6d2f636861726163746572732f6c61746573743f666f726d61743d6a736f6ea26469706673582212209c4496532069cb69f7e51af252978c2c08a332e3158424f9524b274c40414a4d64736f6c634300080d0033",
  "bytecodeSha1": "ba9128cfc588a698be86bde1592934f15d790b04",
  "compiler": {
    "evm_version": "istanbul",
    "optimizer": {
      "enabled": true,
      "runs": 200
    },
    "version": "0.8.13+commit.abaa5c0e"
  },
  "contractName": "APIConsumer",
  "language": "Solidity",
  "natspec": {
    "kind": "dev",
    "methods": {
      "constructor": {
        "notice": "Network: Kovan Oracle: 0xc57B33452b4F7BB189bB5AfaE9cc4aBa1f7a4FD8 (Chainlink Devrel    Node) Job ID: d5270d1c311941d0b08bead21fea7747 Fee: 0.1 LINK"
      },
      "fulfill(bytes32,bytes32)": {
        "notice": "Receive the response in the form of uint256"
      },
      "requestData(address,bytes4)": {
        "notice": "Create a Chainlink request to retrieve API response, find the target data, then multiply by 1000000000000000000 (to remove decimal places from data)."
      }
    },
    "notice": "THIS IS AN EXAMPLE CONTRACT WHICH USES HARDCODED VALUES FOR CLARITY. PLEASE DO NOT USE THIS CODE IN PRODUCTION.",
    "version": 1
  },
  "opcodes": "PUSH1 0x80 PUSH1 0x40 MSTORE CALLVALUE DUP1 ISZERO PUSH2 0x10 JUMPI PUSH1 0x0 DUP1 REVERT JUMPDEST POP PUSH1 0x4 CALLDATASIZE LT PUSH2 0x57 JUMPI PUSH1 0x0 CALLDATALOAD PUSH1 0xE0 SHR DUP1 PUSH4 0x42F2B65 EQ PUSH2 0x5C JUMPI DUP1 PUSH4 0x65FF1329 EQ PUSH2 0x71 JUMPI DUP1 PUSH4 0x9201DE55 EQ PUSH2 0x97 JUMPI DUP1 PUSH4 0xC5EF3EC5 EQ PUSH2 0xB7 JUMPI DUP1 PUSH4 0xDD151EC7 EQ PUSH2 0xDF JUMPI JUMPDEST PUSH1 0x0 DUP1 REVERT JUMPDEST PUSH2 0x6F PUSH2 0x6A CALLDATASIZE PUSH1 0x4 PUSH2 0xB62 JUMP JUMPDEST PUSH2 0xE8 JUMP JUMPDEST STOP JUMPDEST PUSH2 0x84 PUSH2 0x7F CALLDATASIZE PUSH1 0x4 PUSH2 0xB84 JUMP JUMPDEST PUSH2 0x1B0 JUMP JUMPDEST PUSH1 0x40 MLOAD SWAP1 DUP2 MSTORE PUSH1 0x20 ADD JUMPDEST PUSH1 0x40 MLOAD DUP1 SWAP2 SUB SWAP1 RETURN JUMPDEST PUSH2 0xAA PUSH2 0xA5 CALLDATASIZE PUSH1 0x4 PUSH2 0xBD6 JUMP JUMPDEST PUSH2 0x27B JUMP JUMPDEST PUSH1 0x40 MLOAD PUSH2 0x8E SWAP2 SWAP1 PUSH2 0xC3C JUMP JUMPDEST PUSH2 0xCA PUSH2 0xC5 CALLDATASIZE PUSH1 0x4 PUSH2 0xC65 JUMP JUMPDEST PUSH2 0x3B2 JUMP JUMPDEST PUSH1 0x40 DUP1 MLOAD SWAP3 DUP4 MSTORE SWAP1 ISZERO ISZERO PUSH1 0x20 DUP4 ADD MSTORE ADD PUSH2 0x8E JUMP JUMPDEST PUSH2 0x84 PUSH1 0x6 SLOAD DUP2 JUMP JUMPDEST PUSH1 0x0 DUP3 DUP2 MSTORE PUSH1 0x5 PUSH1 0x20 MSTORE PUSH1 0x40 SWAP1 KECCAK256 SLOAD DUP3 SWAP1 PUSH1 0x1 PUSH1 0x1 PUSH1 0xA0 SHL SUB AND CALLER EQ PUSH2 0x166 JUMPI PUSH1 0x40 MLOAD PUSH3 0x461BCD PUSH1 0xE5 SHL DUP2 MSTORE PUSH1 0x20 PUSH1 0x4 DUP3 ADD MSTORE PUSH1 0x28 PUSH1 0x24 DUP3 ADD MSTORE PUSH32 0x536F75726365206D75737420626520746865206F7261636C65206F6620746865 PUSH1 0x44 DUP3 ADD MSTORE PUSH8 0x81C995C5D595CDD PUSH1 0xC2 SHL PUSH1 0x64 DUP3 ADD MSTORE PUSH1 0x84 ADD JUMPDEST PUSH1 0x40 MLOAD DUP1 SWAP2 SUB SWAP1 REVERT JUMPDEST PUSH1 0x0 DUP2 DUP2 MSTORE PUSH1 0x5 PUSH1 0x20 MSTORE PUSH1 0x40 DUP1 DUP3 KECCAK256 DUP1 SLOAD PUSH1 0x1 PUSH1 0x1 PUSH1 0xA0 SHL SUB NOT AND SWAP1 SSTORE MLOAD DUP3 SWAP2 PUSH32 0x7CC135E0CEBB02C3480AE5D74D377283180A2601F8F644EDF7987B009316C63A SWAP2 LOG2 POP PUSH1 0x6 SSTORE POP JUMP JUMPDEST PUSH1 0x0 DUP1 PUSH2 0x1C0 PUSH1 0x8 SLOAD DUP6 DUP6 PUSH2 0x4B1 JUMP JUMPDEST SWAP1 POP PUSH2 0x202 PUSH1 0x40 MLOAD DUP1 PUSH1 0x40 ADD PUSH1 0x40 MSTORE DUP1 PUSH1 0x3 DUP2 MSTORE PUSH1 0x20 ADD PUSH3 0x19D95D PUSH1 0xEA SHL DUP2 MSTORE POP PUSH1 0x40 MLOAD DUP1 PUSH1 0x80 ADD PUSH1 0x40 MSTORE DUP1 PUSH1 0x43 DUP2 MSTORE PUSH1 0x20 ADD PUSH2 0xFAF PUSH1 0x43 SWAP2 CODECOPY DUP4 SWAP2 SWAP1 PUSH2 0x4D6 JUMP JUMPDEST PUSH2 0x256 PUSH1 0x40 MLOAD DUP1 PUSH1 0x40 ADD PUSH1 0x40 MSTORE DUP1 PUSH1 0x4 DUP2 MSTORE PUSH1 0x20 ADD PUSH4 0xE0C2E8D PUSH1 0xE3 SHL DUP2 MSTORE POP PUSH1 0x40 MLOAD DUP1 PUSH1 0x40 ADD PUSH1 0x40 MSTORE DUP1 PUSH1 0xB DUP2 MSTORE PUSH1 0x20 ADD PUSH11 0xE4CAC2D8DABED2DCC8CAF PUSH1 0xAB SHL DUP2 MSTORE POP DUP4 PUSH2 0x4D6 SWAP1 SWAP3 SWAP2 SWAP1 PUSH4 0xFFFFFFFF AND JUMP JUMPDEST PUSH1 0x7 SLOAD PUSH1 0x9 SLOAD PUSH2 0x271 SWAP2 PUSH1 0x1 PUSH1 0x1 PUSH1 0xA0 SHL SUB AND SWAP1 DUP4 SWAP1 PUSH2 0x4F9 JUMP JUMPDEST SWAP2 POP POP JUMPDEST SWAP3 SWAP2 POP POP JUMP JUMPDEST PUSH1 0x60 PUSH1 0x0 JUMPDEST PUSH1 0x20 DUP2 PUSH1 0xFF AND LT DUP1 ISZERO PUSH2 0x2B4 JUMPI POP DUP3 DUP2 PUSH1 0xFF AND PUSH1 0x20 DUP2 LT PUSH2 0x2A3 JUMPI PUSH2 0x2A3 PUSH2 0xD16 JUMP JUMPDEST BYTE PUSH1 0xF8 SHL PUSH1 0x1 PUSH1 0x1 PUSH1 0xF8 SHL SUB NOT AND ISZERO ISZERO JUMPDEST ISZERO PUSH2 0x2CB JUMPI DUP1 PUSH2 0x2C3 DUP2 PUSH2 0xD42 JUMP JUMPDEST SWAP2 POP POP PUSH2 0x280 JUMP JUMPDEST PUSH1 0x0 DUP2 PUSH1 0xFF AND PUSH8 0xFFFFFFFFFFFFFFFF DUP2 GT ISZERO PUSH2 0x2E9 JUMPI PUSH2 0x2E9 PUSH2 0xC4F JUMP JUMPDEST PUSH1 0x40 MLOAD SWAP1 DUP1 DUP3 MSTORE DUP1 PUSH1 0x1F ADD PUSH1 0x1F NOT AND PUSH1 0x20 ADD DUP3 ADD PUSH1 0x40 MSTORE DUP1 ISZERO PUSH2 0x313 JUMPI PUSH1 0x20 DUP3 ADD DUP2 DUP1 CALLDATASIZE DUP4 CALLDATACOPY ADD SWAP1 POP JUMPDEST POP SWAP1 POP PUSH1 0x0 SWAP2 POP JUMPDEST PUSH1 0x20 DUP3 PUSH1 0xFF AND LT DUP1 ISZERO PUSH2 0x34F JUMPI POP DUP4 DUP3 PUSH1 0xFF AND PUSH1 0x20 DUP2 LT PUSH2 0x33E JUMPI PUSH2 0x33E PUSH2 0xD16 JUMP JUMPDEST BYTE PUSH1 0xF8 SHL PUSH1 0x1 PUSH1 0x1 PUSH1 0xF8 SHL SUB NOT AND ISZERO ISZERO JUMPDEST ISZERO PUSH2 0x3AB JUMPI DUP4 DUP3 PUSH1 0xFF AND PUSH1 0x20 DUP2 LT PUSH2 0x369 JUMPI PUSH2 0x369 PUSH2 0xD16 JUMP JUMPDEST BYTE PUSH1 0xF8 SHL DUP2 DUP4 PUSH1 0xFF AND DUP2 MLOAD DUP2 LT PUSH2 0x382 JUMPI PUSH2 0x382 PUSH2 0xD16 JUMP JUMPDEST PUSH1 0x20 ADD ADD SWAP1 PUSH1 0x1 PUSH1 0x1 PUSH1 0xF8 SHL SUB NOT AND SWAP1 DUP2 PUSH1 0x0 BYTE SWAP1 MSTORE8 POP DUP2 PUSH2 0x3A3 DUP2 PUSH2 0xD42 JUMP JUMPDEST SWAP3 POP POP PUSH2 0x31B JUMP JUMPDEST SWAP4 SWAP3 POP POP POP JUMP JUMPDEST PUSH1 0x0 DUP1 PUSH1 0x0 JUMPDEST DUP4 MLOAD DUP2 LT ISZERO PUSH2 0x4A6 JUMPI PUSH1 0x0 PUSH1 0x30 DUP6 DUP4 DUP2 MLOAD DUP2 LT PUSH2 0x3D7 JUMPI PUSH2 0x3D7 PUSH2 0xD16 JUMP JUMPDEST ADD PUSH1 0x20 ADD MLOAD PUSH2 0x3E9 SWAP2 SWAP1 PUSH1 0xF8 SHR PUSH2 0xD61 JUMP JUMPDEST PUSH1 0xFF AND LT DUP1 PUSH2 0x420 JUMPI POP PUSH1 0x9 PUSH1 0x30 DUP6 DUP4 DUP2 MLOAD DUP2 LT PUSH2 0x409 JUMPI PUSH2 0x409 PUSH2 0xD16 JUMP JUMPDEST ADD PUSH1 0x20 ADD MLOAD PUSH2 0x41B SWAP2 SWAP1 PUSH1 0xF8 SHR PUSH2 0xD61 JUMP JUMPDEST PUSH1 0xFF AND GT JUMPDEST ISZERO PUSH2 0x431 JUMPI POP PUSH1 0x0 SWAP4 DUP5 SWAP4 POP SWAP2 POP POP JUMP JUMPDEST PUSH1 0x1 DUP2 DUP6 MLOAD PUSH2 0x440 SWAP2 SWAP1 PUSH2 0xD84 JUMP JUMPDEST PUSH2 0x44A SWAP2 SWAP1 PUSH2 0xD84 JUMP JUMPDEST PUSH2 0x455 SWAP1 PUSH1 0xA PUSH2 0xE7F JUMP JUMPDEST PUSH1 0x30 DUP6 DUP4 DUP2 MLOAD DUP2 LT PUSH2 0x469 JUMPI PUSH2 0x469 PUSH2 0xD16 JUMP JUMPDEST ADD PUSH1 0x20 ADD MLOAD PUSH2 0x47B SWAP2 SWAP1 PUSH1 0xF8 SHR PUSH2 0xD61 JUMP JUMPDEST PUSH1 0xFF AND PUSH2 0x488 SWAP2 SWAP1 PUSH2 0xE8B JUMP JUMPDEST PUSH2 0x492 SWAP1 DUP5 PUSH2 0xEAA JUMP JUMPDEST SWAP3 POP DUP1 PUSH2 0x49E DUP2 PUSH2 0xEC2 JUMP JUMPDEST SWAP2 POP POP PUSH2 0x3B8 JUMP JUMPDEST POP SWAP1 SWAP3 PUSH1 0x1 SWAP3 POP SWAP1 POP JUMP JUMPDEST PUSH2 0x4B9 PUSH2 0xB27 JUMP JUMPDEST PUSH2 0x4C1 PUSH2 0xB27 JUMP JUMPDEST PUSH2 0x4CD DUP2 DUP7 DUP7 DUP7 PUSH2 0x58C JUMP JUMPDEST SWAP6 SWAP5 POP POP POP POP POP JUMP JUMPDEST PUSH1 0x80 DUP4 ADD MLOAD PUSH2 0x4E5 SWAP1 DUP4 PUSH2 0x5D2 JUMP JUMPDEST PUSH1 0x80 DUP4 ADD MLOAD PUSH2 0x4F4 SWAP1 DUP3 PUSH2 0x5D2 JUMP JUMPDEST POP POP POP JUMP JUMPDEST PUSH1 0x4 SLOAD PUSH1 0x0 SWAP1 PUSH2 0x50A DUP2 PUSH1 0x1 PUSH2 0xEAA JUMP JUMPDEST PUSH1 0x4 SSTORE DUP4 MLOAD PUSH1 0x40 DUP1 DUP7 ADD MLOAD PUSH1 0x80 DUP8 ADD MLOAD MLOAD SWAP2 MLOAD PUSH1 0x0 SWAP4 PUSH4 0x20214CA3 PUSH1 0xE1 SHL SWAP4 PUSH2 0x542 SWAP4 DUP7 SWAP4 DUP5 SWAP4 SWAP3 ADDRESS SWAP3 SWAP2 DUP11 SWAP2 PUSH1 0x1 SWAP2 PUSH1 0x24 ADD PUSH2 0xEDB JUMP JUMPDEST PUSH1 0x40 DUP1 MLOAD PUSH1 0x1F NOT DUP2 DUP5 SUB ADD DUP2 MSTORE SWAP2 SWAP1 MSTORE PUSH1 0x20 DUP2 ADD DUP1 MLOAD PUSH1 0x1 PUSH1 0x1 PUSH1 0xE0 SHL SUB AND PUSH1 0x1 PUSH1 0x1 PUSH1 0xE0 SHL SUB NOT SWAP1 SWAP4 AND SWAP3 SWAP1 SWAP3 OR SWAP1 SWAP2 MSTORE SWAP1 POP PUSH2 0x582 DUP7 DUP4 DUP7 DUP5 PUSH2 0x5E9 JUMP JUMPDEST SWAP7 SWAP6 POP POP POP POP POP POP JUMP JUMPDEST PUSH2 0x594 PUSH2 0xB27 JUMP JUMPDEST PUSH2 0x5A4 DUP6 PUSH1 0x80 ADD MLOAD PUSH2 0x100 PUSH2 0x747 JUMP JUMPDEST POP POP DUP3 DUP5 MSTORE PUSH1 0x1 PUSH1 0x1 PUSH1 0xA0 SHL SUB DUP3 AND PUSH1 0x20 DUP6 ADD MSTORE PUSH1 0x1 PUSH1 0x1 PUSH1 0xE0 SHL SUB NOT DUP2 AND PUSH1 0x40 DUP6 ADD MSTORE DUP4 JUMPDEST SWAP5 SWAP4 POP POP POP POP JUMP JUMPDEST PUSH2 0x5DF DUP3 PUSH1 0x3 DUP4 MLOAD PUSH2 0x7AC JUMP JUMPDEST PUSH2 0x4F4 DUP3 DUP3 PUSH2 0x8C1 JUMP JUMPDEST PUSH1 0x40 MLOAD PUSH12 0xFFFFFFFFFFFFFFFFFFFFFFFF NOT ADDRESS PUSH1 0x60 SHL AND PUSH1 0x20 DUP3 ADD MSTORE PUSH1 0x34 DUP2 ADD DUP5 SWAP1 MSTORE PUSH1 0x0 SWAP1 PUSH1 0x54 ADD PUSH1 0x40 DUP1 MLOAD DUP1 DUP4 SUB PUSH1 0x1F NOT ADD DUP2 MSTORE DUP3 DUP3 MSTORE DUP1 MLOAD PUSH1 0x20 SWAP2 DUP3 ADD KECCAK256 PUSH1 0x0 DUP2 DUP2 MSTORE PUSH1 0x5 SWAP1 SWAP3 MSTORE SWAP2 DUP2 KECCAK256 DUP1 SLOAD PUSH1 0x1 PUSH1 0x1 PUSH1 0xA0 SHL SUB NOT AND PUSH1 0x1 PUSH1 0x1 PUSH1 0xA0 SHL SUB DUP11 AND OR SWAP1 SSTORE SWAP1 SWAP3 POP DUP3 SWAP2 PUSH32 0xB5E6E01E79F91267DC17B4E6314D5D4D03593D2CEEE0FBB452B750BD70EA5AF9 SWAP2 SWAP1 LOG2 PUSH1 0x2 SLOAD PUSH1 0x40 MLOAD PUSH4 0x2000575 PUSH1 0xE5 SHL DUP2 MSTORE PUSH1 0x1 PUSH1 0x1 PUSH1 0xA0 SHL SUB SWAP1 SWAP2 AND SWAP1 PUSH4 0x4000AEA0 SWAP1 PUSH2 0x6AC SWAP1 DUP9 SWAP1 DUP8 SWAP1 DUP8 SWAP1 PUSH1 0x4 ADD PUSH2 0xF43 JUMP JUMPDEST PUSH1 0x20 PUSH1 0x40 MLOAD DUP1 DUP4 SUB DUP2 PUSH1 0x0 DUP8 GAS CALL ISZERO DUP1 ISZERO PUSH2 0x6CB JUMPI RETURNDATASIZE PUSH1 0x0 DUP1 RETURNDATACOPY RETURNDATASIZE PUSH1 0x0 REVERT JUMPDEST POP POP POP POP PUSH1 0x40 MLOAD RETURNDATASIZE PUSH1 0x1F NOT PUSH1 0x1F DUP3 ADD AND DUP3 ADD DUP1 PUSH1 0x40 MSTORE POP DUP2 ADD SWAP1 PUSH2 0x6EF SWAP2 SWAP1 PUSH2 0xF6A JUMP JUMPDEST PUSH2 0x5CA JUMPI PUSH1 0x40 MLOAD PUSH3 0x461BCD PUSH1 0xE5 SHL DUP2 MSTORE PUSH1 0x20 PUSH1 0x4 DUP3 ADD MSTORE PUSH1 0x23 PUSH1 0x24 DUP3 ADD MSTORE PUSH32 0x756E61626C6520746F207472616E73666572416E6443616C6C20746F206F7261 PUSH1 0x44 DUP3 ADD MSTORE PUSH3 0x636C65 PUSH1 0xE8 SHL PUSH1 0x64 DUP3 ADD MSTORE PUSH1 0x84 ADD PUSH2 0x15D JUMP JUMPDEST PUSH1 0x40 DUP1 MLOAD DUP1 DUP3 ADD SWAP1 SWAP2 MSTORE PUSH1 0x60 DUP2 MSTORE PUSH1 0x0 PUSH1 0x20 DUP3 ADD MSTORE PUSH2 0x767 PUSH1 0x20 DUP4 PUSH2 0xF8C JUMP JUMPDEST ISZERO PUSH2 0x78F JUMPI PUSH2 0x777 PUSH1 0x20 DUP4 PUSH2 0xF8C JUMP JUMPDEST PUSH2 0x782 SWAP1 PUSH1 0x20 PUSH2 0xD84 JUMP JUMPDEST PUSH2 0x78C SWAP1 DUP4 PUSH2 0xEAA JUMP JUMPDEST SWAP2 POP JUMPDEST POP PUSH1 0x20 DUP3 DUP2 ADD DUP3 SWAP1 MSTORE PUSH1 0x40 DUP1 MLOAD DUP1 DUP6 MSTORE PUSH1 0x0 DUP2 MSTORE SWAP1 SWAP3 ADD ADD SWAP1 MSTORE SWAP1 JUMP JUMPDEST PUSH1 0x17 DUP2 PUSH8 0xFFFFFFFFFFFFFFFF AND GT PUSH2 0x7D7 JUMPI PUSH2 0x7D1 DUP4 PUSH1 0xE0 PUSH1 0x5 DUP6 SWAP1 SHL AND DUP4 OR PUSH2 0x8E8 JUMP JUMPDEST POP POP POP POP JUMP JUMPDEST PUSH1 0xFF DUP2 PUSH8 0xFFFFFFFFFFFFFFFF AND GT PUSH2 0x815 JUMPI PUSH2 0x7FE DUP4 PUSH1 0x18 PUSH2 0x1FE0 PUSH1 0x5 DUP7 SWAP1 SHL AND OR PUSH2 0x8E8 JUMP JUMPDEST POP PUSH2 0x7D1 DUP4 PUSH8 0xFFFFFFFFFFFFFFFF DUP4 AND PUSH1 0x1 PUSH2 0x90D JUMP JUMPDEST PUSH2 0xFFFF DUP2 PUSH8 0xFFFFFFFFFFFFFFFF AND GT PUSH2 0x854 JUMPI PUSH2 0x83D DUP4 PUSH1 0x19 PUSH2 0x1FE0 PUSH1 0x5 DUP7 SWAP1 SHL AND OR PUSH2 0x8E8 JUMP JUMPDEST POP PUSH2 0x7D1 DUP4 PUSH8 0xFFFFFFFFFFFFFFFF DUP4 AND PUSH1 0x2 PUSH2 0x90D JUMP JUMPDEST PUSH4 0xFFFFFFFF DUP2 PUSH8 0xFFFFFFFFFFFFFFFF AND GT PUSH2 0x895 JUMPI PUSH2 0x87E DUP4 PUSH1 0x1A PUSH2 0x1FE0 PUSH1 0x5 DUP7 SWAP1 SHL AND OR PUSH2 0x8E8 JUMP JUMPDEST POP PUSH2 0x7D1 DUP4 PUSH8 0xFFFFFFFFFFFFFFFF DUP4 AND PUSH1 0x4 PUSH2 0x90D JUMP JUMPDEST PUSH2 0x8AA DUP4 PUSH1 0x1B PUSH2 0x1FE0 PUSH1 0x5 DUP7 SWAP1 SHL AND OR PUSH2 0x8E8 JUMP JUMPDEST POP PUSH2 0x7D1 DUP4 PUSH8 0xFFFFFFFFFFFFFFFF DUP4 AND PUSH1 0x8 PUSH2 0x90D JUMP JUMPDEST PUSH1 0x40 DUP1 MLOAD DUP1 DUP3 ADD SWAP1 SWAP2 MSTORE PUSH1 0x60 DUP2 MSTORE PUSH1 0x0 PUSH1 0x20 DUP3 ADD MSTORE PUSH2 0x3AB DUP4 DUP5 PUSH1 0x0 ADD MLOAD MLOAD DUP5 DUP6 MLOAD PUSH2 0x933 JUMP JUMPDEST PUSH1 0x40 DUP1 MLOAD DUP1 DUP3 ADD SWAP1 SWAP2 MSTORE PUSH1 0x60 DUP2 MSTORE PUSH1 0x0 PUSH1 0x20 DUP3 ADD MSTORE PUSH2 0x3AB DUP4 DUP5 PUSH1 0x0 ADD MLOAD MLOAD DUP5 PUSH2 0xA1D JUMP JUMPDEST PUSH1 0x40 DUP1 MLOAD DUP1 DUP3 ADD SWAP1 SWAP2 MSTORE PUSH1 0x60 DUP2 MSTORE PUSH1 0x0 PUSH1 0x20 DUP3 ADD MSTORE PUSH2 0x5CA DUP5 DUP6 PUSH1 0x0 ADD MLOAD MLOAD DUP6 DUP6 PUSH2 0xA78 JUMP JUMPDEST PUSH1 0x40 DUP1 MLOAD DUP1 DUP3 ADD SWAP1 SWAP2 MSTORE PUSH1 0x60 DUP2 MSTORE PUSH1 0x0 PUSH1 0x20 DUP3 ADD MSTORE DUP3 MLOAD DUP3 GT ISZERO PUSH2 0x956 JUMPI PUSH1 0x0 DUP1 REVERT JUMPDEST PUSH1 0x20 DUP6 ADD MLOAD PUSH2 0x965 DUP4 DUP7 PUSH2 0xEAA JUMP JUMPDEST GT ISZERO PUSH2 0x998 JUMPI PUSH2 0x998 DUP6 PUSH2 0x988 DUP8 PUSH1 0x20 ADD MLOAD DUP8 DUP7 PUSH2 0x983 SWAP2 SWAP1 PUSH2 0xEAA JUMP JUMPDEST PUSH2 0xAF9 JUMP JUMPDEST PUSH2 0x993 SWAP1 PUSH1 0x2 PUSH2 0xE8B JUMP JUMPDEST PUSH2 0xB10 JUMP JUMPDEST PUSH1 0x0 DUP1 DUP7 MLOAD DUP1 MLOAD DUP8 PUSH1 0x20 DUP4 ADD ADD SWAP4 POP DUP1 DUP9 DUP8 ADD GT ISZERO PUSH2 0x9B7 JUMPI DUP8 DUP7 ADD DUP3 MSTORE JUMPDEST POP POP POP PUSH1 0x20 DUP5 ADD JUMPDEST PUSH1 0x20 DUP5 LT PUSH2 0x9F7 JUMPI DUP1 MLOAD DUP3 MSTORE PUSH2 0x9D6 PUSH1 0x20 DUP4 PUSH2 0xEAA JUMP JUMPDEST SWAP2 POP PUSH2 0x9E3 PUSH1 0x20 DUP3 PUSH2 0xEAA JUMP JUMPDEST SWAP1 POP PUSH2 0x9F0 PUSH1 0x20 DUP6 PUSH2 0xD84 JUMP JUMPDEST SWAP4 POP PUSH2 0x9BF JUMP JUMPDEST MLOAD DUP2 MLOAD PUSH1 0x0 NOT PUSH1 0x20 DUP7 SWAP1 SUB PUSH2 0x100 EXP ADD SWAP1 DUP2 AND SWAP1 NOT SWAP2 SWAP1 SWAP2 AND OR SWAP1 MSTORE POP DUP4 SWAP5 SWAP4 POP POP POP POP JUMP JUMPDEST PUSH1 0x40 DUP1 MLOAD DUP1 DUP3 ADD SWAP1 SWAP2 MSTORE PUSH1 0x60 DUP2 MSTORE PUSH1 0x0 PUSH1 0x20 DUP3 ADD MSTORE DUP4 PUSH1 0x20 ADD MLOAD DUP4 LT PUSH2 0xA52 JUMPI PUSH2 0xA52 DUP5 DUP6 PUSH1 0x20 ADD MLOAD PUSH1 0x2 PUSH2 0x993 SWAP2 SWAP1 PUSH2 0xE8B JUMP JUMPDEST DUP4 MLOAD DUP1 MLOAD PUSH1 0x20 DUP6 DUP4 ADD ADD DUP5 DUP2 MSTORE8 POP DUP1 DUP6 SUB PUSH2 0xA6E JUMPI PUSH1 0x1 DUP2 ADD DUP3 MSTORE JUMPDEST POP SWAP4 SWAP5 SWAP4 POP POP POP POP JUMP JUMPDEST PUSH1 0x40 DUP1 MLOAD DUP1 DUP3 ADD SWAP1 SWAP2 MSTORE PUSH1 0x60 DUP2 MSTORE PUSH1 0x0 PUSH1 0x20 DUP3 ADD MSTORE PUSH1 0x20 DUP6 ADD MLOAD PUSH2 0xA9C DUP6 DUP5 PUSH2 0xEAA JUMP JUMPDEST GT ISZERO PUSH2 0xAB0 JUMPI PUSH2 0xAB0 DUP6 PUSH2 0x988 DUP7 DUP6 PUSH2 0xEAA JUMP JUMPDEST PUSH1 0x0 PUSH1 0x1 PUSH2 0xAC0 DUP5 PUSH2 0x100 PUSH2 0xE7F JUMP JUMPDEST PUSH2 0xACA SWAP2 SWAP1 PUSH2 0xD84 JUMP JUMPDEST SWAP1 POP DUP6 MLOAD DUP4 DUP7 DUP3 ADD ADD DUP6 DUP4 NOT DUP3 MLOAD AND OR DUP2 MSTORE POP DUP1 MLOAD DUP5 DUP8 ADD GT ISZERO PUSH2 0xAEE JUMPI DUP4 DUP7 ADD DUP2 MSTORE JUMPDEST POP SWAP5 SWAP6 SWAP5 POP POP POP POP POP JUMP JUMPDEST PUSH1 0x0 DUP2 DUP4 GT ISZERO PUSH2 0xB0A JUMPI POP DUP2 PUSH2 0x275 JUMP JUMPDEST POP SWAP2 SWAP1 POP JUMP JUMPDEST DUP2 MLOAD PUSH2 0xB1C DUP4 DUP4 PUSH2 0x747 JUMP JUMPDEST POP PUSH2 0x7D1 DUP4 DUP3 PUSH2 0x8C1 JUMP JUMPDEST PUSH1 0x40 DUP1 MLOAD PUSH1 0xA0 DUP2 ADD DUP3 MSTORE PUSH1 0x0 DUP1 DUP3 MSTORE PUSH1 0x20 DUP1 DUP4 ADD DUP3 SWAP1 MSTORE DUP3 DUP5 ADD DUP3 SWAP1 MSTORE PUSH1 0x60 DUP1 DUP5 ADD DUP4 SWAP1 MSTORE DUP5 MLOAD DUP1 DUP7 ADD SWAP1 SWAP6 MSTORE DUP5 MSTORE DUP4 ADD MSTORE SWAP1 PUSH1 0x80 DUP3 ADD MSTORE SWAP1 JUMP JUMPDEST PUSH1 0x0 DUP1 PUSH1 0x40 DUP4 DUP6 SUB SLT ISZERO PUSH2 0xB75 JUMPI PUSH1 0x0 DUP1 REVERT JUMPDEST POP POP DUP1 CALLDATALOAD SWAP3 PUSH1 0x20 SWAP1 SWAP2 ADD CALLDATALOAD SWAP2 POP JUMP JUMPDEST PUSH1 0x0 DUP1 PUSH1 0x40 DUP4 DUP6 SUB SLT ISZERO PUSH2 0xB97 JUMPI PUSH1 0x0 DUP1 REVERT JUMPDEST DUP3 CALLDATALOAD PUSH1 0x1 PUSH1 0x1 PUSH1 0xA0 SHL SUB DUP2 AND DUP2 EQ PUSH2 0xBAE JUMPI PUSH1 0x0 DUP1 REVERT JUMPDEST SWAP2 POP PUSH1 0x20 DUP4 ADD CALLDATALOAD PUSH1 0x1 PUSH1 0x1 PUSH1 0xE0 SHL SUB NOT DUP2 AND DUP2 EQ PUSH2 0xBCB JUMPI PUSH1 0x0 DUP1 REVERT JUMPDEST DUP1 SWAP2 POP POP SWAP3 POP SWAP3 SWAP1 POP JUMP JUMPDEST PUSH1 0x0 PUSH1 0x20 DUP3 DUP5 SUB SLT ISZERO PUSH2 0xBE8 JUMPI PUSH1 0x0 DUP1 REVERT JUMPDEST POP CALLDATALOAD SWAP2 SWAP1 POP JUMP JUMPDEST PUSH1 0x0 DUP2 MLOAD DUP1 DUP5 MSTORE PUSH1 0x0 JUMPDEST DUP2 DUP2 LT ISZERO PUSH2 0xC15 JUMPI PUSH1 0x20 DUP2 DUP6 ADD DUP2 ADD MLOAD DUP7 DUP4 ADD DUP3 ADD MSTORE ADD PUSH2 0xBF9 JUMP JUMPDEST DUP2 DUP2 GT ISZERO PUSH2 0xC27 JUMPI PUSH1 0x0 PUSH1 0x20 DUP4 DUP8 ADD ADD MSTORE JUMPDEST POP PUSH1 0x1F ADD PUSH1 0x1F NOT AND SWAP3 SWAP1 SWAP3 ADD PUSH1 0x20 ADD SWAP3 SWAP2 POP POP JUMP JUMPDEST PUSH1 0x20 DUP2 MSTORE PUSH1 0x0 PUSH2 0x3AB PUSH1 0x20 DUP4 ADD DUP5 PUSH2 0xBEF JUMP JUMPDEST PUSH4 0x4E487B71 PUSH1 0xE0 SHL PUSH1 0x0 MSTORE PUSH1 0x41 PUSH1 0x4 MSTORE PUSH1 0x24 PUSH1 0x0 REVERT JUMPDEST PUSH1 0x0 PUSH1 0x20 DUP3 DUP5 SUB SLT ISZERO PUSH2 0xC77 JUMPI PUSH1 0x0 DUP1 REVERT JUMPDEST DUP2 CALLDATALOAD PUSH8 0xFFFFFFFFFFFFFFFF DUP1 DUP3 GT ISZERO PUSH2 0xC8F JUMPI PUSH1 0x0 DUP1 REVERT JUMPDEST DUP2 DUP5 ADD SWAP2 POP DUP5 PUSH1 0x1F DUP4 ADD SLT PUSH2 0xCA3 JUMPI PUSH1 0x0 DUP1 REVERT JUMPDEST DUP2 CALLDATALOAD DUP2 DUP2 GT ISZERO PUSH2 0xCB5 JUMPI PUSH2 0xCB5 PUSH2 0xC4F JUMP JUMPDEST PUSH1 0x40 MLOAD PUSH1 0x1F DUP3 ADD PUSH1 0x1F NOT SWAP1 DUP2 AND PUSH1 0x3F ADD AND DUP2 ADD SWAP1 DUP4 DUP3 GT DUP2 DUP4 LT OR ISZERO PUSH2 0xCDD JUMPI PUSH2 0xCDD PUSH2 0xC4F JUMP JUMPDEST DUP2 PUSH1 0x40 MSTORE DUP3 DUP2 MSTORE DUP8 PUSH1 0x20 DUP5 DUP8 ADD ADD GT ISZERO PUSH2 0xCF6 JUMPI PUSH1 0x0 DUP1 REVERT JUMPDEST DUP3 PUSH1 0x20 DUP7 ADD PUSH1 0x20 DUP4 ADD CALLDATACOPY PUSH1 0x0 SWAP3 DUP2 ADD PUSH1 0x20 ADD SWAP3 SWAP1 SWAP3 MSTORE POP SWAP6 SWAP5 POP POP POP POP POP JUMP JUMPDEST PUSH4 0x4E487B71 PUSH1 0xE0 SHL PUSH1 0x0 MSTORE PUSH1 0x32 PUSH1 0x4 MSTORE PUSH1 0x24 PUSH1 0x0 REVERT JUMPDEST PUSH4 0x4E487B71 PUSH1 0xE0 SHL PUSH1 0x0 MSTORE PUSH1 0x11 PUSH1 0x4 MSTORE PUSH1 0x24 PUSH1 0x0 REVERT JUMPDEST PUSH1 0x0 PUSH1 0xFF DUP3 AND PUSH1 0xFF DUP2 SUB PUSH2 0xD58 JUMPI PUSH2 0xD58 PUSH2 0xD2C JUMP JUMPDEST PUSH1 0x1 ADD SWAP3 SWAP2 POP POP JUMP JUMPDEST PUSH1 0x0 PUSH1 0xFF DUP3 AND PUSH1 0xFF DUP5 AND DUP1 DUP3 LT ISZERO PUSH2 0xD7B JUMPI PUSH2 0xD7B PUSH2 0xD2C JUMP JUMPDEST SWAP1 SUB SWAP4 SWAP3 POP POP POP JUMP JUMPDEST PUSH1 0x0 DUP3 DUP3 LT ISZERO PUSH2 0xD96 JUMPI PUSH2 0xD96 PUSH2 0xD2C JUMP JUMPDEST POP SUB SWAP1 JUMP JUMPDEST PUSH1 0x1 DUP2 DUP2 JUMPDEST DUP1 DUP6 GT ISZERO PUSH2 0xDD6 JUMPI DUP2 PUSH1 0x0 NOT DIV DUP3 GT ISZERO PUSH2 0xDBC JUMPI PUSH2 0xDBC PUSH2 0xD2C JUMP JUMPDEST DUP1 DUP6 AND ISZERO PUSH2 0xDC9 JUMPI SWAP2 DUP2 MUL SWAP2 JUMPDEST SWAP4 DUP5 SHR SWAP4 SWAP1 DUP1 MUL SWAP1 PUSH2 0xDA0 JUMP JUMPDEST POP SWAP3 POP SWAP3 SWAP1 POP JUMP JUMPDEST PUSH1 0x0 DUP3 PUSH2 0xDED JUMPI POP PUSH1 0x1 PUSH2 0x275 JUMP JUMPDEST DUP2 PUSH2 0xDFA JUMPI POP PUSH1 0x0 PUSH2 0x275 JUMP JUMPDEST DUP2 PUSH1 0x1 DUP2 EQ PUSH2 0xE10 JUMPI PUSH1 0x2 DUP2 EQ PUSH2 0xE1A JUMPI PUSH2 0xE36 JUMP JUMPDEST PUSH1 0x1 SWAP2 POP POP PUSH2 0x275 JUMP JUMPDEST PUSH1 0xFF DUP5 GT ISZERO PUSH2 0xE2B JUMPI PUSH2 0xE2B PUSH2 0xD2C JUMP JUMPDEST POP POP PUSH1 0x1 DUP3 SHL PUSH2 0x275 JUMP JUMPDEST POP PUSH1 0x20 DUP4 LT PUSH2 0x133 DUP4 LT AND PUSH1 0x4E DUP5 LT PUSH1 0xB DUP5 LT AND OR ISZERO PUSH2 0xE59 JUMPI POP DUP2 DUP2 EXP PUSH2 0x275 JUMP JUMPDEST PUSH2 0xE63 DUP4 DUP4 PUSH2 0xD9B JUMP JUMPDEST DUP1 PUSH1 0x0 NOT DIV DUP3 GT ISZERO PUSH2 0xE77 JUMPI PUSH2 0xE77 PUSH2 0xD2C JUMP JUMPDEST MUL SWAP4 SWAP3 POP POP POP JUMP JUMPDEST PUSH1 0x0 PUSH2 0x3AB DUP4 DUP4 PUSH2 0xDDE JUMP JUMPDEST PUSH1 0x0 DUP2 PUSH1 0x0 NOT DIV DUP4 GT DUP3 ISZERO ISZERO AND ISZERO PUSH2 0xEA5 JUMPI PUSH2 0xEA5 PUSH2 0xD2C JUMP JUMPDEST POP MUL SWAP1 JUMP JUMPDEST PUSH1 0x0 DUP3 NOT DUP3 GT ISZERO PUSH2 0xEBD JUMPI PUSH2 0xEBD PUSH2 0xD2C JUMP JUMPDEST POP ADD SWAP1 JUMP JUMPDEST PUSH1 0x0 PUSH1 0x1 DUP3 ADD PUSH2 0xED4 JUMPI PUSH2 0xED4 PUSH2 0xD2C JUMP JUMPDEST POP PUSH1 0x1 ADD SWAP1 JUMP JUMPDEST PUSH1 0x1 PUSH1 0x1 PUSH1 0xA0 SHL SUB DUP10 DUP2 AND DUP3 MSTORE PUSH1 0x20 DUP3 ADD DUP10 SWAP1 MSTORE PUSH1 0x40 DUP3 ADD DUP9 SWAP1 MSTORE DUP7 AND PUSH1 0x60 DUP3 ADD MSTORE PUSH1 0x1 PUSH1 0x1 PUSH1 0xE0 SHL SUB NOT DUP6 AND PUSH1 0x80 DUP3 ADD MSTORE PUSH1 0xA0 DUP2 ADD DUP5 SWAP1 MSTORE PUSH1 0xC0 DUP2 ADD DUP4 SWAP1 MSTORE PUSH2 0x100 PUSH1 0xE0 DUP3 ADD DUP2 SWAP1 MSTORE PUSH1 0x0 SWAP1 PUSH2 0xF34 DUP4 DUP3 ADD DUP6 PUSH2 0xBEF JUMP JUMPDEST SWAP12 SWAP11 POP POP POP POP POP POP POP POP POP POP POP JUMP JUMPDEST PUSH1 0x1 DUP1 PUSH1 0xA0 SHL SUB DUP5 AND DUP2 MSTORE DUP3 PUSH1 0x20 DUP3 ADD MSTORE PUSH1 0x60 PUSH1 0x40 DUP3 ADD MSTORE PUSH1 0x0 PUSH2 0x4CD PUSH1 0x60 DUP4 ADD DUP5 PUSH2 0xBEF JUMP JUMPDEST PUSH1 0x0 PUSH1 0x20 DUP3 DUP5 SUB SLT ISZERO PUSH2 0xF7C JUMPI PUSH1 0x0 DUP1 REVERT JUMPDEST DUP2 MLOAD DUP1 ISZERO ISZERO DUP2 EQ PUSH2 0x3AB JUMPI PUSH1 0x0 DUP1 REVERT JUMPDEST PUSH1 0x0 DUP3 PUSH2 0xFA9 JUMPI PUSH4 0x4E487B71 PUSH1 0xE0 SHL PUSH1 0x0 MSTORE PUSH1 0x12 PUSH1 0x4 MSTORE PUSH1 0x24 PUSH1 0x0 REVERT JUMPDEST POP MOD SWAP1 JUMP INVALID PUSH9 0x747470733A2F2F6665 PUSH9 0x2D726573706C656E64 PUSH6 0x6E742E686572 PUSH16 0x6B756170702E636F6D2F636861726163 PUSH21 0x6572732F6C61746573743F666F726D61743D6A736F PUSH15 0xA26469706673582212209C44965320 PUSH10 0xCB69F7E51AF252978C2C ADDMOD LOG3 ORIGIN 0xE3 ISZERO DUP5 0x24 0xF9 MSTORE 0x4B 0x27 0x4C BLOCKHASH COINBASE 0x4A 0x4D PUSH5 0x736F6C6343 STOP ADDMOD 0xD STOP CALLER ",
  "sha1": "21c82c2e7f287690b2430d2f5511d576ac00a713",
  "source": "// SPDX-License-Identifier: MIT\npragma solidity ^0.8.7;\n\nimport \"@chainlink/contracts/src/v0.8/ChainlinkClient.sol\";\n\n/**\n * Request testnet LINK and ETH here: https://faucets.chain.link/\n * Find information on LINK Token Contracts and get the latest ETH and LINK faucets here: https://docs.chain.link/docs/link-token-contracts/\n */\n\n/**\n * THIS IS AN EXAMPLE CONTRACT WHICH USES HARDCODED VALUES FOR CLARITY.\n * PLEASE DO NOT USE THIS CODE IN PRODUCTION.\n */\ncontract APIConsumer is ChainlinkClient {\n    using Chainlink for Chainlink.Request;\n  \n    bytes32 public api_data;\n    address private oracle;\n    bytes32 private jobId;\n    uint256 private fee;\n    \n    /**\n     * Network: Kovan\n     * Oracle: 0xc57B33452b4F7BB189bB5AfaE9cc4aBa1f7a4FD8 (Chainlink Devrel   \n     * Node)\n     * Job ID: d5270d1c311941d0b08bead21fea7747\n     * Fee: 0.1 LINK\n     */\n    constructor() {\n        setPublicChainlinkToken();\n        oracle = 0x3A56aE4a2831C3d3514b5D7Af5578E45eBDb7a40; // LinkRiver Rinkeby\n        jobId = \"2e8c6b68ff064d32af9b1019d5d59bad\"; //HTTPGET > Bytes32!!!\n        fee = 0.1 * 10 ** 18; // (Varies by network and job)\n    }\n    \n    /**\n     * Create a Chainlink request to retrieve API response, find the target\n     * data, then multiply by 1000000000000000000 (to remove decimal places from data).\n     */\n    function requestData(address callBackContract, bytes4 functionSelector) public returns (bytes32 requestId) \n    {\n        Chainlink.Request memory request = buildChainlinkRequest(jobId, callBackContract, functionSelector);\n        \n        // Set the URL to perform the GET request on\n        request.add(\"get\", \"https://feh-resplendent.herokuapp.com/characters/latest?format=json\");\n        \n        // Set the path to find the desired data in the API response, where the response format is:\n        // {\"RAW\":\n        //   {\"ETH\":\n        //    {\"USD\":\n        //     {\n        //      \"VOLUME24HOUR\": xxx.xxx,\n        //     }\n        //    }\n        //   }\n        //  }\n\n        // old link: https://feh-resplendent-api.herokuapp.com/resplendents/latest\n        // with old link it would be: request.add(\"path\", \"theme.1\");\n\n\n        request.add(\"path\", \"realm_index\");\n        \n        // Multiply the result by 1000000000000000000 to remove decimals\n        //int timesAmount = 10**18;\n        //request.addInt(\"times\", timesAmount);\n        \n        // Sends the request\n        return sendChainlinkRequestTo(oracle, request, fee);\n    }\n    \n    /**\n     * Receive the response in the form of uint256\n     */ \n    function fulfill(bytes32 _requestId, bytes32 _api_data) public recordChainlinkFulfillment(_requestId)\n    {\n        api_data = _api_data;\n    }\n\n    function bytes32ToString(bytes32 _bytes32) public pure returns (string memory) {\n        uint8 i = 0;\n        while(i < 32 && _bytes32[i] != 0) {\n            i++;\n        }\n        bytes memory bytesArray = new bytes(i);\n        for (i = 0; i < 32 && _bytes32[i] != 0; i++) {\n            bytesArray[i] = _bytes32[i];\n        }\n        return string(bytesArray);\n    }\n\n    function strToUint(string memory _str) public pure returns(uint256 res, bool err) {\n    for (uint256 i = 0; i < bytes(_str).length; i++) {\n        if ((uint8(bytes(_str)[i]) - 48) < 0 || (uint8(bytes(_str)[i]) - 48) > 9) {\n            return (0, false);\n        }\n        res += (uint8(bytes(_str)[i]) - 48) * 10**(bytes(_str).length - i - 1);\n    }\n    return (res, true);\n}\n\n    // function withdrawLink() external {} - Implement a withdraw function to avoid locking your LINK in the contract\n}\n\n",
  "sourcePath": "contracts/APIConsumer.sol",
  "type": "contract"
}